{
  "contracts/Epic.sol": {
    "EpicGame": {
      "abi": [
        {
          "inputs": [
            {
              "internalType": "string[]",
              "name": "memeNames",
              "type": "string[]"
            },
            {
              "internalType": "string[]",
              "name": "memeImageURIs",
              "type": "string[]"
            },
            {
              "internalType": "uint256[]",
              "name": "memeDp",
              "type": "uint256[]"
            },
            {
              "internalType": "uint256[]",
              "name": "memeDps",
              "type": "uint256[]"
            },
            {
              "internalType": "string",
              "name": "bossName",
              "type": "string"
            },
            {
              "internalType": "string",
              "name": "bossImgURI",
              "type": "string"
            },
            {
              "internalType": "uint256",
              "name": "bossDp",
              "type": "uint256"
            },
            {
              "internalType": "uint256",
              "name": "bossDps",
              "type": "uint256"
            }
          ],
          "stateMutability": "nonpayable",
          "type": "constructor"
        },
        {
          "anonymous": false,
          "inputs": [
            {
              "indexed": true,
              "internalType": "address",
              "name": "owner",
              "type": "address"
            },
            {
              "indexed": true,
              "internalType": "address",
              "name": "approved",
              "type": "address"
            },
            {
              "indexed": true,
              "internalType": "uint256",
              "name": "tokenId",
              "type": "uint256"
            }
          ],
          "name": "Approval",
          "type": "event"
        },
        {
          "anonymous": false,
          "inputs": [
            {
              "indexed": true,
              "internalType": "address",
              "name": "owner",
              "type": "address"
            },
            {
              "indexed": true,
              "internalType": "address",
              "name": "operator",
              "type": "address"
            },
            {
              "indexed": false,
              "internalType": "bool",
              "name": "approved",
              "type": "bool"
            }
          ],
          "name": "ApprovalForAll",
          "type": "event"
        },
        {
          "anonymous": false,
          "inputs": [
            {
              "indexed": false,
              "internalType": "address",
              "name": "sender",
              "type": "address"
            },
            {
              "indexed": false,
              "internalType": "uint256",
              "name": "newBossHp",
              "type": "uint256"
            },
            {
              "indexed": false,
              "internalType": "uint256",
              "name": "newPlayerHp",
              "type": "uint256"
            }
          ],
          "name": "AttackComplete",
          "type": "event"
        },
        {
          "anonymous": false,
          "inputs": [
            {
              "indexed": true,
              "internalType": "address",
              "name": "from",
              "type": "address"
            },
            {
              "indexed": true,
              "internalType": "address",
              "name": "to",
              "type": "address"
            },
            {
              "indexed": true,
              "internalType": "uint256",
              "name": "tokenId",
              "type": "uint256"
            }
          ],
          "name": "Transfer",
          "type": "event"
        },
        {
          "anonymous": false,
          "inputs": [
            {
              "indexed": false,
              "internalType": "address",
              "name": "sender",
              "type": "address"
            },
            {
              "indexed": false,
              "internalType": "uint256",
              "name": "tokId",
              "type": "uint256"
            },
            {
              "indexed": false,
              "internalType": "uint256",
              "name": "charInd",
              "type": "uint256"
            }
          ],
          "name": "memeMinted",
          "type": "event"
        },
        {
          "inputs": [
            {
              "internalType": "address",
              "name": "to",
              "type": "address"
            },
            {
              "internalType": "uint256",
              "name": "tokenId",
              "type": "uint256"
            }
          ],
          "name": "approve",
          "outputs": [],
          "stateMutability": "nonpayable",
          "type": "function"
        },
        {
          "inputs": [],
          "name": "attackBoss",
          "outputs": [],
          "stateMutability": "nonpayable",
          "type": "function"
        },
        {
          "inputs": [
            {
              "internalType": "address",
              "name": "owner",
              "type": "address"
            }
          ],
          "name": "balanceOf",
          "outputs": [
            {
              "internalType": "uint256",
              "name": "",
              "type": "uint256"
            }
          ],
          "stateMutability": "view",
          "type": "function"
        },
        {
          "inputs": [],
          "name": "boss",
          "outputs": [
            {
              "internalType": "string",
              "name": "name",
              "type": "string"
            },
            {
              "internalType": "string",
              "name": "imageURI",
              "type": "string"
            },
            {
              "internalType": "uint256",
              "name": "dp",
              "type": "uint256"
            },
            {
              "internalType": "uint256",
              "name": "dps",
              "type": "uint256"
            }
          ],
          "stateMutability": "view",
          "type": "function"
        },
        {
          "inputs": [],
          "name": "getAllMemeLords",
          "outputs": [
            {
              "components": [
                {
                  "internalType": "uint256",
                  "name": "uniqueId",
                  "type": "uint256"
                },
                {
                  "internalType": "string",
                  "name": "name",
                  "type": "string"
                },
                {
                  "internalType": "string",
                  "name": "imageURI",
                  "type": "string"
                },
                {
                  "internalType": "uint256",
                  "name": "dp",
                  "type": "uint256"
                },
                {
                  "internalType": "uint256",
                  "name": "maxDp",
                  "type": "uint256"
                },
                {
                  "internalType": "uint256",
                  "name": "dps",
                  "type": "uint256"
                }
              ],
              "internalType": "struct EpicGame.memeAttributes[]",
              "name": "",
              "type": "tuple[]"
            }
          ],
          "stateMutability": "view",
          "type": "function"
        },
        {
          "inputs": [
            {
              "internalType": "uint256",
              "name": "tokenId",
              "type": "uint256"
            }
          ],
          "name": "getApproved",
          "outputs": [
            {
              "internalType": "address",
              "name": "",
              "type": "address"
            }
          ],
          "stateMutability": "view",
          "type": "function"
        },
        {
          "inputs": [],
          "name": "getBoss",
          "outputs": [
            {
              "components": [
                {
                  "internalType": "string",
                  "name": "name",
                  "type": "string"
                },
                {
                  "internalType": "string",
                  "name": "imageURI",
                  "type": "string"
                },
                {
                  "internalType": "uint256",
                  "name": "dp",
                  "type": "uint256"
                },
                {
                  "internalType": "uint256",
                  "name": "dps",
                  "type": "uint256"
                }
              ],
              "internalType": "struct EpicGame.Boss",
              "name": "",
              "type": "tuple"
            }
          ],
          "stateMutability": "view",
          "type": "function"
        },
        {
          "inputs": [
            {
              "internalType": "address",
              "name": "owner",
              "type": "address"
            },
            {
              "internalType": "address",
              "name": "operator",
              "type": "address"
            }
          ],
          "name": "isApprovedForAll",
          "outputs": [
            {
              "internalType": "bool",
              "name": "",
              "type": "bool"
            }
          ],
          "stateMutability": "view",
          "type": "function"
        },
        {
          "inputs": [],
          "name": "isUserMemer",
          "outputs": [
            {
              "components": [
                {
                  "internalType": "uint256",
                  "name": "uniqueId",
                  "type": "uint256"
                },
                {
                  "internalType": "string",
                  "name": "name",
                  "type": "string"
                },
                {
                  "internalType": "string",
                  "name": "imageURI",
                  "type": "string"
                },
                {
                  "internalType": "uint256",
                  "name": "dp",
                  "type": "uint256"
                },
                {
                  "internalType": "uint256",
                  "name": "maxDp",
                  "type": "uint256"
                },
                {
                  "internalType": "uint256",
                  "name": "dps",
                  "type": "uint256"
                }
              ],
              "internalType": "struct EpicGame.memeAttributes",
              "name": "",
              "type": "tuple"
            }
          ],
          "stateMutability": "view",
          "type": "function"
        },
        {
          "inputs": [
            {
              "internalType": "uint256",
              "name": "",
              "type": "uint256"
            }
          ],
          "name": "memeCarryByToken",
          "outputs": [
            {
              "internalType": "uint256",
              "name": "uniqueId",
              "type": "uint256"
            },
            {
              "internalType": "string",
              "name": "name",
              "type": "string"
            },
            {
              "internalType": "string",
              "name": "imageURI",
              "type": "string"
            },
            {
              "internalType": "uint256",
              "name": "dp",
              "type": "uint256"
            },
            {
              "internalType": "uint256",
              "name": "maxDp",
              "type": "uint256"
            },
            {
              "internalType": "uint256",
              "name": "dps",
              "type": "uint256"
            }
          ],
          "stateMutability": "view",
          "type": "function"
        },
        {
          "inputs": [
            {
              "internalType": "uint256",
              "name": "_uniqueId",
              "type": "uint256"
            }
          ],
          "name": "mintMeme",
          "outputs": [],
          "stateMutability": "nonpayable",
          "type": "function"
        },
        {
          "inputs": [],
          "name": "name",
          "outputs": [
            {
              "internalType": "string",
              "name": "",
              "type": "string"
            }
          ],
          "stateMutability": "view",
          "type": "function"
        },
        {
          "inputs": [
            {
              "internalType": "address",
              "name": "",
              "type": "address"
            }
          ],
          "name": "nftHolders",
          "outputs": [
            {
              "internalType": "uint256",
              "name": "",
              "type": "uint256"
            }
          ],
          "stateMutability": "view",
          "type": "function"
        },
        {
          "inputs": [
            {
              "internalType": "uint256",
              "name": "tokenId",
              "type": "uint256"
            }
          ],
          "name": "ownerOf",
          "outputs": [
            {
              "internalType": "address",
              "name": "",
              "type": "address"
            }
          ],
          "stateMutability": "view",
          "type": "function"
        },
        {
          "inputs": [
            {
              "internalType": "address",
              "name": "from",
              "type": "address"
            },
            {
              "internalType": "address",
              "name": "to",
              "type": "address"
            },
            {
              "internalType": "uint256",
              "name": "tokenId",
              "type": "uint256"
            }
          ],
          "name": "safeTransferFrom",
          "outputs": [],
          "stateMutability": "nonpayable",
          "type": "function"
        },
        {
          "inputs": [
            {
              "internalType": "address",
              "name": "from",
              "type": "address"
            },
            {
              "internalType": "address",
              "name": "to",
              "type": "address"
            },
            {
              "internalType": "uint256",
              "name": "tokenId",
              "type": "uint256"
            },
            {
              "internalType": "bytes",
              "name": "data",
              "type": "bytes"
            }
          ],
          "name": "safeTransferFrom",
          "outputs": [],
          "stateMutability": "nonpayable",
          "type": "function"
        },
        {
          "inputs": [
            {
              "internalType": "address",
              "name": "operator",
              "type": "address"
            },
            {
              "internalType": "bool",
              "name": "approved",
              "type": "bool"
            }
          ],
          "name": "setApprovalForAll",
          "outputs": [],
          "stateMutability": "nonpayable",
          "type": "function"
        },
        {
          "inputs": [
            {
              "internalType": "bytes4",
              "name": "interfaceId",
              "type": "bytes4"
            }
          ],
          "name": "supportsInterface",
          "outputs": [
            {
              "internalType": "bool",
              "name": "",
              "type": "bool"
            }
          ],
          "stateMutability": "view",
          "type": "function"
        },
        {
          "inputs": [],
          "name": "symbol",
          "outputs": [
            {
              "internalType": "string",
              "name": "",
              "type": "string"
            }
          ],
          "stateMutability": "view",
          "type": "function"
        },
        {
          "inputs": [
            {
              "internalType": "uint256",
              "name": "_tokenId",
              "type": "uint256"
            }
          ],
          "name": "tokenURI",
          "outputs": [
            {
              "internalType": "string",
              "name": "",
              "type": "string"
            }
          ],
          "stateMutability": "view",
          "type": "function"
        },
        {
          "inputs": [
            {
              "internalType": "address",
              "name": "from",
              "type": "address"
            },
            {
              "internalType": "address",
              "name": "to",
              "type": "address"
            },
            {
              "internalType": "uint256",
              "name": "tokenId",
              "type": "uint256"
            }
          ],
          "name": "transferFrom",
          "outputs": [],
          "stateMutability": "nonpayable",
          "type": "function"
        }
      ],
      "evm": {
        "bytecode": {
          "linkReferences": {},
          "object": "60806040523480156200001157600080fd5b5060405162004ad938038062004ad983398181016040528101906200003791906200064c565b6040518060400160405280600681526020017f4d454d45525300000000000000000000000000000000000000000000000000008152506040518060400160405280600381526020017f4d454d00000000000000000000000000000000000000000000000000000000008152508160009080519060200190620000bb929190620003b4565b508060019080519060200190620000d4929190620003b4565b5050506040518060800160405280858152602001848152602001838152602001828152506007600082015181600001908051906020019062000118929190620003b4565b50602082015181600101908051906020019062000137929190620003b4565b50604082015181600201556060820151816003015590505060005b8851811015620003785760066040518060c001604052808381526020018b8481518110620001a9577f4e487b7100000000000000000000000000000000000000000000000000000000600052603260045260246000fd5b602002602001015181526020018a8481518110620001f0577f4e487b7100000000000000000000000000000000000000000000000000000000600052603260045260246000fd5b6020026020010151815260200189848151811062000237577f4e487b7100000000000000000000000000000000000000000000000000000000600052603260045260246000fd5b602002602001015181526020018984815181106200027e577f4e487b7100000000000000000000000000000000000000000000000000000000600052603260045260246000fd5b60200260200101518152602001888481518110620002c5577f4e487b7100000000000000000000000000000000000000000000000000000000600052603260045260246000fd5b6020026020010151815250908060018154018082558091505060019003906000526020600020906006020160009091909190915060008201518160000155602082015181600101908051906020019062000321929190620003b4565b50604082015181600201908051906020019062000340929190620003b4565b50606082015181600301556080820151816004015560a08201518160050155505060018162000370919062000862565b905062000152565b5062000390600b6200039e60201b620019871760201c565b505050505050505062000a23565b6001816000016000828254019250508190555050565b828054620003c290620008ff565b90600052602060002090601f016020900481019282620003e6576000855562000432565b82601f106200040157805160ff191683800117855562000432565b8280016001018555821562000432579182015b828111156200043157825182559160200191906001019062000414565b5b50905062000441919062000445565b5090565b5b808211156200046057600081600090555060010162000446565b5090565b60006200047b6200047584620007ce565b620007a5565b905080838252602082019050828560208602820111156200049b57600080fd5b60005b85811015620004ea57815167ffffffffffffffff811115620004bf57600080fd5b808601620004ce898262000608565b855260208501945060208401935050506001810190506200049e565b5050509392505050565b60006200050b6200050584620007fd565b620007a5565b905080838252602082019050828560208602820111156200052b57600080fd5b60005b858110156200055f578162000544888262000635565b8452602084019350602083019250506001810190506200052e565b5050509392505050565b6000620005806200057a846200082c565b620007a5565b9050828152602081018484840111156200059957600080fd5b620005a6848285620008c9565b509392505050565b600082601f830112620005c057600080fd5b8151620005d284826020860162000464565b91505092915050565b600082601f830112620005ed57600080fd5b8151620005ff848260208601620004f4565b91505092915050565b600082601f8301126200061a57600080fd5b81516200062c84826020860162000569565b91505092915050565b600081519050620006468162000a09565b92915050565b600080600080600080600080610100898b0312156200066a57600080fd5b600089015167ffffffffffffffff8111156200068557600080fd5b620006938b828c01620005ae565b985050602089015167ffffffffffffffff811115620006b157600080fd5b620006bf8b828c01620005ae565b975050604089015167ffffffffffffffff811115620006dd57600080fd5b620006eb8b828c01620005db565b965050606089015167ffffffffffffffff8111156200070957600080fd5b620007178b828c01620005db565b955050608089015167ffffffffffffffff8111156200073557600080fd5b620007438b828c0162000608565b94505060a089015167ffffffffffffffff8111156200076157600080fd5b6200076f8b828c0162000608565b93505060c0620007828b828c0162000635565b92505060e0620007958b828c0162000635565b9150509295985092959890939650565b6000620007b1620007c4565b9050620007bf828262000935565b919050565b6000604051905090565b600067ffffffffffffffff821115620007ec57620007eb620009c9565b5b602082029050602081019050919050565b600067ffffffffffffffff8211156200081b576200081a620009c9565b5b602082029050602081019050919050565b600067ffffffffffffffff8211156200084a5762000849620009c9565b5b6200085582620009f8565b9050602081019050919050565b60006200086f82620008bf565b91506200087c83620008bf565b9250827fffffffffffffffffffffffffffffffffffffffffffffffffffffffffffffffff03821115620008b457620008b36200096b565b5b828201905092915050565b6000819050919050565b60005b83811015620008e9578082015181840152602081019050620008cc565b83811115620008f9576000848401525b50505050565b600060028204905060018216806200091857607f821691505b602082108114156200092f576200092e6200099a565b5b50919050565b6200094082620009f8565b810181811067ffffffffffffffff82111715620009625762000961620009c9565b5b80604052505050565b7f4e487b7100000000000000000000000000000000000000000000000000000000600052601160045260246000fd5b7f4e487b7100000000000000000000000000000000000000000000000000000000600052602260045260246000fd5b7f4e487b7100000000000000000000000000000000000000000000000000000000600052604160045260246000fd5b6000601f19601f8301169050919050565b62000a1481620008bf565b811462000a2057600080fd5b50565b6140a68062000a336000396000f3fe608060405234801561001057600080fd5b50600436106101375760003560e01c80637df124a1116100b8578063c772af391161007c578063c772af3914610365578063c87b56dd14610386578063d4f24c5b146103b6578063e2ce1c1b146103c0578063e985e9c5146103de578063eb3a9ef71461040e57610137565b80637df124a1146102c157806395d89b41146102f1578063a22cb4651461030f578063b88d4fde1461032b578063c76d9e7d1461034757610137565b8063284eab59116100ff578063284eab59146101f257806342842e0e146102105780635ecadef31461022c5780636352211e1461026157806370a082311461029157610137565b806301ffc9a71461013c57806306fdde031461016c578063081812fc1461018a578063095ea7b3146101ba57806323b872dd146101d6575b600080fd5b61015660048036038101906101519190612b4d565b61042a565b6040516101639190613359565b60405180910390f35b61017461050c565b6040516101819190613374565b60405180910390f35b6101a4600480360381019061019f9190612b9f565b61059e565b6040516101b19190613299565b60405180910390f35b6101d460048036038101906101cf9190612b11565b6105e4565b005b6101f060048036038101906101eb9190612a0b565b6106fc565b005b6101fa61075c565b6040516102079190613337565b60405180910390f35b61022a60048036038101906102259190612a0b565b610907565b005b61024660048036038101906102419190612b9f565b610927565b604051610258969594939291906135e8565b60405180910390f35b61027b60048036038101906102769190612b9f565b610a73565b6040516102889190613299565b60405180910390f35b6102ab60048036038101906102a691906129a6565b610b25565b6040516102b891906135cd565b60405180910390f35b6102db60048036038101906102d691906129a6565b610bdd565b6040516102e891906135cd565b60405180910390f35b6102f9610bf5565b6040516103069190613374565b60405180910390f35b61032960048036038101906103249190612ad5565b610c87565b005b61034560048036038101906103409190612a5a565b610c9d565b005b61034f610cff565b60405161035c9190613589565b60405180910390f35b61036d610e51565b60405161037d9493929190613396565b60405180910390f35b6103a0600480360381019061039b9190612b9f565b610f7f565b6040516103ad9190613374565b60405180910390f35b6103be61119a565b005b6103c861134a565b6040516103d591906135ab565b60405180910390f35b6103f860048036038101906103f391906129cf565b611522565b6040516104059190613359565b60405180910390f35b61042860048036038101906104239190612b9f565b6115b6565b005b60007f80ac58cd000000000000000000000000000000000000000000000000000000007bffffffffffffffffffffffffffffffffffffffffffffffffffffffff1916827bffffffffffffffffffffffffffffffffffffffffffffffffffffffff191614806104f557507f5b5e139f000000000000000000000000000000000000000000000000000000007bffffffffffffffffffffffffffffffffffffffffffffffffffffffff1916827bffffffffffffffffffffffffffffffffffffffffffffffffffffffff1916145b8061050557506105048261199d565b5b9050919050565b60606000805461051b90613905565b80601f016020809104026020016040519081016040528092919081815260200182805461054790613905565b80156105945780601f1061056957610100808354040283529160200191610594565b820191906000526020600020905b81548152906001019060200180831161057757829003601f168201915b5050505050905090565b60006105a982611a07565b6004600083815260200190815260200160002060009054906101000a900473ffffffffffffffffffffffffffffffffffffffff169050919050565b60006105ef82610a73565b90508073ffffffffffffffffffffffffffffffffffffffff168373ffffffffffffffffffffffffffffffffffffffff161415610660576040517f08c379a000000000000000000000000000000000000000000000000000000000815260040161065790613549565b60405180910390fd5b8073ffffffffffffffffffffffffffffffffffffffff1661067f611a52565b73ffffffffffffffffffffffffffffffffffffffff1614806106ae57506106ad816106a8611a52565b611522565b5b6106ed576040517f08c379a00000000000000000000000000000000000000000000000000000000081526004016106e4906134e9565b60405180910390fd5b6106f78383611a5a565b505050565b61070d610707611a52565b82611b13565b61074c576040517f08c379a000000000000000000000000000000000000000000000000000000000815260040161074390613569565b60405180910390fd5b610757838383611ba8565b505050565b60606006805480602002602001604051908101604052809291908181526020016000905b828210156108fe57838290600052602060002090600602016040518060c0016040529081600082015481526020016001820180546107bd90613905565b80601f01602080910402602001604051908101604052809291908181526020018280546107e990613905565b80156108365780601f1061080b57610100808354040283529160200191610836565b820191906000526020600020905b81548152906001019060200180831161081957829003601f168201915b5050505050815260200160028201805461084f90613905565b80601f016020809104026020016040519081016040528092919081815260200182805461087b90613905565b80156108c85780601f1061089d576101008083540402835291602001916108c8565b820191906000526020600020905b8154815290600101906020018083116108ab57829003601f168201915b50505050508152602001600382015481526020016004820154815260200160058201548152505081526020019060010190610780565b50505050905090565b61092283838360405180602001604052806000815250610c9d565b505050565b600c60205280600052604060002060009150905080600001549080600101805461095090613905565b80601f016020809104026020016040519081016040528092919081815260200182805461097c90613905565b80156109c95780601f1061099e576101008083540402835291602001916109c9565b820191906000526020600020905b8154815290600101906020018083116109ac57829003601f168201915b5050505050908060020180546109de90613905565b80601f0160208091040260200160405190810160405280929190818152602001828054610a0a90613905565b8015610a575780601f10610a2c57610100808354040283529160200191610a57565b820191906000526020600020905b815481529060010190602001808311610a3a57829003601f168201915b5050505050908060030154908060040154908060050154905086565b6000806002600084815260200190815260200160002060009054906101000a900473ffffffffffffffffffffffffffffffffffffffff169050600073ffffffffffffffffffffffffffffffffffffffff168173ffffffffffffffffffffffffffffffffffffffff161415610b1c576040517f08c379a0000000000000000000000000000000000000000000000000000000008152600401610b1390613529565b60405180910390fd5b80915050919050565b60008073ffffffffffffffffffffffffffffffffffffffff168273ffffffffffffffffffffffffffffffffffffffff161415610b96576040517f08c379a0000000000000000000000000000000000000000000000000000000008152600401610b8d906134a9565b60405180910390fd5b600360008373ffffffffffffffffffffffffffffffffffffffff1673ffffffffffffffffffffffffffffffffffffffff168152602001908152602001600020549050919050565b600d6020528060005260406000206000915090505481565b606060018054610c0490613905565b80601f0160208091040260200160405190810160405280929190818152602001828054610c3090613905565b8015610c7d5780601f10610c5257610100808354040283529160200191610c7d565b820191906000526020600020905b815481529060010190602001808311610c6057829003601f168201915b5050505050905090565b610c99610c92611a52565b8383611e0f565b5050565b610cae610ca8611a52565b83611b13565b610ced576040517f08c379a0000000000000000000000000000000000000000000000000000000008152600401610ce490613569565b60405180910390fd5b610cf984848484611f7c565b50505050565b610d076127d4565b6007604051806080016040529081600082018054610d2490613905565b80601f0160208091040260200160405190810160405280929190818152602001828054610d5090613905565b8015610d9d5780601f10610d7257610100808354040283529160200191610d9d565b820191906000526020600020905b815481529060010190602001808311610d8057829003601f168201915b50505050508152602001600182018054610db690613905565b80601f0160208091040260200160405190810160405280929190818152602001828054610de290613905565b8015610e2f5780601f10610e0457610100808354040283529160200191610e2f565b820191906000526020600020905b815481529060010190602001808311610e1257829003601f168201915b5050505050815260200160028201548152602001600382015481525050905090565b6007806000018054610e6290613905565b80601f0160208091040260200160405190810160405280929190818152602001828054610e8e90613905565b8015610edb5780601f10610eb057610100808354040283529160200191610edb565b820191906000526020600020905b815481529060010190602001808311610ebe57829003601f168201915b505050505090806001018054610ef090613905565b80601f0160208091040260200160405190810160405280929190818152602001828054610f1c90613905565b8015610f695780601f10610f3e57610100808354040283529160200191610f69565b820191906000526020600020905b815481529060010190602001808311610f4c57829003601f168201915b5050505050908060020154908060030154905084565b60606000600c60008481526020019081526020016000206040518060c001604052908160008201548152602001600182018054610fbb90613905565b80601f0160208091040260200160405190810160405280929190818152602001828054610fe790613905565b80156110345780601f1061100957610100808354040283529160200191611034565b820191906000526020600020905b81548152906001019060200180831161101757829003601f168201915b5050505050815260200160028201805461104d90613905565b80601f016020809104026020016040519081016040528092919081815260200182805461107990613905565b80156110c65780601f1061109b576101008083540402835291602001916110c6565b820191906000526020600020905b8154815290600101906020018083116110a957829003601f168201915b505050505081526020016003820154815260200160048201548152602001600582015481525050905060006110fe8260600151611fd8565b9050600061110f8360a00151611fd8565b905060006111208460800151611fd8565b90506000611166856020015161113589611fd8565b8760400151878688604051602001611152969594939291906131d2565b604051602081830303815290604052612185565b905060008160405160200161117b9190613277565b6040516020818303038152906040529050809650505050505050919050565b6000600d60003373ffffffffffffffffffffffffffffffffffffffff1673ffffffffffffffffffffffffffffffffffffffff1681526020019081526020016000205490506000600c60008381526020019081526020016000209050600081600301541161123c576040517f08c379a000000000000000000000000000000000000000000000000000000000815260040161123390613489565b60405180910390fd5b600060076002015411611284576040517f08c379a000000000000000000000000000000000000000000000000000000000815260040161127b906134c9565b60405180910390fd5b806005015460076002015410156112a55760006007600201819055506112c4565b80600501546007600201546112ba919061381b565b6007600201819055505b600760030154816003015410156112e45760008160030181905550611302565b60076003015481600301546112f9919061381b565b81600301819055505b7f32bd565ee3f2cb5ddd742bbecd6048d3e9abe90b3827a40c2b72d232e71e3c9d33600760020154836003015460405161133e93929190613300565b60405180910390a15050565b6113526127fc565b6000600d60003373ffffffffffffffffffffffffffffffffffffffff1673ffffffffffffffffffffffffffffffffffffffff168152602001908152602001600020549050600081111561151157600c60008281526020019081526020016000206040518060c0016040529081600082015481526020016001820180546113d790613905565b80601f016020809104026020016040519081016040528092919081815260200182805461140390613905565b80156114505780601f1061142557610100808354040283529160200191611450565b820191906000526020600020905b81548152906001019060200180831161143357829003601f168201915b5050505050815260200160028201805461146990613905565b80601f016020809104026020016040519081016040528092919081815260200182805461149590613905565b80156114e25780601f106114b7576101008083540402835291602001916114e2565b820191906000526020600020905b8154815290600101906020018083116114c557829003601f168201915b50505050508152602001600382015481526020016004820154815260200160058201548152505091505061151f565b6115196127fc565b80925050505b90565b6000600560008473ffffffffffffffffffffffffffffffffffffffff1673ffffffffffffffffffffffffffffffffffffffff16815260200190815260200160002060008373ffffffffffffffffffffffffffffffffffffffff1673ffffffffffffffffffffffffffffffffffffffff16815260200190815260200160002060009054906101000a900460ff16905092915050565b60006115c2600b612343565b90506115ce3382612351565b6040518060c0016040528083815260200160068481548110611619577f4e487b7100000000000000000000000000000000000000000000000000000000600052603260045260246000fd5b9060005260206000209060060201600101805461163590613905565b80601f016020809104026020016040519081016040528092919081815260200182805461166190613905565b80156116ae5780601f10611683576101008083540402835291602001916116ae565b820191906000526020600020905b81548152906001019060200180831161169157829003601f168201915b50505050508152602001600684815481106116f2577f4e487b7100000000000000000000000000000000000000000000000000000000600052603260045260246000fd5b9060005260206000209060060201600201805461170e90613905565b80601f016020809104026020016040519081016040528092919081815260200182805461173a90613905565b80156117875780601f1061175c57610100808354040283529160200191611787565b820191906000526020600020905b81548152906001019060200180831161176a57829003601f168201915b50505050508152602001600684815481106117cb577f4e487b7100000000000000000000000000000000000000000000000000000000600052603260045260246000fd5b90600052602060002090600602016003015481526020016006848154811061181c577f4e487b7100000000000000000000000000000000000000000000000000000000600052603260045260246000fd5b90600052602060002090600602016004015481526020016006848154811061186d577f4e487b7100000000000000000000000000000000000000000000000000000000600052603260045260246000fd5b906000526020600020906006020160050154815250600c60008481526020019081526020016000206000820151816000015560208201518160010190805190602001906118bb929190612832565b5060408201518160020190805190602001906118d8929190612832565b50606082015181600301556080820151816004015560a0820151816005015590505080600d60003373ffffffffffffffffffffffffffffffffffffffff1673ffffffffffffffffffffffffffffffffffffffff16815260200190815260200160002081905550611948600b611987565b7ff9800d462c9b23089be8d715ba26944e8ad9b827bc7f94fffbae6018607ade5a33828460405161197b93929190613300565b60405180910390a15050565b6001816000016000828254019250508190555050565b60007f01ffc9a7000000000000000000000000000000000000000000000000000000007bffffffffffffffffffffffffffffffffffffffffffffffffffffffff1916827bffffffffffffffffffffffffffffffffffffffffffffffffffffffff1916149050919050565b611a108161236f565b611a4f576040517f08c379a0000000000000000000000000000000000000000000000000000000008152600401611a4690613529565b60405180910390fd5b50565b600033905090565b816004600083815260200190815260200160002060006101000a81548173ffffffffffffffffffffffffffffffffffffffff021916908373ffffffffffffffffffffffffffffffffffffffff160217905550808273ffffffffffffffffffffffffffffffffffffffff16611acd83610a73565b73ffffffffffffffffffffffffffffffffffffffff167f8c5be1e5ebec7d5bd14f71427d1e84f3dd0314c0f7b2291e5b200ac8c7c3b92560405160405180910390a45050565b600080611b1f83610a73565b90508073ffffffffffffffffffffffffffffffffffffffff168473ffffffffffffffffffffffffffffffffffffffff161480611b615750611b608185611522565b5b80611b9f57508373ffffffffffffffffffffffffffffffffffffffff16611b878461059e565b73ffffffffffffffffffffffffffffffffffffffff16145b91505092915050565b8273ffffffffffffffffffffffffffffffffffffffff16611bc882610a73565b73ffffffffffffffffffffffffffffffffffffffff1614611c1e576040517f08c379a0000000000000000000000000000000000000000000000000000000008152600401611c1590613409565b60405180910390fd5b600073ffffffffffffffffffffffffffffffffffffffff168273ffffffffffffffffffffffffffffffffffffffff161415611c8e576040517f08c379a0000000000000000000000000000000000000000000000000000000008152600401611c8590613449565b60405180910390fd5b611c998383836123db565b611ca4600082611a5a565b6001600360008573ffffffffffffffffffffffffffffffffffffffff1673ffffffffffffffffffffffffffffffffffffffff1681526020019081526020016000206000828254611cf4919061381b565b925050819055506001600360008473ffffffffffffffffffffffffffffffffffffffff1673ffffffffffffffffffffffffffffffffffffffff1681526020019081526020016000206000828254611d4b919061373a565b92505081905550816002600083815260200190815260200160002060006101000a81548173ffffffffffffffffffffffffffffffffffffffff021916908373ffffffffffffffffffffffffffffffffffffffff160217905550808273ffffffffffffffffffffffffffffffffffffffff168473ffffffffffffffffffffffffffffffffffffffff167fddf252ad1be2c89b69c2b068fc378daa952ba7f163c4a11628f55a4df523b3ef60405160405180910390a4611e0a8383836123e0565b505050565b8173ffffffffffffffffffffffffffffffffffffffff168373ffffffffffffffffffffffffffffffffffffffff161415611e7e576040517f08c379a0000000000000000000000000000000000000000000000000000000008152600401611e7590613469565b60405180910390fd5b80600560008573ffffffffffffffffffffffffffffffffffffffff1673ffffffffffffffffffffffffffffffffffffffff16815260200190815260200160002060008473ffffffffffffffffffffffffffffffffffffffff1673ffffffffffffffffffffffffffffffffffffffff16815260200190815260200160002060006101000a81548160ff0219169083151502179055508173ffffffffffffffffffffffffffffffffffffffff168373ffffffffffffffffffffffffffffffffffffffff167f17307eab39ab6107e8899845ad3d59bd9653f200f220920489ca2b5937696c3183604051611f6f9190613359565b60405180910390a3505050565b611f87848484611ba8565b611f93848484846123e5565b611fd2576040517f08c379a0000000000000000000000000000000000000000000000000000000008152600401611fc9906133e9565b60405180910390fd5b50505050565b60606000821415612020576040518060400160405280600181526020017f30000000000000000000000000000000000000000000000000000000000000008152509050612180565b600082905060005b6000821461205257808061203b90613968565b915050600a8261204b9190613790565b9150612028565b60008167ffffffffffffffff811115612094577f4e487b7100000000000000000000000000000000000000000000000000000000600052604160045260246000fd5b6040519080825280601f01601f1916602001820160405280156120c65781602001600182028036833780820191505090505b5090505b60008514612179576001826120df919061381b565b9150600a856120ee91906139b1565b60306120fa919061373a565b60f81b818381518110612136577f4e487b7100000000000000000000000000000000000000000000000000000000600052603260045260246000fd5b60200101907effffffffffffffffffffffffffffffffffffffffffffffffffffffffffffff1916908160001a905350600a856121729190613790565b94506120ca565b8093505050505b919050565b606060008251905060008114156121ae576040518060200160405280600081525091505061233e565b600060036002836121bf919061373a565b6121c99190613790565b60046121d591906137c1565b905060006020826121e6919061373a565b67ffffffffffffffff811115612225577f4e487b7100000000000000000000000000000000000000000000000000000000600052604160045260246000fd5b6040519080825280601f01601f1916602001820160405280156122575781602001600182028036833780820191505090505b5090506000604051806060016040528060408152602001614031604091399050600181016020830160005b868110156122fb5760038101905062ffffff818a015116603f8160121c168401518060081b905060ff603f83600c1c1686015116810190508060081b905060ff603f8360061c1686015116810190508060081b905060ff603f831686015116810190508060e01b90508084526004840193505050612282565b506003860660018114612315576002811461232557612330565b613d3d60f01b6002830352612330565b603d60f81b60018303525b508484525050819450505050505b919050565b600081600001549050919050565b61236b82826040518060200160405280600081525061257c565b5050565b60008073ffffffffffffffffffffffffffffffffffffffff166002600084815260200190815260200160002060009054906101000a900473ffffffffffffffffffffffffffffffffffffffff1673ffffffffffffffffffffffffffffffffffffffff1614159050919050565b505050565b505050565b60006124068473ffffffffffffffffffffffffffffffffffffffff166125d7565b1561256f578373ffffffffffffffffffffffffffffffffffffffff1663150b7a0261242f611a52565b8786866040518563ffffffff1660e01b815260040161245194939291906132b4565b602060405180830381600087803b15801561246b57600080fd5b505af192505050801561249c57506040513d601f19601f820116820180604052508101906124999190612b76565b60015b61251f573d80600081146124cc576040519150601f19603f3d011682016040523d82523d6000602084013e6124d1565b606091505b50600081511415612517576040517f08c379a000000000000000000000000000000000000000000000000000000000815260040161250e906133e9565b60405180910390fd5b805181602001fd5b63150b7a0260e01b7bffffffffffffffffffffffffffffffffffffffffffffffffffffffff1916817bffffffffffffffffffffffffffffffffffffffffffffffffffffffff191614915050612574565b600190505b949350505050565b61258683836125fa565b61259360008484846123e5565b6125d2576040517f08c379a00000000000000000000000000000000000000000000000000000000081526004016125c9906133e9565b60405180910390fd5b505050565b6000808273ffffffffffffffffffffffffffffffffffffffff163b119050919050565b600073ffffffffffffffffffffffffffffffffffffffff168273ffffffffffffffffffffffffffffffffffffffff16141561266a576040517f08c379a000000000000000000000000000000000000000000000000000000000815260040161266190613509565b60405180910390fd5b6126738161236f565b156126b3576040517f08c379a00000000000000000000000000000000000000000000000000000000081526004016126aa90613429565b60405180910390fd5b6126bf600083836123db565b6001600360008473ffffffffffffffffffffffffffffffffffffffff1673ffffffffffffffffffffffffffffffffffffffff168152602001908152602001600020600082825461270f919061373a565b92505081905550816002600083815260200190815260200160002060006101000a81548173ffffffffffffffffffffffffffffffffffffffff021916908373ffffffffffffffffffffffffffffffffffffffff160217905550808273ffffffffffffffffffffffffffffffffffffffff16600073ffffffffffffffffffffffffffffffffffffffff167fddf252ad1be2c89b69c2b068fc378daa952ba7f163c4a11628f55a4df523b3ef60405160405180910390a46127d0600083836123e0565b5050565b6040518060800160405280606081526020016060815260200160008152602001600081525090565b6040518060c001604052806000815260200160608152602001606081526020016000815260200160008152602001600081525090565b82805461283e90613905565b90600052602060002090601f01602090048101928261286057600085556128a7565b82601f1061287957805160ff19168380011785556128a7565b828001600101855582156128a7579182015b828111156128a657825182559160200191906001019061288b565b5b5090506128b491906128b8565b5090565b5b808211156128d15760008160009055506001016128b9565b5090565b60006128e86128e38461367c565b613657565b90508281526020810184848401111561290057600080fd5b61290b8482856138c3565b509392505050565b60008135905061292281613fd4565b92915050565b60008135905061293781613feb565b92915050565b60008135905061294c81614002565b92915050565b60008151905061296181614002565b92915050565b600082601f83011261297857600080fd5b81356129888482602086016128d5565b91505092915050565b6000813590506129a081614019565b92915050565b6000602082840312156129b857600080fd5b60006129c684828501612913565b91505092915050565b600080604083850312156129e257600080fd5b60006129f085828601612913565b9250506020612a0185828601612913565b9150509250929050565b600080600060608486031215612a2057600080fd5b6000612a2e86828701612913565b9350506020612a3f86828701612913565b9250506040612a5086828701612991565b9150509250925092565b60008060008060808587031215612a7057600080fd5b6000612a7e87828801612913565b9450506020612a8f87828801612913565b9350506040612aa087828801612991565b925050606085013567ffffffffffffffff811115612abd57600080fd5b612ac987828801612967565b91505092959194509250565b60008060408385031215612ae857600080fd5b6000612af685828601612913565b9250506020612b0785828601612928565b9150509250929050565b60008060408385031215612b2457600080fd5b6000612b3285828601612913565b9250506020612b4385828601612991565b9150509250929050565b600060208284031215612b5f57600080fd5b6000612b6d8482850161293d565b91505092915050565b600060208284031215612b8857600080fd5b6000612b9684828501612952565b91505092915050565b600060208284031215612bb157600080fd5b6000612bbf84828501612991565b91505092915050565b6000612bd48383613094565b905092915050565b612be58161384f565b82525050565b6000612bf6826136bd565b612c0081856136eb565b935083602082028501612c12856136ad565b8060005b85811015612c4e5784840389528151612c2f8582612bc8565b9450612c3a836136de565b925060208a01995050600181019050612c16565b50829750879550505050505092915050565b612c6981613861565b82525050565b6000612c7a826136c8565b612c8481856136fc565b9350612c948185602086016138d2565b612c9d81613a9e565b840191505092915050565b6000612cb3826136d3565b612cbd818561370d565b9350612ccd8185602086016138d2565b612cd681613a9e565b840191505092915050565b6000612cec826136d3565b612cf6818561371e565b9350612d068185602086016138d2565b612d0f81613a9e565b840191505092915050565b6000612d25826136d3565b612d2f818561372f565b9350612d3f8185602086016138d2565b80840191505092915050565b6000612d58600b8361372f565b9150612d6382613aaf565b600b82019050919050565b6000612d7b60328361371e565b9150612d8682613ad8565b604082019050919050565b6000612d9e60258361371e565b9150612da982613b27565b604082019050919050565b6000612dc1601c8361371e565b9150612dcc82613b76565b602082019050919050565b6000612de4600e8361372f565b9150612def82613b9f565b600e82019050919050565b6000612e07603e8361372f565b9150612e1282613bc8565b603e82019050919050565b6000612e2a60248361371e565b9150612e3582613c17565b604082019050919050565b6000612e4d60198361371e565b9150612e5882613c66565b602082019050919050565b6000612e7060108361371e565b9150612e7b82613c8f565b602082019050919050565b6000612e9360298361371e565b9150612e9e82613cb8565b604082019050919050565b6000612eb660628361372f565b9150612ec182613d07565b606282019050919050565b6000612ed960328361372f565b9150612ee482613da2565b603282019050919050565b6000612efc60118361371e565b9150612f0782613df1565b602082019050919050565b6000612f1f60048361372f565b9150612f2a82613e1a565b600482019050919050565b6000612f42603e8361371e565b9150612f4d82613e43565b604082019050919050565b6000612f6560208361371e565b9150612f7082613e92565b602082019050919050565b6000612f88600a8361372f565b9150612f9382613ebb565b600a82019050919050565b6000612fab60188361371e565b9150612fb682613ee4565b602082019050919050565b6000612fce60218361371e565b9150612fd982613f0d565b604082019050919050565b6000612ff1601d8361372f565b9150612ffc82613f5c565b601d82019050919050565b6000613014602e8361371e565b915061301f82613f85565b604082019050919050565b600060808301600083015184820360008601526130478282612ca8565b915050602083015184820360208601526130618282612ca8565b915050604083015161307660408601826131b4565b50606083015161308960608601826131b4565b508091505092915050565b600060c0830160008301516130ac60008601826131b4565b50602083015184820360208601526130c48282612ca8565b915050604083015184820360408601526130de8282612ca8565b91505060608301516130f360608601826131b4565b50608083015161310660808601826131b4565b5060a083015161311960a08601826131b4565b508091505092915050565b600060c08301600083015161313c60008601826131b4565b50602083015184820360208601526131548282612ca8565b9150506040830151848203604086015261316e8282612ca8565b915050606083015161318360608601826131b4565b50608083015161319660808601826131b4565b5060a08301516131a960a08601826131b4565b508091505092915050565b6131bd816138b9565b82525050565b6131cc816138b9565b82525050565b60006131dd82612f7b565b91506131e98289612d1a565b91506131f482612d4b565b91506132008288612d1a565b915061320b82612ea9565b91506132178287612d1a565b915061322282612dfa565b915061322e8286612d1a565b915061323982612dd7565b91506132458285612d1a565b915061325082612ecc565b915061325c8284612d1a565b915061326782612f12565b9150819050979650505050505050565b600061328282612fe4565b915061328e8284612d1a565b915081905092915050565b60006020820190506132ae6000830184612bdc565b92915050565b60006080820190506132c96000830187612bdc565b6132d66020830186612bdc565b6132e360408301856131c3565b81810360608301526132f58184612c6f565b905095945050505050565b60006060820190506133156000830186612bdc565b61332260208301856131c3565b61332f60408301846131c3565b949350505050565b600060208201905081810360008301526133518184612beb565b905092915050565b600060208201905061336e6000830184612c60565b92915050565b6000602082019050818103600083015261338e8184612ce1565b905092915050565b600060808201905081810360008301526133b08187612ce1565b905081810360208301526133c48186612ce1565b90506133d360408301856131c3565b6133e060608301846131c3565b95945050505050565b6000602082019050818103600083015261340281612d6e565b9050919050565b6000602082019050818103600083015261342281612d91565b9050919050565b6000602082019050818103600083015261344281612db4565b9050919050565b6000602082019050818103600083015261346281612e1d565b9050919050565b6000602082019050818103600083015261348281612e40565b9050919050565b600060208201905081810360008301526134a281612e63565b9050919050565b600060208201905081810360008301526134c281612e86565b9050919050565b600060208201905081810360008301526134e281612eef565b9050919050565b6000602082019050818103600083015261350281612f35565b9050919050565b6000602082019050818103600083015261352281612f58565b9050919050565b6000602082019050818103600083015261354281612f9e565b9050919050565b6000602082019050818103600083015261356281612fc1565b9050919050565b6000602082019050818103600083015261358281613007565b9050919050565b600060208201905081810360008301526135a3818461302a565b905092915050565b600060208201905081810360008301526135c58184613124565b905092915050565b60006020820190506135e260008301846131c3565b92915050565b600060c0820190506135fd60008301896131c3565b818103602083015261360f8188612ce1565b905081810360408301526136238187612ce1565b905061363260608301866131c3565b61363f60808301856131c3565b61364c60a08301846131c3565b979650505050505050565b6000613661613672565b905061366d8282613937565b919050565b6000604051905090565b600067ffffffffffffffff82111561369757613696613a6f565b5b6136a082613a9e565b9050602081019050919050565b6000819050602082019050919050565b600081519050919050565b600081519050919050565b600081519050919050565b6000602082019050919050565b600082825260208201905092915050565b600082825260208201905092915050565b600082825260208201905092915050565b600082825260208201905092915050565b600081905092915050565b6000613745826138b9565b9150613750836138b9565b9250827fffffffffffffffffffffffffffffffffffffffffffffffffffffffffffffffff03821115613785576137846139e2565b5b828201905092915050565b600061379b826138b9565b91506137a6836138b9565b9250826137b6576137b5613a11565b5b828204905092915050565b60006137cc826138b9565b91506137d7836138b9565b9250817fffffffffffffffffffffffffffffffffffffffffffffffffffffffffffffffff04831182151516156138105761380f6139e2565b5b828202905092915050565b6000613826826138b9565b9150613831836138b9565b925082821015613844576138436139e2565b5b828203905092915050565b600061385a82613899565b9050919050565b60008115159050919050565b60007fffffffff0000000000000000000000000000000000000000000000000000000082169050919050565b600073ffffffffffffffffffffffffffffffffffffffff82169050919050565b6000819050919050565b82818337600083830152505050565b60005b838110156138f05780820151818401526020810190506138d5565b838111156138ff576000848401525b50505050565b6000600282049050600182168061391d57607f821691505b6020821081141561393157613930613a40565b5b50919050565b61394082613a9e565b810181811067ffffffffffffffff8211171561395f5761395e613a6f565b5b80604052505050565b6000613973826138b9565b91507fffffffffffffffffffffffffffffffffffffffffffffffffffffffffffffffff8214156139a6576139a56139e2565b5b600182019050919050565b60006139bc826138b9565b91506139c7836138b9565b9250826139d7576139d6613a11565b5b828206905092915050565b7f4e487b7100000000000000000000000000000000000000000000000000000000600052601160045260246000fd5b7f4e487b7100000000000000000000000000000000000000000000000000000000600052601260045260246000fd5b7f4e487b7100000000000000000000000000000000000000000000000000000000600052602260045260246000fd5b7f4e487b7100000000000000000000000000000000000000000000000000000000600052604160045260246000fd5b6000601f19601f8301169050919050565b7f202d2d204e465420233a20000000000000000000000000000000000000000000600082015250565b7f4552433732313a207472616e7366657220746f206e6f6e20455243373231526560008201527f63656976657220696d706c656d656e7465720000000000000000000000000000602082015250565b7f4552433732313a207472616e736665722066726f6d20696e636f72726563742060008201527f6f776e6572000000000000000000000000000000000000000000000000000000602082015250565b7f4552433732313a20746f6b656e20616c7265616479206d696e74656400000000600082015250565b7f2c20226d61785f76616c7565223a000000000000000000000000000000000000600082015250565b7f222c202261747472696275746573223a205b207b202274726169745f7479706560008201527f223a202244657374726f7920506f696e7473222c202276616c7565223a200000602082015250565b7f4552433732313a207472616e7366657220746f20746865207a65726f2061646460008201527f7265737300000000000000000000000000000000000000000000000000000000602082015250565b7f4552433732313a20617070726f766520746f2063616c6c657200000000000000600082015250565b7f4d454d45522069532054524f4c4c454400000000000000000000000000000000600082015250565b7f4552433732313a2061646472657373207a65726f206973206e6f74206120766160008201527f6c6964206f776e65720000000000000000000000000000000000000000000000602082015250565b7f222c20226465736372697074696f6e223a20225468697320697320616e204e4660008201527f542074686174206c6574732070656f706c6520706c617920696e20746865206760208201527f616d65204d657461766572736520536c6179657221222c2022696d616765223a60408201527f2022000000000000000000000000000000000000000000000000000000000000606082015250565b7f7d2c207b202274726169745f74797065223a202244657374726f79207065722060008201527f7365636f6e64222c202276616c7565223a200000000000000000000000000000602082015250565b7f426f73732069532044457374726f794564000000000000000000000000000000600082015250565b7f7d205d7d00000000000000000000000000000000000000000000000000000000600082015250565b7f4552433732313a20617070726f76652063616c6c6572206973206e6f7420746f60008201527f6b656e206f776e6572206e6f7220617070726f76656420666f7220616c6c0000602082015250565b7f4552433732313a206d696e7420746f20746865207a65726f2061646472657373600082015250565b7f7b226e616d65223a202200000000000000000000000000000000000000000000600082015250565b7f4552433732313a20696e76616c696420746f6b656e2049440000000000000000600082015250565b7f4552433732313a20617070726f76616c20746f2063757272656e74206f776e6560008201527f7200000000000000000000000000000000000000000000000000000000000000602082015250565b7f646174613a6170706c69636174696f6e2f6a736f6e3b6261736536342c000000600082015250565b7f4552433732313a2063616c6c6572206973206e6f7420746f6b656e206f776e6560008201527f72206e6f7220617070726f766564000000000000000000000000000000000000602082015250565b613fdd8161384f565b8114613fe857600080fd5b50565b613ff481613861565b8114613fff57600080fd5b50565b61400b8161386d565b811461401657600080fd5b50565b614022816138b9565b811461402d57600080fd5b5056fe4142434445464748494a4b4c4d4e4f505152535455565758595a6162636465666768696a6b6c6d6e6f707172737475767778797a303132333435363738392b2fa2646970667358221220556793779003beb9774fd367556cf5d60b818c60583b40315dd327da112ee1a664736f6c63430008040033",
          "opcodes": "PUSH1 0x80 PUSH1 0x40 MSTORE CALLVALUE DUP1 ISZERO PUSH3 0x11 JUMPI PUSH1 0x0 DUP1 REVERT JUMPDEST POP PUSH1 0x40 MLOAD PUSH3 0x4AD9 CODESIZE SUB DUP1 PUSH3 0x4AD9 DUP4 CODECOPY DUP2 DUP2 ADD PUSH1 0x40 MSTORE DUP2 ADD SWAP1 PUSH3 0x37 SWAP2 SWAP1 PUSH3 0x64C JUMP JUMPDEST PUSH1 0x40 MLOAD DUP1 PUSH1 0x40 ADD PUSH1 0x40 MSTORE DUP1 PUSH1 0x6 DUP2 MSTORE PUSH1 0x20 ADD PUSH32 0x4D454D4552530000000000000000000000000000000000000000000000000000 DUP2 MSTORE POP PUSH1 0x40 MLOAD DUP1 PUSH1 0x40 ADD PUSH1 0x40 MSTORE DUP1 PUSH1 0x3 DUP2 MSTORE PUSH1 0x20 ADD PUSH32 0x4D454D0000000000000000000000000000000000000000000000000000000000 DUP2 MSTORE POP DUP2 PUSH1 0x0 SWAP1 DUP1 MLOAD SWAP1 PUSH1 0x20 ADD SWAP1 PUSH3 0xBB SWAP3 SWAP2 SWAP1 PUSH3 0x3B4 JUMP JUMPDEST POP DUP1 PUSH1 0x1 SWAP1 DUP1 MLOAD SWAP1 PUSH1 0x20 ADD SWAP1 PUSH3 0xD4 SWAP3 SWAP2 SWAP1 PUSH3 0x3B4 JUMP JUMPDEST POP POP POP PUSH1 0x40 MLOAD DUP1 PUSH1 0x80 ADD PUSH1 0x40 MSTORE DUP1 DUP6 DUP2 MSTORE PUSH1 0x20 ADD DUP5 DUP2 MSTORE PUSH1 0x20 ADD DUP4 DUP2 MSTORE PUSH1 0x20 ADD DUP3 DUP2 MSTORE POP PUSH1 0x7 PUSH1 0x0 DUP3 ADD MLOAD DUP2 PUSH1 0x0 ADD SWAP1 DUP1 MLOAD SWAP1 PUSH1 0x20 ADD SWAP1 PUSH3 0x118 SWAP3 SWAP2 SWAP1 PUSH3 0x3B4 JUMP JUMPDEST POP PUSH1 0x20 DUP3 ADD MLOAD DUP2 PUSH1 0x1 ADD SWAP1 DUP1 MLOAD SWAP1 PUSH1 0x20 ADD SWAP1 PUSH3 0x137 SWAP3 SWAP2 SWAP1 PUSH3 0x3B4 JUMP JUMPDEST POP PUSH1 0x40 DUP3 ADD MLOAD DUP2 PUSH1 0x2 ADD SSTORE PUSH1 0x60 DUP3 ADD MLOAD DUP2 PUSH1 0x3 ADD SSTORE SWAP1 POP POP PUSH1 0x0 JUMPDEST DUP9 MLOAD DUP2 LT ISZERO PUSH3 0x378 JUMPI PUSH1 0x6 PUSH1 0x40 MLOAD DUP1 PUSH1 0xC0 ADD PUSH1 0x40 MSTORE DUP1 DUP4 DUP2 MSTORE PUSH1 0x20 ADD DUP12 DUP5 DUP2 MLOAD DUP2 LT PUSH3 0x1A9 JUMPI PUSH32 0x4E487B7100000000000000000000000000000000000000000000000000000000 PUSH1 0x0 MSTORE PUSH1 0x32 PUSH1 0x4 MSTORE PUSH1 0x24 PUSH1 0x0 REVERT JUMPDEST PUSH1 0x20 MUL PUSH1 0x20 ADD ADD MLOAD DUP2 MSTORE PUSH1 0x20 ADD DUP11 DUP5 DUP2 MLOAD DUP2 LT PUSH3 0x1F0 JUMPI PUSH32 0x4E487B7100000000000000000000000000000000000000000000000000000000 PUSH1 0x0 MSTORE PUSH1 0x32 PUSH1 0x4 MSTORE PUSH1 0x24 PUSH1 0x0 REVERT JUMPDEST PUSH1 0x20 MUL PUSH1 0x20 ADD ADD MLOAD DUP2 MSTORE PUSH1 0x20 ADD DUP10 DUP5 DUP2 MLOAD DUP2 LT PUSH3 0x237 JUMPI PUSH32 0x4E487B7100000000000000000000000000000000000000000000000000000000 PUSH1 0x0 MSTORE PUSH1 0x32 PUSH1 0x4 MSTORE PUSH1 0x24 PUSH1 0x0 REVERT JUMPDEST PUSH1 0x20 MUL PUSH1 0x20 ADD ADD MLOAD DUP2 MSTORE PUSH1 0x20 ADD DUP10 DUP5 DUP2 MLOAD DUP2 LT PUSH3 0x27E JUMPI PUSH32 0x4E487B7100000000000000000000000000000000000000000000000000000000 PUSH1 0x0 MSTORE PUSH1 0x32 PUSH1 0x4 MSTORE PUSH1 0x24 PUSH1 0x0 REVERT JUMPDEST PUSH1 0x20 MUL PUSH1 0x20 ADD ADD MLOAD DUP2 MSTORE PUSH1 0x20 ADD DUP9 DUP5 DUP2 MLOAD DUP2 LT PUSH3 0x2C5 JUMPI PUSH32 0x4E487B7100000000000000000000000000000000000000000000000000000000 PUSH1 0x0 MSTORE PUSH1 0x32 PUSH1 0x4 MSTORE PUSH1 0x24 PUSH1 0x0 REVERT JUMPDEST PUSH1 0x20 MUL PUSH1 0x20 ADD ADD MLOAD DUP2 MSTORE POP SWAP1 DUP1 PUSH1 0x1 DUP2 SLOAD ADD DUP1 DUP3 SSTORE DUP1 SWAP2 POP POP PUSH1 0x1 SWAP1 SUB SWAP1 PUSH1 0x0 MSTORE PUSH1 0x20 PUSH1 0x0 KECCAK256 SWAP1 PUSH1 0x6 MUL ADD PUSH1 0x0 SWAP1 SWAP2 SWAP1 SWAP2 SWAP1 SWAP2 POP PUSH1 0x0 DUP3 ADD MLOAD DUP2 PUSH1 0x0 ADD SSTORE PUSH1 0x20 DUP3 ADD MLOAD DUP2 PUSH1 0x1 ADD SWAP1 DUP1 MLOAD SWAP1 PUSH1 0x20 ADD SWAP1 PUSH3 0x321 SWAP3 SWAP2 SWAP1 PUSH3 0x3B4 JUMP JUMPDEST POP PUSH1 0x40 DUP3 ADD MLOAD DUP2 PUSH1 0x2 ADD SWAP1 DUP1 MLOAD SWAP1 PUSH1 0x20 ADD SWAP1 PUSH3 0x340 SWAP3 SWAP2 SWAP1 PUSH3 0x3B4 JUMP JUMPDEST POP PUSH1 0x60 DUP3 ADD MLOAD DUP2 PUSH1 0x3 ADD SSTORE PUSH1 0x80 DUP3 ADD MLOAD DUP2 PUSH1 0x4 ADD SSTORE PUSH1 0xA0 DUP3 ADD MLOAD DUP2 PUSH1 0x5 ADD SSTORE POP POP PUSH1 0x1 DUP2 PUSH3 0x370 SWAP2 SWAP1 PUSH3 0x862 JUMP JUMPDEST SWAP1 POP PUSH3 0x152 JUMP JUMPDEST POP PUSH3 0x390 PUSH1 0xB PUSH3 0x39E PUSH1 0x20 SHL PUSH3 0x1987 OR PUSH1 0x20 SHR JUMP JUMPDEST POP POP POP POP POP POP POP POP PUSH3 0xA23 JUMP JUMPDEST PUSH1 0x1 DUP2 PUSH1 0x0 ADD PUSH1 0x0 DUP3 DUP3 SLOAD ADD SWAP3 POP POP DUP2 SWAP1 SSTORE POP POP JUMP JUMPDEST DUP3 DUP1 SLOAD PUSH3 0x3C2 SWAP1 PUSH3 0x8FF JUMP JUMPDEST SWAP1 PUSH1 0x0 MSTORE PUSH1 0x20 PUSH1 0x0 KECCAK256 SWAP1 PUSH1 0x1F ADD PUSH1 0x20 SWAP1 DIV DUP2 ADD SWAP3 DUP3 PUSH3 0x3E6 JUMPI PUSH1 0x0 DUP6 SSTORE PUSH3 0x432 JUMP JUMPDEST DUP3 PUSH1 0x1F LT PUSH3 0x401 JUMPI DUP1 MLOAD PUSH1 0xFF NOT AND DUP4 DUP1 ADD OR DUP6 SSTORE PUSH3 0x432 JUMP JUMPDEST DUP3 DUP1 ADD PUSH1 0x1 ADD DUP6 SSTORE DUP3 ISZERO PUSH3 0x432 JUMPI SWAP2 DUP3 ADD JUMPDEST DUP3 DUP2 GT ISZERO PUSH3 0x431 JUMPI DUP3 MLOAD DUP3 SSTORE SWAP2 PUSH1 0x20 ADD SWAP2 SWAP1 PUSH1 0x1 ADD SWAP1 PUSH3 0x414 JUMP JUMPDEST JUMPDEST POP SWAP1 POP PUSH3 0x441 SWAP2 SWAP1 PUSH3 0x445 JUMP JUMPDEST POP SWAP1 JUMP JUMPDEST JUMPDEST DUP1 DUP3 GT ISZERO PUSH3 0x460 JUMPI PUSH1 0x0 DUP2 PUSH1 0x0 SWAP1 SSTORE POP PUSH1 0x1 ADD PUSH3 0x446 JUMP JUMPDEST POP SWAP1 JUMP JUMPDEST PUSH1 0x0 PUSH3 0x47B PUSH3 0x475 DUP5 PUSH3 0x7CE JUMP JUMPDEST PUSH3 0x7A5 JUMP JUMPDEST SWAP1 POP DUP1 DUP4 DUP3 MSTORE PUSH1 0x20 DUP3 ADD SWAP1 POP DUP3 DUP6 PUSH1 0x20 DUP7 MUL DUP3 ADD GT ISZERO PUSH3 0x49B JUMPI PUSH1 0x0 DUP1 REVERT JUMPDEST PUSH1 0x0 JUMPDEST DUP6 DUP2 LT ISZERO PUSH3 0x4EA JUMPI DUP2 MLOAD PUSH8 0xFFFFFFFFFFFFFFFF DUP2 GT ISZERO PUSH3 0x4BF JUMPI PUSH1 0x0 DUP1 REVERT JUMPDEST DUP1 DUP7 ADD PUSH3 0x4CE DUP10 DUP3 PUSH3 0x608 JUMP JUMPDEST DUP6 MSTORE PUSH1 0x20 DUP6 ADD SWAP5 POP PUSH1 0x20 DUP5 ADD SWAP4 POP POP POP PUSH1 0x1 DUP2 ADD SWAP1 POP PUSH3 0x49E JUMP JUMPDEST POP POP POP SWAP4 SWAP3 POP POP POP JUMP JUMPDEST PUSH1 0x0 PUSH3 0x50B PUSH3 0x505 DUP5 PUSH3 0x7FD JUMP JUMPDEST PUSH3 0x7A5 JUMP JUMPDEST SWAP1 POP DUP1 DUP4 DUP3 MSTORE PUSH1 0x20 DUP3 ADD SWAP1 POP DUP3 DUP6 PUSH1 0x20 DUP7 MUL DUP3 ADD GT ISZERO PUSH3 0x52B JUMPI PUSH1 0x0 DUP1 REVERT JUMPDEST PUSH1 0x0 JUMPDEST DUP6 DUP2 LT ISZERO PUSH3 0x55F JUMPI DUP2 PUSH3 0x544 DUP9 DUP3 PUSH3 0x635 JUMP JUMPDEST DUP5 MSTORE PUSH1 0x20 DUP5 ADD SWAP4 POP PUSH1 0x20 DUP4 ADD SWAP3 POP POP PUSH1 0x1 DUP2 ADD SWAP1 POP PUSH3 0x52E JUMP JUMPDEST POP POP POP SWAP4 SWAP3 POP POP POP JUMP JUMPDEST PUSH1 0x0 PUSH3 0x580 PUSH3 0x57A DUP5 PUSH3 0x82C JUMP JUMPDEST PUSH3 0x7A5 JUMP JUMPDEST SWAP1 POP DUP3 DUP2 MSTORE PUSH1 0x20 DUP2 ADD DUP5 DUP5 DUP5 ADD GT ISZERO PUSH3 0x599 JUMPI PUSH1 0x0 DUP1 REVERT JUMPDEST PUSH3 0x5A6 DUP5 DUP3 DUP6 PUSH3 0x8C9 JUMP JUMPDEST POP SWAP4 SWAP3 POP POP POP JUMP JUMPDEST PUSH1 0x0 DUP3 PUSH1 0x1F DUP4 ADD SLT PUSH3 0x5C0 JUMPI PUSH1 0x0 DUP1 REVERT JUMPDEST DUP2 MLOAD PUSH3 0x5D2 DUP5 DUP3 PUSH1 0x20 DUP7 ADD PUSH3 0x464 JUMP JUMPDEST SWAP2 POP POP SWAP3 SWAP2 POP POP JUMP JUMPDEST PUSH1 0x0 DUP3 PUSH1 0x1F DUP4 ADD SLT PUSH3 0x5ED JUMPI PUSH1 0x0 DUP1 REVERT JUMPDEST DUP2 MLOAD PUSH3 0x5FF DUP5 DUP3 PUSH1 0x20 DUP7 ADD PUSH3 0x4F4 JUMP JUMPDEST SWAP2 POP POP SWAP3 SWAP2 POP POP JUMP JUMPDEST PUSH1 0x0 DUP3 PUSH1 0x1F DUP4 ADD SLT PUSH3 0x61A JUMPI PUSH1 0x0 DUP1 REVERT JUMPDEST DUP2 MLOAD PUSH3 0x62C DUP5 DUP3 PUSH1 0x20 DUP7 ADD PUSH3 0x569 JUMP JUMPDEST SWAP2 POP POP SWAP3 SWAP2 POP POP JUMP JUMPDEST PUSH1 0x0 DUP2 MLOAD SWAP1 POP PUSH3 0x646 DUP2 PUSH3 0xA09 JUMP JUMPDEST SWAP3 SWAP2 POP POP JUMP JUMPDEST PUSH1 0x0 DUP1 PUSH1 0x0 DUP1 PUSH1 0x0 DUP1 PUSH1 0x0 DUP1 PUSH2 0x100 DUP10 DUP12 SUB SLT ISZERO PUSH3 0x66A JUMPI PUSH1 0x0 DUP1 REVERT JUMPDEST PUSH1 0x0 DUP10 ADD MLOAD PUSH8 0xFFFFFFFFFFFFFFFF DUP2 GT ISZERO PUSH3 0x685 JUMPI PUSH1 0x0 DUP1 REVERT JUMPDEST PUSH3 0x693 DUP12 DUP3 DUP13 ADD PUSH3 0x5AE JUMP JUMPDEST SWAP9 POP POP PUSH1 0x20 DUP10 ADD MLOAD PUSH8 0xFFFFFFFFFFFFFFFF DUP2 GT ISZERO PUSH3 0x6B1 JUMPI PUSH1 0x0 DUP1 REVERT JUMPDEST PUSH3 0x6BF DUP12 DUP3 DUP13 ADD PUSH3 0x5AE JUMP JUMPDEST SWAP8 POP POP PUSH1 0x40 DUP10 ADD MLOAD PUSH8 0xFFFFFFFFFFFFFFFF DUP2 GT ISZERO PUSH3 0x6DD JUMPI PUSH1 0x0 DUP1 REVERT JUMPDEST PUSH3 0x6EB DUP12 DUP3 DUP13 ADD PUSH3 0x5DB JUMP JUMPDEST SWAP7 POP POP PUSH1 0x60 DUP10 ADD MLOAD PUSH8 0xFFFFFFFFFFFFFFFF DUP2 GT ISZERO PUSH3 0x709 JUMPI PUSH1 0x0 DUP1 REVERT JUMPDEST PUSH3 0x717 DUP12 DUP3 DUP13 ADD PUSH3 0x5DB JUMP JUMPDEST SWAP6 POP POP PUSH1 0x80 DUP10 ADD MLOAD PUSH8 0xFFFFFFFFFFFFFFFF DUP2 GT ISZERO PUSH3 0x735 JUMPI PUSH1 0x0 DUP1 REVERT JUMPDEST PUSH3 0x743 DUP12 DUP3 DUP13 ADD PUSH3 0x608 JUMP JUMPDEST SWAP5 POP POP PUSH1 0xA0 DUP10 ADD MLOAD PUSH8 0xFFFFFFFFFFFFFFFF DUP2 GT ISZERO PUSH3 0x761 JUMPI PUSH1 0x0 DUP1 REVERT JUMPDEST PUSH3 0x76F DUP12 DUP3 DUP13 ADD PUSH3 0x608 JUMP JUMPDEST SWAP4 POP POP PUSH1 0xC0 PUSH3 0x782 DUP12 DUP3 DUP13 ADD PUSH3 0x635 JUMP JUMPDEST SWAP3 POP POP PUSH1 0xE0 PUSH3 0x795 DUP12 DUP3 DUP13 ADD PUSH3 0x635 JUMP JUMPDEST SWAP2 POP POP SWAP3 SWAP6 SWAP9 POP SWAP3 SWAP6 SWAP9 SWAP1 SWAP4 SWAP7 POP JUMP JUMPDEST PUSH1 0x0 PUSH3 0x7B1 PUSH3 0x7C4 JUMP JUMPDEST SWAP1 POP PUSH3 0x7BF DUP3 DUP3 PUSH3 0x935 JUMP JUMPDEST SWAP2 SWAP1 POP JUMP JUMPDEST PUSH1 0x0 PUSH1 0x40 MLOAD SWAP1 POP SWAP1 JUMP JUMPDEST PUSH1 0x0 PUSH8 0xFFFFFFFFFFFFFFFF DUP3 GT ISZERO PUSH3 0x7EC JUMPI PUSH3 0x7EB PUSH3 0x9C9 JUMP JUMPDEST JUMPDEST PUSH1 0x20 DUP3 MUL SWAP1 POP PUSH1 0x20 DUP2 ADD SWAP1 POP SWAP2 SWAP1 POP JUMP JUMPDEST PUSH1 0x0 PUSH8 0xFFFFFFFFFFFFFFFF DUP3 GT ISZERO PUSH3 0x81B JUMPI PUSH3 0x81A PUSH3 0x9C9 JUMP JUMPDEST JUMPDEST PUSH1 0x20 DUP3 MUL SWAP1 POP PUSH1 0x20 DUP2 ADD SWAP1 POP SWAP2 SWAP1 POP JUMP JUMPDEST PUSH1 0x0 PUSH8 0xFFFFFFFFFFFFFFFF DUP3 GT ISZERO PUSH3 0x84A JUMPI PUSH3 0x849 PUSH3 0x9C9 JUMP JUMPDEST JUMPDEST PUSH3 0x855 DUP3 PUSH3 0x9F8 JUMP JUMPDEST SWAP1 POP PUSH1 0x20 DUP2 ADD SWAP1 POP SWAP2 SWAP1 POP JUMP JUMPDEST PUSH1 0x0 PUSH3 0x86F DUP3 PUSH3 0x8BF JUMP JUMPDEST SWAP2 POP PUSH3 0x87C DUP4 PUSH3 0x8BF JUMP JUMPDEST SWAP3 POP DUP3 PUSH32 0xFFFFFFFFFFFFFFFFFFFFFFFFFFFFFFFFFFFFFFFFFFFFFFFFFFFFFFFFFFFFFFFF SUB DUP3 GT ISZERO PUSH3 0x8B4 JUMPI PUSH3 0x8B3 PUSH3 0x96B JUMP JUMPDEST JUMPDEST DUP3 DUP3 ADD SWAP1 POP SWAP3 SWAP2 POP POP JUMP JUMPDEST PUSH1 0x0 DUP2 SWAP1 POP SWAP2 SWAP1 POP JUMP JUMPDEST PUSH1 0x0 JUMPDEST DUP4 DUP2 LT ISZERO PUSH3 0x8E9 JUMPI DUP1 DUP3 ADD MLOAD DUP2 DUP5 ADD MSTORE PUSH1 0x20 DUP2 ADD SWAP1 POP PUSH3 0x8CC JUMP JUMPDEST DUP4 DUP2 GT ISZERO PUSH3 0x8F9 JUMPI PUSH1 0x0 DUP5 DUP5 ADD MSTORE JUMPDEST POP POP POP POP JUMP JUMPDEST PUSH1 0x0 PUSH1 0x2 DUP3 DIV SWAP1 POP PUSH1 0x1 DUP3 AND DUP1 PUSH3 0x918 JUMPI PUSH1 0x7F DUP3 AND SWAP2 POP JUMPDEST PUSH1 0x20 DUP3 LT DUP2 EQ ISZERO PUSH3 0x92F JUMPI PUSH3 0x92E PUSH3 0x99A JUMP JUMPDEST JUMPDEST POP SWAP2 SWAP1 POP JUMP JUMPDEST PUSH3 0x940 DUP3 PUSH3 0x9F8 JUMP JUMPDEST DUP2 ADD DUP2 DUP2 LT PUSH8 0xFFFFFFFFFFFFFFFF DUP3 GT OR ISZERO PUSH3 0x962 JUMPI PUSH3 0x961 PUSH3 0x9C9 JUMP JUMPDEST JUMPDEST DUP1 PUSH1 0x40 MSTORE POP POP POP JUMP JUMPDEST PUSH32 0x4E487B7100000000000000000000000000000000000000000000000000000000 PUSH1 0x0 MSTORE PUSH1 0x11 PUSH1 0x4 MSTORE PUSH1 0x24 PUSH1 0x0 REVERT JUMPDEST PUSH32 0x4E487B7100000000000000000000000000000000000000000000000000000000 PUSH1 0x0 MSTORE PUSH1 0x22 PUSH1 0x4 MSTORE PUSH1 0x24 PUSH1 0x0 REVERT JUMPDEST PUSH32 0x4E487B7100000000000000000000000000000000000000000000000000000000 PUSH1 0x0 MSTORE PUSH1 0x41 PUSH1 0x4 MSTORE PUSH1 0x24 PUSH1 0x0 REVERT JUMPDEST PUSH1 0x0 PUSH1 0x1F NOT PUSH1 0x1F DUP4 ADD AND SWAP1 POP SWAP2 SWAP1 POP JUMP JUMPDEST PUSH3 0xA14 DUP2 PUSH3 0x8BF JUMP JUMPDEST DUP2 EQ PUSH3 0xA20 JUMPI PUSH1 0x0 DUP1 REVERT JUMPDEST POP JUMP JUMPDEST PUSH2 0x40A6 DUP1 PUSH3 0xA33 PUSH1 0x0 CODECOPY PUSH1 0x0 RETURN INVALID PUSH1 0x80 PUSH1 0x40 MSTORE CALLVALUE DUP1 ISZERO PUSH2 0x10 JUMPI PUSH1 0x0 DUP1 REVERT JUMPDEST POP PUSH1 0x4 CALLDATASIZE LT PUSH2 0x137 JUMPI PUSH1 0x0 CALLDATALOAD PUSH1 0xE0 SHR DUP1 PUSH4 0x7DF124A1 GT PUSH2 0xB8 JUMPI DUP1 PUSH4 0xC772AF39 GT PUSH2 0x7C JUMPI DUP1 PUSH4 0xC772AF39 EQ PUSH2 0x365 JUMPI DUP1 PUSH4 0xC87B56DD EQ PUSH2 0x386 JUMPI DUP1 PUSH4 0xD4F24C5B EQ PUSH2 0x3B6 JUMPI DUP1 PUSH4 0xE2CE1C1B EQ PUSH2 0x3C0 JUMPI DUP1 PUSH4 0xE985E9C5 EQ PUSH2 0x3DE JUMPI DUP1 PUSH4 0xEB3A9EF7 EQ PUSH2 0x40E JUMPI PUSH2 0x137 JUMP JUMPDEST DUP1 PUSH4 0x7DF124A1 EQ PUSH2 0x2C1 JUMPI DUP1 PUSH4 0x95D89B41 EQ PUSH2 0x2F1 JUMPI DUP1 PUSH4 0xA22CB465 EQ PUSH2 0x30F JUMPI DUP1 PUSH4 0xB88D4FDE EQ PUSH2 0x32B JUMPI DUP1 PUSH4 0xC76D9E7D EQ PUSH2 0x347 JUMPI PUSH2 0x137 JUMP JUMPDEST DUP1 PUSH4 0x284EAB59 GT PUSH2 0xFF JUMPI DUP1 PUSH4 0x284EAB59 EQ PUSH2 0x1F2 JUMPI DUP1 PUSH4 0x42842E0E EQ PUSH2 0x210 JUMPI DUP1 PUSH4 0x5ECADEF3 EQ PUSH2 0x22C JUMPI DUP1 PUSH4 0x6352211E EQ PUSH2 0x261 JUMPI DUP1 PUSH4 0x70A08231 EQ PUSH2 0x291 JUMPI PUSH2 0x137 JUMP JUMPDEST DUP1 PUSH4 0x1FFC9A7 EQ PUSH2 0x13C JUMPI DUP1 PUSH4 0x6FDDE03 EQ PUSH2 0x16C JUMPI DUP1 PUSH4 0x81812FC EQ PUSH2 0x18A JUMPI DUP1 PUSH4 0x95EA7B3 EQ PUSH2 0x1BA JUMPI DUP1 PUSH4 0x23B872DD EQ PUSH2 0x1D6 JUMPI JUMPDEST PUSH1 0x0 DUP1 REVERT JUMPDEST PUSH2 0x156 PUSH1 0x4 DUP1 CALLDATASIZE SUB DUP2 ADD SWAP1 PUSH2 0x151 SWAP2 SWAP1 PUSH2 0x2B4D JUMP JUMPDEST PUSH2 0x42A JUMP JUMPDEST PUSH1 0x40 MLOAD PUSH2 0x163 SWAP2 SWAP1 PUSH2 0x3359 JUMP JUMPDEST PUSH1 0x40 MLOAD DUP1 SWAP2 SUB SWAP1 RETURN JUMPDEST PUSH2 0x174 PUSH2 0x50C JUMP JUMPDEST PUSH1 0x40 MLOAD PUSH2 0x181 SWAP2 SWAP1 PUSH2 0x3374 JUMP JUMPDEST PUSH1 0x40 MLOAD DUP1 SWAP2 SUB SWAP1 RETURN JUMPDEST PUSH2 0x1A4 PUSH1 0x4 DUP1 CALLDATASIZE SUB DUP2 ADD SWAP1 PUSH2 0x19F SWAP2 SWAP1 PUSH2 0x2B9F JUMP JUMPDEST PUSH2 0x59E JUMP JUMPDEST PUSH1 0x40 MLOAD PUSH2 0x1B1 SWAP2 SWAP1 PUSH2 0x3299 JUMP JUMPDEST PUSH1 0x40 MLOAD DUP1 SWAP2 SUB SWAP1 RETURN JUMPDEST PUSH2 0x1D4 PUSH1 0x4 DUP1 CALLDATASIZE SUB DUP2 ADD SWAP1 PUSH2 0x1CF SWAP2 SWAP1 PUSH2 0x2B11 JUMP JUMPDEST PUSH2 0x5E4 JUMP JUMPDEST STOP JUMPDEST PUSH2 0x1F0 PUSH1 0x4 DUP1 CALLDATASIZE SUB DUP2 ADD SWAP1 PUSH2 0x1EB SWAP2 SWAP1 PUSH2 0x2A0B JUMP JUMPDEST PUSH2 0x6FC JUMP JUMPDEST STOP JUMPDEST PUSH2 0x1FA PUSH2 0x75C JUMP JUMPDEST PUSH1 0x40 MLOAD PUSH2 0x207 SWAP2 SWAP1 PUSH2 0x3337 JUMP JUMPDEST PUSH1 0x40 MLOAD DUP1 SWAP2 SUB SWAP1 RETURN JUMPDEST PUSH2 0x22A PUSH1 0x4 DUP1 CALLDATASIZE SUB DUP2 ADD SWAP1 PUSH2 0x225 SWAP2 SWAP1 PUSH2 0x2A0B JUMP JUMPDEST PUSH2 0x907 JUMP JUMPDEST STOP JUMPDEST PUSH2 0x246 PUSH1 0x4 DUP1 CALLDATASIZE SUB DUP2 ADD SWAP1 PUSH2 0x241 SWAP2 SWAP1 PUSH2 0x2B9F JUMP JUMPDEST PUSH2 0x927 JUMP JUMPDEST PUSH1 0x40 MLOAD PUSH2 0x258 SWAP7 SWAP6 SWAP5 SWAP4 SWAP3 SWAP2 SWAP1 PUSH2 0x35E8 JUMP JUMPDEST PUSH1 0x40 MLOAD DUP1 SWAP2 SUB SWAP1 RETURN JUMPDEST PUSH2 0x27B PUSH1 0x4 DUP1 CALLDATASIZE SUB DUP2 ADD SWAP1 PUSH2 0x276 SWAP2 SWAP1 PUSH2 0x2B9F JUMP JUMPDEST PUSH2 0xA73 JUMP JUMPDEST PUSH1 0x40 MLOAD PUSH2 0x288 SWAP2 SWAP1 PUSH2 0x3299 JUMP JUMPDEST PUSH1 0x40 MLOAD DUP1 SWAP2 SUB SWAP1 RETURN JUMPDEST PUSH2 0x2AB PUSH1 0x4 DUP1 CALLDATASIZE SUB DUP2 ADD SWAP1 PUSH2 0x2A6 SWAP2 SWAP1 PUSH2 0x29A6 JUMP JUMPDEST PUSH2 0xB25 JUMP JUMPDEST PUSH1 0x40 MLOAD PUSH2 0x2B8 SWAP2 SWAP1 PUSH2 0x35CD JUMP JUMPDEST PUSH1 0x40 MLOAD DUP1 SWAP2 SUB SWAP1 RETURN JUMPDEST PUSH2 0x2DB PUSH1 0x4 DUP1 CALLDATASIZE SUB DUP2 ADD SWAP1 PUSH2 0x2D6 SWAP2 SWAP1 PUSH2 0x29A6 JUMP JUMPDEST PUSH2 0xBDD JUMP JUMPDEST PUSH1 0x40 MLOAD PUSH2 0x2E8 SWAP2 SWAP1 PUSH2 0x35CD JUMP JUMPDEST PUSH1 0x40 MLOAD DUP1 SWAP2 SUB SWAP1 RETURN JUMPDEST PUSH2 0x2F9 PUSH2 0xBF5 JUMP JUMPDEST PUSH1 0x40 MLOAD PUSH2 0x306 SWAP2 SWAP1 PUSH2 0x3374 JUMP JUMPDEST PUSH1 0x40 MLOAD DUP1 SWAP2 SUB SWAP1 RETURN JUMPDEST PUSH2 0x329 PUSH1 0x4 DUP1 CALLDATASIZE SUB DUP2 ADD SWAP1 PUSH2 0x324 SWAP2 SWAP1 PUSH2 0x2AD5 JUMP JUMPDEST PUSH2 0xC87 JUMP JUMPDEST STOP JUMPDEST PUSH2 0x345 PUSH1 0x4 DUP1 CALLDATASIZE SUB DUP2 ADD SWAP1 PUSH2 0x340 SWAP2 SWAP1 PUSH2 0x2A5A JUMP JUMPDEST PUSH2 0xC9D JUMP JUMPDEST STOP JUMPDEST PUSH2 0x34F PUSH2 0xCFF JUMP JUMPDEST PUSH1 0x40 MLOAD PUSH2 0x35C SWAP2 SWAP1 PUSH2 0x3589 JUMP JUMPDEST PUSH1 0x40 MLOAD DUP1 SWAP2 SUB SWAP1 RETURN JUMPDEST PUSH2 0x36D PUSH2 0xE51 JUMP JUMPDEST PUSH1 0x40 MLOAD PUSH2 0x37D SWAP5 SWAP4 SWAP3 SWAP2 SWAP1 PUSH2 0x3396 JUMP JUMPDEST PUSH1 0x40 MLOAD DUP1 SWAP2 SUB SWAP1 RETURN JUMPDEST PUSH2 0x3A0 PUSH1 0x4 DUP1 CALLDATASIZE SUB DUP2 ADD SWAP1 PUSH2 0x39B SWAP2 SWAP1 PUSH2 0x2B9F JUMP JUMPDEST PUSH2 0xF7F JUMP JUMPDEST PUSH1 0x40 MLOAD PUSH2 0x3AD SWAP2 SWAP1 PUSH2 0x3374 JUMP JUMPDEST PUSH1 0x40 MLOAD DUP1 SWAP2 SUB SWAP1 RETURN JUMPDEST PUSH2 0x3BE PUSH2 0x119A JUMP JUMPDEST STOP JUMPDEST PUSH2 0x3C8 PUSH2 0x134A JUMP JUMPDEST PUSH1 0x40 MLOAD PUSH2 0x3D5 SWAP2 SWAP1 PUSH2 0x35AB JUMP JUMPDEST PUSH1 0x40 MLOAD DUP1 SWAP2 SUB SWAP1 RETURN JUMPDEST PUSH2 0x3F8 PUSH1 0x4 DUP1 CALLDATASIZE SUB DUP2 ADD SWAP1 PUSH2 0x3F3 SWAP2 SWAP1 PUSH2 0x29CF JUMP JUMPDEST PUSH2 0x1522 JUMP JUMPDEST PUSH1 0x40 MLOAD PUSH2 0x405 SWAP2 SWAP1 PUSH2 0x3359 JUMP JUMPDEST PUSH1 0x40 MLOAD DUP1 SWAP2 SUB SWAP1 RETURN JUMPDEST PUSH2 0x428 PUSH1 0x4 DUP1 CALLDATASIZE SUB DUP2 ADD SWAP1 PUSH2 0x423 SWAP2 SWAP1 PUSH2 0x2B9F JUMP JUMPDEST PUSH2 0x15B6 JUMP JUMPDEST STOP JUMPDEST PUSH1 0x0 PUSH32 0x80AC58CD00000000000000000000000000000000000000000000000000000000 PUSH28 0xFFFFFFFFFFFFFFFFFFFFFFFFFFFFFFFFFFFFFFFFFFFFFFFFFFFFFFFF NOT AND DUP3 PUSH28 0xFFFFFFFFFFFFFFFFFFFFFFFFFFFFFFFFFFFFFFFFFFFFFFFFFFFFFFFF NOT AND EQ DUP1 PUSH2 0x4F5 JUMPI POP PUSH32 0x5B5E139F00000000000000000000000000000000000000000000000000000000 PUSH28 0xFFFFFFFFFFFFFFFFFFFFFFFFFFFFFFFFFFFFFFFFFFFFFFFFFFFFFFFF NOT AND DUP3 PUSH28 0xFFFFFFFFFFFFFFFFFFFFFFFFFFFFFFFFFFFFFFFFFFFFFFFFFFFFFFFF NOT AND EQ JUMPDEST DUP1 PUSH2 0x505 JUMPI POP PUSH2 0x504 DUP3 PUSH2 0x199D JUMP JUMPDEST JUMPDEST SWAP1 POP SWAP2 SWAP1 POP JUMP JUMPDEST PUSH1 0x60 PUSH1 0x0 DUP1 SLOAD PUSH2 0x51B SWAP1 PUSH2 0x3905 JUMP JUMPDEST DUP1 PUSH1 0x1F ADD PUSH1 0x20 DUP1 SWAP2 DIV MUL PUSH1 0x20 ADD PUSH1 0x40 MLOAD SWAP1 DUP2 ADD PUSH1 0x40 MSTORE DUP1 SWAP3 SWAP2 SWAP1 DUP2 DUP2 MSTORE PUSH1 0x20 ADD DUP3 DUP1 SLOAD PUSH2 0x547 SWAP1 PUSH2 0x3905 JUMP JUMPDEST DUP1 ISZERO PUSH2 0x594 JUMPI DUP1 PUSH1 0x1F LT PUSH2 0x569 JUMPI PUSH2 0x100 DUP1 DUP4 SLOAD DIV MUL DUP4 MSTORE SWAP2 PUSH1 0x20 ADD SWAP2 PUSH2 0x594 JUMP JUMPDEST DUP3 ADD SWAP2 SWAP1 PUSH1 0x0 MSTORE PUSH1 0x20 PUSH1 0x0 KECCAK256 SWAP1 JUMPDEST DUP2 SLOAD DUP2 MSTORE SWAP1 PUSH1 0x1 ADD SWAP1 PUSH1 0x20 ADD DUP1 DUP4 GT PUSH2 0x577 JUMPI DUP3 SWAP1 SUB PUSH1 0x1F AND DUP3 ADD SWAP2 JUMPDEST POP POP POP POP POP SWAP1 POP SWAP1 JUMP JUMPDEST PUSH1 0x0 PUSH2 0x5A9 DUP3 PUSH2 0x1A07 JUMP JUMPDEST PUSH1 0x4 PUSH1 0x0 DUP4 DUP2 MSTORE PUSH1 0x20 ADD SWAP1 DUP2 MSTORE PUSH1 0x20 ADD PUSH1 0x0 KECCAK256 PUSH1 0x0 SWAP1 SLOAD SWAP1 PUSH2 0x100 EXP SWAP1 DIV PUSH20 0xFFFFFFFFFFFFFFFFFFFFFFFFFFFFFFFFFFFFFFFF AND SWAP1 POP SWAP2 SWAP1 POP JUMP JUMPDEST PUSH1 0x0 PUSH2 0x5EF DUP3 PUSH2 0xA73 JUMP JUMPDEST SWAP1 POP DUP1 PUSH20 0xFFFFFFFFFFFFFFFFFFFFFFFFFFFFFFFFFFFFFFFF AND DUP4 PUSH20 0xFFFFFFFFFFFFFFFFFFFFFFFFFFFFFFFFFFFFFFFF AND EQ ISZERO PUSH2 0x660 JUMPI PUSH1 0x40 MLOAD PUSH32 0x8C379A000000000000000000000000000000000000000000000000000000000 DUP2 MSTORE PUSH1 0x4 ADD PUSH2 0x657 SWAP1 PUSH2 0x3549 JUMP JUMPDEST PUSH1 0x40 MLOAD DUP1 SWAP2 SUB SWAP1 REVERT JUMPDEST DUP1 PUSH20 0xFFFFFFFFFFFFFFFFFFFFFFFFFFFFFFFFFFFFFFFF AND PUSH2 0x67F PUSH2 0x1A52 JUMP JUMPDEST PUSH20 0xFFFFFFFFFFFFFFFFFFFFFFFFFFFFFFFFFFFFFFFF AND EQ DUP1 PUSH2 0x6AE JUMPI POP PUSH2 0x6AD DUP2 PUSH2 0x6A8 PUSH2 0x1A52 JUMP JUMPDEST PUSH2 0x1522 JUMP JUMPDEST JUMPDEST PUSH2 0x6ED JUMPI PUSH1 0x40 MLOAD PUSH32 0x8C379A000000000000000000000000000000000000000000000000000000000 DUP2 MSTORE PUSH1 0x4 ADD PUSH2 0x6E4 SWAP1 PUSH2 0x34E9 JUMP JUMPDEST PUSH1 0x40 MLOAD DUP1 SWAP2 SUB SWAP1 REVERT JUMPDEST PUSH2 0x6F7 DUP4 DUP4 PUSH2 0x1A5A JUMP JUMPDEST POP POP POP JUMP JUMPDEST PUSH2 0x70D PUSH2 0x707 PUSH2 0x1A52 JUMP JUMPDEST DUP3 PUSH2 0x1B13 JUMP JUMPDEST PUSH2 0x74C JUMPI PUSH1 0x40 MLOAD PUSH32 0x8C379A000000000000000000000000000000000000000000000000000000000 DUP2 MSTORE PUSH1 0x4 ADD PUSH2 0x743 SWAP1 PUSH2 0x3569 JUMP JUMPDEST PUSH1 0x40 MLOAD DUP1 SWAP2 SUB SWAP1 REVERT JUMPDEST PUSH2 0x757 DUP4 DUP4 DUP4 PUSH2 0x1BA8 JUMP JUMPDEST POP POP POP JUMP JUMPDEST PUSH1 0x60 PUSH1 0x6 DUP1 SLOAD DUP1 PUSH1 0x20 MUL PUSH1 0x20 ADD PUSH1 0x40 MLOAD SWAP1 DUP2 ADD PUSH1 0x40 MSTORE DUP1 SWAP3 SWAP2 SWAP1 DUP2 DUP2 MSTORE PUSH1 0x20 ADD PUSH1 0x0 SWAP1 JUMPDEST DUP3 DUP3 LT ISZERO PUSH2 0x8FE JUMPI DUP4 DUP3 SWAP1 PUSH1 0x0 MSTORE PUSH1 0x20 PUSH1 0x0 KECCAK256 SWAP1 PUSH1 0x6 MUL ADD PUSH1 0x40 MLOAD DUP1 PUSH1 0xC0 ADD PUSH1 0x40 MSTORE SWAP1 DUP2 PUSH1 0x0 DUP3 ADD SLOAD DUP2 MSTORE PUSH1 0x20 ADD PUSH1 0x1 DUP3 ADD DUP1 SLOAD PUSH2 0x7BD SWAP1 PUSH2 0x3905 JUMP JUMPDEST DUP1 PUSH1 0x1F ADD PUSH1 0x20 DUP1 SWAP2 DIV MUL PUSH1 0x20 ADD PUSH1 0x40 MLOAD SWAP1 DUP2 ADD PUSH1 0x40 MSTORE DUP1 SWAP3 SWAP2 SWAP1 DUP2 DUP2 MSTORE PUSH1 0x20 ADD DUP3 DUP1 SLOAD PUSH2 0x7E9 SWAP1 PUSH2 0x3905 JUMP JUMPDEST DUP1 ISZERO PUSH2 0x836 JUMPI DUP1 PUSH1 0x1F LT PUSH2 0x80B JUMPI PUSH2 0x100 DUP1 DUP4 SLOAD DIV MUL DUP4 MSTORE SWAP2 PUSH1 0x20 ADD SWAP2 PUSH2 0x836 JUMP JUMPDEST DUP3 ADD SWAP2 SWAP1 PUSH1 0x0 MSTORE PUSH1 0x20 PUSH1 0x0 KECCAK256 SWAP1 JUMPDEST DUP2 SLOAD DUP2 MSTORE SWAP1 PUSH1 0x1 ADD SWAP1 PUSH1 0x20 ADD DUP1 DUP4 GT PUSH2 0x819 JUMPI DUP3 SWAP1 SUB PUSH1 0x1F AND DUP3 ADD SWAP2 JUMPDEST POP POP POP POP POP DUP2 MSTORE PUSH1 0x20 ADD PUSH1 0x2 DUP3 ADD DUP1 SLOAD PUSH2 0x84F SWAP1 PUSH2 0x3905 JUMP JUMPDEST DUP1 PUSH1 0x1F ADD PUSH1 0x20 DUP1 SWAP2 DIV MUL PUSH1 0x20 ADD PUSH1 0x40 MLOAD SWAP1 DUP2 ADD PUSH1 0x40 MSTORE DUP1 SWAP3 SWAP2 SWAP1 DUP2 DUP2 MSTORE PUSH1 0x20 ADD DUP3 DUP1 SLOAD PUSH2 0x87B SWAP1 PUSH2 0x3905 JUMP JUMPDEST DUP1 ISZERO PUSH2 0x8C8 JUMPI DUP1 PUSH1 0x1F LT PUSH2 0x89D JUMPI PUSH2 0x100 DUP1 DUP4 SLOAD DIV MUL DUP4 MSTORE SWAP2 PUSH1 0x20 ADD SWAP2 PUSH2 0x8C8 JUMP JUMPDEST DUP3 ADD SWAP2 SWAP1 PUSH1 0x0 MSTORE PUSH1 0x20 PUSH1 0x0 KECCAK256 SWAP1 JUMPDEST DUP2 SLOAD DUP2 MSTORE SWAP1 PUSH1 0x1 ADD SWAP1 PUSH1 0x20 ADD DUP1 DUP4 GT PUSH2 0x8AB JUMPI DUP3 SWAP1 SUB PUSH1 0x1F AND DUP3 ADD SWAP2 JUMPDEST POP POP POP POP POP DUP2 MSTORE PUSH1 0x20 ADD PUSH1 0x3 DUP3 ADD SLOAD DUP2 MSTORE PUSH1 0x20 ADD PUSH1 0x4 DUP3 ADD SLOAD DUP2 MSTORE PUSH1 0x20 ADD PUSH1 0x5 DUP3 ADD SLOAD DUP2 MSTORE POP POP DUP2 MSTORE PUSH1 0x20 ADD SWAP1 PUSH1 0x1 ADD SWAP1 PUSH2 0x780 JUMP JUMPDEST POP POP POP POP SWAP1 POP SWAP1 JUMP JUMPDEST PUSH2 0x922 DUP4 DUP4 DUP4 PUSH1 0x40 MLOAD DUP1 PUSH1 0x20 ADD PUSH1 0x40 MSTORE DUP1 PUSH1 0x0 DUP2 MSTORE POP PUSH2 0xC9D JUMP JUMPDEST POP POP POP JUMP JUMPDEST PUSH1 0xC PUSH1 0x20 MSTORE DUP1 PUSH1 0x0 MSTORE PUSH1 0x40 PUSH1 0x0 KECCAK256 PUSH1 0x0 SWAP2 POP SWAP1 POP DUP1 PUSH1 0x0 ADD SLOAD SWAP1 DUP1 PUSH1 0x1 ADD DUP1 SLOAD PUSH2 0x950 SWAP1 PUSH2 0x3905 JUMP JUMPDEST DUP1 PUSH1 0x1F ADD PUSH1 0x20 DUP1 SWAP2 DIV MUL PUSH1 0x20 ADD PUSH1 0x40 MLOAD SWAP1 DUP2 ADD PUSH1 0x40 MSTORE DUP1 SWAP3 SWAP2 SWAP1 DUP2 DUP2 MSTORE PUSH1 0x20 ADD DUP3 DUP1 SLOAD PUSH2 0x97C SWAP1 PUSH2 0x3905 JUMP JUMPDEST DUP1 ISZERO PUSH2 0x9C9 JUMPI DUP1 PUSH1 0x1F LT PUSH2 0x99E JUMPI PUSH2 0x100 DUP1 DUP4 SLOAD DIV MUL DUP4 MSTORE SWAP2 PUSH1 0x20 ADD SWAP2 PUSH2 0x9C9 JUMP JUMPDEST DUP3 ADD SWAP2 SWAP1 PUSH1 0x0 MSTORE PUSH1 0x20 PUSH1 0x0 KECCAK256 SWAP1 JUMPDEST DUP2 SLOAD DUP2 MSTORE SWAP1 PUSH1 0x1 ADD SWAP1 PUSH1 0x20 ADD DUP1 DUP4 GT PUSH2 0x9AC JUMPI DUP3 SWAP1 SUB PUSH1 0x1F AND DUP3 ADD SWAP2 JUMPDEST POP POP POP POP POP SWAP1 DUP1 PUSH1 0x2 ADD DUP1 SLOAD PUSH2 0x9DE SWAP1 PUSH2 0x3905 JUMP JUMPDEST DUP1 PUSH1 0x1F ADD PUSH1 0x20 DUP1 SWAP2 DIV MUL PUSH1 0x20 ADD PUSH1 0x40 MLOAD SWAP1 DUP2 ADD PUSH1 0x40 MSTORE DUP1 SWAP3 SWAP2 SWAP1 DUP2 DUP2 MSTORE PUSH1 0x20 ADD DUP3 DUP1 SLOAD PUSH2 0xA0A SWAP1 PUSH2 0x3905 JUMP JUMPDEST DUP1 ISZERO PUSH2 0xA57 JUMPI DUP1 PUSH1 0x1F LT PUSH2 0xA2C JUMPI PUSH2 0x100 DUP1 DUP4 SLOAD DIV MUL DUP4 MSTORE SWAP2 PUSH1 0x20 ADD SWAP2 PUSH2 0xA57 JUMP JUMPDEST DUP3 ADD SWAP2 SWAP1 PUSH1 0x0 MSTORE PUSH1 0x20 PUSH1 0x0 KECCAK256 SWAP1 JUMPDEST DUP2 SLOAD DUP2 MSTORE SWAP1 PUSH1 0x1 ADD SWAP1 PUSH1 0x20 ADD DUP1 DUP4 GT PUSH2 0xA3A JUMPI DUP3 SWAP1 SUB PUSH1 0x1F AND DUP3 ADD SWAP2 JUMPDEST POP POP POP POP POP SWAP1 DUP1 PUSH1 0x3 ADD SLOAD SWAP1 DUP1 PUSH1 0x4 ADD SLOAD SWAP1 DUP1 PUSH1 0x5 ADD SLOAD SWAP1 POP DUP7 JUMP JUMPDEST PUSH1 0x0 DUP1 PUSH1 0x2 PUSH1 0x0 DUP5 DUP2 MSTORE PUSH1 0x20 ADD SWAP1 DUP2 MSTORE PUSH1 0x20 ADD PUSH1 0x0 KECCAK256 PUSH1 0x0 SWAP1 SLOAD SWAP1 PUSH2 0x100 EXP SWAP1 DIV PUSH20 0xFFFFFFFFFFFFFFFFFFFFFFFFFFFFFFFFFFFFFFFF AND SWAP1 POP PUSH1 0x0 PUSH20 0xFFFFFFFFFFFFFFFFFFFFFFFFFFFFFFFFFFFFFFFF AND DUP2 PUSH20 0xFFFFFFFFFFFFFFFFFFFFFFFFFFFFFFFFFFFFFFFF AND EQ ISZERO PUSH2 0xB1C JUMPI PUSH1 0x40 MLOAD PUSH32 0x8C379A000000000000000000000000000000000000000000000000000000000 DUP2 MSTORE PUSH1 0x4 ADD PUSH2 0xB13 SWAP1 PUSH2 0x3529 JUMP JUMPDEST PUSH1 0x40 MLOAD DUP1 SWAP2 SUB SWAP1 REVERT JUMPDEST DUP1 SWAP2 POP POP SWAP2 SWAP1 POP JUMP JUMPDEST PUSH1 0x0 DUP1 PUSH20 0xFFFFFFFFFFFFFFFFFFFFFFFFFFFFFFFFFFFFFFFF AND DUP3 PUSH20 0xFFFFFFFFFFFFFFFFFFFFFFFFFFFFFFFFFFFFFFFF AND EQ ISZERO PUSH2 0xB96 JUMPI PUSH1 0x40 MLOAD PUSH32 0x8C379A000000000000000000000000000000000000000000000000000000000 DUP2 MSTORE PUSH1 0x4 ADD PUSH2 0xB8D SWAP1 PUSH2 0x34A9 JUMP JUMPDEST PUSH1 0x40 MLOAD DUP1 SWAP2 SUB SWAP1 REVERT JUMPDEST PUSH1 0x3 PUSH1 0x0 DUP4 PUSH20 0xFFFFFFFFFFFFFFFFFFFFFFFFFFFFFFFFFFFFFFFF AND PUSH20 0xFFFFFFFFFFFFFFFFFFFFFFFFFFFFFFFFFFFFFFFF AND DUP2 MSTORE PUSH1 0x20 ADD SWAP1 DUP2 MSTORE PUSH1 0x20 ADD PUSH1 0x0 KECCAK256 SLOAD SWAP1 POP SWAP2 SWAP1 POP JUMP JUMPDEST PUSH1 0xD PUSH1 0x20 MSTORE DUP1 PUSH1 0x0 MSTORE PUSH1 0x40 PUSH1 0x0 KECCAK256 PUSH1 0x0 SWAP2 POP SWAP1 POP SLOAD DUP2 JUMP JUMPDEST PUSH1 0x60 PUSH1 0x1 DUP1 SLOAD PUSH2 0xC04 SWAP1 PUSH2 0x3905 JUMP JUMPDEST DUP1 PUSH1 0x1F ADD PUSH1 0x20 DUP1 SWAP2 DIV MUL PUSH1 0x20 ADD PUSH1 0x40 MLOAD SWAP1 DUP2 ADD PUSH1 0x40 MSTORE DUP1 SWAP3 SWAP2 SWAP1 DUP2 DUP2 MSTORE PUSH1 0x20 ADD DUP3 DUP1 SLOAD PUSH2 0xC30 SWAP1 PUSH2 0x3905 JUMP JUMPDEST DUP1 ISZERO PUSH2 0xC7D JUMPI DUP1 PUSH1 0x1F LT PUSH2 0xC52 JUMPI PUSH2 0x100 DUP1 DUP4 SLOAD DIV MUL DUP4 MSTORE SWAP2 PUSH1 0x20 ADD SWAP2 PUSH2 0xC7D JUMP JUMPDEST DUP3 ADD SWAP2 SWAP1 PUSH1 0x0 MSTORE PUSH1 0x20 PUSH1 0x0 KECCAK256 SWAP1 JUMPDEST DUP2 SLOAD DUP2 MSTORE SWAP1 PUSH1 0x1 ADD SWAP1 PUSH1 0x20 ADD DUP1 DUP4 GT PUSH2 0xC60 JUMPI DUP3 SWAP1 SUB PUSH1 0x1F AND DUP3 ADD SWAP2 JUMPDEST POP POP POP POP POP SWAP1 POP SWAP1 JUMP JUMPDEST PUSH2 0xC99 PUSH2 0xC92 PUSH2 0x1A52 JUMP JUMPDEST DUP4 DUP4 PUSH2 0x1E0F JUMP JUMPDEST POP POP JUMP JUMPDEST PUSH2 0xCAE PUSH2 0xCA8 PUSH2 0x1A52 JUMP JUMPDEST DUP4 PUSH2 0x1B13 JUMP JUMPDEST PUSH2 0xCED JUMPI PUSH1 0x40 MLOAD PUSH32 0x8C379A000000000000000000000000000000000000000000000000000000000 DUP2 MSTORE PUSH1 0x4 ADD PUSH2 0xCE4 SWAP1 PUSH2 0x3569 JUMP JUMPDEST PUSH1 0x40 MLOAD DUP1 SWAP2 SUB SWAP1 REVERT JUMPDEST PUSH2 0xCF9 DUP5 DUP5 DUP5 DUP5 PUSH2 0x1F7C JUMP JUMPDEST POP POP POP POP JUMP JUMPDEST PUSH2 0xD07 PUSH2 0x27D4 JUMP JUMPDEST PUSH1 0x7 PUSH1 0x40 MLOAD DUP1 PUSH1 0x80 ADD PUSH1 0x40 MSTORE SWAP1 DUP2 PUSH1 0x0 DUP3 ADD DUP1 SLOAD PUSH2 0xD24 SWAP1 PUSH2 0x3905 JUMP JUMPDEST DUP1 PUSH1 0x1F ADD PUSH1 0x20 DUP1 SWAP2 DIV MUL PUSH1 0x20 ADD PUSH1 0x40 MLOAD SWAP1 DUP2 ADD PUSH1 0x40 MSTORE DUP1 SWAP3 SWAP2 SWAP1 DUP2 DUP2 MSTORE PUSH1 0x20 ADD DUP3 DUP1 SLOAD PUSH2 0xD50 SWAP1 PUSH2 0x3905 JUMP JUMPDEST DUP1 ISZERO PUSH2 0xD9D JUMPI DUP1 PUSH1 0x1F LT PUSH2 0xD72 JUMPI PUSH2 0x100 DUP1 DUP4 SLOAD DIV MUL DUP4 MSTORE SWAP2 PUSH1 0x20 ADD SWAP2 PUSH2 0xD9D JUMP JUMPDEST DUP3 ADD SWAP2 SWAP1 PUSH1 0x0 MSTORE PUSH1 0x20 PUSH1 0x0 KECCAK256 SWAP1 JUMPDEST DUP2 SLOAD DUP2 MSTORE SWAP1 PUSH1 0x1 ADD SWAP1 PUSH1 0x20 ADD DUP1 DUP4 GT PUSH2 0xD80 JUMPI DUP3 SWAP1 SUB PUSH1 0x1F AND DUP3 ADD SWAP2 JUMPDEST POP POP POP POP POP DUP2 MSTORE PUSH1 0x20 ADD PUSH1 0x1 DUP3 ADD DUP1 SLOAD PUSH2 0xDB6 SWAP1 PUSH2 0x3905 JUMP JUMPDEST DUP1 PUSH1 0x1F ADD PUSH1 0x20 DUP1 SWAP2 DIV MUL PUSH1 0x20 ADD PUSH1 0x40 MLOAD SWAP1 DUP2 ADD PUSH1 0x40 MSTORE DUP1 SWAP3 SWAP2 SWAP1 DUP2 DUP2 MSTORE PUSH1 0x20 ADD DUP3 DUP1 SLOAD PUSH2 0xDE2 SWAP1 PUSH2 0x3905 JUMP JUMPDEST DUP1 ISZERO PUSH2 0xE2F JUMPI DUP1 PUSH1 0x1F LT PUSH2 0xE04 JUMPI PUSH2 0x100 DUP1 DUP4 SLOAD DIV MUL DUP4 MSTORE SWAP2 PUSH1 0x20 ADD SWAP2 PUSH2 0xE2F JUMP JUMPDEST DUP3 ADD SWAP2 SWAP1 PUSH1 0x0 MSTORE PUSH1 0x20 PUSH1 0x0 KECCAK256 SWAP1 JUMPDEST DUP2 SLOAD DUP2 MSTORE SWAP1 PUSH1 0x1 ADD SWAP1 PUSH1 0x20 ADD DUP1 DUP4 GT PUSH2 0xE12 JUMPI DUP3 SWAP1 SUB PUSH1 0x1F AND DUP3 ADD SWAP2 JUMPDEST POP POP POP POP POP DUP2 MSTORE PUSH1 0x20 ADD PUSH1 0x2 DUP3 ADD SLOAD DUP2 MSTORE PUSH1 0x20 ADD PUSH1 0x3 DUP3 ADD SLOAD DUP2 MSTORE POP POP SWAP1 POP SWAP1 JUMP JUMPDEST PUSH1 0x7 DUP1 PUSH1 0x0 ADD DUP1 SLOAD PUSH2 0xE62 SWAP1 PUSH2 0x3905 JUMP JUMPDEST DUP1 PUSH1 0x1F ADD PUSH1 0x20 DUP1 SWAP2 DIV MUL PUSH1 0x20 ADD PUSH1 0x40 MLOAD SWAP1 DUP2 ADD PUSH1 0x40 MSTORE DUP1 SWAP3 SWAP2 SWAP1 DUP2 DUP2 MSTORE PUSH1 0x20 ADD DUP3 DUP1 SLOAD PUSH2 0xE8E SWAP1 PUSH2 0x3905 JUMP JUMPDEST DUP1 ISZERO PUSH2 0xEDB JUMPI DUP1 PUSH1 0x1F LT PUSH2 0xEB0 JUMPI PUSH2 0x100 DUP1 DUP4 SLOAD DIV MUL DUP4 MSTORE SWAP2 PUSH1 0x20 ADD SWAP2 PUSH2 0xEDB JUMP JUMPDEST DUP3 ADD SWAP2 SWAP1 PUSH1 0x0 MSTORE PUSH1 0x20 PUSH1 0x0 KECCAK256 SWAP1 JUMPDEST DUP2 SLOAD DUP2 MSTORE SWAP1 PUSH1 0x1 ADD SWAP1 PUSH1 0x20 ADD DUP1 DUP4 GT PUSH2 0xEBE JUMPI DUP3 SWAP1 SUB PUSH1 0x1F AND DUP3 ADD SWAP2 JUMPDEST POP POP POP POP POP SWAP1 DUP1 PUSH1 0x1 ADD DUP1 SLOAD PUSH2 0xEF0 SWAP1 PUSH2 0x3905 JUMP JUMPDEST DUP1 PUSH1 0x1F ADD PUSH1 0x20 DUP1 SWAP2 DIV MUL PUSH1 0x20 ADD PUSH1 0x40 MLOAD SWAP1 DUP2 ADD PUSH1 0x40 MSTORE DUP1 SWAP3 SWAP2 SWAP1 DUP2 DUP2 MSTORE PUSH1 0x20 ADD DUP3 DUP1 SLOAD PUSH2 0xF1C SWAP1 PUSH2 0x3905 JUMP JUMPDEST DUP1 ISZERO PUSH2 0xF69 JUMPI DUP1 PUSH1 0x1F LT PUSH2 0xF3E JUMPI PUSH2 0x100 DUP1 DUP4 SLOAD DIV MUL DUP4 MSTORE SWAP2 PUSH1 0x20 ADD SWAP2 PUSH2 0xF69 JUMP JUMPDEST DUP3 ADD SWAP2 SWAP1 PUSH1 0x0 MSTORE PUSH1 0x20 PUSH1 0x0 KECCAK256 SWAP1 JUMPDEST DUP2 SLOAD DUP2 MSTORE SWAP1 PUSH1 0x1 ADD SWAP1 PUSH1 0x20 ADD DUP1 DUP4 GT PUSH2 0xF4C JUMPI DUP3 SWAP1 SUB PUSH1 0x1F AND DUP3 ADD SWAP2 JUMPDEST POP POP POP POP POP SWAP1 DUP1 PUSH1 0x2 ADD SLOAD SWAP1 DUP1 PUSH1 0x3 ADD SLOAD SWAP1 POP DUP5 JUMP JUMPDEST PUSH1 0x60 PUSH1 0x0 PUSH1 0xC PUSH1 0x0 DUP5 DUP2 MSTORE PUSH1 0x20 ADD SWAP1 DUP2 MSTORE PUSH1 0x20 ADD PUSH1 0x0 KECCAK256 PUSH1 0x40 MLOAD DUP1 PUSH1 0xC0 ADD PUSH1 0x40 MSTORE SWAP1 DUP2 PUSH1 0x0 DUP3 ADD SLOAD DUP2 MSTORE PUSH1 0x20 ADD PUSH1 0x1 DUP3 ADD DUP1 SLOAD PUSH2 0xFBB SWAP1 PUSH2 0x3905 JUMP JUMPDEST DUP1 PUSH1 0x1F ADD PUSH1 0x20 DUP1 SWAP2 DIV MUL PUSH1 0x20 ADD PUSH1 0x40 MLOAD SWAP1 DUP2 ADD PUSH1 0x40 MSTORE DUP1 SWAP3 SWAP2 SWAP1 DUP2 DUP2 MSTORE PUSH1 0x20 ADD DUP3 DUP1 SLOAD PUSH2 0xFE7 SWAP1 PUSH2 0x3905 JUMP JUMPDEST DUP1 ISZERO PUSH2 0x1034 JUMPI DUP1 PUSH1 0x1F LT PUSH2 0x1009 JUMPI PUSH2 0x100 DUP1 DUP4 SLOAD DIV MUL DUP4 MSTORE SWAP2 PUSH1 0x20 ADD SWAP2 PUSH2 0x1034 JUMP JUMPDEST DUP3 ADD SWAP2 SWAP1 PUSH1 0x0 MSTORE PUSH1 0x20 PUSH1 0x0 KECCAK256 SWAP1 JUMPDEST DUP2 SLOAD DUP2 MSTORE SWAP1 PUSH1 0x1 ADD SWAP1 PUSH1 0x20 ADD DUP1 DUP4 GT PUSH2 0x1017 JUMPI DUP3 SWAP1 SUB PUSH1 0x1F AND DUP3 ADD SWAP2 JUMPDEST POP POP POP POP POP DUP2 MSTORE PUSH1 0x20 ADD PUSH1 0x2 DUP3 ADD DUP1 SLOAD PUSH2 0x104D SWAP1 PUSH2 0x3905 JUMP JUMPDEST DUP1 PUSH1 0x1F ADD PUSH1 0x20 DUP1 SWAP2 DIV MUL PUSH1 0x20 ADD PUSH1 0x40 MLOAD SWAP1 DUP2 ADD PUSH1 0x40 MSTORE DUP1 SWAP3 SWAP2 SWAP1 DUP2 DUP2 MSTORE PUSH1 0x20 ADD DUP3 DUP1 SLOAD PUSH2 0x1079 SWAP1 PUSH2 0x3905 JUMP JUMPDEST DUP1 ISZERO PUSH2 0x10C6 JUMPI DUP1 PUSH1 0x1F LT PUSH2 0x109B JUMPI PUSH2 0x100 DUP1 DUP4 SLOAD DIV MUL DUP4 MSTORE SWAP2 PUSH1 0x20 ADD SWAP2 PUSH2 0x10C6 JUMP JUMPDEST DUP3 ADD SWAP2 SWAP1 PUSH1 0x0 MSTORE PUSH1 0x20 PUSH1 0x0 KECCAK256 SWAP1 JUMPDEST DUP2 SLOAD DUP2 MSTORE SWAP1 PUSH1 0x1 ADD SWAP1 PUSH1 0x20 ADD DUP1 DUP4 GT PUSH2 0x10A9 JUMPI DUP3 SWAP1 SUB PUSH1 0x1F AND DUP3 ADD SWAP2 JUMPDEST POP POP POP POP POP DUP2 MSTORE PUSH1 0x20 ADD PUSH1 0x3 DUP3 ADD SLOAD DUP2 MSTORE PUSH1 0x20 ADD PUSH1 0x4 DUP3 ADD SLOAD DUP2 MSTORE PUSH1 0x20 ADD PUSH1 0x5 DUP3 ADD SLOAD DUP2 MSTORE POP POP SWAP1 POP PUSH1 0x0 PUSH2 0x10FE DUP3 PUSH1 0x60 ADD MLOAD PUSH2 0x1FD8 JUMP JUMPDEST SWAP1 POP PUSH1 0x0 PUSH2 0x110F DUP4 PUSH1 0xA0 ADD MLOAD PUSH2 0x1FD8 JUMP JUMPDEST SWAP1 POP PUSH1 0x0 PUSH2 0x1120 DUP5 PUSH1 0x80 ADD MLOAD PUSH2 0x1FD8 JUMP JUMPDEST SWAP1 POP PUSH1 0x0 PUSH2 0x1166 DUP6 PUSH1 0x20 ADD MLOAD PUSH2 0x1135 DUP10 PUSH2 0x1FD8 JUMP JUMPDEST DUP8 PUSH1 0x40 ADD MLOAD DUP8 DUP7 DUP9 PUSH1 0x40 MLOAD PUSH1 0x20 ADD PUSH2 0x1152 SWAP7 SWAP6 SWAP5 SWAP4 SWAP3 SWAP2 SWAP1 PUSH2 0x31D2 JUMP JUMPDEST PUSH1 0x40 MLOAD PUSH1 0x20 DUP2 DUP4 SUB SUB DUP2 MSTORE SWAP1 PUSH1 0x40 MSTORE PUSH2 0x2185 JUMP JUMPDEST SWAP1 POP PUSH1 0x0 DUP2 PUSH1 0x40 MLOAD PUSH1 0x20 ADD PUSH2 0x117B SWAP2 SWAP1 PUSH2 0x3277 JUMP JUMPDEST PUSH1 0x40 MLOAD PUSH1 0x20 DUP2 DUP4 SUB SUB DUP2 MSTORE SWAP1 PUSH1 0x40 MSTORE SWAP1 POP DUP1 SWAP7 POP POP POP POP POP POP POP SWAP2 SWAP1 POP JUMP JUMPDEST PUSH1 0x0 PUSH1 0xD PUSH1 0x0 CALLER PUSH20 0xFFFFFFFFFFFFFFFFFFFFFFFFFFFFFFFFFFFFFFFF AND PUSH20 0xFFFFFFFFFFFFFFFFFFFFFFFFFFFFFFFFFFFFFFFF AND DUP2 MSTORE PUSH1 0x20 ADD SWAP1 DUP2 MSTORE PUSH1 0x20 ADD PUSH1 0x0 KECCAK256 SLOAD SWAP1 POP PUSH1 0x0 PUSH1 0xC PUSH1 0x0 DUP4 DUP2 MSTORE PUSH1 0x20 ADD SWAP1 DUP2 MSTORE PUSH1 0x20 ADD PUSH1 0x0 KECCAK256 SWAP1 POP PUSH1 0x0 DUP2 PUSH1 0x3 ADD SLOAD GT PUSH2 0x123C JUMPI PUSH1 0x40 MLOAD PUSH32 0x8C379A000000000000000000000000000000000000000000000000000000000 DUP2 MSTORE PUSH1 0x4 ADD PUSH2 0x1233 SWAP1 PUSH2 0x3489 JUMP JUMPDEST PUSH1 0x40 MLOAD DUP1 SWAP2 SUB SWAP1 REVERT JUMPDEST PUSH1 0x0 PUSH1 0x7 PUSH1 0x2 ADD SLOAD GT PUSH2 0x1284 JUMPI PUSH1 0x40 MLOAD PUSH32 0x8C379A000000000000000000000000000000000000000000000000000000000 DUP2 MSTORE PUSH1 0x4 ADD PUSH2 0x127B SWAP1 PUSH2 0x34C9 JUMP JUMPDEST PUSH1 0x40 MLOAD DUP1 SWAP2 SUB SWAP1 REVERT JUMPDEST DUP1 PUSH1 0x5 ADD SLOAD PUSH1 0x7 PUSH1 0x2 ADD SLOAD LT ISZERO PUSH2 0x12A5 JUMPI PUSH1 0x0 PUSH1 0x7 PUSH1 0x2 ADD DUP2 SWAP1 SSTORE POP PUSH2 0x12C4 JUMP JUMPDEST DUP1 PUSH1 0x5 ADD SLOAD PUSH1 0x7 PUSH1 0x2 ADD SLOAD PUSH2 0x12BA SWAP2 SWAP1 PUSH2 0x381B JUMP JUMPDEST PUSH1 0x7 PUSH1 0x2 ADD DUP2 SWAP1 SSTORE POP JUMPDEST PUSH1 0x7 PUSH1 0x3 ADD SLOAD DUP2 PUSH1 0x3 ADD SLOAD LT ISZERO PUSH2 0x12E4 JUMPI PUSH1 0x0 DUP2 PUSH1 0x3 ADD DUP2 SWAP1 SSTORE POP PUSH2 0x1302 JUMP JUMPDEST PUSH1 0x7 PUSH1 0x3 ADD SLOAD DUP2 PUSH1 0x3 ADD SLOAD PUSH2 0x12F9 SWAP2 SWAP1 PUSH2 0x381B JUMP JUMPDEST DUP2 PUSH1 0x3 ADD DUP2 SWAP1 SSTORE POP JUMPDEST PUSH32 0x32BD565EE3F2CB5DDD742BBECD6048D3E9ABE90B3827A40C2B72D232E71E3C9D CALLER PUSH1 0x7 PUSH1 0x2 ADD SLOAD DUP4 PUSH1 0x3 ADD SLOAD PUSH1 0x40 MLOAD PUSH2 0x133E SWAP4 SWAP3 SWAP2 SWAP1 PUSH2 0x3300 JUMP JUMPDEST PUSH1 0x40 MLOAD DUP1 SWAP2 SUB SWAP1 LOG1 POP POP JUMP JUMPDEST PUSH2 0x1352 PUSH2 0x27FC JUMP JUMPDEST PUSH1 0x0 PUSH1 0xD PUSH1 0x0 CALLER PUSH20 0xFFFFFFFFFFFFFFFFFFFFFFFFFFFFFFFFFFFFFFFF AND PUSH20 0xFFFFFFFFFFFFFFFFFFFFFFFFFFFFFFFFFFFFFFFF AND DUP2 MSTORE PUSH1 0x20 ADD SWAP1 DUP2 MSTORE PUSH1 0x20 ADD PUSH1 0x0 KECCAK256 SLOAD SWAP1 POP PUSH1 0x0 DUP2 GT ISZERO PUSH2 0x1511 JUMPI PUSH1 0xC PUSH1 0x0 DUP3 DUP2 MSTORE PUSH1 0x20 ADD SWAP1 DUP2 MSTORE PUSH1 0x20 ADD PUSH1 0x0 KECCAK256 PUSH1 0x40 MLOAD DUP1 PUSH1 0xC0 ADD PUSH1 0x40 MSTORE SWAP1 DUP2 PUSH1 0x0 DUP3 ADD SLOAD DUP2 MSTORE PUSH1 0x20 ADD PUSH1 0x1 DUP3 ADD DUP1 SLOAD PUSH2 0x13D7 SWAP1 PUSH2 0x3905 JUMP JUMPDEST DUP1 PUSH1 0x1F ADD PUSH1 0x20 DUP1 SWAP2 DIV MUL PUSH1 0x20 ADD PUSH1 0x40 MLOAD SWAP1 DUP2 ADD PUSH1 0x40 MSTORE DUP1 SWAP3 SWAP2 SWAP1 DUP2 DUP2 MSTORE PUSH1 0x20 ADD DUP3 DUP1 SLOAD PUSH2 0x1403 SWAP1 PUSH2 0x3905 JUMP JUMPDEST DUP1 ISZERO PUSH2 0x1450 JUMPI DUP1 PUSH1 0x1F LT PUSH2 0x1425 JUMPI PUSH2 0x100 DUP1 DUP4 SLOAD DIV MUL DUP4 MSTORE SWAP2 PUSH1 0x20 ADD SWAP2 PUSH2 0x1450 JUMP JUMPDEST DUP3 ADD SWAP2 SWAP1 PUSH1 0x0 MSTORE PUSH1 0x20 PUSH1 0x0 KECCAK256 SWAP1 JUMPDEST DUP2 SLOAD DUP2 MSTORE SWAP1 PUSH1 0x1 ADD SWAP1 PUSH1 0x20 ADD DUP1 DUP4 GT PUSH2 0x1433 JUMPI DUP3 SWAP1 SUB PUSH1 0x1F AND DUP3 ADD SWAP2 JUMPDEST POP POP POP POP POP DUP2 MSTORE PUSH1 0x20 ADD PUSH1 0x2 DUP3 ADD DUP1 SLOAD PUSH2 0x1469 SWAP1 PUSH2 0x3905 JUMP JUMPDEST DUP1 PUSH1 0x1F ADD PUSH1 0x20 DUP1 SWAP2 DIV MUL PUSH1 0x20 ADD PUSH1 0x40 MLOAD SWAP1 DUP2 ADD PUSH1 0x40 MSTORE DUP1 SWAP3 SWAP2 SWAP1 DUP2 DUP2 MSTORE PUSH1 0x20 ADD DUP3 DUP1 SLOAD PUSH2 0x1495 SWAP1 PUSH2 0x3905 JUMP JUMPDEST DUP1 ISZERO PUSH2 0x14E2 JUMPI DUP1 PUSH1 0x1F LT PUSH2 0x14B7 JUMPI PUSH2 0x100 DUP1 DUP4 SLOAD DIV MUL DUP4 MSTORE SWAP2 PUSH1 0x20 ADD SWAP2 PUSH2 0x14E2 JUMP JUMPDEST DUP3 ADD SWAP2 SWAP1 PUSH1 0x0 MSTORE PUSH1 0x20 PUSH1 0x0 KECCAK256 SWAP1 JUMPDEST DUP2 SLOAD DUP2 MSTORE SWAP1 PUSH1 0x1 ADD SWAP1 PUSH1 0x20 ADD DUP1 DUP4 GT PUSH2 0x14C5 JUMPI DUP3 SWAP1 SUB PUSH1 0x1F AND DUP3 ADD SWAP2 JUMPDEST POP POP POP POP POP DUP2 MSTORE PUSH1 0x20 ADD PUSH1 0x3 DUP3 ADD SLOAD DUP2 MSTORE PUSH1 0x20 ADD PUSH1 0x4 DUP3 ADD SLOAD DUP2 MSTORE PUSH1 0x20 ADD PUSH1 0x5 DUP3 ADD SLOAD DUP2 MSTORE POP POP SWAP2 POP POP PUSH2 0x151F JUMP JUMPDEST PUSH2 0x1519 PUSH2 0x27FC JUMP JUMPDEST DUP1 SWAP3 POP POP POP JUMPDEST SWAP1 JUMP JUMPDEST PUSH1 0x0 PUSH1 0x5 PUSH1 0x0 DUP5 PUSH20 0xFFFFFFFFFFFFFFFFFFFFFFFFFFFFFFFFFFFFFFFF AND PUSH20 0xFFFFFFFFFFFFFFFFFFFFFFFFFFFFFFFFFFFFFFFF AND DUP2 MSTORE PUSH1 0x20 ADD SWAP1 DUP2 MSTORE PUSH1 0x20 ADD PUSH1 0x0 KECCAK256 PUSH1 0x0 DUP4 PUSH20 0xFFFFFFFFFFFFFFFFFFFFFFFFFFFFFFFFFFFFFFFF AND PUSH20 0xFFFFFFFFFFFFFFFFFFFFFFFFFFFFFFFFFFFFFFFF AND DUP2 MSTORE PUSH1 0x20 ADD SWAP1 DUP2 MSTORE PUSH1 0x20 ADD PUSH1 0x0 KECCAK256 PUSH1 0x0 SWAP1 SLOAD SWAP1 PUSH2 0x100 EXP SWAP1 DIV PUSH1 0xFF AND SWAP1 POP SWAP3 SWAP2 POP POP JUMP JUMPDEST PUSH1 0x0 PUSH2 0x15C2 PUSH1 0xB PUSH2 0x2343 JUMP JUMPDEST SWAP1 POP PUSH2 0x15CE CALLER DUP3 PUSH2 0x2351 JUMP JUMPDEST PUSH1 0x40 MLOAD DUP1 PUSH1 0xC0 ADD PUSH1 0x40 MSTORE DUP1 DUP4 DUP2 MSTORE PUSH1 0x20 ADD PUSH1 0x6 DUP5 DUP2 SLOAD DUP2 LT PUSH2 0x1619 JUMPI PUSH32 0x4E487B7100000000000000000000000000000000000000000000000000000000 PUSH1 0x0 MSTORE PUSH1 0x32 PUSH1 0x4 MSTORE PUSH1 0x24 PUSH1 0x0 REVERT JUMPDEST SWAP1 PUSH1 0x0 MSTORE PUSH1 0x20 PUSH1 0x0 KECCAK256 SWAP1 PUSH1 0x6 MUL ADD PUSH1 0x1 ADD DUP1 SLOAD PUSH2 0x1635 SWAP1 PUSH2 0x3905 JUMP JUMPDEST DUP1 PUSH1 0x1F ADD PUSH1 0x20 DUP1 SWAP2 DIV MUL PUSH1 0x20 ADD PUSH1 0x40 MLOAD SWAP1 DUP2 ADD PUSH1 0x40 MSTORE DUP1 SWAP3 SWAP2 SWAP1 DUP2 DUP2 MSTORE PUSH1 0x20 ADD DUP3 DUP1 SLOAD PUSH2 0x1661 SWAP1 PUSH2 0x3905 JUMP JUMPDEST DUP1 ISZERO PUSH2 0x16AE JUMPI DUP1 PUSH1 0x1F LT PUSH2 0x1683 JUMPI PUSH2 0x100 DUP1 DUP4 SLOAD DIV MUL DUP4 MSTORE SWAP2 PUSH1 0x20 ADD SWAP2 PUSH2 0x16AE JUMP JUMPDEST DUP3 ADD SWAP2 SWAP1 PUSH1 0x0 MSTORE PUSH1 0x20 PUSH1 0x0 KECCAK256 SWAP1 JUMPDEST DUP2 SLOAD DUP2 MSTORE SWAP1 PUSH1 0x1 ADD SWAP1 PUSH1 0x20 ADD DUP1 DUP4 GT PUSH2 0x1691 JUMPI DUP3 SWAP1 SUB PUSH1 0x1F AND DUP3 ADD SWAP2 JUMPDEST POP POP POP POP POP DUP2 MSTORE PUSH1 0x20 ADD PUSH1 0x6 DUP5 DUP2 SLOAD DUP2 LT PUSH2 0x16F2 JUMPI PUSH32 0x4E487B7100000000000000000000000000000000000000000000000000000000 PUSH1 0x0 MSTORE PUSH1 0x32 PUSH1 0x4 MSTORE PUSH1 0x24 PUSH1 0x0 REVERT JUMPDEST SWAP1 PUSH1 0x0 MSTORE PUSH1 0x20 PUSH1 0x0 KECCAK256 SWAP1 PUSH1 0x6 MUL ADD PUSH1 0x2 ADD DUP1 SLOAD PUSH2 0x170E SWAP1 PUSH2 0x3905 JUMP JUMPDEST DUP1 PUSH1 0x1F ADD PUSH1 0x20 DUP1 SWAP2 DIV MUL PUSH1 0x20 ADD PUSH1 0x40 MLOAD SWAP1 DUP2 ADD PUSH1 0x40 MSTORE DUP1 SWAP3 SWAP2 SWAP1 DUP2 DUP2 MSTORE PUSH1 0x20 ADD DUP3 DUP1 SLOAD PUSH2 0x173A SWAP1 PUSH2 0x3905 JUMP JUMPDEST DUP1 ISZERO PUSH2 0x1787 JUMPI DUP1 PUSH1 0x1F LT PUSH2 0x175C JUMPI PUSH2 0x100 DUP1 DUP4 SLOAD DIV MUL DUP4 MSTORE SWAP2 PUSH1 0x20 ADD SWAP2 PUSH2 0x1787 JUMP JUMPDEST DUP3 ADD SWAP2 SWAP1 PUSH1 0x0 MSTORE PUSH1 0x20 PUSH1 0x0 KECCAK256 SWAP1 JUMPDEST DUP2 SLOAD DUP2 MSTORE SWAP1 PUSH1 0x1 ADD SWAP1 PUSH1 0x20 ADD DUP1 DUP4 GT PUSH2 0x176A JUMPI DUP3 SWAP1 SUB PUSH1 0x1F AND DUP3 ADD SWAP2 JUMPDEST POP POP POP POP POP DUP2 MSTORE PUSH1 0x20 ADD PUSH1 0x6 DUP5 DUP2 SLOAD DUP2 LT PUSH2 0x17CB JUMPI PUSH32 0x4E487B7100000000000000000000000000000000000000000000000000000000 PUSH1 0x0 MSTORE PUSH1 0x32 PUSH1 0x4 MSTORE PUSH1 0x24 PUSH1 0x0 REVERT JUMPDEST SWAP1 PUSH1 0x0 MSTORE PUSH1 0x20 PUSH1 0x0 KECCAK256 SWAP1 PUSH1 0x6 MUL ADD PUSH1 0x3 ADD SLOAD DUP2 MSTORE PUSH1 0x20 ADD PUSH1 0x6 DUP5 DUP2 SLOAD DUP2 LT PUSH2 0x181C JUMPI PUSH32 0x4E487B7100000000000000000000000000000000000000000000000000000000 PUSH1 0x0 MSTORE PUSH1 0x32 PUSH1 0x4 MSTORE PUSH1 0x24 PUSH1 0x0 REVERT JUMPDEST SWAP1 PUSH1 0x0 MSTORE PUSH1 0x20 PUSH1 0x0 KECCAK256 SWAP1 PUSH1 0x6 MUL ADD PUSH1 0x4 ADD SLOAD DUP2 MSTORE PUSH1 0x20 ADD PUSH1 0x6 DUP5 DUP2 SLOAD DUP2 LT PUSH2 0x186D JUMPI PUSH32 0x4E487B7100000000000000000000000000000000000000000000000000000000 PUSH1 0x0 MSTORE PUSH1 0x32 PUSH1 0x4 MSTORE PUSH1 0x24 PUSH1 0x0 REVERT JUMPDEST SWAP1 PUSH1 0x0 MSTORE PUSH1 0x20 PUSH1 0x0 KECCAK256 SWAP1 PUSH1 0x6 MUL ADD PUSH1 0x5 ADD SLOAD DUP2 MSTORE POP PUSH1 0xC PUSH1 0x0 DUP5 DUP2 MSTORE PUSH1 0x20 ADD SWAP1 DUP2 MSTORE PUSH1 0x20 ADD PUSH1 0x0 KECCAK256 PUSH1 0x0 DUP3 ADD MLOAD DUP2 PUSH1 0x0 ADD SSTORE PUSH1 0x20 DUP3 ADD MLOAD DUP2 PUSH1 0x1 ADD SWAP1 DUP1 MLOAD SWAP1 PUSH1 0x20 ADD SWAP1 PUSH2 0x18BB SWAP3 SWAP2 SWAP1 PUSH2 0x2832 JUMP JUMPDEST POP PUSH1 0x40 DUP3 ADD MLOAD DUP2 PUSH1 0x2 ADD SWAP1 DUP1 MLOAD SWAP1 PUSH1 0x20 ADD SWAP1 PUSH2 0x18D8 SWAP3 SWAP2 SWAP1 PUSH2 0x2832 JUMP JUMPDEST POP PUSH1 0x60 DUP3 ADD MLOAD DUP2 PUSH1 0x3 ADD SSTORE PUSH1 0x80 DUP3 ADD MLOAD DUP2 PUSH1 0x4 ADD SSTORE PUSH1 0xA0 DUP3 ADD MLOAD DUP2 PUSH1 0x5 ADD SSTORE SWAP1 POP POP DUP1 PUSH1 0xD PUSH1 0x0 CALLER PUSH20 0xFFFFFFFFFFFFFFFFFFFFFFFFFFFFFFFFFFFFFFFF AND PUSH20 0xFFFFFFFFFFFFFFFFFFFFFFFFFFFFFFFFFFFFFFFF AND DUP2 MSTORE PUSH1 0x20 ADD SWAP1 DUP2 MSTORE PUSH1 0x20 ADD PUSH1 0x0 KECCAK256 DUP2 SWAP1 SSTORE POP PUSH2 0x1948 PUSH1 0xB PUSH2 0x1987 JUMP JUMPDEST PUSH32 0xF9800D462C9B23089BE8D715BA26944E8AD9B827BC7F94FFFBAE6018607ADE5A CALLER DUP3 DUP5 PUSH1 0x40 MLOAD PUSH2 0x197B SWAP4 SWAP3 SWAP2 SWAP1 PUSH2 0x3300 JUMP JUMPDEST PUSH1 0x40 MLOAD DUP1 SWAP2 SUB SWAP1 LOG1 POP POP JUMP JUMPDEST PUSH1 0x1 DUP2 PUSH1 0x0 ADD PUSH1 0x0 DUP3 DUP3 SLOAD ADD SWAP3 POP POP DUP2 SWAP1 SSTORE POP POP JUMP JUMPDEST PUSH1 0x0 PUSH32 0x1FFC9A700000000000000000000000000000000000000000000000000000000 PUSH28 0xFFFFFFFFFFFFFFFFFFFFFFFFFFFFFFFFFFFFFFFFFFFFFFFFFFFFFFFF NOT AND DUP3 PUSH28 0xFFFFFFFFFFFFFFFFFFFFFFFFFFFFFFFFFFFFFFFFFFFFFFFFFFFFFFFF NOT AND EQ SWAP1 POP SWAP2 SWAP1 POP JUMP JUMPDEST PUSH2 0x1A10 DUP2 PUSH2 0x236F JUMP JUMPDEST PUSH2 0x1A4F JUMPI PUSH1 0x40 MLOAD PUSH32 0x8C379A000000000000000000000000000000000000000000000000000000000 DUP2 MSTORE PUSH1 0x4 ADD PUSH2 0x1A46 SWAP1 PUSH2 0x3529 JUMP JUMPDEST PUSH1 0x40 MLOAD DUP1 SWAP2 SUB SWAP1 REVERT JUMPDEST POP JUMP JUMPDEST PUSH1 0x0 CALLER SWAP1 POP SWAP1 JUMP JUMPDEST DUP2 PUSH1 0x4 PUSH1 0x0 DUP4 DUP2 MSTORE PUSH1 0x20 ADD SWAP1 DUP2 MSTORE PUSH1 0x20 ADD PUSH1 0x0 KECCAK256 PUSH1 0x0 PUSH2 0x100 EXP DUP2 SLOAD DUP2 PUSH20 0xFFFFFFFFFFFFFFFFFFFFFFFFFFFFFFFFFFFFFFFF MUL NOT AND SWAP1 DUP4 PUSH20 0xFFFFFFFFFFFFFFFFFFFFFFFFFFFFFFFFFFFFFFFF AND MUL OR SWAP1 SSTORE POP DUP1 DUP3 PUSH20 0xFFFFFFFFFFFFFFFFFFFFFFFFFFFFFFFFFFFFFFFF AND PUSH2 0x1ACD DUP4 PUSH2 0xA73 JUMP JUMPDEST PUSH20 0xFFFFFFFFFFFFFFFFFFFFFFFFFFFFFFFFFFFFFFFF AND PUSH32 0x8C5BE1E5EBEC7D5BD14F71427D1E84F3DD0314C0F7B2291E5B200AC8C7C3B925 PUSH1 0x40 MLOAD PUSH1 0x40 MLOAD DUP1 SWAP2 SUB SWAP1 LOG4 POP POP JUMP JUMPDEST PUSH1 0x0 DUP1 PUSH2 0x1B1F DUP4 PUSH2 0xA73 JUMP JUMPDEST SWAP1 POP DUP1 PUSH20 0xFFFFFFFFFFFFFFFFFFFFFFFFFFFFFFFFFFFFFFFF AND DUP5 PUSH20 0xFFFFFFFFFFFFFFFFFFFFFFFFFFFFFFFFFFFFFFFF AND EQ DUP1 PUSH2 0x1B61 JUMPI POP PUSH2 0x1B60 DUP2 DUP6 PUSH2 0x1522 JUMP JUMPDEST JUMPDEST DUP1 PUSH2 0x1B9F JUMPI POP DUP4 PUSH20 0xFFFFFFFFFFFFFFFFFFFFFFFFFFFFFFFFFFFFFFFF AND PUSH2 0x1B87 DUP5 PUSH2 0x59E JUMP JUMPDEST PUSH20 0xFFFFFFFFFFFFFFFFFFFFFFFFFFFFFFFFFFFFFFFF AND EQ JUMPDEST SWAP2 POP POP SWAP3 SWAP2 POP POP JUMP JUMPDEST DUP3 PUSH20 0xFFFFFFFFFFFFFFFFFFFFFFFFFFFFFFFFFFFFFFFF AND PUSH2 0x1BC8 DUP3 PUSH2 0xA73 JUMP JUMPDEST PUSH20 0xFFFFFFFFFFFFFFFFFFFFFFFFFFFFFFFFFFFFFFFF AND EQ PUSH2 0x1C1E JUMPI PUSH1 0x40 MLOAD PUSH32 0x8C379A000000000000000000000000000000000000000000000000000000000 DUP2 MSTORE PUSH1 0x4 ADD PUSH2 0x1C15 SWAP1 PUSH2 0x3409 JUMP JUMPDEST PUSH1 0x40 MLOAD DUP1 SWAP2 SUB SWAP1 REVERT JUMPDEST PUSH1 0x0 PUSH20 0xFFFFFFFFFFFFFFFFFFFFFFFFFFFFFFFFFFFFFFFF AND DUP3 PUSH20 0xFFFFFFFFFFFFFFFFFFFFFFFFFFFFFFFFFFFFFFFF AND EQ ISZERO PUSH2 0x1C8E JUMPI PUSH1 0x40 MLOAD PUSH32 0x8C379A000000000000000000000000000000000000000000000000000000000 DUP2 MSTORE PUSH1 0x4 ADD PUSH2 0x1C85 SWAP1 PUSH2 0x3449 JUMP JUMPDEST PUSH1 0x40 MLOAD DUP1 SWAP2 SUB SWAP1 REVERT JUMPDEST PUSH2 0x1C99 DUP4 DUP4 DUP4 PUSH2 0x23DB JUMP JUMPDEST PUSH2 0x1CA4 PUSH1 0x0 DUP3 PUSH2 0x1A5A JUMP JUMPDEST PUSH1 0x1 PUSH1 0x3 PUSH1 0x0 DUP6 PUSH20 0xFFFFFFFFFFFFFFFFFFFFFFFFFFFFFFFFFFFFFFFF AND PUSH20 0xFFFFFFFFFFFFFFFFFFFFFFFFFFFFFFFFFFFFFFFF AND DUP2 MSTORE PUSH1 0x20 ADD SWAP1 DUP2 MSTORE PUSH1 0x20 ADD PUSH1 0x0 KECCAK256 PUSH1 0x0 DUP3 DUP3 SLOAD PUSH2 0x1CF4 SWAP2 SWAP1 PUSH2 0x381B JUMP JUMPDEST SWAP3 POP POP DUP2 SWAP1 SSTORE POP PUSH1 0x1 PUSH1 0x3 PUSH1 0x0 DUP5 PUSH20 0xFFFFFFFFFFFFFFFFFFFFFFFFFFFFFFFFFFFFFFFF AND PUSH20 0xFFFFFFFFFFFFFFFFFFFFFFFFFFFFFFFFFFFFFFFF AND DUP2 MSTORE PUSH1 0x20 ADD SWAP1 DUP2 MSTORE PUSH1 0x20 ADD PUSH1 0x0 KECCAK256 PUSH1 0x0 DUP3 DUP3 SLOAD PUSH2 0x1D4B SWAP2 SWAP1 PUSH2 0x373A JUMP JUMPDEST SWAP3 POP POP DUP2 SWAP1 SSTORE POP DUP2 PUSH1 0x2 PUSH1 0x0 DUP4 DUP2 MSTORE PUSH1 0x20 ADD SWAP1 DUP2 MSTORE PUSH1 0x20 ADD PUSH1 0x0 KECCAK256 PUSH1 0x0 PUSH2 0x100 EXP DUP2 SLOAD DUP2 PUSH20 0xFFFFFFFFFFFFFFFFFFFFFFFFFFFFFFFFFFFFFFFF MUL NOT AND SWAP1 DUP4 PUSH20 0xFFFFFFFFFFFFFFFFFFFFFFFFFFFFFFFFFFFFFFFF AND MUL OR SWAP1 SSTORE POP DUP1 DUP3 PUSH20 0xFFFFFFFFFFFFFFFFFFFFFFFFFFFFFFFFFFFFFFFF AND DUP5 PUSH20 0xFFFFFFFFFFFFFFFFFFFFFFFFFFFFFFFFFFFFFFFF AND PUSH32 0xDDF252AD1BE2C89B69C2B068FC378DAA952BA7F163C4A11628F55A4DF523B3EF PUSH1 0x40 MLOAD PUSH1 0x40 MLOAD DUP1 SWAP2 SUB SWAP1 LOG4 PUSH2 0x1E0A DUP4 DUP4 DUP4 PUSH2 0x23E0 JUMP JUMPDEST POP POP POP JUMP JUMPDEST DUP2 PUSH20 0xFFFFFFFFFFFFFFFFFFFFFFFFFFFFFFFFFFFFFFFF AND DUP4 PUSH20 0xFFFFFFFFFFFFFFFFFFFFFFFFFFFFFFFFFFFFFFFF AND EQ ISZERO PUSH2 0x1E7E JUMPI PUSH1 0x40 MLOAD PUSH32 0x8C379A000000000000000000000000000000000000000000000000000000000 DUP2 MSTORE PUSH1 0x4 ADD PUSH2 0x1E75 SWAP1 PUSH2 0x3469 JUMP JUMPDEST PUSH1 0x40 MLOAD DUP1 SWAP2 SUB SWAP1 REVERT JUMPDEST DUP1 PUSH1 0x5 PUSH1 0x0 DUP6 PUSH20 0xFFFFFFFFFFFFFFFFFFFFFFFFFFFFFFFFFFFFFFFF AND PUSH20 0xFFFFFFFFFFFFFFFFFFFFFFFFFFFFFFFFFFFFFFFF AND DUP2 MSTORE PUSH1 0x20 ADD SWAP1 DUP2 MSTORE PUSH1 0x20 ADD PUSH1 0x0 KECCAK256 PUSH1 0x0 DUP5 PUSH20 0xFFFFFFFFFFFFFFFFFFFFFFFFFFFFFFFFFFFFFFFF AND PUSH20 0xFFFFFFFFFFFFFFFFFFFFFFFFFFFFFFFFFFFFFFFF AND DUP2 MSTORE PUSH1 0x20 ADD SWAP1 DUP2 MSTORE PUSH1 0x20 ADD PUSH1 0x0 KECCAK256 PUSH1 0x0 PUSH2 0x100 EXP DUP2 SLOAD DUP2 PUSH1 0xFF MUL NOT AND SWAP1 DUP4 ISZERO ISZERO MUL OR SWAP1 SSTORE POP DUP2 PUSH20 0xFFFFFFFFFFFFFFFFFFFFFFFFFFFFFFFFFFFFFFFF AND DUP4 PUSH20 0xFFFFFFFFFFFFFFFFFFFFFFFFFFFFFFFFFFFFFFFF AND PUSH32 0x17307EAB39AB6107E8899845AD3D59BD9653F200F220920489CA2B5937696C31 DUP4 PUSH1 0x40 MLOAD PUSH2 0x1F6F SWAP2 SWAP1 PUSH2 0x3359 JUMP JUMPDEST PUSH1 0x40 MLOAD DUP1 SWAP2 SUB SWAP1 LOG3 POP POP POP JUMP JUMPDEST PUSH2 0x1F87 DUP5 DUP5 DUP5 PUSH2 0x1BA8 JUMP JUMPDEST PUSH2 0x1F93 DUP5 DUP5 DUP5 DUP5 PUSH2 0x23E5 JUMP JUMPDEST PUSH2 0x1FD2 JUMPI PUSH1 0x40 MLOAD PUSH32 0x8C379A000000000000000000000000000000000000000000000000000000000 DUP2 MSTORE PUSH1 0x4 ADD PUSH2 0x1FC9 SWAP1 PUSH2 0x33E9 JUMP JUMPDEST PUSH1 0x40 MLOAD DUP1 SWAP2 SUB SWAP1 REVERT JUMPDEST POP POP POP POP JUMP JUMPDEST PUSH1 0x60 PUSH1 0x0 DUP3 EQ ISZERO PUSH2 0x2020 JUMPI PUSH1 0x40 MLOAD DUP1 PUSH1 0x40 ADD PUSH1 0x40 MSTORE DUP1 PUSH1 0x1 DUP2 MSTORE PUSH1 0x20 ADD PUSH32 0x3000000000000000000000000000000000000000000000000000000000000000 DUP2 MSTORE POP SWAP1 POP PUSH2 0x2180 JUMP JUMPDEST PUSH1 0x0 DUP3 SWAP1 POP PUSH1 0x0 JUMPDEST PUSH1 0x0 DUP3 EQ PUSH2 0x2052 JUMPI DUP1 DUP1 PUSH2 0x203B SWAP1 PUSH2 0x3968 JUMP JUMPDEST SWAP2 POP POP PUSH1 0xA DUP3 PUSH2 0x204B SWAP2 SWAP1 PUSH2 0x3790 JUMP JUMPDEST SWAP2 POP PUSH2 0x2028 JUMP JUMPDEST PUSH1 0x0 DUP2 PUSH8 0xFFFFFFFFFFFFFFFF DUP2 GT ISZERO PUSH2 0x2094 JUMPI PUSH32 0x4E487B7100000000000000000000000000000000000000000000000000000000 PUSH1 0x0 MSTORE PUSH1 0x41 PUSH1 0x4 MSTORE PUSH1 0x24 PUSH1 0x0 REVERT JUMPDEST PUSH1 0x40 MLOAD SWAP1 DUP1 DUP3 MSTORE DUP1 PUSH1 0x1F ADD PUSH1 0x1F NOT AND PUSH1 0x20 ADD DUP3 ADD PUSH1 0x40 MSTORE DUP1 ISZERO PUSH2 0x20C6 JUMPI DUP2 PUSH1 0x20 ADD PUSH1 0x1 DUP3 MUL DUP1 CALLDATASIZE DUP4 CALLDATACOPY DUP1 DUP3 ADD SWAP2 POP POP SWAP1 POP JUMPDEST POP SWAP1 POP JUMPDEST PUSH1 0x0 DUP6 EQ PUSH2 0x2179 JUMPI PUSH1 0x1 DUP3 PUSH2 0x20DF SWAP2 SWAP1 PUSH2 0x381B JUMP JUMPDEST SWAP2 POP PUSH1 0xA DUP6 PUSH2 0x20EE SWAP2 SWAP1 PUSH2 0x39B1 JUMP JUMPDEST PUSH1 0x30 PUSH2 0x20FA SWAP2 SWAP1 PUSH2 0x373A JUMP JUMPDEST PUSH1 0xF8 SHL DUP2 DUP4 DUP2 MLOAD DUP2 LT PUSH2 0x2136 JUMPI PUSH32 0x4E487B7100000000000000000000000000000000000000000000000000000000 PUSH1 0x0 MSTORE PUSH1 0x32 PUSH1 0x4 MSTORE PUSH1 0x24 PUSH1 0x0 REVERT JUMPDEST PUSH1 0x20 ADD ADD SWAP1 PUSH31 0xFFFFFFFFFFFFFFFFFFFFFFFFFFFFFFFFFFFFFFFFFFFFFFFFFFFFFFFFFFFFFF NOT AND SWAP1 DUP2 PUSH1 0x0 BYTE SWAP1 MSTORE8 POP PUSH1 0xA DUP6 PUSH2 0x2172 SWAP2 SWAP1 PUSH2 0x3790 JUMP JUMPDEST SWAP5 POP PUSH2 0x20CA JUMP JUMPDEST DUP1 SWAP4 POP POP POP POP JUMPDEST SWAP2 SWAP1 POP JUMP JUMPDEST PUSH1 0x60 PUSH1 0x0 DUP3 MLOAD SWAP1 POP PUSH1 0x0 DUP2 EQ ISZERO PUSH2 0x21AE JUMPI PUSH1 0x40 MLOAD DUP1 PUSH1 0x20 ADD PUSH1 0x40 MSTORE DUP1 PUSH1 0x0 DUP2 MSTORE POP SWAP2 POP POP PUSH2 0x233E JUMP JUMPDEST PUSH1 0x0 PUSH1 0x3 PUSH1 0x2 DUP4 PUSH2 0x21BF SWAP2 SWAP1 PUSH2 0x373A JUMP JUMPDEST PUSH2 0x21C9 SWAP2 SWAP1 PUSH2 0x3790 JUMP JUMPDEST PUSH1 0x4 PUSH2 0x21D5 SWAP2 SWAP1 PUSH2 0x37C1 JUMP JUMPDEST SWAP1 POP PUSH1 0x0 PUSH1 0x20 DUP3 PUSH2 0x21E6 SWAP2 SWAP1 PUSH2 0x373A JUMP JUMPDEST PUSH8 0xFFFFFFFFFFFFFFFF DUP2 GT ISZERO PUSH2 0x2225 JUMPI PUSH32 0x4E487B7100000000000000000000000000000000000000000000000000000000 PUSH1 0x0 MSTORE PUSH1 0x41 PUSH1 0x4 MSTORE PUSH1 0x24 PUSH1 0x0 REVERT JUMPDEST PUSH1 0x40 MLOAD SWAP1 DUP1 DUP3 MSTORE DUP1 PUSH1 0x1F ADD PUSH1 0x1F NOT AND PUSH1 0x20 ADD DUP3 ADD PUSH1 0x40 MSTORE DUP1 ISZERO PUSH2 0x2257 JUMPI DUP2 PUSH1 0x20 ADD PUSH1 0x1 DUP3 MUL DUP1 CALLDATASIZE DUP4 CALLDATACOPY DUP1 DUP3 ADD SWAP2 POP POP SWAP1 POP JUMPDEST POP SWAP1 POP PUSH1 0x0 PUSH1 0x40 MLOAD DUP1 PUSH1 0x60 ADD PUSH1 0x40 MSTORE DUP1 PUSH1 0x40 DUP2 MSTORE PUSH1 0x20 ADD PUSH2 0x4031 PUSH1 0x40 SWAP2 CODECOPY SWAP1 POP PUSH1 0x1 DUP2 ADD PUSH1 0x20 DUP4 ADD PUSH1 0x0 JUMPDEST DUP7 DUP2 LT ISZERO PUSH2 0x22FB JUMPI PUSH1 0x3 DUP2 ADD SWAP1 POP PUSH3 0xFFFFFF DUP2 DUP11 ADD MLOAD AND PUSH1 0x3F DUP2 PUSH1 0x12 SHR AND DUP5 ADD MLOAD DUP1 PUSH1 0x8 SHL SWAP1 POP PUSH1 0xFF PUSH1 0x3F DUP4 PUSH1 0xC SHR AND DUP7 ADD MLOAD AND DUP2 ADD SWAP1 POP DUP1 PUSH1 0x8 SHL SWAP1 POP PUSH1 0xFF PUSH1 0x3F DUP4 PUSH1 0x6 SHR AND DUP7 ADD MLOAD AND DUP2 ADD SWAP1 POP DUP1 PUSH1 0x8 SHL SWAP1 POP PUSH1 0xFF PUSH1 0x3F DUP4 AND DUP7 ADD MLOAD AND DUP2 ADD SWAP1 POP DUP1 PUSH1 0xE0 SHL SWAP1 POP DUP1 DUP5 MSTORE PUSH1 0x4 DUP5 ADD SWAP4 POP POP POP PUSH2 0x2282 JUMP JUMPDEST POP PUSH1 0x3 DUP7 MOD PUSH1 0x1 DUP2 EQ PUSH2 0x2315 JUMPI PUSH1 0x2 DUP2 EQ PUSH2 0x2325 JUMPI PUSH2 0x2330 JUMP JUMPDEST PUSH2 0x3D3D PUSH1 0xF0 SHL PUSH1 0x2 DUP4 SUB MSTORE PUSH2 0x2330 JUMP JUMPDEST PUSH1 0x3D PUSH1 0xF8 SHL PUSH1 0x1 DUP4 SUB MSTORE JUMPDEST POP DUP5 DUP5 MSTORE POP POP DUP2 SWAP5 POP POP POP POP POP JUMPDEST SWAP2 SWAP1 POP JUMP JUMPDEST PUSH1 0x0 DUP2 PUSH1 0x0 ADD SLOAD SWAP1 POP SWAP2 SWAP1 POP JUMP JUMPDEST PUSH2 0x236B DUP3 DUP3 PUSH1 0x40 MLOAD DUP1 PUSH1 0x20 ADD PUSH1 0x40 MSTORE DUP1 PUSH1 0x0 DUP2 MSTORE POP PUSH2 0x257C JUMP JUMPDEST POP POP JUMP JUMPDEST PUSH1 0x0 DUP1 PUSH20 0xFFFFFFFFFFFFFFFFFFFFFFFFFFFFFFFFFFFFFFFF AND PUSH1 0x2 PUSH1 0x0 DUP5 DUP2 MSTORE PUSH1 0x20 ADD SWAP1 DUP2 MSTORE PUSH1 0x20 ADD PUSH1 0x0 KECCAK256 PUSH1 0x0 SWAP1 SLOAD SWAP1 PUSH2 0x100 EXP SWAP1 DIV PUSH20 0xFFFFFFFFFFFFFFFFFFFFFFFFFFFFFFFFFFFFFFFF AND PUSH20 0xFFFFFFFFFFFFFFFFFFFFFFFFFFFFFFFFFFFFFFFF AND EQ ISZERO SWAP1 POP SWAP2 SWAP1 POP JUMP JUMPDEST POP POP POP JUMP JUMPDEST POP POP POP JUMP JUMPDEST PUSH1 0x0 PUSH2 0x2406 DUP5 PUSH20 0xFFFFFFFFFFFFFFFFFFFFFFFFFFFFFFFFFFFFFFFF AND PUSH2 0x25D7 JUMP JUMPDEST ISZERO PUSH2 0x256F JUMPI DUP4 PUSH20 0xFFFFFFFFFFFFFFFFFFFFFFFFFFFFFFFFFFFFFFFF AND PUSH4 0x150B7A02 PUSH2 0x242F PUSH2 0x1A52 JUMP JUMPDEST DUP8 DUP7 DUP7 PUSH1 0x40 MLOAD DUP6 PUSH4 0xFFFFFFFF AND PUSH1 0xE0 SHL DUP2 MSTORE PUSH1 0x4 ADD PUSH2 0x2451 SWAP5 SWAP4 SWAP3 SWAP2 SWAP1 PUSH2 0x32B4 JUMP JUMPDEST PUSH1 0x20 PUSH1 0x40 MLOAD DUP1 DUP4 SUB DUP2 PUSH1 0x0 DUP8 DUP1 EXTCODESIZE ISZERO DUP1 ISZERO PUSH2 0x246B JUMPI PUSH1 0x0 DUP1 REVERT JUMPDEST POP GAS CALL SWAP3 POP POP POP DUP1 ISZERO PUSH2 0x249C JUMPI POP PUSH1 0x40 MLOAD RETURNDATASIZE PUSH1 0x1F NOT PUSH1 0x1F DUP3 ADD AND DUP3 ADD DUP1 PUSH1 0x40 MSTORE POP DUP2 ADD SWAP1 PUSH2 0x2499 SWAP2 SWAP1 PUSH2 0x2B76 JUMP JUMPDEST PUSH1 0x1 JUMPDEST PUSH2 0x251F JUMPI RETURNDATASIZE DUP1 PUSH1 0x0 DUP2 EQ PUSH2 0x24CC JUMPI PUSH1 0x40 MLOAD SWAP2 POP PUSH1 0x1F NOT PUSH1 0x3F RETURNDATASIZE ADD AND DUP3 ADD PUSH1 0x40 MSTORE RETURNDATASIZE DUP3 MSTORE RETURNDATASIZE PUSH1 0x0 PUSH1 0x20 DUP5 ADD RETURNDATACOPY PUSH2 0x24D1 JUMP JUMPDEST PUSH1 0x60 SWAP2 POP JUMPDEST POP PUSH1 0x0 DUP2 MLOAD EQ ISZERO PUSH2 0x2517 JUMPI PUSH1 0x40 MLOAD PUSH32 0x8C379A000000000000000000000000000000000000000000000000000000000 DUP2 MSTORE PUSH1 0x4 ADD PUSH2 0x250E SWAP1 PUSH2 0x33E9 JUMP JUMPDEST PUSH1 0x40 MLOAD DUP1 SWAP2 SUB SWAP1 REVERT JUMPDEST DUP1 MLOAD DUP2 PUSH1 0x20 ADD REVERT JUMPDEST PUSH4 0x150B7A02 PUSH1 0xE0 SHL PUSH28 0xFFFFFFFFFFFFFFFFFFFFFFFFFFFFFFFFFFFFFFFFFFFFFFFFFFFFFFFF NOT AND DUP2 PUSH28 0xFFFFFFFFFFFFFFFFFFFFFFFFFFFFFFFFFFFFFFFFFFFFFFFFFFFFFFFF NOT AND EQ SWAP2 POP POP PUSH2 0x2574 JUMP JUMPDEST PUSH1 0x1 SWAP1 POP JUMPDEST SWAP5 SWAP4 POP POP POP POP JUMP JUMPDEST PUSH2 0x2586 DUP4 DUP4 PUSH2 0x25FA JUMP JUMPDEST PUSH2 0x2593 PUSH1 0x0 DUP5 DUP5 DUP5 PUSH2 0x23E5 JUMP JUMPDEST PUSH2 0x25D2 JUMPI PUSH1 0x40 MLOAD PUSH32 0x8C379A000000000000000000000000000000000000000000000000000000000 DUP2 MSTORE PUSH1 0x4 ADD PUSH2 0x25C9 SWAP1 PUSH2 0x33E9 JUMP JUMPDEST PUSH1 0x40 MLOAD DUP1 SWAP2 SUB SWAP1 REVERT JUMPDEST POP POP POP JUMP JUMPDEST PUSH1 0x0 DUP1 DUP3 PUSH20 0xFFFFFFFFFFFFFFFFFFFFFFFFFFFFFFFFFFFFFFFF AND EXTCODESIZE GT SWAP1 POP SWAP2 SWAP1 POP JUMP JUMPDEST PUSH1 0x0 PUSH20 0xFFFFFFFFFFFFFFFFFFFFFFFFFFFFFFFFFFFFFFFF AND DUP3 PUSH20 0xFFFFFFFFFFFFFFFFFFFFFFFFFFFFFFFFFFFFFFFF AND EQ ISZERO PUSH2 0x266A JUMPI PUSH1 0x40 MLOAD PUSH32 0x8C379A000000000000000000000000000000000000000000000000000000000 DUP2 MSTORE PUSH1 0x4 ADD PUSH2 0x2661 SWAP1 PUSH2 0x3509 JUMP JUMPDEST PUSH1 0x40 MLOAD DUP1 SWAP2 SUB SWAP1 REVERT JUMPDEST PUSH2 0x2673 DUP2 PUSH2 0x236F JUMP JUMPDEST ISZERO PUSH2 0x26B3 JUMPI PUSH1 0x40 MLOAD PUSH32 0x8C379A000000000000000000000000000000000000000000000000000000000 DUP2 MSTORE PUSH1 0x4 ADD PUSH2 0x26AA SWAP1 PUSH2 0x3429 JUMP JUMPDEST PUSH1 0x40 MLOAD DUP1 SWAP2 SUB SWAP1 REVERT JUMPDEST PUSH2 0x26BF PUSH1 0x0 DUP4 DUP4 PUSH2 0x23DB JUMP JUMPDEST PUSH1 0x1 PUSH1 0x3 PUSH1 0x0 DUP5 PUSH20 0xFFFFFFFFFFFFFFFFFFFFFFFFFFFFFFFFFFFFFFFF AND PUSH20 0xFFFFFFFFFFFFFFFFFFFFFFFFFFFFFFFFFFFFFFFF AND DUP2 MSTORE PUSH1 0x20 ADD SWAP1 DUP2 MSTORE PUSH1 0x20 ADD PUSH1 0x0 KECCAK256 PUSH1 0x0 DUP3 DUP3 SLOAD PUSH2 0x270F SWAP2 SWAP1 PUSH2 0x373A JUMP JUMPDEST SWAP3 POP POP DUP2 SWAP1 SSTORE POP DUP2 PUSH1 0x2 PUSH1 0x0 DUP4 DUP2 MSTORE PUSH1 0x20 ADD SWAP1 DUP2 MSTORE PUSH1 0x20 ADD PUSH1 0x0 KECCAK256 PUSH1 0x0 PUSH2 0x100 EXP DUP2 SLOAD DUP2 PUSH20 0xFFFFFFFFFFFFFFFFFFFFFFFFFFFFFFFFFFFFFFFF MUL NOT AND SWAP1 DUP4 PUSH20 0xFFFFFFFFFFFFFFFFFFFFFFFFFFFFFFFFFFFFFFFF AND MUL OR SWAP1 SSTORE POP DUP1 DUP3 PUSH20 0xFFFFFFFFFFFFFFFFFFFFFFFFFFFFFFFFFFFFFFFF AND PUSH1 0x0 PUSH20 0xFFFFFFFFFFFFFFFFFFFFFFFFFFFFFFFFFFFFFFFF AND PUSH32 0xDDF252AD1BE2C89B69C2B068FC378DAA952BA7F163C4A11628F55A4DF523B3EF PUSH1 0x40 MLOAD PUSH1 0x40 MLOAD DUP1 SWAP2 SUB SWAP1 LOG4 PUSH2 0x27D0 PUSH1 0x0 DUP4 DUP4 PUSH2 0x23E0 JUMP JUMPDEST POP POP JUMP JUMPDEST PUSH1 0x40 MLOAD DUP1 PUSH1 0x80 ADD PUSH1 0x40 MSTORE DUP1 PUSH1 0x60 DUP2 MSTORE PUSH1 0x20 ADD PUSH1 0x60 DUP2 MSTORE PUSH1 0x20 ADD PUSH1 0x0 DUP2 MSTORE PUSH1 0x20 ADD PUSH1 0x0 DUP2 MSTORE POP SWAP1 JUMP JUMPDEST PUSH1 0x40 MLOAD DUP1 PUSH1 0xC0 ADD PUSH1 0x40 MSTORE DUP1 PUSH1 0x0 DUP2 MSTORE PUSH1 0x20 ADD PUSH1 0x60 DUP2 MSTORE PUSH1 0x20 ADD PUSH1 0x60 DUP2 MSTORE PUSH1 0x20 ADD PUSH1 0x0 DUP2 MSTORE PUSH1 0x20 ADD PUSH1 0x0 DUP2 MSTORE PUSH1 0x20 ADD PUSH1 0x0 DUP2 MSTORE POP SWAP1 JUMP JUMPDEST DUP3 DUP1 SLOAD PUSH2 0x283E SWAP1 PUSH2 0x3905 JUMP JUMPDEST SWAP1 PUSH1 0x0 MSTORE PUSH1 0x20 PUSH1 0x0 KECCAK256 SWAP1 PUSH1 0x1F ADD PUSH1 0x20 SWAP1 DIV DUP2 ADD SWAP3 DUP3 PUSH2 0x2860 JUMPI PUSH1 0x0 DUP6 SSTORE PUSH2 0x28A7 JUMP JUMPDEST DUP3 PUSH1 0x1F LT PUSH2 0x2879 JUMPI DUP1 MLOAD PUSH1 0xFF NOT AND DUP4 DUP1 ADD OR DUP6 SSTORE PUSH2 0x28A7 JUMP JUMPDEST DUP3 DUP1 ADD PUSH1 0x1 ADD DUP6 SSTORE DUP3 ISZERO PUSH2 0x28A7 JUMPI SWAP2 DUP3 ADD JUMPDEST DUP3 DUP2 GT ISZERO PUSH2 0x28A6 JUMPI DUP3 MLOAD DUP3 SSTORE SWAP2 PUSH1 0x20 ADD SWAP2 SWAP1 PUSH1 0x1 ADD SWAP1 PUSH2 0x288B JUMP JUMPDEST JUMPDEST POP SWAP1 POP PUSH2 0x28B4 SWAP2 SWAP1 PUSH2 0x28B8 JUMP JUMPDEST POP SWAP1 JUMP JUMPDEST JUMPDEST DUP1 DUP3 GT ISZERO PUSH2 0x28D1 JUMPI PUSH1 0x0 DUP2 PUSH1 0x0 SWAP1 SSTORE POP PUSH1 0x1 ADD PUSH2 0x28B9 JUMP JUMPDEST POP SWAP1 JUMP JUMPDEST PUSH1 0x0 PUSH2 0x28E8 PUSH2 0x28E3 DUP5 PUSH2 0x367C JUMP JUMPDEST PUSH2 0x3657 JUMP JUMPDEST SWAP1 POP DUP3 DUP2 MSTORE PUSH1 0x20 DUP2 ADD DUP5 DUP5 DUP5 ADD GT ISZERO PUSH2 0x2900 JUMPI PUSH1 0x0 DUP1 REVERT JUMPDEST PUSH2 0x290B DUP5 DUP3 DUP6 PUSH2 0x38C3 JUMP JUMPDEST POP SWAP4 SWAP3 POP POP POP JUMP JUMPDEST PUSH1 0x0 DUP2 CALLDATALOAD SWAP1 POP PUSH2 0x2922 DUP2 PUSH2 0x3FD4 JUMP JUMPDEST SWAP3 SWAP2 POP POP JUMP JUMPDEST PUSH1 0x0 DUP2 CALLDATALOAD SWAP1 POP PUSH2 0x2937 DUP2 PUSH2 0x3FEB JUMP JUMPDEST SWAP3 SWAP2 POP POP JUMP JUMPDEST PUSH1 0x0 DUP2 CALLDATALOAD SWAP1 POP PUSH2 0x294C DUP2 PUSH2 0x4002 JUMP JUMPDEST SWAP3 SWAP2 POP POP JUMP JUMPDEST PUSH1 0x0 DUP2 MLOAD SWAP1 POP PUSH2 0x2961 DUP2 PUSH2 0x4002 JUMP JUMPDEST SWAP3 SWAP2 POP POP JUMP JUMPDEST PUSH1 0x0 DUP3 PUSH1 0x1F DUP4 ADD SLT PUSH2 0x2978 JUMPI PUSH1 0x0 DUP1 REVERT JUMPDEST DUP2 CALLDATALOAD PUSH2 0x2988 DUP5 DUP3 PUSH1 0x20 DUP7 ADD PUSH2 0x28D5 JUMP JUMPDEST SWAP2 POP POP SWAP3 SWAP2 POP POP JUMP JUMPDEST PUSH1 0x0 DUP2 CALLDATALOAD SWAP1 POP PUSH2 0x29A0 DUP2 PUSH2 0x4019 JUMP JUMPDEST SWAP3 SWAP2 POP POP JUMP JUMPDEST PUSH1 0x0 PUSH1 0x20 DUP3 DUP5 SUB SLT ISZERO PUSH2 0x29B8 JUMPI PUSH1 0x0 DUP1 REVERT JUMPDEST PUSH1 0x0 PUSH2 0x29C6 DUP5 DUP3 DUP6 ADD PUSH2 0x2913 JUMP JUMPDEST SWAP2 POP POP SWAP3 SWAP2 POP POP JUMP JUMPDEST PUSH1 0x0 DUP1 PUSH1 0x40 DUP4 DUP6 SUB SLT ISZERO PUSH2 0x29E2 JUMPI PUSH1 0x0 DUP1 REVERT JUMPDEST PUSH1 0x0 PUSH2 0x29F0 DUP6 DUP3 DUP7 ADD PUSH2 0x2913 JUMP JUMPDEST SWAP3 POP POP PUSH1 0x20 PUSH2 0x2A01 DUP6 DUP3 DUP7 ADD PUSH2 0x2913 JUMP JUMPDEST SWAP2 POP POP SWAP3 POP SWAP3 SWAP1 POP JUMP JUMPDEST PUSH1 0x0 DUP1 PUSH1 0x0 PUSH1 0x60 DUP5 DUP7 SUB SLT ISZERO PUSH2 0x2A20 JUMPI PUSH1 0x0 DUP1 REVERT JUMPDEST PUSH1 0x0 PUSH2 0x2A2E DUP7 DUP3 DUP8 ADD PUSH2 0x2913 JUMP JUMPDEST SWAP4 POP POP PUSH1 0x20 PUSH2 0x2A3F DUP7 DUP3 DUP8 ADD PUSH2 0x2913 JUMP JUMPDEST SWAP3 POP POP PUSH1 0x40 PUSH2 0x2A50 DUP7 DUP3 DUP8 ADD PUSH2 0x2991 JUMP JUMPDEST SWAP2 POP POP SWAP3 POP SWAP3 POP SWAP3 JUMP JUMPDEST PUSH1 0x0 DUP1 PUSH1 0x0 DUP1 PUSH1 0x80 DUP6 DUP8 SUB SLT ISZERO PUSH2 0x2A70 JUMPI PUSH1 0x0 DUP1 REVERT JUMPDEST PUSH1 0x0 PUSH2 0x2A7E DUP8 DUP3 DUP9 ADD PUSH2 0x2913 JUMP JUMPDEST SWAP5 POP POP PUSH1 0x20 PUSH2 0x2A8F DUP8 DUP3 DUP9 ADD PUSH2 0x2913 JUMP JUMPDEST SWAP4 POP POP PUSH1 0x40 PUSH2 0x2AA0 DUP8 DUP3 DUP9 ADD PUSH2 0x2991 JUMP JUMPDEST SWAP3 POP POP PUSH1 0x60 DUP6 ADD CALLDATALOAD PUSH8 0xFFFFFFFFFFFFFFFF DUP2 GT ISZERO PUSH2 0x2ABD JUMPI PUSH1 0x0 DUP1 REVERT JUMPDEST PUSH2 0x2AC9 DUP8 DUP3 DUP9 ADD PUSH2 0x2967 JUMP JUMPDEST SWAP2 POP POP SWAP3 SWAP6 SWAP2 SWAP5 POP SWAP3 POP JUMP JUMPDEST PUSH1 0x0 DUP1 PUSH1 0x40 DUP4 DUP6 SUB SLT ISZERO PUSH2 0x2AE8 JUMPI PUSH1 0x0 DUP1 REVERT JUMPDEST PUSH1 0x0 PUSH2 0x2AF6 DUP6 DUP3 DUP7 ADD PUSH2 0x2913 JUMP JUMPDEST SWAP3 POP POP PUSH1 0x20 PUSH2 0x2B07 DUP6 DUP3 DUP7 ADD PUSH2 0x2928 JUMP JUMPDEST SWAP2 POP POP SWAP3 POP SWAP3 SWAP1 POP JUMP JUMPDEST PUSH1 0x0 DUP1 PUSH1 0x40 DUP4 DUP6 SUB SLT ISZERO PUSH2 0x2B24 JUMPI PUSH1 0x0 DUP1 REVERT JUMPDEST PUSH1 0x0 PUSH2 0x2B32 DUP6 DUP3 DUP7 ADD PUSH2 0x2913 JUMP JUMPDEST SWAP3 POP POP PUSH1 0x20 PUSH2 0x2B43 DUP6 DUP3 DUP7 ADD PUSH2 0x2991 JUMP JUMPDEST SWAP2 POP POP SWAP3 POP SWAP3 SWAP1 POP JUMP JUMPDEST PUSH1 0x0 PUSH1 0x20 DUP3 DUP5 SUB SLT ISZERO PUSH2 0x2B5F JUMPI PUSH1 0x0 DUP1 REVERT JUMPDEST PUSH1 0x0 PUSH2 0x2B6D DUP5 DUP3 DUP6 ADD PUSH2 0x293D JUMP JUMPDEST SWAP2 POP POP SWAP3 SWAP2 POP POP JUMP JUMPDEST PUSH1 0x0 PUSH1 0x20 DUP3 DUP5 SUB SLT ISZERO PUSH2 0x2B88 JUMPI PUSH1 0x0 DUP1 REVERT JUMPDEST PUSH1 0x0 PUSH2 0x2B96 DUP5 DUP3 DUP6 ADD PUSH2 0x2952 JUMP JUMPDEST SWAP2 POP POP SWAP3 SWAP2 POP POP JUMP JUMPDEST PUSH1 0x0 PUSH1 0x20 DUP3 DUP5 SUB SLT ISZERO PUSH2 0x2BB1 JUMPI PUSH1 0x0 DUP1 REVERT JUMPDEST PUSH1 0x0 PUSH2 0x2BBF DUP5 DUP3 DUP6 ADD PUSH2 0x2991 JUMP JUMPDEST SWAP2 POP POP SWAP3 SWAP2 POP POP JUMP JUMPDEST PUSH1 0x0 PUSH2 0x2BD4 DUP4 DUP4 PUSH2 0x3094 JUMP JUMPDEST SWAP1 POP SWAP3 SWAP2 POP POP JUMP JUMPDEST PUSH2 0x2BE5 DUP2 PUSH2 0x384F JUMP JUMPDEST DUP3 MSTORE POP POP JUMP JUMPDEST PUSH1 0x0 PUSH2 0x2BF6 DUP3 PUSH2 0x36BD JUMP JUMPDEST PUSH2 0x2C00 DUP2 DUP6 PUSH2 0x36EB JUMP JUMPDEST SWAP4 POP DUP4 PUSH1 0x20 DUP3 MUL DUP6 ADD PUSH2 0x2C12 DUP6 PUSH2 0x36AD JUMP JUMPDEST DUP1 PUSH1 0x0 JUMPDEST DUP6 DUP2 LT ISZERO PUSH2 0x2C4E JUMPI DUP5 DUP5 SUB DUP10 MSTORE DUP2 MLOAD PUSH2 0x2C2F DUP6 DUP3 PUSH2 0x2BC8 JUMP JUMPDEST SWAP5 POP PUSH2 0x2C3A DUP4 PUSH2 0x36DE JUMP JUMPDEST SWAP3 POP PUSH1 0x20 DUP11 ADD SWAP10 POP POP PUSH1 0x1 DUP2 ADD SWAP1 POP PUSH2 0x2C16 JUMP JUMPDEST POP DUP3 SWAP8 POP DUP8 SWAP6 POP POP POP POP POP POP SWAP3 SWAP2 POP POP JUMP JUMPDEST PUSH2 0x2C69 DUP2 PUSH2 0x3861 JUMP JUMPDEST DUP3 MSTORE POP POP JUMP JUMPDEST PUSH1 0x0 PUSH2 0x2C7A DUP3 PUSH2 0x36C8 JUMP JUMPDEST PUSH2 0x2C84 DUP2 DUP6 PUSH2 0x36FC JUMP JUMPDEST SWAP4 POP PUSH2 0x2C94 DUP2 DUP6 PUSH1 0x20 DUP7 ADD PUSH2 0x38D2 JUMP JUMPDEST PUSH2 0x2C9D DUP2 PUSH2 0x3A9E JUMP JUMPDEST DUP5 ADD SWAP2 POP POP SWAP3 SWAP2 POP POP JUMP JUMPDEST PUSH1 0x0 PUSH2 0x2CB3 DUP3 PUSH2 0x36D3 JUMP JUMPDEST PUSH2 0x2CBD DUP2 DUP6 PUSH2 0x370D JUMP JUMPDEST SWAP4 POP PUSH2 0x2CCD DUP2 DUP6 PUSH1 0x20 DUP7 ADD PUSH2 0x38D2 JUMP JUMPDEST PUSH2 0x2CD6 DUP2 PUSH2 0x3A9E JUMP JUMPDEST DUP5 ADD SWAP2 POP POP SWAP3 SWAP2 POP POP JUMP JUMPDEST PUSH1 0x0 PUSH2 0x2CEC DUP3 PUSH2 0x36D3 JUMP JUMPDEST PUSH2 0x2CF6 DUP2 DUP6 PUSH2 0x371E JUMP JUMPDEST SWAP4 POP PUSH2 0x2D06 DUP2 DUP6 PUSH1 0x20 DUP7 ADD PUSH2 0x38D2 JUMP JUMPDEST PUSH2 0x2D0F DUP2 PUSH2 0x3A9E JUMP JUMPDEST DUP5 ADD SWAP2 POP POP SWAP3 SWAP2 POP POP JUMP JUMPDEST PUSH1 0x0 PUSH2 0x2D25 DUP3 PUSH2 0x36D3 JUMP JUMPDEST PUSH2 0x2D2F DUP2 DUP6 PUSH2 0x372F JUMP JUMPDEST SWAP4 POP PUSH2 0x2D3F DUP2 DUP6 PUSH1 0x20 DUP7 ADD PUSH2 0x38D2 JUMP JUMPDEST DUP1 DUP5 ADD SWAP2 POP POP SWAP3 SWAP2 POP POP JUMP JUMPDEST PUSH1 0x0 PUSH2 0x2D58 PUSH1 0xB DUP4 PUSH2 0x372F JUMP JUMPDEST SWAP2 POP PUSH2 0x2D63 DUP3 PUSH2 0x3AAF JUMP JUMPDEST PUSH1 0xB DUP3 ADD SWAP1 POP SWAP2 SWAP1 POP JUMP JUMPDEST PUSH1 0x0 PUSH2 0x2D7B PUSH1 0x32 DUP4 PUSH2 0x371E JUMP JUMPDEST SWAP2 POP PUSH2 0x2D86 DUP3 PUSH2 0x3AD8 JUMP JUMPDEST PUSH1 0x40 DUP3 ADD SWAP1 POP SWAP2 SWAP1 POP JUMP JUMPDEST PUSH1 0x0 PUSH2 0x2D9E PUSH1 0x25 DUP4 PUSH2 0x371E JUMP JUMPDEST SWAP2 POP PUSH2 0x2DA9 DUP3 PUSH2 0x3B27 JUMP JUMPDEST PUSH1 0x40 DUP3 ADD SWAP1 POP SWAP2 SWAP1 POP JUMP JUMPDEST PUSH1 0x0 PUSH2 0x2DC1 PUSH1 0x1C DUP4 PUSH2 0x371E JUMP JUMPDEST SWAP2 POP PUSH2 0x2DCC DUP3 PUSH2 0x3B76 JUMP JUMPDEST PUSH1 0x20 DUP3 ADD SWAP1 POP SWAP2 SWAP1 POP JUMP JUMPDEST PUSH1 0x0 PUSH2 0x2DE4 PUSH1 0xE DUP4 PUSH2 0x372F JUMP JUMPDEST SWAP2 POP PUSH2 0x2DEF DUP3 PUSH2 0x3B9F JUMP JUMPDEST PUSH1 0xE DUP3 ADD SWAP1 POP SWAP2 SWAP1 POP JUMP JUMPDEST PUSH1 0x0 PUSH2 0x2E07 PUSH1 0x3E DUP4 PUSH2 0x372F JUMP JUMPDEST SWAP2 POP PUSH2 0x2E12 DUP3 PUSH2 0x3BC8 JUMP JUMPDEST PUSH1 0x3E DUP3 ADD SWAP1 POP SWAP2 SWAP1 POP JUMP JUMPDEST PUSH1 0x0 PUSH2 0x2E2A PUSH1 0x24 DUP4 PUSH2 0x371E JUMP JUMPDEST SWAP2 POP PUSH2 0x2E35 DUP3 PUSH2 0x3C17 JUMP JUMPDEST PUSH1 0x40 DUP3 ADD SWAP1 POP SWAP2 SWAP1 POP JUMP JUMPDEST PUSH1 0x0 PUSH2 0x2E4D PUSH1 0x19 DUP4 PUSH2 0x371E JUMP JUMPDEST SWAP2 POP PUSH2 0x2E58 DUP3 PUSH2 0x3C66 JUMP JUMPDEST PUSH1 0x20 DUP3 ADD SWAP1 POP SWAP2 SWAP1 POP JUMP JUMPDEST PUSH1 0x0 PUSH2 0x2E70 PUSH1 0x10 DUP4 PUSH2 0x371E JUMP JUMPDEST SWAP2 POP PUSH2 0x2E7B DUP3 PUSH2 0x3C8F JUMP JUMPDEST PUSH1 0x20 DUP3 ADD SWAP1 POP SWAP2 SWAP1 POP JUMP JUMPDEST PUSH1 0x0 PUSH2 0x2E93 PUSH1 0x29 DUP4 PUSH2 0x371E JUMP JUMPDEST SWAP2 POP PUSH2 0x2E9E DUP3 PUSH2 0x3CB8 JUMP JUMPDEST PUSH1 0x40 DUP3 ADD SWAP1 POP SWAP2 SWAP1 POP JUMP JUMPDEST PUSH1 0x0 PUSH2 0x2EB6 PUSH1 0x62 DUP4 PUSH2 0x372F JUMP JUMPDEST SWAP2 POP PUSH2 0x2EC1 DUP3 PUSH2 0x3D07 JUMP JUMPDEST PUSH1 0x62 DUP3 ADD SWAP1 POP SWAP2 SWAP1 POP JUMP JUMPDEST PUSH1 0x0 PUSH2 0x2ED9 PUSH1 0x32 DUP4 PUSH2 0x372F JUMP JUMPDEST SWAP2 POP PUSH2 0x2EE4 DUP3 PUSH2 0x3DA2 JUMP JUMPDEST PUSH1 0x32 DUP3 ADD SWAP1 POP SWAP2 SWAP1 POP JUMP JUMPDEST PUSH1 0x0 PUSH2 0x2EFC PUSH1 0x11 DUP4 PUSH2 0x371E JUMP JUMPDEST SWAP2 POP PUSH2 0x2F07 DUP3 PUSH2 0x3DF1 JUMP JUMPDEST PUSH1 0x20 DUP3 ADD SWAP1 POP SWAP2 SWAP1 POP JUMP JUMPDEST PUSH1 0x0 PUSH2 0x2F1F PUSH1 0x4 DUP4 PUSH2 0x372F JUMP JUMPDEST SWAP2 POP PUSH2 0x2F2A DUP3 PUSH2 0x3E1A JUMP JUMPDEST PUSH1 0x4 DUP3 ADD SWAP1 POP SWAP2 SWAP1 POP JUMP JUMPDEST PUSH1 0x0 PUSH2 0x2F42 PUSH1 0x3E DUP4 PUSH2 0x371E JUMP JUMPDEST SWAP2 POP PUSH2 0x2F4D DUP3 PUSH2 0x3E43 JUMP JUMPDEST PUSH1 0x40 DUP3 ADD SWAP1 POP SWAP2 SWAP1 POP JUMP JUMPDEST PUSH1 0x0 PUSH2 0x2F65 PUSH1 0x20 DUP4 PUSH2 0x371E JUMP JUMPDEST SWAP2 POP PUSH2 0x2F70 DUP3 PUSH2 0x3E92 JUMP JUMPDEST PUSH1 0x20 DUP3 ADD SWAP1 POP SWAP2 SWAP1 POP JUMP JUMPDEST PUSH1 0x0 PUSH2 0x2F88 PUSH1 0xA DUP4 PUSH2 0x372F JUMP JUMPDEST SWAP2 POP PUSH2 0x2F93 DUP3 PUSH2 0x3EBB JUMP JUMPDEST PUSH1 0xA DUP3 ADD SWAP1 POP SWAP2 SWAP1 POP JUMP JUMPDEST PUSH1 0x0 PUSH2 0x2FAB PUSH1 0x18 DUP4 PUSH2 0x371E JUMP JUMPDEST SWAP2 POP PUSH2 0x2FB6 DUP3 PUSH2 0x3EE4 JUMP JUMPDEST PUSH1 0x20 DUP3 ADD SWAP1 POP SWAP2 SWAP1 POP JUMP JUMPDEST PUSH1 0x0 PUSH2 0x2FCE PUSH1 0x21 DUP4 PUSH2 0x371E JUMP JUMPDEST SWAP2 POP PUSH2 0x2FD9 DUP3 PUSH2 0x3F0D JUMP JUMPDEST PUSH1 0x40 DUP3 ADD SWAP1 POP SWAP2 SWAP1 POP JUMP JUMPDEST PUSH1 0x0 PUSH2 0x2FF1 PUSH1 0x1D DUP4 PUSH2 0x372F JUMP JUMPDEST SWAP2 POP PUSH2 0x2FFC DUP3 PUSH2 0x3F5C JUMP JUMPDEST PUSH1 0x1D DUP3 ADD SWAP1 POP SWAP2 SWAP1 POP JUMP JUMPDEST PUSH1 0x0 PUSH2 0x3014 PUSH1 0x2E DUP4 PUSH2 0x371E JUMP JUMPDEST SWAP2 POP PUSH2 0x301F DUP3 PUSH2 0x3F85 JUMP JUMPDEST PUSH1 0x40 DUP3 ADD SWAP1 POP SWAP2 SWAP1 POP JUMP JUMPDEST PUSH1 0x0 PUSH1 0x80 DUP4 ADD PUSH1 0x0 DUP4 ADD MLOAD DUP5 DUP3 SUB PUSH1 0x0 DUP7 ADD MSTORE PUSH2 0x3047 DUP3 DUP3 PUSH2 0x2CA8 JUMP JUMPDEST SWAP2 POP POP PUSH1 0x20 DUP4 ADD MLOAD DUP5 DUP3 SUB PUSH1 0x20 DUP7 ADD MSTORE PUSH2 0x3061 DUP3 DUP3 PUSH2 0x2CA8 JUMP JUMPDEST SWAP2 POP POP PUSH1 0x40 DUP4 ADD MLOAD PUSH2 0x3076 PUSH1 0x40 DUP7 ADD DUP3 PUSH2 0x31B4 JUMP JUMPDEST POP PUSH1 0x60 DUP4 ADD MLOAD PUSH2 0x3089 PUSH1 0x60 DUP7 ADD DUP3 PUSH2 0x31B4 JUMP JUMPDEST POP DUP1 SWAP2 POP POP SWAP3 SWAP2 POP POP JUMP JUMPDEST PUSH1 0x0 PUSH1 0xC0 DUP4 ADD PUSH1 0x0 DUP4 ADD MLOAD PUSH2 0x30AC PUSH1 0x0 DUP7 ADD DUP3 PUSH2 0x31B4 JUMP JUMPDEST POP PUSH1 0x20 DUP4 ADD MLOAD DUP5 DUP3 SUB PUSH1 0x20 DUP7 ADD MSTORE PUSH2 0x30C4 DUP3 DUP3 PUSH2 0x2CA8 JUMP JUMPDEST SWAP2 POP POP PUSH1 0x40 DUP4 ADD MLOAD DUP5 DUP3 SUB PUSH1 0x40 DUP7 ADD MSTORE PUSH2 0x30DE DUP3 DUP3 PUSH2 0x2CA8 JUMP JUMPDEST SWAP2 POP POP PUSH1 0x60 DUP4 ADD MLOAD PUSH2 0x30F3 PUSH1 0x60 DUP7 ADD DUP3 PUSH2 0x31B4 JUMP JUMPDEST POP PUSH1 0x80 DUP4 ADD MLOAD PUSH2 0x3106 PUSH1 0x80 DUP7 ADD DUP3 PUSH2 0x31B4 JUMP JUMPDEST POP PUSH1 0xA0 DUP4 ADD MLOAD PUSH2 0x3119 PUSH1 0xA0 DUP7 ADD DUP3 PUSH2 0x31B4 JUMP JUMPDEST POP DUP1 SWAP2 POP POP SWAP3 SWAP2 POP POP JUMP JUMPDEST PUSH1 0x0 PUSH1 0xC0 DUP4 ADD PUSH1 0x0 DUP4 ADD MLOAD PUSH2 0x313C PUSH1 0x0 DUP7 ADD DUP3 PUSH2 0x31B4 JUMP JUMPDEST POP PUSH1 0x20 DUP4 ADD MLOAD DUP5 DUP3 SUB PUSH1 0x20 DUP7 ADD MSTORE PUSH2 0x3154 DUP3 DUP3 PUSH2 0x2CA8 JUMP JUMPDEST SWAP2 POP POP PUSH1 0x40 DUP4 ADD MLOAD DUP5 DUP3 SUB PUSH1 0x40 DUP7 ADD MSTORE PUSH2 0x316E DUP3 DUP3 PUSH2 0x2CA8 JUMP JUMPDEST SWAP2 POP POP PUSH1 0x60 DUP4 ADD MLOAD PUSH2 0x3183 PUSH1 0x60 DUP7 ADD DUP3 PUSH2 0x31B4 JUMP JUMPDEST POP PUSH1 0x80 DUP4 ADD MLOAD PUSH2 0x3196 PUSH1 0x80 DUP7 ADD DUP3 PUSH2 0x31B4 JUMP JUMPDEST POP PUSH1 0xA0 DUP4 ADD MLOAD PUSH2 0x31A9 PUSH1 0xA0 DUP7 ADD DUP3 PUSH2 0x31B4 JUMP JUMPDEST POP DUP1 SWAP2 POP POP SWAP3 SWAP2 POP POP JUMP JUMPDEST PUSH2 0x31BD DUP2 PUSH2 0x38B9 JUMP JUMPDEST DUP3 MSTORE POP POP JUMP JUMPDEST PUSH2 0x31CC DUP2 PUSH2 0x38B9 JUMP JUMPDEST DUP3 MSTORE POP POP JUMP JUMPDEST PUSH1 0x0 PUSH2 0x31DD DUP3 PUSH2 0x2F7B JUMP JUMPDEST SWAP2 POP PUSH2 0x31E9 DUP3 DUP10 PUSH2 0x2D1A JUMP JUMPDEST SWAP2 POP PUSH2 0x31F4 DUP3 PUSH2 0x2D4B JUMP JUMPDEST SWAP2 POP PUSH2 0x3200 DUP3 DUP9 PUSH2 0x2D1A JUMP JUMPDEST SWAP2 POP PUSH2 0x320B DUP3 PUSH2 0x2EA9 JUMP JUMPDEST SWAP2 POP PUSH2 0x3217 DUP3 DUP8 PUSH2 0x2D1A JUMP JUMPDEST SWAP2 POP PUSH2 0x3222 DUP3 PUSH2 0x2DFA JUMP JUMPDEST SWAP2 POP PUSH2 0x322E DUP3 DUP7 PUSH2 0x2D1A JUMP JUMPDEST SWAP2 POP PUSH2 0x3239 DUP3 PUSH2 0x2DD7 JUMP JUMPDEST SWAP2 POP PUSH2 0x3245 DUP3 DUP6 PUSH2 0x2D1A JUMP JUMPDEST SWAP2 POP PUSH2 0x3250 DUP3 PUSH2 0x2ECC JUMP JUMPDEST SWAP2 POP PUSH2 0x325C DUP3 DUP5 PUSH2 0x2D1A JUMP JUMPDEST SWAP2 POP PUSH2 0x3267 DUP3 PUSH2 0x2F12 JUMP JUMPDEST SWAP2 POP DUP2 SWAP1 POP SWAP8 SWAP7 POP POP POP POP POP POP POP JUMP JUMPDEST PUSH1 0x0 PUSH2 0x3282 DUP3 PUSH2 0x2FE4 JUMP JUMPDEST SWAP2 POP PUSH2 0x328E DUP3 DUP5 PUSH2 0x2D1A JUMP JUMPDEST SWAP2 POP DUP2 SWAP1 POP SWAP3 SWAP2 POP POP JUMP JUMPDEST PUSH1 0x0 PUSH1 0x20 DUP3 ADD SWAP1 POP PUSH2 0x32AE PUSH1 0x0 DUP4 ADD DUP5 PUSH2 0x2BDC JUMP JUMPDEST SWAP3 SWAP2 POP POP JUMP JUMPDEST PUSH1 0x0 PUSH1 0x80 DUP3 ADD SWAP1 POP PUSH2 0x32C9 PUSH1 0x0 DUP4 ADD DUP8 PUSH2 0x2BDC JUMP JUMPDEST PUSH2 0x32D6 PUSH1 0x20 DUP4 ADD DUP7 PUSH2 0x2BDC JUMP JUMPDEST PUSH2 0x32E3 PUSH1 0x40 DUP4 ADD DUP6 PUSH2 0x31C3 JUMP JUMPDEST DUP2 DUP2 SUB PUSH1 0x60 DUP4 ADD MSTORE PUSH2 0x32F5 DUP2 DUP5 PUSH2 0x2C6F JUMP JUMPDEST SWAP1 POP SWAP6 SWAP5 POP POP POP POP POP JUMP JUMPDEST PUSH1 0x0 PUSH1 0x60 DUP3 ADD SWAP1 POP PUSH2 0x3315 PUSH1 0x0 DUP4 ADD DUP7 PUSH2 0x2BDC JUMP JUMPDEST PUSH2 0x3322 PUSH1 0x20 DUP4 ADD DUP6 PUSH2 0x31C3 JUMP JUMPDEST PUSH2 0x332F PUSH1 0x40 DUP4 ADD DUP5 PUSH2 0x31C3 JUMP JUMPDEST SWAP5 SWAP4 POP POP POP POP JUMP JUMPDEST PUSH1 0x0 PUSH1 0x20 DUP3 ADD SWAP1 POP DUP2 DUP2 SUB PUSH1 0x0 DUP4 ADD MSTORE PUSH2 0x3351 DUP2 DUP5 PUSH2 0x2BEB JUMP JUMPDEST SWAP1 POP SWAP3 SWAP2 POP POP JUMP JUMPDEST PUSH1 0x0 PUSH1 0x20 DUP3 ADD SWAP1 POP PUSH2 0x336E PUSH1 0x0 DUP4 ADD DUP5 PUSH2 0x2C60 JUMP JUMPDEST SWAP3 SWAP2 POP POP JUMP JUMPDEST PUSH1 0x0 PUSH1 0x20 DUP3 ADD SWAP1 POP DUP2 DUP2 SUB PUSH1 0x0 DUP4 ADD MSTORE PUSH2 0x338E DUP2 DUP5 PUSH2 0x2CE1 JUMP JUMPDEST SWAP1 POP SWAP3 SWAP2 POP POP JUMP JUMPDEST PUSH1 0x0 PUSH1 0x80 DUP3 ADD SWAP1 POP DUP2 DUP2 SUB PUSH1 0x0 DUP4 ADD MSTORE PUSH2 0x33B0 DUP2 DUP8 PUSH2 0x2CE1 JUMP JUMPDEST SWAP1 POP DUP2 DUP2 SUB PUSH1 0x20 DUP4 ADD MSTORE PUSH2 0x33C4 DUP2 DUP7 PUSH2 0x2CE1 JUMP JUMPDEST SWAP1 POP PUSH2 0x33D3 PUSH1 0x40 DUP4 ADD DUP6 PUSH2 0x31C3 JUMP JUMPDEST PUSH2 0x33E0 PUSH1 0x60 DUP4 ADD DUP5 PUSH2 0x31C3 JUMP JUMPDEST SWAP6 SWAP5 POP POP POP POP POP JUMP JUMPDEST PUSH1 0x0 PUSH1 0x20 DUP3 ADD SWAP1 POP DUP2 DUP2 SUB PUSH1 0x0 DUP4 ADD MSTORE PUSH2 0x3402 DUP2 PUSH2 0x2D6E JUMP JUMPDEST SWAP1 POP SWAP2 SWAP1 POP JUMP JUMPDEST PUSH1 0x0 PUSH1 0x20 DUP3 ADD SWAP1 POP DUP2 DUP2 SUB PUSH1 0x0 DUP4 ADD MSTORE PUSH2 0x3422 DUP2 PUSH2 0x2D91 JUMP JUMPDEST SWAP1 POP SWAP2 SWAP1 POP JUMP JUMPDEST PUSH1 0x0 PUSH1 0x20 DUP3 ADD SWAP1 POP DUP2 DUP2 SUB PUSH1 0x0 DUP4 ADD MSTORE PUSH2 0x3442 DUP2 PUSH2 0x2DB4 JUMP JUMPDEST SWAP1 POP SWAP2 SWAP1 POP JUMP JUMPDEST PUSH1 0x0 PUSH1 0x20 DUP3 ADD SWAP1 POP DUP2 DUP2 SUB PUSH1 0x0 DUP4 ADD MSTORE PUSH2 0x3462 DUP2 PUSH2 0x2E1D JUMP JUMPDEST SWAP1 POP SWAP2 SWAP1 POP JUMP JUMPDEST PUSH1 0x0 PUSH1 0x20 DUP3 ADD SWAP1 POP DUP2 DUP2 SUB PUSH1 0x0 DUP4 ADD MSTORE PUSH2 0x3482 DUP2 PUSH2 0x2E40 JUMP JUMPDEST SWAP1 POP SWAP2 SWAP1 POP JUMP JUMPDEST PUSH1 0x0 PUSH1 0x20 DUP3 ADD SWAP1 POP DUP2 DUP2 SUB PUSH1 0x0 DUP4 ADD MSTORE PUSH2 0x34A2 DUP2 PUSH2 0x2E63 JUMP JUMPDEST SWAP1 POP SWAP2 SWAP1 POP JUMP JUMPDEST PUSH1 0x0 PUSH1 0x20 DUP3 ADD SWAP1 POP DUP2 DUP2 SUB PUSH1 0x0 DUP4 ADD MSTORE PUSH2 0x34C2 DUP2 PUSH2 0x2E86 JUMP JUMPDEST SWAP1 POP SWAP2 SWAP1 POP JUMP JUMPDEST PUSH1 0x0 PUSH1 0x20 DUP3 ADD SWAP1 POP DUP2 DUP2 SUB PUSH1 0x0 DUP4 ADD MSTORE PUSH2 0x34E2 DUP2 PUSH2 0x2EEF JUMP JUMPDEST SWAP1 POP SWAP2 SWAP1 POP JUMP JUMPDEST PUSH1 0x0 PUSH1 0x20 DUP3 ADD SWAP1 POP DUP2 DUP2 SUB PUSH1 0x0 DUP4 ADD MSTORE PUSH2 0x3502 DUP2 PUSH2 0x2F35 JUMP JUMPDEST SWAP1 POP SWAP2 SWAP1 POP JUMP JUMPDEST PUSH1 0x0 PUSH1 0x20 DUP3 ADD SWAP1 POP DUP2 DUP2 SUB PUSH1 0x0 DUP4 ADD MSTORE PUSH2 0x3522 DUP2 PUSH2 0x2F58 JUMP JUMPDEST SWAP1 POP SWAP2 SWAP1 POP JUMP JUMPDEST PUSH1 0x0 PUSH1 0x20 DUP3 ADD SWAP1 POP DUP2 DUP2 SUB PUSH1 0x0 DUP4 ADD MSTORE PUSH2 0x3542 DUP2 PUSH2 0x2F9E JUMP JUMPDEST SWAP1 POP SWAP2 SWAP1 POP JUMP JUMPDEST PUSH1 0x0 PUSH1 0x20 DUP3 ADD SWAP1 POP DUP2 DUP2 SUB PUSH1 0x0 DUP4 ADD MSTORE PUSH2 0x3562 DUP2 PUSH2 0x2FC1 JUMP JUMPDEST SWAP1 POP SWAP2 SWAP1 POP JUMP JUMPDEST PUSH1 0x0 PUSH1 0x20 DUP3 ADD SWAP1 POP DUP2 DUP2 SUB PUSH1 0x0 DUP4 ADD MSTORE PUSH2 0x3582 DUP2 PUSH2 0x3007 JUMP JUMPDEST SWAP1 POP SWAP2 SWAP1 POP JUMP JUMPDEST PUSH1 0x0 PUSH1 0x20 DUP3 ADD SWAP1 POP DUP2 DUP2 SUB PUSH1 0x0 DUP4 ADD MSTORE PUSH2 0x35A3 DUP2 DUP5 PUSH2 0x302A JUMP JUMPDEST SWAP1 POP SWAP3 SWAP2 POP POP JUMP JUMPDEST PUSH1 0x0 PUSH1 0x20 DUP3 ADD SWAP1 POP DUP2 DUP2 SUB PUSH1 0x0 DUP4 ADD MSTORE PUSH2 0x35C5 DUP2 DUP5 PUSH2 0x3124 JUMP JUMPDEST SWAP1 POP SWAP3 SWAP2 POP POP JUMP JUMPDEST PUSH1 0x0 PUSH1 0x20 DUP3 ADD SWAP1 POP PUSH2 0x35E2 PUSH1 0x0 DUP4 ADD DUP5 PUSH2 0x31C3 JUMP JUMPDEST SWAP3 SWAP2 POP POP JUMP JUMPDEST PUSH1 0x0 PUSH1 0xC0 DUP3 ADD SWAP1 POP PUSH2 0x35FD PUSH1 0x0 DUP4 ADD DUP10 PUSH2 0x31C3 JUMP JUMPDEST DUP2 DUP2 SUB PUSH1 0x20 DUP4 ADD MSTORE PUSH2 0x360F DUP2 DUP9 PUSH2 0x2CE1 JUMP JUMPDEST SWAP1 POP DUP2 DUP2 SUB PUSH1 0x40 DUP4 ADD MSTORE PUSH2 0x3623 DUP2 DUP8 PUSH2 0x2CE1 JUMP JUMPDEST SWAP1 POP PUSH2 0x3632 PUSH1 0x60 DUP4 ADD DUP7 PUSH2 0x31C3 JUMP JUMPDEST PUSH2 0x363F PUSH1 0x80 DUP4 ADD DUP6 PUSH2 0x31C3 JUMP JUMPDEST PUSH2 0x364C PUSH1 0xA0 DUP4 ADD DUP5 PUSH2 0x31C3 JUMP JUMPDEST SWAP8 SWAP7 POP POP POP POP POP POP POP JUMP JUMPDEST PUSH1 0x0 PUSH2 0x3661 PUSH2 0x3672 JUMP JUMPDEST SWAP1 POP PUSH2 0x366D DUP3 DUP3 PUSH2 0x3937 JUMP JUMPDEST SWAP2 SWAP1 POP JUMP JUMPDEST PUSH1 0x0 PUSH1 0x40 MLOAD SWAP1 POP SWAP1 JUMP JUMPDEST PUSH1 0x0 PUSH8 0xFFFFFFFFFFFFFFFF DUP3 GT ISZERO PUSH2 0x3697 JUMPI PUSH2 0x3696 PUSH2 0x3A6F JUMP JUMPDEST JUMPDEST PUSH2 0x36A0 DUP3 PUSH2 0x3A9E JUMP JUMPDEST SWAP1 POP PUSH1 0x20 DUP2 ADD SWAP1 POP SWAP2 SWAP1 POP JUMP JUMPDEST PUSH1 0x0 DUP2 SWAP1 POP PUSH1 0x20 DUP3 ADD SWAP1 POP SWAP2 SWAP1 POP JUMP JUMPDEST PUSH1 0x0 DUP2 MLOAD SWAP1 POP SWAP2 SWAP1 POP JUMP JUMPDEST PUSH1 0x0 DUP2 MLOAD SWAP1 POP SWAP2 SWAP1 POP JUMP JUMPDEST PUSH1 0x0 DUP2 MLOAD SWAP1 POP SWAP2 SWAP1 POP JUMP JUMPDEST PUSH1 0x0 PUSH1 0x20 DUP3 ADD SWAP1 POP SWAP2 SWAP1 POP JUMP JUMPDEST PUSH1 0x0 DUP3 DUP3 MSTORE PUSH1 0x20 DUP3 ADD SWAP1 POP SWAP3 SWAP2 POP POP JUMP JUMPDEST PUSH1 0x0 DUP3 DUP3 MSTORE PUSH1 0x20 DUP3 ADD SWAP1 POP SWAP3 SWAP2 POP POP JUMP JUMPDEST PUSH1 0x0 DUP3 DUP3 MSTORE PUSH1 0x20 DUP3 ADD SWAP1 POP SWAP3 SWAP2 POP POP JUMP JUMPDEST PUSH1 0x0 DUP3 DUP3 MSTORE PUSH1 0x20 DUP3 ADD SWAP1 POP SWAP3 SWAP2 POP POP JUMP JUMPDEST PUSH1 0x0 DUP2 SWAP1 POP SWAP3 SWAP2 POP POP JUMP JUMPDEST PUSH1 0x0 PUSH2 0x3745 DUP3 PUSH2 0x38B9 JUMP JUMPDEST SWAP2 POP PUSH2 0x3750 DUP4 PUSH2 0x38B9 JUMP JUMPDEST SWAP3 POP DUP3 PUSH32 0xFFFFFFFFFFFFFFFFFFFFFFFFFFFFFFFFFFFFFFFFFFFFFFFFFFFFFFFFFFFFFFFF SUB DUP3 GT ISZERO PUSH2 0x3785 JUMPI PUSH2 0x3784 PUSH2 0x39E2 JUMP JUMPDEST JUMPDEST DUP3 DUP3 ADD SWAP1 POP SWAP3 SWAP2 POP POP JUMP JUMPDEST PUSH1 0x0 PUSH2 0x379B DUP3 PUSH2 0x38B9 JUMP JUMPDEST SWAP2 POP PUSH2 0x37A6 DUP4 PUSH2 0x38B9 JUMP JUMPDEST SWAP3 POP DUP3 PUSH2 0x37B6 JUMPI PUSH2 0x37B5 PUSH2 0x3A11 JUMP JUMPDEST JUMPDEST DUP3 DUP3 DIV SWAP1 POP SWAP3 SWAP2 POP POP JUMP JUMPDEST PUSH1 0x0 PUSH2 0x37CC DUP3 PUSH2 0x38B9 JUMP JUMPDEST SWAP2 POP PUSH2 0x37D7 DUP4 PUSH2 0x38B9 JUMP JUMPDEST SWAP3 POP DUP2 PUSH32 0xFFFFFFFFFFFFFFFFFFFFFFFFFFFFFFFFFFFFFFFFFFFFFFFFFFFFFFFFFFFFFFFF DIV DUP4 GT DUP3 ISZERO ISZERO AND ISZERO PUSH2 0x3810 JUMPI PUSH2 0x380F PUSH2 0x39E2 JUMP JUMPDEST JUMPDEST DUP3 DUP3 MUL SWAP1 POP SWAP3 SWAP2 POP POP JUMP JUMPDEST PUSH1 0x0 PUSH2 0x3826 DUP3 PUSH2 0x38B9 JUMP JUMPDEST SWAP2 POP PUSH2 0x3831 DUP4 PUSH2 0x38B9 JUMP JUMPDEST SWAP3 POP DUP3 DUP3 LT ISZERO PUSH2 0x3844 JUMPI PUSH2 0x3843 PUSH2 0x39E2 JUMP JUMPDEST JUMPDEST DUP3 DUP3 SUB SWAP1 POP SWAP3 SWAP2 POP POP JUMP JUMPDEST PUSH1 0x0 PUSH2 0x385A DUP3 PUSH2 0x3899 JUMP JUMPDEST SWAP1 POP SWAP2 SWAP1 POP JUMP JUMPDEST PUSH1 0x0 DUP2 ISZERO ISZERO SWAP1 POP SWAP2 SWAP1 POP JUMP JUMPDEST PUSH1 0x0 PUSH32 0xFFFFFFFF00000000000000000000000000000000000000000000000000000000 DUP3 AND SWAP1 POP SWAP2 SWAP1 POP JUMP JUMPDEST PUSH1 0x0 PUSH20 0xFFFFFFFFFFFFFFFFFFFFFFFFFFFFFFFFFFFFFFFF DUP3 AND SWAP1 POP SWAP2 SWAP1 POP JUMP JUMPDEST PUSH1 0x0 DUP2 SWAP1 POP SWAP2 SWAP1 POP JUMP JUMPDEST DUP3 DUP2 DUP4 CALLDATACOPY PUSH1 0x0 DUP4 DUP4 ADD MSTORE POP POP POP JUMP JUMPDEST PUSH1 0x0 JUMPDEST DUP4 DUP2 LT ISZERO PUSH2 0x38F0 JUMPI DUP1 DUP3 ADD MLOAD DUP2 DUP5 ADD MSTORE PUSH1 0x20 DUP2 ADD SWAP1 POP PUSH2 0x38D5 JUMP JUMPDEST DUP4 DUP2 GT ISZERO PUSH2 0x38FF JUMPI PUSH1 0x0 DUP5 DUP5 ADD MSTORE JUMPDEST POP POP POP POP JUMP JUMPDEST PUSH1 0x0 PUSH1 0x2 DUP3 DIV SWAP1 POP PUSH1 0x1 DUP3 AND DUP1 PUSH2 0x391D JUMPI PUSH1 0x7F DUP3 AND SWAP2 POP JUMPDEST PUSH1 0x20 DUP3 LT DUP2 EQ ISZERO PUSH2 0x3931 JUMPI PUSH2 0x3930 PUSH2 0x3A40 JUMP JUMPDEST JUMPDEST POP SWAP2 SWAP1 POP JUMP JUMPDEST PUSH2 0x3940 DUP3 PUSH2 0x3A9E JUMP JUMPDEST DUP2 ADD DUP2 DUP2 LT PUSH8 0xFFFFFFFFFFFFFFFF DUP3 GT OR ISZERO PUSH2 0x395F JUMPI PUSH2 0x395E PUSH2 0x3A6F JUMP JUMPDEST JUMPDEST DUP1 PUSH1 0x40 MSTORE POP POP POP JUMP JUMPDEST PUSH1 0x0 PUSH2 0x3973 DUP3 PUSH2 0x38B9 JUMP JUMPDEST SWAP2 POP PUSH32 0xFFFFFFFFFFFFFFFFFFFFFFFFFFFFFFFFFFFFFFFFFFFFFFFFFFFFFFFFFFFFFFFF DUP3 EQ ISZERO PUSH2 0x39A6 JUMPI PUSH2 0x39A5 PUSH2 0x39E2 JUMP JUMPDEST JUMPDEST PUSH1 0x1 DUP3 ADD SWAP1 POP SWAP2 SWAP1 POP JUMP JUMPDEST PUSH1 0x0 PUSH2 0x39BC DUP3 PUSH2 0x38B9 JUMP JUMPDEST SWAP2 POP PUSH2 0x39C7 DUP4 PUSH2 0x38B9 JUMP JUMPDEST SWAP3 POP DUP3 PUSH2 0x39D7 JUMPI PUSH2 0x39D6 PUSH2 0x3A11 JUMP JUMPDEST JUMPDEST DUP3 DUP3 MOD SWAP1 POP SWAP3 SWAP2 POP POP JUMP JUMPDEST PUSH32 0x4E487B7100000000000000000000000000000000000000000000000000000000 PUSH1 0x0 MSTORE PUSH1 0x11 PUSH1 0x4 MSTORE PUSH1 0x24 PUSH1 0x0 REVERT JUMPDEST PUSH32 0x4E487B7100000000000000000000000000000000000000000000000000000000 PUSH1 0x0 MSTORE PUSH1 0x12 PUSH1 0x4 MSTORE PUSH1 0x24 PUSH1 0x0 REVERT JUMPDEST PUSH32 0x4E487B7100000000000000000000000000000000000000000000000000000000 PUSH1 0x0 MSTORE PUSH1 0x22 PUSH1 0x4 MSTORE PUSH1 0x24 PUSH1 0x0 REVERT JUMPDEST PUSH32 0x4E487B7100000000000000000000000000000000000000000000000000000000 PUSH1 0x0 MSTORE PUSH1 0x41 PUSH1 0x4 MSTORE PUSH1 0x24 PUSH1 0x0 REVERT JUMPDEST PUSH1 0x0 PUSH1 0x1F NOT PUSH1 0x1F DUP4 ADD AND SWAP1 POP SWAP2 SWAP1 POP JUMP JUMPDEST PUSH32 0x202D2D204E465420233A20000000000000000000000000000000000000000000 PUSH1 0x0 DUP3 ADD MSTORE POP JUMP JUMPDEST PUSH32 0x4552433732313A207472616E7366657220746F206E6F6E204552433732315265 PUSH1 0x0 DUP3 ADD MSTORE PUSH32 0x63656976657220696D706C656D656E7465720000000000000000000000000000 PUSH1 0x20 DUP3 ADD MSTORE POP JUMP JUMPDEST PUSH32 0x4552433732313A207472616E736665722066726F6D20696E636F727265637420 PUSH1 0x0 DUP3 ADD MSTORE PUSH32 0x6F776E6572000000000000000000000000000000000000000000000000000000 PUSH1 0x20 DUP3 ADD MSTORE POP JUMP JUMPDEST PUSH32 0x4552433732313A20746F6B656E20616C7265616479206D696E74656400000000 PUSH1 0x0 DUP3 ADD MSTORE POP JUMP JUMPDEST PUSH32 0x2C20226D61785F76616C7565223A000000000000000000000000000000000000 PUSH1 0x0 DUP3 ADD MSTORE POP JUMP JUMPDEST PUSH32 0x222C202261747472696275746573223A205B207B202274726169745F74797065 PUSH1 0x0 DUP3 ADD MSTORE PUSH32 0x223A202244657374726F7920506F696E7473222C202276616C7565223A200000 PUSH1 0x20 DUP3 ADD MSTORE POP JUMP JUMPDEST PUSH32 0x4552433732313A207472616E7366657220746F20746865207A65726F20616464 PUSH1 0x0 DUP3 ADD MSTORE PUSH32 0x7265737300000000000000000000000000000000000000000000000000000000 PUSH1 0x20 DUP3 ADD MSTORE POP JUMP JUMPDEST PUSH32 0x4552433732313A20617070726F766520746F2063616C6C657200000000000000 PUSH1 0x0 DUP3 ADD MSTORE POP JUMP JUMPDEST PUSH32 0x4D454D45522069532054524F4C4C454400000000000000000000000000000000 PUSH1 0x0 DUP3 ADD MSTORE POP JUMP JUMPDEST PUSH32 0x4552433732313A2061646472657373207A65726F206973206E6F742061207661 PUSH1 0x0 DUP3 ADD MSTORE PUSH32 0x6C6964206F776E65720000000000000000000000000000000000000000000000 PUSH1 0x20 DUP3 ADD MSTORE POP JUMP JUMPDEST PUSH32 0x222C20226465736372697074696F6E223A20225468697320697320616E204E46 PUSH1 0x0 DUP3 ADD MSTORE PUSH32 0x542074686174206C6574732070656F706C6520706C617920696E207468652067 PUSH1 0x20 DUP3 ADD MSTORE PUSH32 0x616D65204D657461766572736520536C6179657221222C2022696D616765223A PUSH1 0x40 DUP3 ADD MSTORE PUSH32 0x2022000000000000000000000000000000000000000000000000000000000000 PUSH1 0x60 DUP3 ADD MSTORE POP JUMP JUMPDEST PUSH32 0x7D2C207B202274726169745F74797065223A202244657374726F792070657220 PUSH1 0x0 DUP3 ADD MSTORE PUSH32 0x7365636F6E64222C202276616C7565223A200000000000000000000000000000 PUSH1 0x20 DUP3 ADD MSTORE POP JUMP JUMPDEST PUSH32 0x426F73732069532044457374726F794564000000000000000000000000000000 PUSH1 0x0 DUP3 ADD MSTORE POP JUMP JUMPDEST PUSH32 0x7D205D7D00000000000000000000000000000000000000000000000000000000 PUSH1 0x0 DUP3 ADD MSTORE POP JUMP JUMPDEST PUSH32 0x4552433732313A20617070726F76652063616C6C6572206973206E6F7420746F PUSH1 0x0 DUP3 ADD MSTORE PUSH32 0x6B656E206F776E6572206E6F7220617070726F76656420666F7220616C6C0000 PUSH1 0x20 DUP3 ADD MSTORE POP JUMP JUMPDEST PUSH32 0x4552433732313A206D696E7420746F20746865207A65726F2061646472657373 PUSH1 0x0 DUP3 ADD MSTORE POP JUMP JUMPDEST PUSH32 0x7B226E616D65223A202200000000000000000000000000000000000000000000 PUSH1 0x0 DUP3 ADD MSTORE POP JUMP JUMPDEST PUSH32 0x4552433732313A20696E76616C696420746F6B656E2049440000000000000000 PUSH1 0x0 DUP3 ADD MSTORE POP JUMP JUMPDEST PUSH32 0x4552433732313A20617070726F76616C20746F2063757272656E74206F776E65 PUSH1 0x0 DUP3 ADD MSTORE PUSH32 0x7200000000000000000000000000000000000000000000000000000000000000 PUSH1 0x20 DUP3 ADD MSTORE POP JUMP JUMPDEST PUSH32 0x646174613A6170706C69636174696F6E2F6A736F6E3B6261736536342C000000 PUSH1 0x0 DUP3 ADD MSTORE POP JUMP JUMPDEST PUSH32 0x4552433732313A2063616C6C6572206973206E6F7420746F6B656E206F776E65 PUSH1 0x0 DUP3 ADD MSTORE PUSH32 0x72206E6F7220617070726F766564000000000000000000000000000000000000 PUSH1 0x20 DUP3 ADD MSTORE POP JUMP JUMPDEST PUSH2 0x3FDD DUP2 PUSH2 0x384F JUMP JUMPDEST DUP2 EQ PUSH2 0x3FE8 JUMPI PUSH1 0x0 DUP1 REVERT JUMPDEST POP JUMP JUMPDEST PUSH2 0x3FF4 DUP2 PUSH2 0x3861 JUMP JUMPDEST DUP2 EQ PUSH2 0x3FFF JUMPI PUSH1 0x0 DUP1 REVERT JUMPDEST POP JUMP JUMPDEST PUSH2 0x400B DUP2 PUSH2 0x386D JUMP JUMPDEST DUP2 EQ PUSH2 0x4016 JUMPI PUSH1 0x0 DUP1 REVERT JUMPDEST POP JUMP JUMPDEST PUSH2 0x4022 DUP2 PUSH2 0x38B9 JUMP JUMPDEST DUP2 EQ PUSH2 0x402D JUMPI PUSH1 0x0 DUP1 REVERT JUMPDEST POP JUMP INVALID COINBASE TIMESTAMP NUMBER DIFFICULTY GASLIMIT CHAINID SELFBALANCE 0x48 0x49 0x4A 0x4B 0x4C 0x4D 0x4E 0x4F POP MLOAD MSTORE MSTORE8 SLOAD SSTORE JUMP JUMPI PC MSIZE GAS PUSH2 0x6263 PUSH5 0x6566676869 PUSH11 0x6B6C6D6E6F707172737475 PUSH23 0x7778797A303132333435363738392B2FA2646970667358 0x22 SLT KECCAK256 SSTORE PUSH8 0x93779003BEB9774F 0xD3 PUSH8 0x556CF5D60B818C60 PC EXTCODESIZE BLOCKHASH BALANCE 0x5D 0xD3 0x27 0xDA GT 0x2E 0xE1 0xA6 PUSH5 0x736F6C6343 STOP ADDMOD DIV STOP CALLER "
        },
        "methodIdentifiers": {
          "approve(address,uint256)": "095ea7b3",
          "attackBoss()": "d4f24c5b",
          "balanceOf(address)": "70a08231",
          "boss()": "c772af39",
          "getAllMemeLords()": "284eab59",
          "getApproved(uint256)": "081812fc",
          "getBoss()": "c76d9e7d",
          "isApprovedForAll(address,address)": "e985e9c5",
          "isUserMemer()": "e2ce1c1b",
          "memeCarryByToken(uint256)": "5ecadef3",
          "mintMeme(uint256)": "eb3a9ef7",
          "name()": "06fdde03",
          "nftHolders(address)": "7df124a1",
          "ownerOf(uint256)": "6352211e",
          "safeTransferFrom(address,address,uint256)": "42842e0e",
          "safeTransferFrom(address,address,uint256,bytes)": "b88d4fde",
          "setApprovalForAll(address,bool)": "a22cb465",
          "supportsInterface(bytes4)": "01ffc9a7",
          "symbol()": "95d89b41",
          "tokenURI(uint256)": "c87b56dd",
          "transferFrom(address,address,uint256)": "23b872dd"
        }
      }
    }
  }
}