{
  "contracts/Epic.sol": {
    "EpicGame": {
      "abi": [
        {
          "inputs": [
            {
              "internalType": "string[]",
              "name": "memeNames",
              "type": "string[]"
            },
            {
              "internalType": "string[]",
              "name": "memeImageURIs",
              "type": "string[]"
            },
            {
              "internalType": "uint256[]",
              "name": "memeDp",
              "type": "uint256[]"
            },
            {
              "internalType": "uint256[]",
              "name": "memeDps",
              "type": "uint256[]"
            }
          ],
          "stateMutability": "nonpayable",
          "type": "constructor"
        },
        {
          "anonymous": false,
          "inputs": [
            {
              "indexed": true,
              "internalType": "address",
              "name": "owner",
              "type": "address"
            },
            {
              "indexed": true,
              "internalType": "address",
              "name": "approved",
              "type": "address"
            },
            {
              "indexed": true,
              "internalType": "uint256",
              "name": "tokenId",
              "type": "uint256"
            }
          ],
          "name": "Approval",
          "type": "event"
        },
        {
          "anonymous": false,
          "inputs": [
            {
              "indexed": true,
              "internalType": "address",
              "name": "owner",
              "type": "address"
            },
            {
              "indexed": true,
              "internalType": "address",
              "name": "operator",
              "type": "address"
            },
            {
              "indexed": false,
              "internalType": "bool",
              "name": "approved",
              "type": "bool"
            }
          ],
          "name": "ApprovalForAll",
          "type": "event"
        },
        {
          "anonymous": false,
          "inputs": [
            {
              "indexed": true,
              "internalType": "address",
              "name": "from",
              "type": "address"
            },
            {
              "indexed": true,
              "internalType": "address",
              "name": "to",
              "type": "address"
            },
            {
              "indexed": true,
              "internalType": "uint256",
              "name": "tokenId",
              "type": "uint256"
            }
          ],
          "name": "Transfer",
          "type": "event"
        },
        {
          "inputs": [
            {
              "internalType": "address",
              "name": "to",
              "type": "address"
            },
            {
              "internalType": "uint256",
              "name": "tokenId",
              "type": "uint256"
            }
          ],
          "name": "approve",
          "outputs": [],
          "stateMutability": "nonpayable",
          "type": "function"
        },
        {
          "inputs": [
            {
              "internalType": "address",
              "name": "owner",
              "type": "address"
            }
          ],
          "name": "balanceOf",
          "outputs": [
            {
              "internalType": "uint256",
              "name": "",
              "type": "uint256"
            }
          ],
          "stateMutability": "view",
          "type": "function"
        },
        {
          "inputs": [
            {
              "internalType": "uint256",
              "name": "tokenId",
              "type": "uint256"
            }
          ],
          "name": "getApproved",
          "outputs": [
            {
              "internalType": "address",
              "name": "",
              "type": "address"
            }
          ],
          "stateMutability": "view",
          "type": "function"
        },
        {
          "inputs": [
            {
              "internalType": "address",
              "name": "owner",
              "type": "address"
            },
            {
              "internalType": "address",
              "name": "operator",
              "type": "address"
            }
          ],
          "name": "isApprovedForAll",
          "outputs": [
            {
              "internalType": "bool",
              "name": "",
              "type": "bool"
            }
          ],
          "stateMutability": "view",
          "type": "function"
        },
        {
          "inputs": [
            {
              "internalType": "uint256",
              "name": "",
              "type": "uint256"
            }
          ],
          "name": "memeCarryByToken",
          "outputs": [
            {
              "internalType": "uint256",
              "name": "uniqueId",
              "type": "uint256"
            },
            {
              "internalType": "string",
              "name": "name",
              "type": "string"
            },
            {
              "internalType": "string",
              "name": "imageURI",
              "type": "string"
            },
            {
              "internalType": "uint256",
              "name": "dp",
              "type": "uint256"
            },
            {
              "internalType": "uint256",
              "name": "maxDp",
              "type": "uint256"
            },
            {
              "internalType": "uint256",
              "name": "dps",
              "type": "uint256"
            }
          ],
          "stateMutability": "view",
          "type": "function"
        },
        {
          "inputs": [
            {
              "internalType": "uint256",
              "name": "_uniqueId",
              "type": "uint256"
            }
          ],
          "name": "mintMeme",
          "outputs": [],
          "stateMutability": "nonpayable",
          "type": "function"
        },
        {
          "inputs": [],
          "name": "name",
          "outputs": [
            {
              "internalType": "string",
              "name": "",
              "type": "string"
            }
          ],
          "stateMutability": "view",
          "type": "function"
        },
        {
          "inputs": [
            {
              "internalType": "address",
              "name": "",
              "type": "address"
            }
          ],
          "name": "nftHolders",
          "outputs": [
            {
              "internalType": "uint256",
              "name": "",
              "type": "uint256"
            }
          ],
          "stateMutability": "view",
          "type": "function"
        },
        {
          "inputs": [
            {
              "internalType": "uint256",
              "name": "tokenId",
              "type": "uint256"
            }
          ],
          "name": "ownerOf",
          "outputs": [
            {
              "internalType": "address",
              "name": "",
              "type": "address"
            }
          ],
          "stateMutability": "view",
          "type": "function"
        },
        {
          "inputs": [
            {
              "internalType": "address",
              "name": "from",
              "type": "address"
            },
            {
              "internalType": "address",
              "name": "to",
              "type": "address"
            },
            {
              "internalType": "uint256",
              "name": "tokenId",
              "type": "uint256"
            }
          ],
          "name": "safeTransferFrom",
          "outputs": [],
          "stateMutability": "nonpayable",
          "type": "function"
        },
        {
          "inputs": [
            {
              "internalType": "address",
              "name": "from",
              "type": "address"
            },
            {
              "internalType": "address",
              "name": "to",
              "type": "address"
            },
            {
              "internalType": "uint256",
              "name": "tokenId",
              "type": "uint256"
            },
            {
              "internalType": "bytes",
              "name": "data",
              "type": "bytes"
            }
          ],
          "name": "safeTransferFrom",
          "outputs": [],
          "stateMutability": "nonpayable",
          "type": "function"
        },
        {
          "inputs": [
            {
              "internalType": "address",
              "name": "operator",
              "type": "address"
            },
            {
              "internalType": "bool",
              "name": "approved",
              "type": "bool"
            }
          ],
          "name": "setApprovalForAll",
          "outputs": [],
          "stateMutability": "nonpayable",
          "type": "function"
        },
        {
          "inputs": [
            {
              "internalType": "bytes4",
              "name": "interfaceId",
              "type": "bytes4"
            }
          ],
          "name": "supportsInterface",
          "outputs": [
            {
              "internalType": "bool",
              "name": "",
              "type": "bool"
            }
          ],
          "stateMutability": "view",
          "type": "function"
        },
        {
          "inputs": [],
          "name": "symbol",
          "outputs": [
            {
              "internalType": "string",
              "name": "",
              "type": "string"
            }
          ],
          "stateMutability": "view",
          "type": "function"
        },
        {
          "inputs": [
            {
              "internalType": "uint256",
              "name": "_tokenId",
              "type": "uint256"
            }
          ],
          "name": "tokenURI",
          "outputs": [
            {
              "internalType": "string",
              "name": "",
              "type": "string"
            }
          ],
          "stateMutability": "view",
          "type": "function"
        },
        {
          "inputs": [
            {
              "internalType": "address",
              "name": "from",
              "type": "address"
            },
            {
              "internalType": "address",
              "name": "to",
              "type": "address"
            },
            {
              "internalType": "uint256",
              "name": "tokenId",
              "type": "uint256"
            }
          ],
          "name": "transferFrom",
          "outputs": [],
          "stateMutability": "nonpayable",
          "type": "function"
        }
      ],
      "evm": {
        "bytecode": {
          "linkReferences": {},
          "object": "60806040523480156200001157600080fd5b5060405162003c5f38038062003c5f8339818101604052810190620000379190620005d0565b6040518060400160405280600681526020017f4d454d45525300000000000000000000000000000000000000000000000000008152506040518060400160405280600381526020017f4d454d00000000000000000000000000000000000000000000000000000000008152508160009080519060200190620000bb92919062000338565b508060019080519060200190620000d492919062000338565b50505060005b8451811015620003005760066040518060c0016040528083815260200187848151811062000131577f4e487b7100000000000000000000000000000000000000000000000000000000600052603260045260246000fd5b6020026020010151815260200186848151811062000178577f4e487b7100000000000000000000000000000000000000000000000000000000600052603260045260246000fd5b60200260200101518152602001858481518110620001bf577f4e487b7100000000000000000000000000000000000000000000000000000000600052603260045260246000fd5b6020026020010151815260200185848151811062000206577f4e487b7100000000000000000000000000000000000000000000000000000000600052603260045260246000fd5b602002602001015181526020018484815181106200024d577f4e487b7100000000000000000000000000000000000000000000000000000000600052603260045260246000fd5b60200260200101518152509080600181540180825580915050600190039060005260206000209060060201600090919091909150600082015181600001556020820151816001019080519060200190620002a992919062000338565b506040820151816002019080519060200190620002c892919062000338565b50606082015181600301556080820151816004015560a082015181600501555050600181620002f891906200075d565b9050620000da565b506200031860076200032260201b620010dd1760201c565b505050506200091e565b6001816000016000828254019250508190555050565b8280546200034690620007fa565b90600052602060002090601f0160209004810192826200036a5760008555620003b6565b82601f106200038557805160ff1916838001178555620003b6565b82800160010185558215620003b6579182015b82811115620003b557825182559160200191906001019062000398565b5b509050620003c59190620003c9565b5090565b5b80821115620003e4576000816000905550600101620003ca565b5090565b6000620003ff620003f984620006c9565b620006a0565b905080838252602082019050828560208602820111156200041f57600080fd5b60005b858110156200046e57815167ffffffffffffffff8111156200044357600080fd5b8086016200045289826200058c565b8552602085019450602084019350505060018101905062000422565b5050509392505050565b60006200048f6200048984620006f8565b620006a0565b90508083825260208201905082856020860282011115620004af57600080fd5b60005b85811015620004e35781620004c88882620005b9565b845260208401935060208301925050600181019050620004b2565b5050509392505050565b600062000504620004fe8462000727565b620006a0565b9050828152602081018484840111156200051d57600080fd5b6200052a848285620007c4565b509392505050565b600082601f8301126200054457600080fd5b815162000556848260208601620003e8565b91505092915050565b600082601f8301126200057157600080fd5b81516200058384826020860162000478565b91505092915050565b600082601f8301126200059e57600080fd5b8151620005b0848260208601620004ed565b91505092915050565b600081519050620005ca8162000904565b92915050565b60008060008060808587031215620005e757600080fd5b600085015167ffffffffffffffff8111156200060257600080fd5b620006108782880162000532565b945050602085015167ffffffffffffffff8111156200062e57600080fd5b6200063c8782880162000532565b935050604085015167ffffffffffffffff8111156200065a57600080fd5b62000668878288016200055f565b925050606085015167ffffffffffffffff8111156200068657600080fd5b62000694878288016200055f565b91505092959194509250565b6000620006ac620006bf565b9050620006ba828262000830565b919050565b6000604051905090565b600067ffffffffffffffff821115620006e757620006e6620008c4565b5b602082029050602081019050919050565b600067ffffffffffffffff821115620007165762000715620008c4565b5b602082029050602081019050919050565b600067ffffffffffffffff821115620007455762000744620008c4565b5b6200075082620008f3565b9050602081019050919050565b60006200076a82620007ba565b91506200077783620007ba565b9250827fffffffffffffffffffffffffffffffffffffffffffffffffffffffffffffffff03821115620007af57620007ae62000866565b5b828201905092915050565b6000819050919050565b60005b83811015620007e4578082015181840152602081019050620007c7565b83811115620007f4576000848401525b50505050565b600060028204905060018216806200081357607f821691505b602082108114156200082a576200082962000895565b5b50919050565b6200083b82620008f3565b810181811067ffffffffffffffff821117156200085d576200085c620008c4565b5b80604052505050565b7f4e487b7100000000000000000000000000000000000000000000000000000000600052601160045260246000fd5b7f4e487b7100000000000000000000000000000000000000000000000000000000600052602260045260246000fd5b7f4e487b7100000000000000000000000000000000000000000000000000000000600052604160045260246000fd5b6000601f19601f8301169050919050565b6200090f81620007ba565b81146200091b57600080fd5b50565b613331806200092e6000396000f3fe608060405234801561001057600080fd5b50600436106101005760003560e01c806370a0823111610097578063b88d4fde11610066578063b88d4fde146102d6578063c87b56dd146102f2578063e985e9c514610322578063eb3a9ef71461035257610100565b806370a082311461023c5780637df124a11461026c57806395d89b411461029c578063a22cb465146102ba57610100565b806323b872dd116100d357806323b872dd1461019f57806342842e0e146101bb5780635ecadef3146101d75780636352211e1461020c57610100565b806301ffc9a71461010557806306fdde0314610135578063081812fc14610153578063095ea7b314610183575b600080fd5b61011f600480360381019061011a9190612245565b61036e565b60405161012c9190612757565b60405180910390f35b61013d610450565b60405161014a9190612772565b60405180910390f35b61016d60048036038101906101689190612297565b6104e2565b60405161017a91906126f0565b60405180910390f35b61019d60048036038101906101989190612209565b610528565b005b6101b960048036038101906101b49190612103565b610640565b005b6101d560048036038101906101d09190612103565b6106a0565b005b6101f160048036038101906101ec9190612297565b6106c0565b6040516102039695949392919061290f565b60405180910390f35b61022660048036038101906102219190612297565b61080c565b60405161023391906126f0565b60405180910390f35b6102566004803603810190610251919061209e565b6108be565b60405161026391906128f4565b60405180910390f35b6102866004803603810190610281919061209e565b610976565b60405161029391906128f4565b60405180910390f35b6102a461098e565b6040516102b19190612772565b60405180910390f35b6102d460048036038101906102cf91906121cd565b610a20565b005b6102f060048036038101906102eb9190612152565b610a36565b005b61030c60048036038101906103079190612297565b610a98565b6040516103199190612772565b60405180910390f35b61033c600480360381019061033791906120c7565b610cb3565b6040516103499190612757565b60405180910390f35b61036c60048036038101906103679190612297565b610d47565b005b60007f80ac58cd000000000000000000000000000000000000000000000000000000007bffffffffffffffffffffffffffffffffffffffffffffffffffffffff1916827bffffffffffffffffffffffffffffffffffffffffffffffffffffffff1916148061043957507f5b5e139f000000000000000000000000000000000000000000000000000000007bffffffffffffffffffffffffffffffffffffffffffffffffffffffff1916827bffffffffffffffffffffffffffffffffffffffffffffffffffffffff1916145b806104495750610448826110f3565b5b9050919050565b60606000805461045f90612be2565b80601f016020809104026020016040519081016040528092919081815260200182805461048b90612be2565b80156104d85780601f106104ad576101008083540402835291602001916104d8565b820191906000526020600020905b8154815290600101906020018083116104bb57829003601f168201915b5050505050905090565b60006104ed8261115d565b6004600083815260200190815260200160002060009054906101000a900473ffffffffffffffffffffffffffffffffffffffff169050919050565b60006105338261080c565b90508073ffffffffffffffffffffffffffffffffffffffff168373ffffffffffffffffffffffffffffffffffffffff1614156105a4576040517f08c379a000000000000000000000000000000000000000000000000000000000815260040161059b906128b4565b60405180910390fd5b8073ffffffffffffffffffffffffffffffffffffffff166105c36111a8565b73ffffffffffffffffffffffffffffffffffffffff1614806105f257506105f1816105ec6111a8565b610cb3565b5b610631576040517f08c379a000000000000000000000000000000000000000000000000000000000815260040161062890612854565b60405180910390fd5b61063b83836111b0565b505050565b61065161064b6111a8565b82611269565b610690576040517f08c379a0000000000000000000000000000000000000000000000000000000008152600401610687906128d4565b60405180910390fd5b61069b8383836112fe565b505050565b6106bb83838360405180602001604052806000815250610a36565b505050565b60086020528060005260406000206000915090508060000154908060010180546106e990612be2565b80601f016020809104026020016040519081016040528092919081815260200182805461071590612be2565b80156107625780601f1061073757610100808354040283529160200191610762565b820191906000526020600020905b81548152906001019060200180831161074557829003601f168201915b50505050509080600201805461077790612be2565b80601f01602080910402602001604051908101604052809291908181526020018280546107a390612be2565b80156107f05780601f106107c5576101008083540402835291602001916107f0565b820191906000526020600020905b8154815290600101906020018083116107d357829003601f168201915b5050505050908060030154908060040154908060050154905086565b6000806002600084815260200190815260200160002060009054906101000a900473ffffffffffffffffffffffffffffffffffffffff169050600073ffffffffffffffffffffffffffffffffffffffff168173ffffffffffffffffffffffffffffffffffffffff1614156108b5576040517f08c379a00000000000000000000000000000000000000000000000000000000081526004016108ac90612894565b60405180910390fd5b80915050919050565b60008073ffffffffffffffffffffffffffffffffffffffff168273ffffffffffffffffffffffffffffffffffffffff16141561092f576040517f08c379a000000000000000000000000000000000000000000000000000000000815260040161092690612834565b60405180910390fd5b600360008373ffffffffffffffffffffffffffffffffffffffff1673ffffffffffffffffffffffffffffffffffffffff168152602001908152602001600020549050919050565b60096020528060005260406000206000915090505481565b60606001805461099d90612be2565b80601f01602080910402602001604051908101604052809291908181526020018280546109c990612be2565b8015610a165780601f106109eb57610100808354040283529160200191610a16565b820191906000526020600020905b8154815290600101906020018083116109f957829003601f168201915b5050505050905090565b610a32610a2b6111a8565b8383611565565b5050565b610a47610a416111a8565b83611269565b610a86576040517f08c379a0000000000000000000000000000000000000000000000000000000008152600401610a7d906128d4565b60405180910390fd5b610a92848484846116d2565b50505050565b60606000600860008481526020019081526020016000206040518060c001604052908160008201548152602001600182018054610ad490612be2565b80601f0160208091040260200160405190810160405280929190818152602001828054610b0090612be2565b8015610b4d5780601f10610b2257610100808354040283529160200191610b4d565b820191906000526020600020905b815481529060010190602001808311610b3057829003601f168201915b50505050508152602001600282018054610b6690612be2565b80601f0160208091040260200160405190810160405280929190818152602001828054610b9290612be2565b8015610bdf5780601f10610bb457610100808354040283529160200191610bdf565b820191906000526020600020905b815481529060010190602001808311610bc257829003601f168201915b50505050508152602001600382015481526020016004820154815260200160058201548152505090506000610c17826060015161172e565b90506000610c288360a0015161172e565b90506000610c39846080015161172e565b90506000610c7f8560200151610c4e8961172e565b8760400151878688604051602001610c6b96959493929190612629565b6040516020818303038152906040526118db565b9050600081604051602001610c9491906126ce565b6040516020818303038152906040529050809650505050505050919050565b6000600560008473ffffffffffffffffffffffffffffffffffffffff1673ffffffffffffffffffffffffffffffffffffffff16815260200190815260200160002060008373ffffffffffffffffffffffffffffffffffffffff1673ffffffffffffffffffffffffffffffffffffffff16815260200190815260200160002060009054906101000a900460ff16905092915050565b6000610d536007611a99565b9050610d5f3382611aa7565b6040518060c0016040528083815260200160068481548110610daa577f4e487b7100000000000000000000000000000000000000000000000000000000600052603260045260246000fd5b90600052602060002090600602016001018054610dc690612be2565b80601f0160208091040260200160405190810160405280929190818152602001828054610df290612be2565b8015610e3f5780601f10610e1457610100808354040283529160200191610e3f565b820191906000526020600020905b815481529060010190602001808311610e2257829003601f168201915b5050505050815260200160068481548110610e83577f4e487b7100000000000000000000000000000000000000000000000000000000600052603260045260246000fd5b90600052602060002090600602016002018054610e9f90612be2565b80601f0160208091040260200160405190810160405280929190818152602001828054610ecb90612be2565b8015610f185780601f10610eed57610100808354040283529160200191610f18565b820191906000526020600020905b815481529060010190602001808311610efb57829003601f168201915b5050505050815260200160068481548110610f5c577f4e487b7100000000000000000000000000000000000000000000000000000000600052603260045260246000fd5b906000526020600020906006020160030154815260200160068481548110610fad577f4e487b7100000000000000000000000000000000000000000000000000000000600052603260045260246000fd5b906000526020600020906006020160040154815260200160068481548110610ffe577f4e487b7100000000000000000000000000000000000000000000000000000000600052603260045260246000fd5b9060005260206000209060060201600501548152506008600084815260200190815260200160002060008201518160000155602082015181600101908051906020019061104c929190611f2a565b506040820151816002019080519060200190611069929190611f2a565b50606082015181600301556080820151816004015560a0820151816005015590505080600960003373ffffffffffffffffffffffffffffffffffffffff1673ffffffffffffffffffffffffffffffffffffffff168152602001908152602001600020819055506110d960076110dd565b5050565b6001816000016000828254019250508190555050565b60007f01ffc9a7000000000000000000000000000000000000000000000000000000007bffffffffffffffffffffffffffffffffffffffffffffffffffffffff1916827bffffffffffffffffffffffffffffffffffffffffffffffffffffffff1916149050919050565b61116681611ac5565b6111a5576040517f08c379a000000000000000000000000000000000000000000000000000000000815260040161119c90612894565b60405180910390fd5b50565b600033905090565b816004600083815260200190815260200160002060006101000a81548173ffffffffffffffffffffffffffffffffffffffff021916908373ffffffffffffffffffffffffffffffffffffffff160217905550808273ffffffffffffffffffffffffffffffffffffffff166112238361080c565b73ffffffffffffffffffffffffffffffffffffffff167f8c5be1e5ebec7d5bd14f71427d1e84f3dd0314c0f7b2291e5b200ac8c7c3b92560405160405180910390a45050565b6000806112758361080c565b90508073ffffffffffffffffffffffffffffffffffffffff168473ffffffffffffffffffffffffffffffffffffffff1614806112b757506112b68185610cb3565b5b806112f557508373ffffffffffffffffffffffffffffffffffffffff166112dd846104e2565b73ffffffffffffffffffffffffffffffffffffffff16145b91505092915050565b8273ffffffffffffffffffffffffffffffffffffffff1661131e8261080c565b73ffffffffffffffffffffffffffffffffffffffff1614611374576040517f08c379a000000000000000000000000000000000000000000000000000000000815260040161136b906127b4565b60405180910390fd5b600073ffffffffffffffffffffffffffffffffffffffff168273ffffffffffffffffffffffffffffffffffffffff1614156113e4576040517f08c379a00000000000000000000000000000000000000000000000000000000081526004016113db906127f4565b60405180910390fd5b6113ef838383611b31565b6113fa6000826111b0565b6001600360008573ffffffffffffffffffffffffffffffffffffffff1673ffffffffffffffffffffffffffffffffffffffff168152602001908152602001600020600082825461144a9190612af8565b925050819055506001600360008473ffffffffffffffffffffffffffffffffffffffff1673ffffffffffffffffffffffffffffffffffffffff16815260200190815260200160002060008282546114a19190612a17565b92505081905550816002600083815260200190815260200160002060006101000a81548173ffffffffffffffffffffffffffffffffffffffff021916908373ffffffffffffffffffffffffffffffffffffffff160217905550808273ffffffffffffffffffffffffffffffffffffffff168473ffffffffffffffffffffffffffffffffffffffff167fddf252ad1be2c89b69c2b068fc378daa952ba7f163c4a11628f55a4df523b3ef60405160405180910390a4611560838383611b36565b505050565b8173ffffffffffffffffffffffffffffffffffffffff168373ffffffffffffffffffffffffffffffffffffffff1614156115d4576040517f08c379a00000000000000000000000000000000000000000000000000000000081526004016115cb90612814565b60405180910390fd5b80600560008573ffffffffffffffffffffffffffffffffffffffff1673ffffffffffffffffffffffffffffffffffffffff16815260200190815260200160002060008473ffffffffffffffffffffffffffffffffffffffff1673ffffffffffffffffffffffffffffffffffffffff16815260200190815260200160002060006101000a81548160ff0219169083151502179055508173ffffffffffffffffffffffffffffffffffffffff168373ffffffffffffffffffffffffffffffffffffffff167f17307eab39ab6107e8899845ad3d59bd9653f200f220920489ca2b5937696c31836040516116c59190612757565b60405180910390a3505050565b6116dd8484846112fe565b6116e984848484611b3b565b611728576040517f08c379a000000000000000000000000000000000000000000000000000000000815260040161171f90612794565b60405180910390fd5b50505050565b60606000821415611776576040518060400160405280600181526020017f300000000000000000000000000000000000000000000000000000000000000081525090506118d6565b600082905060005b600082146117a857808061179190612c45565b915050600a826117a19190612a6d565b915061177e565b60008167ffffffffffffffff8111156117ea577f4e487b7100000000000000000000000000000000000000000000000000000000600052604160045260246000fd5b6040519080825280601f01601f19166020018201604052801561181c5781602001600182028036833780820191505090505b5090505b600085146118cf576001826118359190612af8565b9150600a856118449190612c8e565b60306118509190612a17565b60f81b81838151811061188c577f4e487b7100000000000000000000000000000000000000000000000000000000600052603260045260246000fd5b60200101907effffffffffffffffffffffffffffffffffffffffffffffffffffffffffffff1916908160001a905350600a856118c89190612a6d565b9450611820565b8093505050505b919050565b606060008251905060008114156119045760405180602001604052806000815250915050611a94565b600060036002836119159190612a17565b61191f9190612a6d565b600461192b9190612a9e565b9050600060208261193c9190612a17565b67ffffffffffffffff81111561197b577f4e487b7100000000000000000000000000000000000000000000000000000000600052604160045260246000fd5b6040519080825280601f01601f1916602001820160405280156119ad5781602001600182028036833780820191505090505b50905060006040518060600160405280604081526020016132bc604091399050600181016020830160005b86811015611a515760038101905062ffffff818a015116603f8160121c168401518060081b905060ff603f83600c1c1686015116810190508060081b905060ff603f8360061c1686015116810190508060081b905060ff603f831686015116810190508060e01b905080845260048401935050506119d8565b506003860660018114611a6b5760028114611a7b57611a86565b613d3d60f01b6002830352611a86565b603d60f81b60018303525b508484525050819450505050505b919050565b600081600001549050919050565b611ac1828260405180602001604052806000815250611cd2565b5050565b60008073ffffffffffffffffffffffffffffffffffffffff166002600084815260200190815260200160002060009054906101000a900473ffffffffffffffffffffffffffffffffffffffff1673ffffffffffffffffffffffffffffffffffffffff1614159050919050565b505050565b505050565b6000611b5c8473ffffffffffffffffffffffffffffffffffffffff16611d2d565b15611cc5578373ffffffffffffffffffffffffffffffffffffffff1663150b7a02611b856111a8565b8786866040518563ffffffff1660e01b8152600401611ba7949392919061270b565b602060405180830381600087803b158015611bc157600080fd5b505af1925050508015611bf257506040513d601f19601f82011682018060405250810190611bef919061226e565b60015b611c75573d8060008114611c22576040519150601f19603f3d011682016040523d82523d6000602084013e611c27565b606091505b50600081511415611c6d576040517f08c379a0000000000000000000000000000000000000000000000000000000008152600401611c6490612794565b60405180910390fd5b805181602001fd5b63150b7a0260e01b7bffffffffffffffffffffffffffffffffffffffffffffffffffffffff1916817bffffffffffffffffffffffffffffffffffffffffffffffffffffffff191614915050611cca565b600190505b949350505050565b611cdc8383611d50565b611ce96000848484611b3b565b611d28576040517f08c379a0000000000000000000000000000000000000000000000000000000008152600401611d1f90612794565b60405180910390fd5b505050565b6000808273ffffffffffffffffffffffffffffffffffffffff163b119050919050565b600073ffffffffffffffffffffffffffffffffffffffff168273ffffffffffffffffffffffffffffffffffffffff161415611dc0576040517f08c379a0000000000000000000000000000000000000000000000000000000008152600401611db790612874565b60405180910390fd5b611dc981611ac5565b15611e09576040517f08c379a0000000000000000000000000000000000000000000000000000000008152600401611e00906127d4565b60405180910390fd5b611e1560008383611b31565b6001600360008473ffffffffffffffffffffffffffffffffffffffff1673ffffffffffffffffffffffffffffffffffffffff1681526020019081526020016000206000828254611e659190612a17565b92505081905550816002600083815260200190815260200160002060006101000a81548173ffffffffffffffffffffffffffffffffffffffff021916908373ffffffffffffffffffffffffffffffffffffffff160217905550808273ffffffffffffffffffffffffffffffffffffffff16600073ffffffffffffffffffffffffffffffffffffffff167fddf252ad1be2c89b69c2b068fc378daa952ba7f163c4a11628f55a4df523b3ef60405160405180910390a4611f2660008383611b36565b5050565b828054611f3690612be2565b90600052602060002090601f016020900481019282611f585760008555611f9f565b82601f10611f7157805160ff1916838001178555611f9f565b82800160010185558215611f9f579182015b82811115611f9e578251825591602001919060010190611f83565b5b509050611fac9190611fb0565b5090565b5b80821115611fc9576000816000905550600101611fb1565b5090565b6000611fe0611fdb846129a3565b61297e565b905082815260208101848484011115611ff857600080fd5b612003848285612ba0565b509392505050565b60008135905061201a8161325f565b92915050565b60008135905061202f81613276565b92915050565b6000813590506120448161328d565b92915050565b6000815190506120598161328d565b92915050565b600082601f83011261207057600080fd5b8135612080848260208601611fcd565b91505092915050565b600081359050612098816132a4565b92915050565b6000602082840312156120b057600080fd5b60006120be8482850161200b565b91505092915050565b600080604083850312156120da57600080fd5b60006120e88582860161200b565b92505060206120f98582860161200b565b9150509250929050565b60008060006060848603121561211857600080fd5b60006121268682870161200b565b93505060206121378682870161200b565b925050604061214886828701612089565b9150509250925092565b6000806000806080858703121561216857600080fd5b60006121768782880161200b565b94505060206121878782880161200b565b935050604061219887828801612089565b925050606085013567ffffffffffffffff8111156121b557600080fd5b6121c18782880161205f565b91505092959194509250565b600080604083850312156121e057600080fd5b60006121ee8582860161200b565b92505060206121ff85828601612020565b9150509250929050565b6000806040838503121561221c57600080fd5b600061222a8582860161200b565b925050602061223b85828601612089565b9150509250929050565b60006020828403121561225757600080fd5b600061226584828501612035565b91505092915050565b60006020828403121561228057600080fd5b600061228e8482850161204a565b91505092915050565b6000602082840312156122a957600080fd5b60006122b784828501612089565b91505092915050565b6122c981612b2c565b82525050565b6122d881612b3e565b82525050565b60006122e9826129d4565b6122f381856129ea565b9350612303818560208601612baf565b61230c81612d7b565b840191505092915050565b6000612322826129df565b61232c81856129fb565b935061233c818560208601612baf565b61234581612d7b565b840191505092915050565b600061235b826129df565b6123658185612a0c565b9350612375818560208601612baf565b80840191505092915050565b600061238e600b83612a0c565b915061239982612d8c565b600b82019050919050565b60006123b16032836129fb565b91506123bc82612db5565b604082019050919050565b60006123d46025836129fb565b91506123df82612e04565b604082019050919050565b60006123f7601c836129fb565b915061240282612e53565b602082019050919050565b600061241a600e83612a0c565b915061242582612e7c565b600e82019050919050565b600061243d603e83612a0c565b915061244882612ea5565b603e82019050919050565b60006124606024836129fb565b915061246b82612ef4565b604082019050919050565b60006124836019836129fb565b915061248e82612f43565b602082019050919050565b60006124a66029836129fb565b91506124b182612f6c565b604082019050919050565b60006124c9606283612a0c565b91506124d482612fbb565b606282019050919050565b60006124ec603283612a0c565b91506124f782613056565b603282019050919050565b600061250f600483612a0c565b915061251a826130a5565b600482019050919050565b6000612532603e836129fb565b915061253d826130ce565b604082019050919050565b60006125556020836129fb565b91506125608261311d565b602082019050919050565b6000612578600a83612a0c565b915061258382613146565b600a82019050919050565b600061259b6018836129fb565b91506125a68261316f565b602082019050919050565b60006125be6021836129fb565b91506125c982613198565b604082019050919050565b60006125e1601d83612a0c565b91506125ec826131e7565b601d82019050919050565b6000612604602e836129fb565b915061260f82613210565b604082019050919050565b61262381612b96565b82525050565b60006126348261256b565b91506126408289612350565b915061264b82612381565b91506126578288612350565b9150612662826124bc565b915061266e8287612350565b915061267982612430565b91506126858286612350565b91506126908261240d565b915061269c8285612350565b91506126a7826124df565b91506126b38284612350565b91506126be82612502565b9150819050979650505050505050565b60006126d9826125d4565b91506126e58284612350565b915081905092915050565b600060208201905061270560008301846122c0565b92915050565b600060808201905061272060008301876122c0565b61272d60208301866122c0565b61273a604083018561261a565b818103606083015261274c81846122de565b905095945050505050565b600060208201905061276c60008301846122cf565b92915050565b6000602082019050818103600083015261278c8184612317565b905092915050565b600060208201905081810360008301526127ad816123a4565b9050919050565b600060208201905081810360008301526127cd816123c7565b9050919050565b600060208201905081810360008301526127ed816123ea565b9050919050565b6000602082019050818103600083015261280d81612453565b9050919050565b6000602082019050818103600083015261282d81612476565b9050919050565b6000602082019050818103600083015261284d81612499565b9050919050565b6000602082019050818103600083015261286d81612525565b9050919050565b6000602082019050818103600083015261288d81612548565b9050919050565b600060208201905081810360008301526128ad8161258e565b9050919050565b600060208201905081810360008301526128cd816125b1565b9050919050565b600060208201905081810360008301526128ed816125f7565b9050919050565b6000602082019050612909600083018461261a565b92915050565b600060c082019050612924600083018961261a565b81810360208301526129368188612317565b9050818103604083015261294a8187612317565b9050612959606083018661261a565b612966608083018561261a565b61297360a083018461261a565b979650505050505050565b6000612988612999565b90506129948282612c14565b919050565b6000604051905090565b600067ffffffffffffffff8211156129be576129bd612d4c565b5b6129c782612d7b565b9050602081019050919050565b600081519050919050565b600081519050919050565b600082825260208201905092915050565b600082825260208201905092915050565b600081905092915050565b6000612a2282612b96565b9150612a2d83612b96565b9250827fffffffffffffffffffffffffffffffffffffffffffffffffffffffffffffffff03821115612a6257612a61612cbf565b5b828201905092915050565b6000612a7882612b96565b9150612a8383612b96565b925082612a9357612a92612cee565b5b828204905092915050565b6000612aa982612b96565b9150612ab483612b96565b9250817fffffffffffffffffffffffffffffffffffffffffffffffffffffffffffffffff0483118215151615612aed57612aec612cbf565b5b828202905092915050565b6000612b0382612b96565b9150612b0e83612b96565b925082821015612b2157612b20612cbf565b5b828203905092915050565b6000612b3782612b76565b9050919050565b60008115159050919050565b60007fffffffff0000000000000000000000000000000000000000000000000000000082169050919050565b600073ffffffffffffffffffffffffffffffffffffffff82169050919050565b6000819050919050565b82818337600083830152505050565b60005b83811015612bcd578082015181840152602081019050612bb2565b83811115612bdc576000848401525b50505050565b60006002820490506001821680612bfa57607f821691505b60208210811415612c0e57612c0d612d1d565b5b50919050565b612c1d82612d7b565b810181811067ffffffffffffffff82111715612c3c57612c3b612d4c565b5b80604052505050565b6000612c5082612b96565b91507fffffffffffffffffffffffffffffffffffffffffffffffffffffffffffffffff821415612c8357612c82612cbf565b5b600182019050919050565b6000612c9982612b96565b9150612ca483612b96565b925082612cb457612cb3612cee565b5b828206905092915050565b7f4e487b7100000000000000000000000000000000000000000000000000000000600052601160045260246000fd5b7f4e487b7100000000000000000000000000000000000000000000000000000000600052601260045260246000fd5b7f4e487b7100000000000000000000000000000000000000000000000000000000600052602260045260246000fd5b7f4e487b7100000000000000000000000000000000000000000000000000000000600052604160045260246000fd5b6000601f19601f8301169050919050565b7f202d2d204e465420233a20000000000000000000000000000000000000000000600082015250565b7f4552433732313a207472616e7366657220746f206e6f6e20455243373231526560008201527f63656976657220696d706c656d656e7465720000000000000000000000000000602082015250565b7f4552433732313a207472616e736665722066726f6d20696e636f72726563742060008201527f6f776e6572000000000000000000000000000000000000000000000000000000602082015250565b7f4552433732313a20746f6b656e20616c7265616479206d696e74656400000000600082015250565b7f2c20226d61785f76616c7565223a000000000000000000000000000000000000600082015250565b7f222c202261747472696275746573223a205b207b202274726169745f7479706560008201527f223a202244657374726f7920506f696e7473222c202276616c7565223a200000602082015250565b7f4552433732313a207472616e7366657220746f20746865207a65726f2061646460008201527f7265737300000000000000000000000000000000000000000000000000000000602082015250565b7f4552433732313a20617070726f766520746f2063616c6c657200000000000000600082015250565b7f4552433732313a2061646472657373207a65726f206973206e6f74206120766160008201527f6c6964206f776e65720000000000000000000000000000000000000000000000602082015250565b7f222c20226465736372697074696f6e223a20225468697320697320616e204e4660008201527f542074686174206c6574732070656f706c6520706c617920696e20746865206760208201527f616d65204d657461766572736520536c6179657221222c2022696d616765223a60408201527f2022000000000000000000000000000000000000000000000000000000000000606082015250565b7f7d2c207b202274726169745f74797065223a202244657374726f79207065722060008201527f7365636f6e64222c202276616c7565223a200000000000000000000000000000602082015250565b7f7d205d7d00000000000000000000000000000000000000000000000000000000600082015250565b7f4552433732313a20617070726f76652063616c6c6572206973206e6f7420746f60008201527f6b656e206f776e6572206e6f7220617070726f76656420666f7220616c6c0000602082015250565b7f4552433732313a206d696e7420746f20746865207a65726f2061646472657373600082015250565b7f7b226e616d65223a202200000000000000000000000000000000000000000000600082015250565b7f4552433732313a20696e76616c696420746f6b656e2049440000000000000000600082015250565b7f4552433732313a20617070726f76616c20746f2063757272656e74206f776e6560008201527f7200000000000000000000000000000000000000000000000000000000000000602082015250565b7f646174613a6170706c69636174696f6e2f6a736f6e3b6261736536342c000000600082015250565b7f4552433732313a2063616c6c6572206973206e6f7420746f6b656e206f776e6560008201527f72206e6f7220617070726f766564000000000000000000000000000000000000602082015250565b61326881612b2c565b811461327357600080fd5b50565b61327f81612b3e565b811461328a57600080fd5b50565b61329681612b4a565b81146132a157600080fd5b50565b6132ad81612b96565b81146132b857600080fd5b5056fe4142434445464748494a4b4c4d4e4f505152535455565758595a6162636465666768696a6b6c6d6e6f707172737475767778797a303132333435363738392b2fa2646970667358221220ee4e00319bfbf8f9a8b021f51929bd3ba14b928fd5690c095e8dc95c9daa53fd64736f6c63430008040033",
          "opcodes": "PUSH1 0x80 PUSH1 0x40 MSTORE CALLVALUE DUP1 ISZERO PUSH3 0x11 JUMPI PUSH1 0x0 DUP1 REVERT JUMPDEST POP PUSH1 0x40 MLOAD PUSH3 0x3C5F CODESIZE SUB DUP1 PUSH3 0x3C5F DUP4 CODECOPY DUP2 DUP2 ADD PUSH1 0x40 MSTORE DUP2 ADD SWAP1 PUSH3 0x37 SWAP2 SWAP1 PUSH3 0x5D0 JUMP JUMPDEST PUSH1 0x40 MLOAD DUP1 PUSH1 0x40 ADD PUSH1 0x40 MSTORE DUP1 PUSH1 0x6 DUP2 MSTORE PUSH1 0x20 ADD PUSH32 0x4D454D4552530000000000000000000000000000000000000000000000000000 DUP2 MSTORE POP PUSH1 0x40 MLOAD DUP1 PUSH1 0x40 ADD PUSH1 0x40 MSTORE DUP1 PUSH1 0x3 DUP2 MSTORE PUSH1 0x20 ADD PUSH32 0x4D454D0000000000000000000000000000000000000000000000000000000000 DUP2 MSTORE POP DUP2 PUSH1 0x0 SWAP1 DUP1 MLOAD SWAP1 PUSH1 0x20 ADD SWAP1 PUSH3 0xBB SWAP3 SWAP2 SWAP1 PUSH3 0x338 JUMP JUMPDEST POP DUP1 PUSH1 0x1 SWAP1 DUP1 MLOAD SWAP1 PUSH1 0x20 ADD SWAP1 PUSH3 0xD4 SWAP3 SWAP2 SWAP1 PUSH3 0x338 JUMP JUMPDEST POP POP POP PUSH1 0x0 JUMPDEST DUP5 MLOAD DUP2 LT ISZERO PUSH3 0x300 JUMPI PUSH1 0x6 PUSH1 0x40 MLOAD DUP1 PUSH1 0xC0 ADD PUSH1 0x40 MSTORE DUP1 DUP4 DUP2 MSTORE PUSH1 0x20 ADD DUP8 DUP5 DUP2 MLOAD DUP2 LT PUSH3 0x131 JUMPI PUSH32 0x4E487B7100000000000000000000000000000000000000000000000000000000 PUSH1 0x0 MSTORE PUSH1 0x32 PUSH1 0x4 MSTORE PUSH1 0x24 PUSH1 0x0 REVERT JUMPDEST PUSH1 0x20 MUL PUSH1 0x20 ADD ADD MLOAD DUP2 MSTORE PUSH1 0x20 ADD DUP7 DUP5 DUP2 MLOAD DUP2 LT PUSH3 0x178 JUMPI PUSH32 0x4E487B7100000000000000000000000000000000000000000000000000000000 PUSH1 0x0 MSTORE PUSH1 0x32 PUSH1 0x4 MSTORE PUSH1 0x24 PUSH1 0x0 REVERT JUMPDEST PUSH1 0x20 MUL PUSH1 0x20 ADD ADD MLOAD DUP2 MSTORE PUSH1 0x20 ADD DUP6 DUP5 DUP2 MLOAD DUP2 LT PUSH3 0x1BF JUMPI PUSH32 0x4E487B7100000000000000000000000000000000000000000000000000000000 PUSH1 0x0 MSTORE PUSH1 0x32 PUSH1 0x4 MSTORE PUSH1 0x24 PUSH1 0x0 REVERT JUMPDEST PUSH1 0x20 MUL PUSH1 0x20 ADD ADD MLOAD DUP2 MSTORE PUSH1 0x20 ADD DUP6 DUP5 DUP2 MLOAD DUP2 LT PUSH3 0x206 JUMPI PUSH32 0x4E487B7100000000000000000000000000000000000000000000000000000000 PUSH1 0x0 MSTORE PUSH1 0x32 PUSH1 0x4 MSTORE PUSH1 0x24 PUSH1 0x0 REVERT JUMPDEST PUSH1 0x20 MUL PUSH1 0x20 ADD ADD MLOAD DUP2 MSTORE PUSH1 0x20 ADD DUP5 DUP5 DUP2 MLOAD DUP2 LT PUSH3 0x24D JUMPI PUSH32 0x4E487B7100000000000000000000000000000000000000000000000000000000 PUSH1 0x0 MSTORE PUSH1 0x32 PUSH1 0x4 MSTORE PUSH1 0x24 PUSH1 0x0 REVERT JUMPDEST PUSH1 0x20 MUL PUSH1 0x20 ADD ADD MLOAD DUP2 MSTORE POP SWAP1 DUP1 PUSH1 0x1 DUP2 SLOAD ADD DUP1 DUP3 SSTORE DUP1 SWAP2 POP POP PUSH1 0x1 SWAP1 SUB SWAP1 PUSH1 0x0 MSTORE PUSH1 0x20 PUSH1 0x0 KECCAK256 SWAP1 PUSH1 0x6 MUL ADD PUSH1 0x0 SWAP1 SWAP2 SWAP1 SWAP2 SWAP1 SWAP2 POP PUSH1 0x0 DUP3 ADD MLOAD DUP2 PUSH1 0x0 ADD SSTORE PUSH1 0x20 DUP3 ADD MLOAD DUP2 PUSH1 0x1 ADD SWAP1 DUP1 MLOAD SWAP1 PUSH1 0x20 ADD SWAP1 PUSH3 0x2A9 SWAP3 SWAP2 SWAP1 PUSH3 0x338 JUMP JUMPDEST POP PUSH1 0x40 DUP3 ADD MLOAD DUP2 PUSH1 0x2 ADD SWAP1 DUP1 MLOAD SWAP1 PUSH1 0x20 ADD SWAP1 PUSH3 0x2C8 SWAP3 SWAP2 SWAP1 PUSH3 0x338 JUMP JUMPDEST POP PUSH1 0x60 DUP3 ADD MLOAD DUP2 PUSH1 0x3 ADD SSTORE PUSH1 0x80 DUP3 ADD MLOAD DUP2 PUSH1 0x4 ADD SSTORE PUSH1 0xA0 DUP3 ADD MLOAD DUP2 PUSH1 0x5 ADD SSTORE POP POP PUSH1 0x1 DUP2 PUSH3 0x2F8 SWAP2 SWAP1 PUSH3 0x75D JUMP JUMPDEST SWAP1 POP PUSH3 0xDA JUMP JUMPDEST POP PUSH3 0x318 PUSH1 0x7 PUSH3 0x322 PUSH1 0x20 SHL PUSH3 0x10DD OR PUSH1 0x20 SHR JUMP JUMPDEST POP POP POP POP PUSH3 0x91E JUMP JUMPDEST PUSH1 0x1 DUP2 PUSH1 0x0 ADD PUSH1 0x0 DUP3 DUP3 SLOAD ADD SWAP3 POP POP DUP2 SWAP1 SSTORE POP POP JUMP JUMPDEST DUP3 DUP1 SLOAD PUSH3 0x346 SWAP1 PUSH3 0x7FA JUMP JUMPDEST SWAP1 PUSH1 0x0 MSTORE PUSH1 0x20 PUSH1 0x0 KECCAK256 SWAP1 PUSH1 0x1F ADD PUSH1 0x20 SWAP1 DIV DUP2 ADD SWAP3 DUP3 PUSH3 0x36A JUMPI PUSH1 0x0 DUP6 SSTORE PUSH3 0x3B6 JUMP JUMPDEST DUP3 PUSH1 0x1F LT PUSH3 0x385 JUMPI DUP1 MLOAD PUSH1 0xFF NOT AND DUP4 DUP1 ADD OR DUP6 SSTORE PUSH3 0x3B6 JUMP JUMPDEST DUP3 DUP1 ADD PUSH1 0x1 ADD DUP6 SSTORE DUP3 ISZERO PUSH3 0x3B6 JUMPI SWAP2 DUP3 ADD JUMPDEST DUP3 DUP2 GT ISZERO PUSH3 0x3B5 JUMPI DUP3 MLOAD DUP3 SSTORE SWAP2 PUSH1 0x20 ADD SWAP2 SWAP1 PUSH1 0x1 ADD SWAP1 PUSH3 0x398 JUMP JUMPDEST JUMPDEST POP SWAP1 POP PUSH3 0x3C5 SWAP2 SWAP1 PUSH3 0x3C9 JUMP JUMPDEST POP SWAP1 JUMP JUMPDEST JUMPDEST DUP1 DUP3 GT ISZERO PUSH3 0x3E4 JUMPI PUSH1 0x0 DUP2 PUSH1 0x0 SWAP1 SSTORE POP PUSH1 0x1 ADD PUSH3 0x3CA JUMP JUMPDEST POP SWAP1 JUMP JUMPDEST PUSH1 0x0 PUSH3 0x3FF PUSH3 0x3F9 DUP5 PUSH3 0x6C9 JUMP JUMPDEST PUSH3 0x6A0 JUMP JUMPDEST SWAP1 POP DUP1 DUP4 DUP3 MSTORE PUSH1 0x20 DUP3 ADD SWAP1 POP DUP3 DUP6 PUSH1 0x20 DUP7 MUL DUP3 ADD GT ISZERO PUSH3 0x41F JUMPI PUSH1 0x0 DUP1 REVERT JUMPDEST PUSH1 0x0 JUMPDEST DUP6 DUP2 LT ISZERO PUSH3 0x46E JUMPI DUP2 MLOAD PUSH8 0xFFFFFFFFFFFFFFFF DUP2 GT ISZERO PUSH3 0x443 JUMPI PUSH1 0x0 DUP1 REVERT JUMPDEST DUP1 DUP7 ADD PUSH3 0x452 DUP10 DUP3 PUSH3 0x58C JUMP JUMPDEST DUP6 MSTORE PUSH1 0x20 DUP6 ADD SWAP5 POP PUSH1 0x20 DUP5 ADD SWAP4 POP POP POP PUSH1 0x1 DUP2 ADD SWAP1 POP PUSH3 0x422 JUMP JUMPDEST POP POP POP SWAP4 SWAP3 POP POP POP JUMP JUMPDEST PUSH1 0x0 PUSH3 0x48F PUSH3 0x489 DUP5 PUSH3 0x6F8 JUMP JUMPDEST PUSH3 0x6A0 JUMP JUMPDEST SWAP1 POP DUP1 DUP4 DUP3 MSTORE PUSH1 0x20 DUP3 ADD SWAP1 POP DUP3 DUP6 PUSH1 0x20 DUP7 MUL DUP3 ADD GT ISZERO PUSH3 0x4AF JUMPI PUSH1 0x0 DUP1 REVERT JUMPDEST PUSH1 0x0 JUMPDEST DUP6 DUP2 LT ISZERO PUSH3 0x4E3 JUMPI DUP2 PUSH3 0x4C8 DUP9 DUP3 PUSH3 0x5B9 JUMP JUMPDEST DUP5 MSTORE PUSH1 0x20 DUP5 ADD SWAP4 POP PUSH1 0x20 DUP4 ADD SWAP3 POP POP PUSH1 0x1 DUP2 ADD SWAP1 POP PUSH3 0x4B2 JUMP JUMPDEST POP POP POP SWAP4 SWAP3 POP POP POP JUMP JUMPDEST PUSH1 0x0 PUSH3 0x504 PUSH3 0x4FE DUP5 PUSH3 0x727 JUMP JUMPDEST PUSH3 0x6A0 JUMP JUMPDEST SWAP1 POP DUP3 DUP2 MSTORE PUSH1 0x20 DUP2 ADD DUP5 DUP5 DUP5 ADD GT ISZERO PUSH3 0x51D JUMPI PUSH1 0x0 DUP1 REVERT JUMPDEST PUSH3 0x52A DUP5 DUP3 DUP6 PUSH3 0x7C4 JUMP JUMPDEST POP SWAP4 SWAP3 POP POP POP JUMP JUMPDEST PUSH1 0x0 DUP3 PUSH1 0x1F DUP4 ADD SLT PUSH3 0x544 JUMPI PUSH1 0x0 DUP1 REVERT JUMPDEST DUP2 MLOAD PUSH3 0x556 DUP5 DUP3 PUSH1 0x20 DUP7 ADD PUSH3 0x3E8 JUMP JUMPDEST SWAP2 POP POP SWAP3 SWAP2 POP POP JUMP JUMPDEST PUSH1 0x0 DUP3 PUSH1 0x1F DUP4 ADD SLT PUSH3 0x571 JUMPI PUSH1 0x0 DUP1 REVERT JUMPDEST DUP2 MLOAD PUSH3 0x583 DUP5 DUP3 PUSH1 0x20 DUP7 ADD PUSH3 0x478 JUMP JUMPDEST SWAP2 POP POP SWAP3 SWAP2 POP POP JUMP JUMPDEST PUSH1 0x0 DUP3 PUSH1 0x1F DUP4 ADD SLT PUSH3 0x59E JUMPI PUSH1 0x0 DUP1 REVERT JUMPDEST DUP2 MLOAD PUSH3 0x5B0 DUP5 DUP3 PUSH1 0x20 DUP7 ADD PUSH3 0x4ED JUMP JUMPDEST SWAP2 POP POP SWAP3 SWAP2 POP POP JUMP JUMPDEST PUSH1 0x0 DUP2 MLOAD SWAP1 POP PUSH3 0x5CA DUP2 PUSH3 0x904 JUMP JUMPDEST SWAP3 SWAP2 POP POP JUMP JUMPDEST PUSH1 0x0 DUP1 PUSH1 0x0 DUP1 PUSH1 0x80 DUP6 DUP8 SUB SLT ISZERO PUSH3 0x5E7 JUMPI PUSH1 0x0 DUP1 REVERT JUMPDEST PUSH1 0x0 DUP6 ADD MLOAD PUSH8 0xFFFFFFFFFFFFFFFF DUP2 GT ISZERO PUSH3 0x602 JUMPI PUSH1 0x0 DUP1 REVERT JUMPDEST PUSH3 0x610 DUP8 DUP3 DUP9 ADD PUSH3 0x532 JUMP JUMPDEST SWAP5 POP POP PUSH1 0x20 DUP6 ADD MLOAD PUSH8 0xFFFFFFFFFFFFFFFF DUP2 GT ISZERO PUSH3 0x62E JUMPI PUSH1 0x0 DUP1 REVERT JUMPDEST PUSH3 0x63C DUP8 DUP3 DUP9 ADD PUSH3 0x532 JUMP JUMPDEST SWAP4 POP POP PUSH1 0x40 DUP6 ADD MLOAD PUSH8 0xFFFFFFFFFFFFFFFF DUP2 GT ISZERO PUSH3 0x65A JUMPI PUSH1 0x0 DUP1 REVERT JUMPDEST PUSH3 0x668 DUP8 DUP3 DUP9 ADD PUSH3 0x55F JUMP JUMPDEST SWAP3 POP POP PUSH1 0x60 DUP6 ADD MLOAD PUSH8 0xFFFFFFFFFFFFFFFF DUP2 GT ISZERO PUSH3 0x686 JUMPI PUSH1 0x0 DUP1 REVERT JUMPDEST PUSH3 0x694 DUP8 DUP3 DUP9 ADD PUSH3 0x55F JUMP JUMPDEST SWAP2 POP POP SWAP3 SWAP6 SWAP2 SWAP5 POP SWAP3 POP JUMP JUMPDEST PUSH1 0x0 PUSH3 0x6AC PUSH3 0x6BF JUMP JUMPDEST SWAP1 POP PUSH3 0x6BA DUP3 DUP3 PUSH3 0x830 JUMP JUMPDEST SWAP2 SWAP1 POP JUMP JUMPDEST PUSH1 0x0 PUSH1 0x40 MLOAD SWAP1 POP SWAP1 JUMP JUMPDEST PUSH1 0x0 PUSH8 0xFFFFFFFFFFFFFFFF DUP3 GT ISZERO PUSH3 0x6E7 JUMPI PUSH3 0x6E6 PUSH3 0x8C4 JUMP JUMPDEST JUMPDEST PUSH1 0x20 DUP3 MUL SWAP1 POP PUSH1 0x20 DUP2 ADD SWAP1 POP SWAP2 SWAP1 POP JUMP JUMPDEST PUSH1 0x0 PUSH8 0xFFFFFFFFFFFFFFFF DUP3 GT ISZERO PUSH3 0x716 JUMPI PUSH3 0x715 PUSH3 0x8C4 JUMP JUMPDEST JUMPDEST PUSH1 0x20 DUP3 MUL SWAP1 POP PUSH1 0x20 DUP2 ADD SWAP1 POP SWAP2 SWAP1 POP JUMP JUMPDEST PUSH1 0x0 PUSH8 0xFFFFFFFFFFFFFFFF DUP3 GT ISZERO PUSH3 0x745 JUMPI PUSH3 0x744 PUSH3 0x8C4 JUMP JUMPDEST JUMPDEST PUSH3 0x750 DUP3 PUSH3 0x8F3 JUMP JUMPDEST SWAP1 POP PUSH1 0x20 DUP2 ADD SWAP1 POP SWAP2 SWAP1 POP JUMP JUMPDEST PUSH1 0x0 PUSH3 0x76A DUP3 PUSH3 0x7BA JUMP JUMPDEST SWAP2 POP PUSH3 0x777 DUP4 PUSH3 0x7BA JUMP JUMPDEST SWAP3 POP DUP3 PUSH32 0xFFFFFFFFFFFFFFFFFFFFFFFFFFFFFFFFFFFFFFFFFFFFFFFFFFFFFFFFFFFFFFFF SUB DUP3 GT ISZERO PUSH3 0x7AF JUMPI PUSH3 0x7AE PUSH3 0x866 JUMP JUMPDEST JUMPDEST DUP3 DUP3 ADD SWAP1 POP SWAP3 SWAP2 POP POP JUMP JUMPDEST PUSH1 0x0 DUP2 SWAP1 POP SWAP2 SWAP1 POP JUMP JUMPDEST PUSH1 0x0 JUMPDEST DUP4 DUP2 LT ISZERO PUSH3 0x7E4 JUMPI DUP1 DUP3 ADD MLOAD DUP2 DUP5 ADD MSTORE PUSH1 0x20 DUP2 ADD SWAP1 POP PUSH3 0x7C7 JUMP JUMPDEST DUP4 DUP2 GT ISZERO PUSH3 0x7F4 JUMPI PUSH1 0x0 DUP5 DUP5 ADD MSTORE JUMPDEST POP POP POP POP JUMP JUMPDEST PUSH1 0x0 PUSH1 0x2 DUP3 DIV SWAP1 POP PUSH1 0x1 DUP3 AND DUP1 PUSH3 0x813 JUMPI PUSH1 0x7F DUP3 AND SWAP2 POP JUMPDEST PUSH1 0x20 DUP3 LT DUP2 EQ ISZERO PUSH3 0x82A JUMPI PUSH3 0x829 PUSH3 0x895 JUMP JUMPDEST JUMPDEST POP SWAP2 SWAP1 POP JUMP JUMPDEST PUSH3 0x83B DUP3 PUSH3 0x8F3 JUMP JUMPDEST DUP2 ADD DUP2 DUP2 LT PUSH8 0xFFFFFFFFFFFFFFFF DUP3 GT OR ISZERO PUSH3 0x85D JUMPI PUSH3 0x85C PUSH3 0x8C4 JUMP JUMPDEST JUMPDEST DUP1 PUSH1 0x40 MSTORE POP POP POP JUMP JUMPDEST PUSH32 0x4E487B7100000000000000000000000000000000000000000000000000000000 PUSH1 0x0 MSTORE PUSH1 0x11 PUSH1 0x4 MSTORE PUSH1 0x24 PUSH1 0x0 REVERT JUMPDEST PUSH32 0x4E487B7100000000000000000000000000000000000000000000000000000000 PUSH1 0x0 MSTORE PUSH1 0x22 PUSH1 0x4 MSTORE PUSH1 0x24 PUSH1 0x0 REVERT JUMPDEST PUSH32 0x4E487B7100000000000000000000000000000000000000000000000000000000 PUSH1 0x0 MSTORE PUSH1 0x41 PUSH1 0x4 MSTORE PUSH1 0x24 PUSH1 0x0 REVERT JUMPDEST PUSH1 0x0 PUSH1 0x1F NOT PUSH1 0x1F DUP4 ADD AND SWAP1 POP SWAP2 SWAP1 POP JUMP JUMPDEST PUSH3 0x90F DUP2 PUSH3 0x7BA JUMP JUMPDEST DUP2 EQ PUSH3 0x91B JUMPI PUSH1 0x0 DUP1 REVERT JUMPDEST POP JUMP JUMPDEST PUSH2 0x3331 DUP1 PUSH3 0x92E PUSH1 0x0 CODECOPY PUSH1 0x0 RETURN INVALID PUSH1 0x80 PUSH1 0x40 MSTORE CALLVALUE DUP1 ISZERO PUSH2 0x10 JUMPI PUSH1 0x0 DUP1 REVERT JUMPDEST POP PUSH1 0x4 CALLDATASIZE LT PUSH2 0x100 JUMPI PUSH1 0x0 CALLDATALOAD PUSH1 0xE0 SHR DUP1 PUSH4 0x70A08231 GT PUSH2 0x97 JUMPI DUP1 PUSH4 0xB88D4FDE GT PUSH2 0x66 JUMPI DUP1 PUSH4 0xB88D4FDE EQ PUSH2 0x2D6 JUMPI DUP1 PUSH4 0xC87B56DD EQ PUSH2 0x2F2 JUMPI DUP1 PUSH4 0xE985E9C5 EQ PUSH2 0x322 JUMPI DUP1 PUSH4 0xEB3A9EF7 EQ PUSH2 0x352 JUMPI PUSH2 0x100 JUMP JUMPDEST DUP1 PUSH4 0x70A08231 EQ PUSH2 0x23C JUMPI DUP1 PUSH4 0x7DF124A1 EQ PUSH2 0x26C JUMPI DUP1 PUSH4 0x95D89B41 EQ PUSH2 0x29C JUMPI DUP1 PUSH4 0xA22CB465 EQ PUSH2 0x2BA JUMPI PUSH2 0x100 JUMP JUMPDEST DUP1 PUSH4 0x23B872DD GT PUSH2 0xD3 JUMPI DUP1 PUSH4 0x23B872DD EQ PUSH2 0x19F JUMPI DUP1 PUSH4 0x42842E0E EQ PUSH2 0x1BB JUMPI DUP1 PUSH4 0x5ECADEF3 EQ PUSH2 0x1D7 JUMPI DUP1 PUSH4 0x6352211E EQ PUSH2 0x20C JUMPI PUSH2 0x100 JUMP JUMPDEST DUP1 PUSH4 0x1FFC9A7 EQ PUSH2 0x105 JUMPI DUP1 PUSH4 0x6FDDE03 EQ PUSH2 0x135 JUMPI DUP1 PUSH4 0x81812FC EQ PUSH2 0x153 JUMPI DUP1 PUSH4 0x95EA7B3 EQ PUSH2 0x183 JUMPI JUMPDEST PUSH1 0x0 DUP1 REVERT JUMPDEST PUSH2 0x11F PUSH1 0x4 DUP1 CALLDATASIZE SUB DUP2 ADD SWAP1 PUSH2 0x11A SWAP2 SWAP1 PUSH2 0x2245 JUMP JUMPDEST PUSH2 0x36E JUMP JUMPDEST PUSH1 0x40 MLOAD PUSH2 0x12C SWAP2 SWAP1 PUSH2 0x2757 JUMP JUMPDEST PUSH1 0x40 MLOAD DUP1 SWAP2 SUB SWAP1 RETURN JUMPDEST PUSH2 0x13D PUSH2 0x450 JUMP JUMPDEST PUSH1 0x40 MLOAD PUSH2 0x14A SWAP2 SWAP1 PUSH2 0x2772 JUMP JUMPDEST PUSH1 0x40 MLOAD DUP1 SWAP2 SUB SWAP1 RETURN JUMPDEST PUSH2 0x16D PUSH1 0x4 DUP1 CALLDATASIZE SUB DUP2 ADD SWAP1 PUSH2 0x168 SWAP2 SWAP1 PUSH2 0x2297 JUMP JUMPDEST PUSH2 0x4E2 JUMP JUMPDEST PUSH1 0x40 MLOAD PUSH2 0x17A SWAP2 SWAP1 PUSH2 0x26F0 JUMP JUMPDEST PUSH1 0x40 MLOAD DUP1 SWAP2 SUB SWAP1 RETURN JUMPDEST PUSH2 0x19D PUSH1 0x4 DUP1 CALLDATASIZE SUB DUP2 ADD SWAP1 PUSH2 0x198 SWAP2 SWAP1 PUSH2 0x2209 JUMP JUMPDEST PUSH2 0x528 JUMP JUMPDEST STOP JUMPDEST PUSH2 0x1B9 PUSH1 0x4 DUP1 CALLDATASIZE SUB DUP2 ADD SWAP1 PUSH2 0x1B4 SWAP2 SWAP1 PUSH2 0x2103 JUMP JUMPDEST PUSH2 0x640 JUMP JUMPDEST STOP JUMPDEST PUSH2 0x1D5 PUSH1 0x4 DUP1 CALLDATASIZE SUB DUP2 ADD SWAP1 PUSH2 0x1D0 SWAP2 SWAP1 PUSH2 0x2103 JUMP JUMPDEST PUSH2 0x6A0 JUMP JUMPDEST STOP JUMPDEST PUSH2 0x1F1 PUSH1 0x4 DUP1 CALLDATASIZE SUB DUP2 ADD SWAP1 PUSH2 0x1EC SWAP2 SWAP1 PUSH2 0x2297 JUMP JUMPDEST PUSH2 0x6C0 JUMP JUMPDEST PUSH1 0x40 MLOAD PUSH2 0x203 SWAP7 SWAP6 SWAP5 SWAP4 SWAP3 SWAP2 SWAP1 PUSH2 0x290F JUMP JUMPDEST PUSH1 0x40 MLOAD DUP1 SWAP2 SUB SWAP1 RETURN JUMPDEST PUSH2 0x226 PUSH1 0x4 DUP1 CALLDATASIZE SUB DUP2 ADD SWAP1 PUSH2 0x221 SWAP2 SWAP1 PUSH2 0x2297 JUMP JUMPDEST PUSH2 0x80C JUMP JUMPDEST PUSH1 0x40 MLOAD PUSH2 0x233 SWAP2 SWAP1 PUSH2 0x26F0 JUMP JUMPDEST PUSH1 0x40 MLOAD DUP1 SWAP2 SUB SWAP1 RETURN JUMPDEST PUSH2 0x256 PUSH1 0x4 DUP1 CALLDATASIZE SUB DUP2 ADD SWAP1 PUSH2 0x251 SWAP2 SWAP1 PUSH2 0x209E JUMP JUMPDEST PUSH2 0x8BE JUMP JUMPDEST PUSH1 0x40 MLOAD PUSH2 0x263 SWAP2 SWAP1 PUSH2 0x28F4 JUMP JUMPDEST PUSH1 0x40 MLOAD DUP1 SWAP2 SUB SWAP1 RETURN JUMPDEST PUSH2 0x286 PUSH1 0x4 DUP1 CALLDATASIZE SUB DUP2 ADD SWAP1 PUSH2 0x281 SWAP2 SWAP1 PUSH2 0x209E JUMP JUMPDEST PUSH2 0x976 JUMP JUMPDEST PUSH1 0x40 MLOAD PUSH2 0x293 SWAP2 SWAP1 PUSH2 0x28F4 JUMP JUMPDEST PUSH1 0x40 MLOAD DUP1 SWAP2 SUB SWAP1 RETURN JUMPDEST PUSH2 0x2A4 PUSH2 0x98E JUMP JUMPDEST PUSH1 0x40 MLOAD PUSH2 0x2B1 SWAP2 SWAP1 PUSH2 0x2772 JUMP JUMPDEST PUSH1 0x40 MLOAD DUP1 SWAP2 SUB SWAP1 RETURN JUMPDEST PUSH2 0x2D4 PUSH1 0x4 DUP1 CALLDATASIZE SUB DUP2 ADD SWAP1 PUSH2 0x2CF SWAP2 SWAP1 PUSH2 0x21CD JUMP JUMPDEST PUSH2 0xA20 JUMP JUMPDEST STOP JUMPDEST PUSH2 0x2F0 PUSH1 0x4 DUP1 CALLDATASIZE SUB DUP2 ADD SWAP1 PUSH2 0x2EB SWAP2 SWAP1 PUSH2 0x2152 JUMP JUMPDEST PUSH2 0xA36 JUMP JUMPDEST STOP JUMPDEST PUSH2 0x30C PUSH1 0x4 DUP1 CALLDATASIZE SUB DUP2 ADD SWAP1 PUSH2 0x307 SWAP2 SWAP1 PUSH2 0x2297 JUMP JUMPDEST PUSH2 0xA98 JUMP JUMPDEST PUSH1 0x40 MLOAD PUSH2 0x319 SWAP2 SWAP1 PUSH2 0x2772 JUMP JUMPDEST PUSH1 0x40 MLOAD DUP1 SWAP2 SUB SWAP1 RETURN JUMPDEST PUSH2 0x33C PUSH1 0x4 DUP1 CALLDATASIZE SUB DUP2 ADD SWAP1 PUSH2 0x337 SWAP2 SWAP1 PUSH2 0x20C7 JUMP JUMPDEST PUSH2 0xCB3 JUMP JUMPDEST PUSH1 0x40 MLOAD PUSH2 0x349 SWAP2 SWAP1 PUSH2 0x2757 JUMP JUMPDEST PUSH1 0x40 MLOAD DUP1 SWAP2 SUB SWAP1 RETURN JUMPDEST PUSH2 0x36C PUSH1 0x4 DUP1 CALLDATASIZE SUB DUP2 ADD SWAP1 PUSH2 0x367 SWAP2 SWAP1 PUSH2 0x2297 JUMP JUMPDEST PUSH2 0xD47 JUMP JUMPDEST STOP JUMPDEST PUSH1 0x0 PUSH32 0x80AC58CD00000000000000000000000000000000000000000000000000000000 PUSH28 0xFFFFFFFFFFFFFFFFFFFFFFFFFFFFFFFFFFFFFFFFFFFFFFFFFFFFFFFF NOT AND DUP3 PUSH28 0xFFFFFFFFFFFFFFFFFFFFFFFFFFFFFFFFFFFFFFFFFFFFFFFFFFFFFFFF NOT AND EQ DUP1 PUSH2 0x439 JUMPI POP PUSH32 0x5B5E139F00000000000000000000000000000000000000000000000000000000 PUSH28 0xFFFFFFFFFFFFFFFFFFFFFFFFFFFFFFFFFFFFFFFFFFFFFFFFFFFFFFFF NOT AND DUP3 PUSH28 0xFFFFFFFFFFFFFFFFFFFFFFFFFFFFFFFFFFFFFFFFFFFFFFFFFFFFFFFF NOT AND EQ JUMPDEST DUP1 PUSH2 0x449 JUMPI POP PUSH2 0x448 DUP3 PUSH2 0x10F3 JUMP JUMPDEST JUMPDEST SWAP1 POP SWAP2 SWAP1 POP JUMP JUMPDEST PUSH1 0x60 PUSH1 0x0 DUP1 SLOAD PUSH2 0x45F SWAP1 PUSH2 0x2BE2 JUMP JUMPDEST DUP1 PUSH1 0x1F ADD PUSH1 0x20 DUP1 SWAP2 DIV MUL PUSH1 0x20 ADD PUSH1 0x40 MLOAD SWAP1 DUP2 ADD PUSH1 0x40 MSTORE DUP1 SWAP3 SWAP2 SWAP1 DUP2 DUP2 MSTORE PUSH1 0x20 ADD DUP3 DUP1 SLOAD PUSH2 0x48B SWAP1 PUSH2 0x2BE2 JUMP JUMPDEST DUP1 ISZERO PUSH2 0x4D8 JUMPI DUP1 PUSH1 0x1F LT PUSH2 0x4AD JUMPI PUSH2 0x100 DUP1 DUP4 SLOAD DIV MUL DUP4 MSTORE SWAP2 PUSH1 0x20 ADD SWAP2 PUSH2 0x4D8 JUMP JUMPDEST DUP3 ADD SWAP2 SWAP1 PUSH1 0x0 MSTORE PUSH1 0x20 PUSH1 0x0 KECCAK256 SWAP1 JUMPDEST DUP2 SLOAD DUP2 MSTORE SWAP1 PUSH1 0x1 ADD SWAP1 PUSH1 0x20 ADD DUP1 DUP4 GT PUSH2 0x4BB JUMPI DUP3 SWAP1 SUB PUSH1 0x1F AND DUP3 ADD SWAP2 JUMPDEST POP POP POP POP POP SWAP1 POP SWAP1 JUMP JUMPDEST PUSH1 0x0 PUSH2 0x4ED DUP3 PUSH2 0x115D JUMP JUMPDEST PUSH1 0x4 PUSH1 0x0 DUP4 DUP2 MSTORE PUSH1 0x20 ADD SWAP1 DUP2 MSTORE PUSH1 0x20 ADD PUSH1 0x0 KECCAK256 PUSH1 0x0 SWAP1 SLOAD SWAP1 PUSH2 0x100 EXP SWAP1 DIV PUSH20 0xFFFFFFFFFFFFFFFFFFFFFFFFFFFFFFFFFFFFFFFF AND SWAP1 POP SWAP2 SWAP1 POP JUMP JUMPDEST PUSH1 0x0 PUSH2 0x533 DUP3 PUSH2 0x80C JUMP JUMPDEST SWAP1 POP DUP1 PUSH20 0xFFFFFFFFFFFFFFFFFFFFFFFFFFFFFFFFFFFFFFFF AND DUP4 PUSH20 0xFFFFFFFFFFFFFFFFFFFFFFFFFFFFFFFFFFFFFFFF AND EQ ISZERO PUSH2 0x5A4 JUMPI PUSH1 0x40 MLOAD PUSH32 0x8C379A000000000000000000000000000000000000000000000000000000000 DUP2 MSTORE PUSH1 0x4 ADD PUSH2 0x59B SWAP1 PUSH2 0x28B4 JUMP JUMPDEST PUSH1 0x40 MLOAD DUP1 SWAP2 SUB SWAP1 REVERT JUMPDEST DUP1 PUSH20 0xFFFFFFFFFFFFFFFFFFFFFFFFFFFFFFFFFFFFFFFF AND PUSH2 0x5C3 PUSH2 0x11A8 JUMP JUMPDEST PUSH20 0xFFFFFFFFFFFFFFFFFFFFFFFFFFFFFFFFFFFFFFFF AND EQ DUP1 PUSH2 0x5F2 JUMPI POP PUSH2 0x5F1 DUP2 PUSH2 0x5EC PUSH2 0x11A8 JUMP JUMPDEST PUSH2 0xCB3 JUMP JUMPDEST JUMPDEST PUSH2 0x631 JUMPI PUSH1 0x40 MLOAD PUSH32 0x8C379A000000000000000000000000000000000000000000000000000000000 DUP2 MSTORE PUSH1 0x4 ADD PUSH2 0x628 SWAP1 PUSH2 0x2854 JUMP JUMPDEST PUSH1 0x40 MLOAD DUP1 SWAP2 SUB SWAP1 REVERT JUMPDEST PUSH2 0x63B DUP4 DUP4 PUSH2 0x11B0 JUMP JUMPDEST POP POP POP JUMP JUMPDEST PUSH2 0x651 PUSH2 0x64B PUSH2 0x11A8 JUMP JUMPDEST DUP3 PUSH2 0x1269 JUMP JUMPDEST PUSH2 0x690 JUMPI PUSH1 0x40 MLOAD PUSH32 0x8C379A000000000000000000000000000000000000000000000000000000000 DUP2 MSTORE PUSH1 0x4 ADD PUSH2 0x687 SWAP1 PUSH2 0x28D4 JUMP JUMPDEST PUSH1 0x40 MLOAD DUP1 SWAP2 SUB SWAP1 REVERT JUMPDEST PUSH2 0x69B DUP4 DUP4 DUP4 PUSH2 0x12FE JUMP JUMPDEST POP POP POP JUMP JUMPDEST PUSH2 0x6BB DUP4 DUP4 DUP4 PUSH1 0x40 MLOAD DUP1 PUSH1 0x20 ADD PUSH1 0x40 MSTORE DUP1 PUSH1 0x0 DUP2 MSTORE POP PUSH2 0xA36 JUMP JUMPDEST POP POP POP JUMP JUMPDEST PUSH1 0x8 PUSH1 0x20 MSTORE DUP1 PUSH1 0x0 MSTORE PUSH1 0x40 PUSH1 0x0 KECCAK256 PUSH1 0x0 SWAP2 POP SWAP1 POP DUP1 PUSH1 0x0 ADD SLOAD SWAP1 DUP1 PUSH1 0x1 ADD DUP1 SLOAD PUSH2 0x6E9 SWAP1 PUSH2 0x2BE2 JUMP JUMPDEST DUP1 PUSH1 0x1F ADD PUSH1 0x20 DUP1 SWAP2 DIV MUL PUSH1 0x20 ADD PUSH1 0x40 MLOAD SWAP1 DUP2 ADD PUSH1 0x40 MSTORE DUP1 SWAP3 SWAP2 SWAP1 DUP2 DUP2 MSTORE PUSH1 0x20 ADD DUP3 DUP1 SLOAD PUSH2 0x715 SWAP1 PUSH2 0x2BE2 JUMP JUMPDEST DUP1 ISZERO PUSH2 0x762 JUMPI DUP1 PUSH1 0x1F LT PUSH2 0x737 JUMPI PUSH2 0x100 DUP1 DUP4 SLOAD DIV MUL DUP4 MSTORE SWAP2 PUSH1 0x20 ADD SWAP2 PUSH2 0x762 JUMP JUMPDEST DUP3 ADD SWAP2 SWAP1 PUSH1 0x0 MSTORE PUSH1 0x20 PUSH1 0x0 KECCAK256 SWAP1 JUMPDEST DUP2 SLOAD DUP2 MSTORE SWAP1 PUSH1 0x1 ADD SWAP1 PUSH1 0x20 ADD DUP1 DUP4 GT PUSH2 0x745 JUMPI DUP3 SWAP1 SUB PUSH1 0x1F AND DUP3 ADD SWAP2 JUMPDEST POP POP POP POP POP SWAP1 DUP1 PUSH1 0x2 ADD DUP1 SLOAD PUSH2 0x777 SWAP1 PUSH2 0x2BE2 JUMP JUMPDEST DUP1 PUSH1 0x1F ADD PUSH1 0x20 DUP1 SWAP2 DIV MUL PUSH1 0x20 ADD PUSH1 0x40 MLOAD SWAP1 DUP2 ADD PUSH1 0x40 MSTORE DUP1 SWAP3 SWAP2 SWAP1 DUP2 DUP2 MSTORE PUSH1 0x20 ADD DUP3 DUP1 SLOAD PUSH2 0x7A3 SWAP1 PUSH2 0x2BE2 JUMP JUMPDEST DUP1 ISZERO PUSH2 0x7F0 JUMPI DUP1 PUSH1 0x1F LT PUSH2 0x7C5 JUMPI PUSH2 0x100 DUP1 DUP4 SLOAD DIV MUL DUP4 MSTORE SWAP2 PUSH1 0x20 ADD SWAP2 PUSH2 0x7F0 JUMP JUMPDEST DUP3 ADD SWAP2 SWAP1 PUSH1 0x0 MSTORE PUSH1 0x20 PUSH1 0x0 KECCAK256 SWAP1 JUMPDEST DUP2 SLOAD DUP2 MSTORE SWAP1 PUSH1 0x1 ADD SWAP1 PUSH1 0x20 ADD DUP1 DUP4 GT PUSH2 0x7D3 JUMPI DUP3 SWAP1 SUB PUSH1 0x1F AND DUP3 ADD SWAP2 JUMPDEST POP POP POP POP POP SWAP1 DUP1 PUSH1 0x3 ADD SLOAD SWAP1 DUP1 PUSH1 0x4 ADD SLOAD SWAP1 DUP1 PUSH1 0x5 ADD SLOAD SWAP1 POP DUP7 JUMP JUMPDEST PUSH1 0x0 DUP1 PUSH1 0x2 PUSH1 0x0 DUP5 DUP2 MSTORE PUSH1 0x20 ADD SWAP1 DUP2 MSTORE PUSH1 0x20 ADD PUSH1 0x0 KECCAK256 PUSH1 0x0 SWAP1 SLOAD SWAP1 PUSH2 0x100 EXP SWAP1 DIV PUSH20 0xFFFFFFFFFFFFFFFFFFFFFFFFFFFFFFFFFFFFFFFF AND SWAP1 POP PUSH1 0x0 PUSH20 0xFFFFFFFFFFFFFFFFFFFFFFFFFFFFFFFFFFFFFFFF AND DUP2 PUSH20 0xFFFFFFFFFFFFFFFFFFFFFFFFFFFFFFFFFFFFFFFF AND EQ ISZERO PUSH2 0x8B5 JUMPI PUSH1 0x40 MLOAD PUSH32 0x8C379A000000000000000000000000000000000000000000000000000000000 DUP2 MSTORE PUSH1 0x4 ADD PUSH2 0x8AC SWAP1 PUSH2 0x2894 JUMP JUMPDEST PUSH1 0x40 MLOAD DUP1 SWAP2 SUB SWAP1 REVERT JUMPDEST DUP1 SWAP2 POP POP SWAP2 SWAP1 POP JUMP JUMPDEST PUSH1 0x0 DUP1 PUSH20 0xFFFFFFFFFFFFFFFFFFFFFFFFFFFFFFFFFFFFFFFF AND DUP3 PUSH20 0xFFFFFFFFFFFFFFFFFFFFFFFFFFFFFFFFFFFFFFFF AND EQ ISZERO PUSH2 0x92F JUMPI PUSH1 0x40 MLOAD PUSH32 0x8C379A000000000000000000000000000000000000000000000000000000000 DUP2 MSTORE PUSH1 0x4 ADD PUSH2 0x926 SWAP1 PUSH2 0x2834 JUMP JUMPDEST PUSH1 0x40 MLOAD DUP1 SWAP2 SUB SWAP1 REVERT JUMPDEST PUSH1 0x3 PUSH1 0x0 DUP4 PUSH20 0xFFFFFFFFFFFFFFFFFFFFFFFFFFFFFFFFFFFFFFFF AND PUSH20 0xFFFFFFFFFFFFFFFFFFFFFFFFFFFFFFFFFFFFFFFF AND DUP2 MSTORE PUSH1 0x20 ADD SWAP1 DUP2 MSTORE PUSH1 0x20 ADD PUSH1 0x0 KECCAK256 SLOAD SWAP1 POP SWAP2 SWAP1 POP JUMP JUMPDEST PUSH1 0x9 PUSH1 0x20 MSTORE DUP1 PUSH1 0x0 MSTORE PUSH1 0x40 PUSH1 0x0 KECCAK256 PUSH1 0x0 SWAP2 POP SWAP1 POP SLOAD DUP2 JUMP JUMPDEST PUSH1 0x60 PUSH1 0x1 DUP1 SLOAD PUSH2 0x99D SWAP1 PUSH2 0x2BE2 JUMP JUMPDEST DUP1 PUSH1 0x1F ADD PUSH1 0x20 DUP1 SWAP2 DIV MUL PUSH1 0x20 ADD PUSH1 0x40 MLOAD SWAP1 DUP2 ADD PUSH1 0x40 MSTORE DUP1 SWAP3 SWAP2 SWAP1 DUP2 DUP2 MSTORE PUSH1 0x20 ADD DUP3 DUP1 SLOAD PUSH2 0x9C9 SWAP1 PUSH2 0x2BE2 JUMP JUMPDEST DUP1 ISZERO PUSH2 0xA16 JUMPI DUP1 PUSH1 0x1F LT PUSH2 0x9EB JUMPI PUSH2 0x100 DUP1 DUP4 SLOAD DIV MUL DUP4 MSTORE SWAP2 PUSH1 0x20 ADD SWAP2 PUSH2 0xA16 JUMP JUMPDEST DUP3 ADD SWAP2 SWAP1 PUSH1 0x0 MSTORE PUSH1 0x20 PUSH1 0x0 KECCAK256 SWAP1 JUMPDEST DUP2 SLOAD DUP2 MSTORE SWAP1 PUSH1 0x1 ADD SWAP1 PUSH1 0x20 ADD DUP1 DUP4 GT PUSH2 0x9F9 JUMPI DUP3 SWAP1 SUB PUSH1 0x1F AND DUP3 ADD SWAP2 JUMPDEST POP POP POP POP POP SWAP1 POP SWAP1 JUMP JUMPDEST PUSH2 0xA32 PUSH2 0xA2B PUSH2 0x11A8 JUMP JUMPDEST DUP4 DUP4 PUSH2 0x1565 JUMP JUMPDEST POP POP JUMP JUMPDEST PUSH2 0xA47 PUSH2 0xA41 PUSH2 0x11A8 JUMP JUMPDEST DUP4 PUSH2 0x1269 JUMP JUMPDEST PUSH2 0xA86 JUMPI PUSH1 0x40 MLOAD PUSH32 0x8C379A000000000000000000000000000000000000000000000000000000000 DUP2 MSTORE PUSH1 0x4 ADD PUSH2 0xA7D SWAP1 PUSH2 0x28D4 JUMP JUMPDEST PUSH1 0x40 MLOAD DUP1 SWAP2 SUB SWAP1 REVERT JUMPDEST PUSH2 0xA92 DUP5 DUP5 DUP5 DUP5 PUSH2 0x16D2 JUMP JUMPDEST POP POP POP POP JUMP JUMPDEST PUSH1 0x60 PUSH1 0x0 PUSH1 0x8 PUSH1 0x0 DUP5 DUP2 MSTORE PUSH1 0x20 ADD SWAP1 DUP2 MSTORE PUSH1 0x20 ADD PUSH1 0x0 KECCAK256 PUSH1 0x40 MLOAD DUP1 PUSH1 0xC0 ADD PUSH1 0x40 MSTORE SWAP1 DUP2 PUSH1 0x0 DUP3 ADD SLOAD DUP2 MSTORE PUSH1 0x20 ADD PUSH1 0x1 DUP3 ADD DUP1 SLOAD PUSH2 0xAD4 SWAP1 PUSH2 0x2BE2 JUMP JUMPDEST DUP1 PUSH1 0x1F ADD PUSH1 0x20 DUP1 SWAP2 DIV MUL PUSH1 0x20 ADD PUSH1 0x40 MLOAD SWAP1 DUP2 ADD PUSH1 0x40 MSTORE DUP1 SWAP3 SWAP2 SWAP1 DUP2 DUP2 MSTORE PUSH1 0x20 ADD DUP3 DUP1 SLOAD PUSH2 0xB00 SWAP1 PUSH2 0x2BE2 JUMP JUMPDEST DUP1 ISZERO PUSH2 0xB4D JUMPI DUP1 PUSH1 0x1F LT PUSH2 0xB22 JUMPI PUSH2 0x100 DUP1 DUP4 SLOAD DIV MUL DUP4 MSTORE SWAP2 PUSH1 0x20 ADD SWAP2 PUSH2 0xB4D JUMP JUMPDEST DUP3 ADD SWAP2 SWAP1 PUSH1 0x0 MSTORE PUSH1 0x20 PUSH1 0x0 KECCAK256 SWAP1 JUMPDEST DUP2 SLOAD DUP2 MSTORE SWAP1 PUSH1 0x1 ADD SWAP1 PUSH1 0x20 ADD DUP1 DUP4 GT PUSH2 0xB30 JUMPI DUP3 SWAP1 SUB PUSH1 0x1F AND DUP3 ADD SWAP2 JUMPDEST POP POP POP POP POP DUP2 MSTORE PUSH1 0x20 ADD PUSH1 0x2 DUP3 ADD DUP1 SLOAD PUSH2 0xB66 SWAP1 PUSH2 0x2BE2 JUMP JUMPDEST DUP1 PUSH1 0x1F ADD PUSH1 0x20 DUP1 SWAP2 DIV MUL PUSH1 0x20 ADD PUSH1 0x40 MLOAD SWAP1 DUP2 ADD PUSH1 0x40 MSTORE DUP1 SWAP3 SWAP2 SWAP1 DUP2 DUP2 MSTORE PUSH1 0x20 ADD DUP3 DUP1 SLOAD PUSH2 0xB92 SWAP1 PUSH2 0x2BE2 JUMP JUMPDEST DUP1 ISZERO PUSH2 0xBDF JUMPI DUP1 PUSH1 0x1F LT PUSH2 0xBB4 JUMPI PUSH2 0x100 DUP1 DUP4 SLOAD DIV MUL DUP4 MSTORE SWAP2 PUSH1 0x20 ADD SWAP2 PUSH2 0xBDF JUMP JUMPDEST DUP3 ADD SWAP2 SWAP1 PUSH1 0x0 MSTORE PUSH1 0x20 PUSH1 0x0 KECCAK256 SWAP1 JUMPDEST DUP2 SLOAD DUP2 MSTORE SWAP1 PUSH1 0x1 ADD SWAP1 PUSH1 0x20 ADD DUP1 DUP4 GT PUSH2 0xBC2 JUMPI DUP3 SWAP1 SUB PUSH1 0x1F AND DUP3 ADD SWAP2 JUMPDEST POP POP POP POP POP DUP2 MSTORE PUSH1 0x20 ADD PUSH1 0x3 DUP3 ADD SLOAD DUP2 MSTORE PUSH1 0x20 ADD PUSH1 0x4 DUP3 ADD SLOAD DUP2 MSTORE PUSH1 0x20 ADD PUSH1 0x5 DUP3 ADD SLOAD DUP2 MSTORE POP POP SWAP1 POP PUSH1 0x0 PUSH2 0xC17 DUP3 PUSH1 0x60 ADD MLOAD PUSH2 0x172E JUMP JUMPDEST SWAP1 POP PUSH1 0x0 PUSH2 0xC28 DUP4 PUSH1 0xA0 ADD MLOAD PUSH2 0x172E JUMP JUMPDEST SWAP1 POP PUSH1 0x0 PUSH2 0xC39 DUP5 PUSH1 0x80 ADD MLOAD PUSH2 0x172E JUMP JUMPDEST SWAP1 POP PUSH1 0x0 PUSH2 0xC7F DUP6 PUSH1 0x20 ADD MLOAD PUSH2 0xC4E DUP10 PUSH2 0x172E JUMP JUMPDEST DUP8 PUSH1 0x40 ADD MLOAD DUP8 DUP7 DUP9 PUSH1 0x40 MLOAD PUSH1 0x20 ADD PUSH2 0xC6B SWAP7 SWAP6 SWAP5 SWAP4 SWAP3 SWAP2 SWAP1 PUSH2 0x2629 JUMP JUMPDEST PUSH1 0x40 MLOAD PUSH1 0x20 DUP2 DUP4 SUB SUB DUP2 MSTORE SWAP1 PUSH1 0x40 MSTORE PUSH2 0x18DB JUMP JUMPDEST SWAP1 POP PUSH1 0x0 DUP2 PUSH1 0x40 MLOAD PUSH1 0x20 ADD PUSH2 0xC94 SWAP2 SWAP1 PUSH2 0x26CE JUMP JUMPDEST PUSH1 0x40 MLOAD PUSH1 0x20 DUP2 DUP4 SUB SUB DUP2 MSTORE SWAP1 PUSH1 0x40 MSTORE SWAP1 POP DUP1 SWAP7 POP POP POP POP POP POP POP SWAP2 SWAP1 POP JUMP JUMPDEST PUSH1 0x0 PUSH1 0x5 PUSH1 0x0 DUP5 PUSH20 0xFFFFFFFFFFFFFFFFFFFFFFFFFFFFFFFFFFFFFFFF AND PUSH20 0xFFFFFFFFFFFFFFFFFFFFFFFFFFFFFFFFFFFFFFFF AND DUP2 MSTORE PUSH1 0x20 ADD SWAP1 DUP2 MSTORE PUSH1 0x20 ADD PUSH1 0x0 KECCAK256 PUSH1 0x0 DUP4 PUSH20 0xFFFFFFFFFFFFFFFFFFFFFFFFFFFFFFFFFFFFFFFF AND PUSH20 0xFFFFFFFFFFFFFFFFFFFFFFFFFFFFFFFFFFFFFFFF AND DUP2 MSTORE PUSH1 0x20 ADD SWAP1 DUP2 MSTORE PUSH1 0x20 ADD PUSH1 0x0 KECCAK256 PUSH1 0x0 SWAP1 SLOAD SWAP1 PUSH2 0x100 EXP SWAP1 DIV PUSH1 0xFF AND SWAP1 POP SWAP3 SWAP2 POP POP JUMP JUMPDEST PUSH1 0x0 PUSH2 0xD53 PUSH1 0x7 PUSH2 0x1A99 JUMP JUMPDEST SWAP1 POP PUSH2 0xD5F CALLER DUP3 PUSH2 0x1AA7 JUMP JUMPDEST PUSH1 0x40 MLOAD DUP1 PUSH1 0xC0 ADD PUSH1 0x40 MSTORE DUP1 DUP4 DUP2 MSTORE PUSH1 0x20 ADD PUSH1 0x6 DUP5 DUP2 SLOAD DUP2 LT PUSH2 0xDAA JUMPI PUSH32 0x4E487B7100000000000000000000000000000000000000000000000000000000 PUSH1 0x0 MSTORE PUSH1 0x32 PUSH1 0x4 MSTORE PUSH1 0x24 PUSH1 0x0 REVERT JUMPDEST SWAP1 PUSH1 0x0 MSTORE PUSH1 0x20 PUSH1 0x0 KECCAK256 SWAP1 PUSH1 0x6 MUL ADD PUSH1 0x1 ADD DUP1 SLOAD PUSH2 0xDC6 SWAP1 PUSH2 0x2BE2 JUMP JUMPDEST DUP1 PUSH1 0x1F ADD PUSH1 0x20 DUP1 SWAP2 DIV MUL PUSH1 0x20 ADD PUSH1 0x40 MLOAD SWAP1 DUP2 ADD PUSH1 0x40 MSTORE DUP1 SWAP3 SWAP2 SWAP1 DUP2 DUP2 MSTORE PUSH1 0x20 ADD DUP3 DUP1 SLOAD PUSH2 0xDF2 SWAP1 PUSH2 0x2BE2 JUMP JUMPDEST DUP1 ISZERO PUSH2 0xE3F JUMPI DUP1 PUSH1 0x1F LT PUSH2 0xE14 JUMPI PUSH2 0x100 DUP1 DUP4 SLOAD DIV MUL DUP4 MSTORE SWAP2 PUSH1 0x20 ADD SWAP2 PUSH2 0xE3F JUMP JUMPDEST DUP3 ADD SWAP2 SWAP1 PUSH1 0x0 MSTORE PUSH1 0x20 PUSH1 0x0 KECCAK256 SWAP1 JUMPDEST DUP2 SLOAD DUP2 MSTORE SWAP1 PUSH1 0x1 ADD SWAP1 PUSH1 0x20 ADD DUP1 DUP4 GT PUSH2 0xE22 JUMPI DUP3 SWAP1 SUB PUSH1 0x1F AND DUP3 ADD SWAP2 JUMPDEST POP POP POP POP POP DUP2 MSTORE PUSH1 0x20 ADD PUSH1 0x6 DUP5 DUP2 SLOAD DUP2 LT PUSH2 0xE83 JUMPI PUSH32 0x4E487B7100000000000000000000000000000000000000000000000000000000 PUSH1 0x0 MSTORE PUSH1 0x32 PUSH1 0x4 MSTORE PUSH1 0x24 PUSH1 0x0 REVERT JUMPDEST SWAP1 PUSH1 0x0 MSTORE PUSH1 0x20 PUSH1 0x0 KECCAK256 SWAP1 PUSH1 0x6 MUL ADD PUSH1 0x2 ADD DUP1 SLOAD PUSH2 0xE9F SWAP1 PUSH2 0x2BE2 JUMP JUMPDEST DUP1 PUSH1 0x1F ADD PUSH1 0x20 DUP1 SWAP2 DIV MUL PUSH1 0x20 ADD PUSH1 0x40 MLOAD SWAP1 DUP2 ADD PUSH1 0x40 MSTORE DUP1 SWAP3 SWAP2 SWAP1 DUP2 DUP2 MSTORE PUSH1 0x20 ADD DUP3 DUP1 SLOAD PUSH2 0xECB SWAP1 PUSH2 0x2BE2 JUMP JUMPDEST DUP1 ISZERO PUSH2 0xF18 JUMPI DUP1 PUSH1 0x1F LT PUSH2 0xEED JUMPI PUSH2 0x100 DUP1 DUP4 SLOAD DIV MUL DUP4 MSTORE SWAP2 PUSH1 0x20 ADD SWAP2 PUSH2 0xF18 JUMP JUMPDEST DUP3 ADD SWAP2 SWAP1 PUSH1 0x0 MSTORE PUSH1 0x20 PUSH1 0x0 KECCAK256 SWAP1 JUMPDEST DUP2 SLOAD DUP2 MSTORE SWAP1 PUSH1 0x1 ADD SWAP1 PUSH1 0x20 ADD DUP1 DUP4 GT PUSH2 0xEFB JUMPI DUP3 SWAP1 SUB PUSH1 0x1F AND DUP3 ADD SWAP2 JUMPDEST POP POP POP POP POP DUP2 MSTORE PUSH1 0x20 ADD PUSH1 0x6 DUP5 DUP2 SLOAD DUP2 LT PUSH2 0xF5C JUMPI PUSH32 0x4E487B7100000000000000000000000000000000000000000000000000000000 PUSH1 0x0 MSTORE PUSH1 0x32 PUSH1 0x4 MSTORE PUSH1 0x24 PUSH1 0x0 REVERT JUMPDEST SWAP1 PUSH1 0x0 MSTORE PUSH1 0x20 PUSH1 0x0 KECCAK256 SWAP1 PUSH1 0x6 MUL ADD PUSH1 0x3 ADD SLOAD DUP2 MSTORE PUSH1 0x20 ADD PUSH1 0x6 DUP5 DUP2 SLOAD DUP2 LT PUSH2 0xFAD JUMPI PUSH32 0x4E487B7100000000000000000000000000000000000000000000000000000000 PUSH1 0x0 MSTORE PUSH1 0x32 PUSH1 0x4 MSTORE PUSH1 0x24 PUSH1 0x0 REVERT JUMPDEST SWAP1 PUSH1 0x0 MSTORE PUSH1 0x20 PUSH1 0x0 KECCAK256 SWAP1 PUSH1 0x6 MUL ADD PUSH1 0x4 ADD SLOAD DUP2 MSTORE PUSH1 0x20 ADD PUSH1 0x6 DUP5 DUP2 SLOAD DUP2 LT PUSH2 0xFFE JUMPI PUSH32 0x4E487B7100000000000000000000000000000000000000000000000000000000 PUSH1 0x0 MSTORE PUSH1 0x32 PUSH1 0x4 MSTORE PUSH1 0x24 PUSH1 0x0 REVERT JUMPDEST SWAP1 PUSH1 0x0 MSTORE PUSH1 0x20 PUSH1 0x0 KECCAK256 SWAP1 PUSH1 0x6 MUL ADD PUSH1 0x5 ADD SLOAD DUP2 MSTORE POP PUSH1 0x8 PUSH1 0x0 DUP5 DUP2 MSTORE PUSH1 0x20 ADD SWAP1 DUP2 MSTORE PUSH1 0x20 ADD PUSH1 0x0 KECCAK256 PUSH1 0x0 DUP3 ADD MLOAD DUP2 PUSH1 0x0 ADD SSTORE PUSH1 0x20 DUP3 ADD MLOAD DUP2 PUSH1 0x1 ADD SWAP1 DUP1 MLOAD SWAP1 PUSH1 0x20 ADD SWAP1 PUSH2 0x104C SWAP3 SWAP2 SWAP1 PUSH2 0x1F2A JUMP JUMPDEST POP PUSH1 0x40 DUP3 ADD MLOAD DUP2 PUSH1 0x2 ADD SWAP1 DUP1 MLOAD SWAP1 PUSH1 0x20 ADD SWAP1 PUSH2 0x1069 SWAP3 SWAP2 SWAP1 PUSH2 0x1F2A JUMP JUMPDEST POP PUSH1 0x60 DUP3 ADD MLOAD DUP2 PUSH1 0x3 ADD SSTORE PUSH1 0x80 DUP3 ADD MLOAD DUP2 PUSH1 0x4 ADD SSTORE PUSH1 0xA0 DUP3 ADD MLOAD DUP2 PUSH1 0x5 ADD SSTORE SWAP1 POP POP DUP1 PUSH1 0x9 PUSH1 0x0 CALLER PUSH20 0xFFFFFFFFFFFFFFFFFFFFFFFFFFFFFFFFFFFFFFFF AND PUSH20 0xFFFFFFFFFFFFFFFFFFFFFFFFFFFFFFFFFFFFFFFF AND DUP2 MSTORE PUSH1 0x20 ADD SWAP1 DUP2 MSTORE PUSH1 0x20 ADD PUSH1 0x0 KECCAK256 DUP2 SWAP1 SSTORE POP PUSH2 0x10D9 PUSH1 0x7 PUSH2 0x10DD JUMP JUMPDEST POP POP JUMP JUMPDEST PUSH1 0x1 DUP2 PUSH1 0x0 ADD PUSH1 0x0 DUP3 DUP3 SLOAD ADD SWAP3 POP POP DUP2 SWAP1 SSTORE POP POP JUMP JUMPDEST PUSH1 0x0 PUSH32 0x1FFC9A700000000000000000000000000000000000000000000000000000000 PUSH28 0xFFFFFFFFFFFFFFFFFFFFFFFFFFFFFFFFFFFFFFFFFFFFFFFFFFFFFFFF NOT AND DUP3 PUSH28 0xFFFFFFFFFFFFFFFFFFFFFFFFFFFFFFFFFFFFFFFFFFFFFFFFFFFFFFFF NOT AND EQ SWAP1 POP SWAP2 SWAP1 POP JUMP JUMPDEST PUSH2 0x1166 DUP2 PUSH2 0x1AC5 JUMP JUMPDEST PUSH2 0x11A5 JUMPI PUSH1 0x40 MLOAD PUSH32 0x8C379A000000000000000000000000000000000000000000000000000000000 DUP2 MSTORE PUSH1 0x4 ADD PUSH2 0x119C SWAP1 PUSH2 0x2894 JUMP JUMPDEST PUSH1 0x40 MLOAD DUP1 SWAP2 SUB SWAP1 REVERT JUMPDEST POP JUMP JUMPDEST PUSH1 0x0 CALLER SWAP1 POP SWAP1 JUMP JUMPDEST DUP2 PUSH1 0x4 PUSH1 0x0 DUP4 DUP2 MSTORE PUSH1 0x20 ADD SWAP1 DUP2 MSTORE PUSH1 0x20 ADD PUSH1 0x0 KECCAK256 PUSH1 0x0 PUSH2 0x100 EXP DUP2 SLOAD DUP2 PUSH20 0xFFFFFFFFFFFFFFFFFFFFFFFFFFFFFFFFFFFFFFFF MUL NOT AND SWAP1 DUP4 PUSH20 0xFFFFFFFFFFFFFFFFFFFFFFFFFFFFFFFFFFFFFFFF AND MUL OR SWAP1 SSTORE POP DUP1 DUP3 PUSH20 0xFFFFFFFFFFFFFFFFFFFFFFFFFFFFFFFFFFFFFFFF AND PUSH2 0x1223 DUP4 PUSH2 0x80C JUMP JUMPDEST PUSH20 0xFFFFFFFFFFFFFFFFFFFFFFFFFFFFFFFFFFFFFFFF AND PUSH32 0x8C5BE1E5EBEC7D5BD14F71427D1E84F3DD0314C0F7B2291E5B200AC8C7C3B925 PUSH1 0x40 MLOAD PUSH1 0x40 MLOAD DUP1 SWAP2 SUB SWAP1 LOG4 POP POP JUMP JUMPDEST PUSH1 0x0 DUP1 PUSH2 0x1275 DUP4 PUSH2 0x80C JUMP JUMPDEST SWAP1 POP DUP1 PUSH20 0xFFFFFFFFFFFFFFFFFFFFFFFFFFFFFFFFFFFFFFFF AND DUP5 PUSH20 0xFFFFFFFFFFFFFFFFFFFFFFFFFFFFFFFFFFFFFFFF AND EQ DUP1 PUSH2 0x12B7 JUMPI POP PUSH2 0x12B6 DUP2 DUP6 PUSH2 0xCB3 JUMP JUMPDEST JUMPDEST DUP1 PUSH2 0x12F5 JUMPI POP DUP4 PUSH20 0xFFFFFFFFFFFFFFFFFFFFFFFFFFFFFFFFFFFFFFFF AND PUSH2 0x12DD DUP5 PUSH2 0x4E2 JUMP JUMPDEST PUSH20 0xFFFFFFFFFFFFFFFFFFFFFFFFFFFFFFFFFFFFFFFF AND EQ JUMPDEST SWAP2 POP POP SWAP3 SWAP2 POP POP JUMP JUMPDEST DUP3 PUSH20 0xFFFFFFFFFFFFFFFFFFFFFFFFFFFFFFFFFFFFFFFF AND PUSH2 0x131E DUP3 PUSH2 0x80C JUMP JUMPDEST PUSH20 0xFFFFFFFFFFFFFFFFFFFFFFFFFFFFFFFFFFFFFFFF AND EQ PUSH2 0x1374 JUMPI PUSH1 0x40 MLOAD PUSH32 0x8C379A000000000000000000000000000000000000000000000000000000000 DUP2 MSTORE PUSH1 0x4 ADD PUSH2 0x136B SWAP1 PUSH2 0x27B4 JUMP JUMPDEST PUSH1 0x40 MLOAD DUP1 SWAP2 SUB SWAP1 REVERT JUMPDEST PUSH1 0x0 PUSH20 0xFFFFFFFFFFFFFFFFFFFFFFFFFFFFFFFFFFFFFFFF AND DUP3 PUSH20 0xFFFFFFFFFFFFFFFFFFFFFFFFFFFFFFFFFFFFFFFF AND EQ ISZERO PUSH2 0x13E4 JUMPI PUSH1 0x40 MLOAD PUSH32 0x8C379A000000000000000000000000000000000000000000000000000000000 DUP2 MSTORE PUSH1 0x4 ADD PUSH2 0x13DB SWAP1 PUSH2 0x27F4 JUMP JUMPDEST PUSH1 0x40 MLOAD DUP1 SWAP2 SUB SWAP1 REVERT JUMPDEST PUSH2 0x13EF DUP4 DUP4 DUP4 PUSH2 0x1B31 JUMP JUMPDEST PUSH2 0x13FA PUSH1 0x0 DUP3 PUSH2 0x11B0 JUMP JUMPDEST PUSH1 0x1 PUSH1 0x3 PUSH1 0x0 DUP6 PUSH20 0xFFFFFFFFFFFFFFFFFFFFFFFFFFFFFFFFFFFFFFFF AND PUSH20 0xFFFFFFFFFFFFFFFFFFFFFFFFFFFFFFFFFFFFFFFF AND DUP2 MSTORE PUSH1 0x20 ADD SWAP1 DUP2 MSTORE PUSH1 0x20 ADD PUSH1 0x0 KECCAK256 PUSH1 0x0 DUP3 DUP3 SLOAD PUSH2 0x144A SWAP2 SWAP1 PUSH2 0x2AF8 JUMP JUMPDEST SWAP3 POP POP DUP2 SWAP1 SSTORE POP PUSH1 0x1 PUSH1 0x3 PUSH1 0x0 DUP5 PUSH20 0xFFFFFFFFFFFFFFFFFFFFFFFFFFFFFFFFFFFFFFFF AND PUSH20 0xFFFFFFFFFFFFFFFFFFFFFFFFFFFFFFFFFFFFFFFF AND DUP2 MSTORE PUSH1 0x20 ADD SWAP1 DUP2 MSTORE PUSH1 0x20 ADD PUSH1 0x0 KECCAK256 PUSH1 0x0 DUP3 DUP3 SLOAD PUSH2 0x14A1 SWAP2 SWAP1 PUSH2 0x2A17 JUMP JUMPDEST SWAP3 POP POP DUP2 SWAP1 SSTORE POP DUP2 PUSH1 0x2 PUSH1 0x0 DUP4 DUP2 MSTORE PUSH1 0x20 ADD SWAP1 DUP2 MSTORE PUSH1 0x20 ADD PUSH1 0x0 KECCAK256 PUSH1 0x0 PUSH2 0x100 EXP DUP2 SLOAD DUP2 PUSH20 0xFFFFFFFFFFFFFFFFFFFFFFFFFFFFFFFFFFFFFFFF MUL NOT AND SWAP1 DUP4 PUSH20 0xFFFFFFFFFFFFFFFFFFFFFFFFFFFFFFFFFFFFFFFF AND MUL OR SWAP1 SSTORE POP DUP1 DUP3 PUSH20 0xFFFFFFFFFFFFFFFFFFFFFFFFFFFFFFFFFFFFFFFF AND DUP5 PUSH20 0xFFFFFFFFFFFFFFFFFFFFFFFFFFFFFFFFFFFFFFFF AND PUSH32 0xDDF252AD1BE2C89B69C2B068FC378DAA952BA7F163C4A11628F55A4DF523B3EF PUSH1 0x40 MLOAD PUSH1 0x40 MLOAD DUP1 SWAP2 SUB SWAP1 LOG4 PUSH2 0x1560 DUP4 DUP4 DUP4 PUSH2 0x1B36 JUMP JUMPDEST POP POP POP JUMP JUMPDEST DUP2 PUSH20 0xFFFFFFFFFFFFFFFFFFFFFFFFFFFFFFFFFFFFFFFF AND DUP4 PUSH20 0xFFFFFFFFFFFFFFFFFFFFFFFFFFFFFFFFFFFFFFFF AND EQ ISZERO PUSH2 0x15D4 JUMPI PUSH1 0x40 MLOAD PUSH32 0x8C379A000000000000000000000000000000000000000000000000000000000 DUP2 MSTORE PUSH1 0x4 ADD PUSH2 0x15CB SWAP1 PUSH2 0x2814 JUMP JUMPDEST PUSH1 0x40 MLOAD DUP1 SWAP2 SUB SWAP1 REVERT JUMPDEST DUP1 PUSH1 0x5 PUSH1 0x0 DUP6 PUSH20 0xFFFFFFFFFFFFFFFFFFFFFFFFFFFFFFFFFFFFFFFF AND PUSH20 0xFFFFFFFFFFFFFFFFFFFFFFFFFFFFFFFFFFFFFFFF AND DUP2 MSTORE PUSH1 0x20 ADD SWAP1 DUP2 MSTORE PUSH1 0x20 ADD PUSH1 0x0 KECCAK256 PUSH1 0x0 DUP5 PUSH20 0xFFFFFFFFFFFFFFFFFFFFFFFFFFFFFFFFFFFFFFFF AND PUSH20 0xFFFFFFFFFFFFFFFFFFFFFFFFFFFFFFFFFFFFFFFF AND DUP2 MSTORE PUSH1 0x20 ADD SWAP1 DUP2 MSTORE PUSH1 0x20 ADD PUSH1 0x0 KECCAK256 PUSH1 0x0 PUSH2 0x100 EXP DUP2 SLOAD DUP2 PUSH1 0xFF MUL NOT AND SWAP1 DUP4 ISZERO ISZERO MUL OR SWAP1 SSTORE POP DUP2 PUSH20 0xFFFFFFFFFFFFFFFFFFFFFFFFFFFFFFFFFFFFFFFF AND DUP4 PUSH20 0xFFFFFFFFFFFFFFFFFFFFFFFFFFFFFFFFFFFFFFFF AND PUSH32 0x17307EAB39AB6107E8899845AD3D59BD9653F200F220920489CA2B5937696C31 DUP4 PUSH1 0x40 MLOAD PUSH2 0x16C5 SWAP2 SWAP1 PUSH2 0x2757 JUMP JUMPDEST PUSH1 0x40 MLOAD DUP1 SWAP2 SUB SWAP1 LOG3 POP POP POP JUMP JUMPDEST PUSH2 0x16DD DUP5 DUP5 DUP5 PUSH2 0x12FE JUMP JUMPDEST PUSH2 0x16E9 DUP5 DUP5 DUP5 DUP5 PUSH2 0x1B3B JUMP JUMPDEST PUSH2 0x1728 JUMPI PUSH1 0x40 MLOAD PUSH32 0x8C379A000000000000000000000000000000000000000000000000000000000 DUP2 MSTORE PUSH1 0x4 ADD PUSH2 0x171F SWAP1 PUSH2 0x2794 JUMP JUMPDEST PUSH1 0x40 MLOAD DUP1 SWAP2 SUB SWAP1 REVERT JUMPDEST POP POP POP POP JUMP JUMPDEST PUSH1 0x60 PUSH1 0x0 DUP3 EQ ISZERO PUSH2 0x1776 JUMPI PUSH1 0x40 MLOAD DUP1 PUSH1 0x40 ADD PUSH1 0x40 MSTORE DUP1 PUSH1 0x1 DUP2 MSTORE PUSH1 0x20 ADD PUSH32 0x3000000000000000000000000000000000000000000000000000000000000000 DUP2 MSTORE POP SWAP1 POP PUSH2 0x18D6 JUMP JUMPDEST PUSH1 0x0 DUP3 SWAP1 POP PUSH1 0x0 JUMPDEST PUSH1 0x0 DUP3 EQ PUSH2 0x17A8 JUMPI DUP1 DUP1 PUSH2 0x1791 SWAP1 PUSH2 0x2C45 JUMP JUMPDEST SWAP2 POP POP PUSH1 0xA DUP3 PUSH2 0x17A1 SWAP2 SWAP1 PUSH2 0x2A6D JUMP JUMPDEST SWAP2 POP PUSH2 0x177E JUMP JUMPDEST PUSH1 0x0 DUP2 PUSH8 0xFFFFFFFFFFFFFFFF DUP2 GT ISZERO PUSH2 0x17EA JUMPI PUSH32 0x4E487B7100000000000000000000000000000000000000000000000000000000 PUSH1 0x0 MSTORE PUSH1 0x41 PUSH1 0x4 MSTORE PUSH1 0x24 PUSH1 0x0 REVERT JUMPDEST PUSH1 0x40 MLOAD SWAP1 DUP1 DUP3 MSTORE DUP1 PUSH1 0x1F ADD PUSH1 0x1F NOT AND PUSH1 0x20 ADD DUP3 ADD PUSH1 0x40 MSTORE DUP1 ISZERO PUSH2 0x181C JUMPI DUP2 PUSH1 0x20 ADD PUSH1 0x1 DUP3 MUL DUP1 CALLDATASIZE DUP4 CALLDATACOPY DUP1 DUP3 ADD SWAP2 POP POP SWAP1 POP JUMPDEST POP SWAP1 POP JUMPDEST PUSH1 0x0 DUP6 EQ PUSH2 0x18CF JUMPI PUSH1 0x1 DUP3 PUSH2 0x1835 SWAP2 SWAP1 PUSH2 0x2AF8 JUMP JUMPDEST SWAP2 POP PUSH1 0xA DUP6 PUSH2 0x1844 SWAP2 SWAP1 PUSH2 0x2C8E JUMP JUMPDEST PUSH1 0x30 PUSH2 0x1850 SWAP2 SWAP1 PUSH2 0x2A17 JUMP JUMPDEST PUSH1 0xF8 SHL DUP2 DUP4 DUP2 MLOAD DUP2 LT PUSH2 0x188C JUMPI PUSH32 0x4E487B7100000000000000000000000000000000000000000000000000000000 PUSH1 0x0 MSTORE PUSH1 0x32 PUSH1 0x4 MSTORE PUSH1 0x24 PUSH1 0x0 REVERT JUMPDEST PUSH1 0x20 ADD ADD SWAP1 PUSH31 0xFFFFFFFFFFFFFFFFFFFFFFFFFFFFFFFFFFFFFFFFFFFFFFFFFFFFFFFFFFFFFF NOT AND SWAP1 DUP2 PUSH1 0x0 BYTE SWAP1 MSTORE8 POP PUSH1 0xA DUP6 PUSH2 0x18C8 SWAP2 SWAP1 PUSH2 0x2A6D JUMP JUMPDEST SWAP5 POP PUSH2 0x1820 JUMP JUMPDEST DUP1 SWAP4 POP POP POP POP JUMPDEST SWAP2 SWAP1 POP JUMP JUMPDEST PUSH1 0x60 PUSH1 0x0 DUP3 MLOAD SWAP1 POP PUSH1 0x0 DUP2 EQ ISZERO PUSH2 0x1904 JUMPI PUSH1 0x40 MLOAD DUP1 PUSH1 0x20 ADD PUSH1 0x40 MSTORE DUP1 PUSH1 0x0 DUP2 MSTORE POP SWAP2 POP POP PUSH2 0x1A94 JUMP JUMPDEST PUSH1 0x0 PUSH1 0x3 PUSH1 0x2 DUP4 PUSH2 0x1915 SWAP2 SWAP1 PUSH2 0x2A17 JUMP JUMPDEST PUSH2 0x191F SWAP2 SWAP1 PUSH2 0x2A6D JUMP JUMPDEST PUSH1 0x4 PUSH2 0x192B SWAP2 SWAP1 PUSH2 0x2A9E JUMP JUMPDEST SWAP1 POP PUSH1 0x0 PUSH1 0x20 DUP3 PUSH2 0x193C SWAP2 SWAP1 PUSH2 0x2A17 JUMP JUMPDEST PUSH8 0xFFFFFFFFFFFFFFFF DUP2 GT ISZERO PUSH2 0x197B JUMPI PUSH32 0x4E487B7100000000000000000000000000000000000000000000000000000000 PUSH1 0x0 MSTORE PUSH1 0x41 PUSH1 0x4 MSTORE PUSH1 0x24 PUSH1 0x0 REVERT JUMPDEST PUSH1 0x40 MLOAD SWAP1 DUP1 DUP3 MSTORE DUP1 PUSH1 0x1F ADD PUSH1 0x1F NOT AND PUSH1 0x20 ADD DUP3 ADD PUSH1 0x40 MSTORE DUP1 ISZERO PUSH2 0x19AD JUMPI DUP2 PUSH1 0x20 ADD PUSH1 0x1 DUP3 MUL DUP1 CALLDATASIZE DUP4 CALLDATACOPY DUP1 DUP3 ADD SWAP2 POP POP SWAP1 POP JUMPDEST POP SWAP1 POP PUSH1 0x0 PUSH1 0x40 MLOAD DUP1 PUSH1 0x60 ADD PUSH1 0x40 MSTORE DUP1 PUSH1 0x40 DUP2 MSTORE PUSH1 0x20 ADD PUSH2 0x32BC PUSH1 0x40 SWAP2 CODECOPY SWAP1 POP PUSH1 0x1 DUP2 ADD PUSH1 0x20 DUP4 ADD PUSH1 0x0 JUMPDEST DUP7 DUP2 LT ISZERO PUSH2 0x1A51 JUMPI PUSH1 0x3 DUP2 ADD SWAP1 POP PUSH3 0xFFFFFF DUP2 DUP11 ADD MLOAD AND PUSH1 0x3F DUP2 PUSH1 0x12 SHR AND DUP5 ADD MLOAD DUP1 PUSH1 0x8 SHL SWAP1 POP PUSH1 0xFF PUSH1 0x3F DUP4 PUSH1 0xC SHR AND DUP7 ADD MLOAD AND DUP2 ADD SWAP1 POP DUP1 PUSH1 0x8 SHL SWAP1 POP PUSH1 0xFF PUSH1 0x3F DUP4 PUSH1 0x6 SHR AND DUP7 ADD MLOAD AND DUP2 ADD SWAP1 POP DUP1 PUSH1 0x8 SHL SWAP1 POP PUSH1 0xFF PUSH1 0x3F DUP4 AND DUP7 ADD MLOAD AND DUP2 ADD SWAP1 POP DUP1 PUSH1 0xE0 SHL SWAP1 POP DUP1 DUP5 MSTORE PUSH1 0x4 DUP5 ADD SWAP4 POP POP POP PUSH2 0x19D8 JUMP JUMPDEST POP PUSH1 0x3 DUP7 MOD PUSH1 0x1 DUP2 EQ PUSH2 0x1A6B JUMPI PUSH1 0x2 DUP2 EQ PUSH2 0x1A7B JUMPI PUSH2 0x1A86 JUMP JUMPDEST PUSH2 0x3D3D PUSH1 0xF0 SHL PUSH1 0x2 DUP4 SUB MSTORE PUSH2 0x1A86 JUMP JUMPDEST PUSH1 0x3D PUSH1 0xF8 SHL PUSH1 0x1 DUP4 SUB MSTORE JUMPDEST POP DUP5 DUP5 MSTORE POP POP DUP2 SWAP5 POP POP POP POP POP JUMPDEST SWAP2 SWAP1 POP JUMP JUMPDEST PUSH1 0x0 DUP2 PUSH1 0x0 ADD SLOAD SWAP1 POP SWAP2 SWAP1 POP JUMP JUMPDEST PUSH2 0x1AC1 DUP3 DUP3 PUSH1 0x40 MLOAD DUP1 PUSH1 0x20 ADD PUSH1 0x40 MSTORE DUP1 PUSH1 0x0 DUP2 MSTORE POP PUSH2 0x1CD2 JUMP JUMPDEST POP POP JUMP JUMPDEST PUSH1 0x0 DUP1 PUSH20 0xFFFFFFFFFFFFFFFFFFFFFFFFFFFFFFFFFFFFFFFF AND PUSH1 0x2 PUSH1 0x0 DUP5 DUP2 MSTORE PUSH1 0x20 ADD SWAP1 DUP2 MSTORE PUSH1 0x20 ADD PUSH1 0x0 KECCAK256 PUSH1 0x0 SWAP1 SLOAD SWAP1 PUSH2 0x100 EXP SWAP1 DIV PUSH20 0xFFFFFFFFFFFFFFFFFFFFFFFFFFFFFFFFFFFFFFFF AND PUSH20 0xFFFFFFFFFFFFFFFFFFFFFFFFFFFFFFFFFFFFFFFF AND EQ ISZERO SWAP1 POP SWAP2 SWAP1 POP JUMP JUMPDEST POP POP POP JUMP JUMPDEST POP POP POP JUMP JUMPDEST PUSH1 0x0 PUSH2 0x1B5C DUP5 PUSH20 0xFFFFFFFFFFFFFFFFFFFFFFFFFFFFFFFFFFFFFFFF AND PUSH2 0x1D2D JUMP JUMPDEST ISZERO PUSH2 0x1CC5 JUMPI DUP4 PUSH20 0xFFFFFFFFFFFFFFFFFFFFFFFFFFFFFFFFFFFFFFFF AND PUSH4 0x150B7A02 PUSH2 0x1B85 PUSH2 0x11A8 JUMP JUMPDEST DUP8 DUP7 DUP7 PUSH1 0x40 MLOAD DUP6 PUSH4 0xFFFFFFFF AND PUSH1 0xE0 SHL DUP2 MSTORE PUSH1 0x4 ADD PUSH2 0x1BA7 SWAP5 SWAP4 SWAP3 SWAP2 SWAP1 PUSH2 0x270B JUMP JUMPDEST PUSH1 0x20 PUSH1 0x40 MLOAD DUP1 DUP4 SUB DUP2 PUSH1 0x0 DUP8 DUP1 EXTCODESIZE ISZERO DUP1 ISZERO PUSH2 0x1BC1 JUMPI PUSH1 0x0 DUP1 REVERT JUMPDEST POP GAS CALL SWAP3 POP POP POP DUP1 ISZERO PUSH2 0x1BF2 JUMPI POP PUSH1 0x40 MLOAD RETURNDATASIZE PUSH1 0x1F NOT PUSH1 0x1F DUP3 ADD AND DUP3 ADD DUP1 PUSH1 0x40 MSTORE POP DUP2 ADD SWAP1 PUSH2 0x1BEF SWAP2 SWAP1 PUSH2 0x226E JUMP JUMPDEST PUSH1 0x1 JUMPDEST PUSH2 0x1C75 JUMPI RETURNDATASIZE DUP1 PUSH1 0x0 DUP2 EQ PUSH2 0x1C22 JUMPI PUSH1 0x40 MLOAD SWAP2 POP PUSH1 0x1F NOT PUSH1 0x3F RETURNDATASIZE ADD AND DUP3 ADD PUSH1 0x40 MSTORE RETURNDATASIZE DUP3 MSTORE RETURNDATASIZE PUSH1 0x0 PUSH1 0x20 DUP5 ADD RETURNDATACOPY PUSH2 0x1C27 JUMP JUMPDEST PUSH1 0x60 SWAP2 POP JUMPDEST POP PUSH1 0x0 DUP2 MLOAD EQ ISZERO PUSH2 0x1C6D JUMPI PUSH1 0x40 MLOAD PUSH32 0x8C379A000000000000000000000000000000000000000000000000000000000 DUP2 MSTORE PUSH1 0x4 ADD PUSH2 0x1C64 SWAP1 PUSH2 0x2794 JUMP JUMPDEST PUSH1 0x40 MLOAD DUP1 SWAP2 SUB SWAP1 REVERT JUMPDEST DUP1 MLOAD DUP2 PUSH1 0x20 ADD REVERT JUMPDEST PUSH4 0x150B7A02 PUSH1 0xE0 SHL PUSH28 0xFFFFFFFFFFFFFFFFFFFFFFFFFFFFFFFFFFFFFFFFFFFFFFFFFFFFFFFF NOT AND DUP2 PUSH28 0xFFFFFFFFFFFFFFFFFFFFFFFFFFFFFFFFFFFFFFFFFFFFFFFFFFFFFFFF NOT AND EQ SWAP2 POP POP PUSH2 0x1CCA JUMP JUMPDEST PUSH1 0x1 SWAP1 POP JUMPDEST SWAP5 SWAP4 POP POP POP POP JUMP JUMPDEST PUSH2 0x1CDC DUP4 DUP4 PUSH2 0x1D50 JUMP JUMPDEST PUSH2 0x1CE9 PUSH1 0x0 DUP5 DUP5 DUP5 PUSH2 0x1B3B JUMP JUMPDEST PUSH2 0x1D28 JUMPI PUSH1 0x40 MLOAD PUSH32 0x8C379A000000000000000000000000000000000000000000000000000000000 DUP2 MSTORE PUSH1 0x4 ADD PUSH2 0x1D1F SWAP1 PUSH2 0x2794 JUMP JUMPDEST PUSH1 0x40 MLOAD DUP1 SWAP2 SUB SWAP1 REVERT JUMPDEST POP POP POP JUMP JUMPDEST PUSH1 0x0 DUP1 DUP3 PUSH20 0xFFFFFFFFFFFFFFFFFFFFFFFFFFFFFFFFFFFFFFFF AND EXTCODESIZE GT SWAP1 POP SWAP2 SWAP1 POP JUMP JUMPDEST PUSH1 0x0 PUSH20 0xFFFFFFFFFFFFFFFFFFFFFFFFFFFFFFFFFFFFFFFF AND DUP3 PUSH20 0xFFFFFFFFFFFFFFFFFFFFFFFFFFFFFFFFFFFFFFFF AND EQ ISZERO PUSH2 0x1DC0 JUMPI PUSH1 0x40 MLOAD PUSH32 0x8C379A000000000000000000000000000000000000000000000000000000000 DUP2 MSTORE PUSH1 0x4 ADD PUSH2 0x1DB7 SWAP1 PUSH2 0x2874 JUMP JUMPDEST PUSH1 0x40 MLOAD DUP1 SWAP2 SUB SWAP1 REVERT JUMPDEST PUSH2 0x1DC9 DUP2 PUSH2 0x1AC5 JUMP JUMPDEST ISZERO PUSH2 0x1E09 JUMPI PUSH1 0x40 MLOAD PUSH32 0x8C379A000000000000000000000000000000000000000000000000000000000 DUP2 MSTORE PUSH1 0x4 ADD PUSH2 0x1E00 SWAP1 PUSH2 0x27D4 JUMP JUMPDEST PUSH1 0x40 MLOAD DUP1 SWAP2 SUB SWAP1 REVERT JUMPDEST PUSH2 0x1E15 PUSH1 0x0 DUP4 DUP4 PUSH2 0x1B31 JUMP JUMPDEST PUSH1 0x1 PUSH1 0x3 PUSH1 0x0 DUP5 PUSH20 0xFFFFFFFFFFFFFFFFFFFFFFFFFFFFFFFFFFFFFFFF AND PUSH20 0xFFFFFFFFFFFFFFFFFFFFFFFFFFFFFFFFFFFFFFFF AND DUP2 MSTORE PUSH1 0x20 ADD SWAP1 DUP2 MSTORE PUSH1 0x20 ADD PUSH1 0x0 KECCAK256 PUSH1 0x0 DUP3 DUP3 SLOAD PUSH2 0x1E65 SWAP2 SWAP1 PUSH2 0x2A17 JUMP JUMPDEST SWAP3 POP POP DUP2 SWAP1 SSTORE POP DUP2 PUSH1 0x2 PUSH1 0x0 DUP4 DUP2 MSTORE PUSH1 0x20 ADD SWAP1 DUP2 MSTORE PUSH1 0x20 ADD PUSH1 0x0 KECCAK256 PUSH1 0x0 PUSH2 0x100 EXP DUP2 SLOAD DUP2 PUSH20 0xFFFFFFFFFFFFFFFFFFFFFFFFFFFFFFFFFFFFFFFF MUL NOT AND SWAP1 DUP4 PUSH20 0xFFFFFFFFFFFFFFFFFFFFFFFFFFFFFFFFFFFFFFFF AND MUL OR SWAP1 SSTORE POP DUP1 DUP3 PUSH20 0xFFFFFFFFFFFFFFFFFFFFFFFFFFFFFFFFFFFFFFFF AND PUSH1 0x0 PUSH20 0xFFFFFFFFFFFFFFFFFFFFFFFFFFFFFFFFFFFFFFFF AND PUSH32 0xDDF252AD1BE2C89B69C2B068FC378DAA952BA7F163C4A11628F55A4DF523B3EF PUSH1 0x40 MLOAD PUSH1 0x40 MLOAD DUP1 SWAP2 SUB SWAP1 LOG4 PUSH2 0x1F26 PUSH1 0x0 DUP4 DUP4 PUSH2 0x1B36 JUMP JUMPDEST POP POP JUMP JUMPDEST DUP3 DUP1 SLOAD PUSH2 0x1F36 SWAP1 PUSH2 0x2BE2 JUMP JUMPDEST SWAP1 PUSH1 0x0 MSTORE PUSH1 0x20 PUSH1 0x0 KECCAK256 SWAP1 PUSH1 0x1F ADD PUSH1 0x20 SWAP1 DIV DUP2 ADD SWAP3 DUP3 PUSH2 0x1F58 JUMPI PUSH1 0x0 DUP6 SSTORE PUSH2 0x1F9F JUMP JUMPDEST DUP3 PUSH1 0x1F LT PUSH2 0x1F71 JUMPI DUP1 MLOAD PUSH1 0xFF NOT AND DUP4 DUP1 ADD OR DUP6 SSTORE PUSH2 0x1F9F JUMP JUMPDEST DUP3 DUP1 ADD PUSH1 0x1 ADD DUP6 SSTORE DUP3 ISZERO PUSH2 0x1F9F JUMPI SWAP2 DUP3 ADD JUMPDEST DUP3 DUP2 GT ISZERO PUSH2 0x1F9E JUMPI DUP3 MLOAD DUP3 SSTORE SWAP2 PUSH1 0x20 ADD SWAP2 SWAP1 PUSH1 0x1 ADD SWAP1 PUSH2 0x1F83 JUMP JUMPDEST JUMPDEST POP SWAP1 POP PUSH2 0x1FAC SWAP2 SWAP1 PUSH2 0x1FB0 JUMP JUMPDEST POP SWAP1 JUMP JUMPDEST JUMPDEST DUP1 DUP3 GT ISZERO PUSH2 0x1FC9 JUMPI PUSH1 0x0 DUP2 PUSH1 0x0 SWAP1 SSTORE POP PUSH1 0x1 ADD PUSH2 0x1FB1 JUMP JUMPDEST POP SWAP1 JUMP JUMPDEST PUSH1 0x0 PUSH2 0x1FE0 PUSH2 0x1FDB DUP5 PUSH2 0x29A3 JUMP JUMPDEST PUSH2 0x297E JUMP JUMPDEST SWAP1 POP DUP3 DUP2 MSTORE PUSH1 0x20 DUP2 ADD DUP5 DUP5 DUP5 ADD GT ISZERO PUSH2 0x1FF8 JUMPI PUSH1 0x0 DUP1 REVERT JUMPDEST PUSH2 0x2003 DUP5 DUP3 DUP6 PUSH2 0x2BA0 JUMP JUMPDEST POP SWAP4 SWAP3 POP POP POP JUMP JUMPDEST PUSH1 0x0 DUP2 CALLDATALOAD SWAP1 POP PUSH2 0x201A DUP2 PUSH2 0x325F JUMP JUMPDEST SWAP3 SWAP2 POP POP JUMP JUMPDEST PUSH1 0x0 DUP2 CALLDATALOAD SWAP1 POP PUSH2 0x202F DUP2 PUSH2 0x3276 JUMP JUMPDEST SWAP3 SWAP2 POP POP JUMP JUMPDEST PUSH1 0x0 DUP2 CALLDATALOAD SWAP1 POP PUSH2 0x2044 DUP2 PUSH2 0x328D JUMP JUMPDEST SWAP3 SWAP2 POP POP JUMP JUMPDEST PUSH1 0x0 DUP2 MLOAD SWAP1 POP PUSH2 0x2059 DUP2 PUSH2 0x328D JUMP JUMPDEST SWAP3 SWAP2 POP POP JUMP JUMPDEST PUSH1 0x0 DUP3 PUSH1 0x1F DUP4 ADD SLT PUSH2 0x2070 JUMPI PUSH1 0x0 DUP1 REVERT JUMPDEST DUP2 CALLDATALOAD PUSH2 0x2080 DUP5 DUP3 PUSH1 0x20 DUP7 ADD PUSH2 0x1FCD JUMP JUMPDEST SWAP2 POP POP SWAP3 SWAP2 POP POP JUMP JUMPDEST PUSH1 0x0 DUP2 CALLDATALOAD SWAP1 POP PUSH2 0x2098 DUP2 PUSH2 0x32A4 JUMP JUMPDEST SWAP3 SWAP2 POP POP JUMP JUMPDEST PUSH1 0x0 PUSH1 0x20 DUP3 DUP5 SUB SLT ISZERO PUSH2 0x20B0 JUMPI PUSH1 0x0 DUP1 REVERT JUMPDEST PUSH1 0x0 PUSH2 0x20BE DUP5 DUP3 DUP6 ADD PUSH2 0x200B JUMP JUMPDEST SWAP2 POP POP SWAP3 SWAP2 POP POP JUMP JUMPDEST PUSH1 0x0 DUP1 PUSH1 0x40 DUP4 DUP6 SUB SLT ISZERO PUSH2 0x20DA JUMPI PUSH1 0x0 DUP1 REVERT JUMPDEST PUSH1 0x0 PUSH2 0x20E8 DUP6 DUP3 DUP7 ADD PUSH2 0x200B JUMP JUMPDEST SWAP3 POP POP PUSH1 0x20 PUSH2 0x20F9 DUP6 DUP3 DUP7 ADD PUSH2 0x200B JUMP JUMPDEST SWAP2 POP POP SWAP3 POP SWAP3 SWAP1 POP JUMP JUMPDEST PUSH1 0x0 DUP1 PUSH1 0x0 PUSH1 0x60 DUP5 DUP7 SUB SLT ISZERO PUSH2 0x2118 JUMPI PUSH1 0x0 DUP1 REVERT JUMPDEST PUSH1 0x0 PUSH2 0x2126 DUP7 DUP3 DUP8 ADD PUSH2 0x200B JUMP JUMPDEST SWAP4 POP POP PUSH1 0x20 PUSH2 0x2137 DUP7 DUP3 DUP8 ADD PUSH2 0x200B JUMP JUMPDEST SWAP3 POP POP PUSH1 0x40 PUSH2 0x2148 DUP7 DUP3 DUP8 ADD PUSH2 0x2089 JUMP JUMPDEST SWAP2 POP POP SWAP3 POP SWAP3 POP SWAP3 JUMP JUMPDEST PUSH1 0x0 DUP1 PUSH1 0x0 DUP1 PUSH1 0x80 DUP6 DUP8 SUB SLT ISZERO PUSH2 0x2168 JUMPI PUSH1 0x0 DUP1 REVERT JUMPDEST PUSH1 0x0 PUSH2 0x2176 DUP8 DUP3 DUP9 ADD PUSH2 0x200B JUMP JUMPDEST SWAP5 POP POP PUSH1 0x20 PUSH2 0x2187 DUP8 DUP3 DUP9 ADD PUSH2 0x200B JUMP JUMPDEST SWAP4 POP POP PUSH1 0x40 PUSH2 0x2198 DUP8 DUP3 DUP9 ADD PUSH2 0x2089 JUMP JUMPDEST SWAP3 POP POP PUSH1 0x60 DUP6 ADD CALLDATALOAD PUSH8 0xFFFFFFFFFFFFFFFF DUP2 GT ISZERO PUSH2 0x21B5 JUMPI PUSH1 0x0 DUP1 REVERT JUMPDEST PUSH2 0x21C1 DUP8 DUP3 DUP9 ADD PUSH2 0x205F JUMP JUMPDEST SWAP2 POP POP SWAP3 SWAP6 SWAP2 SWAP5 POP SWAP3 POP JUMP JUMPDEST PUSH1 0x0 DUP1 PUSH1 0x40 DUP4 DUP6 SUB SLT ISZERO PUSH2 0x21E0 JUMPI PUSH1 0x0 DUP1 REVERT JUMPDEST PUSH1 0x0 PUSH2 0x21EE DUP6 DUP3 DUP7 ADD PUSH2 0x200B JUMP JUMPDEST SWAP3 POP POP PUSH1 0x20 PUSH2 0x21FF DUP6 DUP3 DUP7 ADD PUSH2 0x2020 JUMP JUMPDEST SWAP2 POP POP SWAP3 POP SWAP3 SWAP1 POP JUMP JUMPDEST PUSH1 0x0 DUP1 PUSH1 0x40 DUP4 DUP6 SUB SLT ISZERO PUSH2 0x221C JUMPI PUSH1 0x0 DUP1 REVERT JUMPDEST PUSH1 0x0 PUSH2 0x222A DUP6 DUP3 DUP7 ADD PUSH2 0x200B JUMP JUMPDEST SWAP3 POP POP PUSH1 0x20 PUSH2 0x223B DUP6 DUP3 DUP7 ADD PUSH2 0x2089 JUMP JUMPDEST SWAP2 POP POP SWAP3 POP SWAP3 SWAP1 POP JUMP JUMPDEST PUSH1 0x0 PUSH1 0x20 DUP3 DUP5 SUB SLT ISZERO PUSH2 0x2257 JUMPI PUSH1 0x0 DUP1 REVERT JUMPDEST PUSH1 0x0 PUSH2 0x2265 DUP5 DUP3 DUP6 ADD PUSH2 0x2035 JUMP JUMPDEST SWAP2 POP POP SWAP3 SWAP2 POP POP JUMP JUMPDEST PUSH1 0x0 PUSH1 0x20 DUP3 DUP5 SUB SLT ISZERO PUSH2 0x2280 JUMPI PUSH1 0x0 DUP1 REVERT JUMPDEST PUSH1 0x0 PUSH2 0x228E DUP5 DUP3 DUP6 ADD PUSH2 0x204A JUMP JUMPDEST SWAP2 POP POP SWAP3 SWAP2 POP POP JUMP JUMPDEST PUSH1 0x0 PUSH1 0x20 DUP3 DUP5 SUB SLT ISZERO PUSH2 0x22A9 JUMPI PUSH1 0x0 DUP1 REVERT JUMPDEST PUSH1 0x0 PUSH2 0x22B7 DUP5 DUP3 DUP6 ADD PUSH2 0x2089 JUMP JUMPDEST SWAP2 POP POP SWAP3 SWAP2 POP POP JUMP JUMPDEST PUSH2 0x22C9 DUP2 PUSH2 0x2B2C JUMP JUMPDEST DUP3 MSTORE POP POP JUMP JUMPDEST PUSH2 0x22D8 DUP2 PUSH2 0x2B3E JUMP JUMPDEST DUP3 MSTORE POP POP JUMP JUMPDEST PUSH1 0x0 PUSH2 0x22E9 DUP3 PUSH2 0x29D4 JUMP JUMPDEST PUSH2 0x22F3 DUP2 DUP6 PUSH2 0x29EA JUMP JUMPDEST SWAP4 POP PUSH2 0x2303 DUP2 DUP6 PUSH1 0x20 DUP7 ADD PUSH2 0x2BAF JUMP JUMPDEST PUSH2 0x230C DUP2 PUSH2 0x2D7B JUMP JUMPDEST DUP5 ADD SWAP2 POP POP SWAP3 SWAP2 POP POP JUMP JUMPDEST PUSH1 0x0 PUSH2 0x2322 DUP3 PUSH2 0x29DF JUMP JUMPDEST PUSH2 0x232C DUP2 DUP6 PUSH2 0x29FB JUMP JUMPDEST SWAP4 POP PUSH2 0x233C DUP2 DUP6 PUSH1 0x20 DUP7 ADD PUSH2 0x2BAF JUMP JUMPDEST PUSH2 0x2345 DUP2 PUSH2 0x2D7B JUMP JUMPDEST DUP5 ADD SWAP2 POP POP SWAP3 SWAP2 POP POP JUMP JUMPDEST PUSH1 0x0 PUSH2 0x235B DUP3 PUSH2 0x29DF JUMP JUMPDEST PUSH2 0x2365 DUP2 DUP6 PUSH2 0x2A0C JUMP JUMPDEST SWAP4 POP PUSH2 0x2375 DUP2 DUP6 PUSH1 0x20 DUP7 ADD PUSH2 0x2BAF JUMP JUMPDEST DUP1 DUP5 ADD SWAP2 POP POP SWAP3 SWAP2 POP POP JUMP JUMPDEST PUSH1 0x0 PUSH2 0x238E PUSH1 0xB DUP4 PUSH2 0x2A0C JUMP JUMPDEST SWAP2 POP PUSH2 0x2399 DUP3 PUSH2 0x2D8C JUMP JUMPDEST PUSH1 0xB DUP3 ADD SWAP1 POP SWAP2 SWAP1 POP JUMP JUMPDEST PUSH1 0x0 PUSH2 0x23B1 PUSH1 0x32 DUP4 PUSH2 0x29FB JUMP JUMPDEST SWAP2 POP PUSH2 0x23BC DUP3 PUSH2 0x2DB5 JUMP JUMPDEST PUSH1 0x40 DUP3 ADD SWAP1 POP SWAP2 SWAP1 POP JUMP JUMPDEST PUSH1 0x0 PUSH2 0x23D4 PUSH1 0x25 DUP4 PUSH2 0x29FB JUMP JUMPDEST SWAP2 POP PUSH2 0x23DF DUP3 PUSH2 0x2E04 JUMP JUMPDEST PUSH1 0x40 DUP3 ADD SWAP1 POP SWAP2 SWAP1 POP JUMP JUMPDEST PUSH1 0x0 PUSH2 0x23F7 PUSH1 0x1C DUP4 PUSH2 0x29FB JUMP JUMPDEST SWAP2 POP PUSH2 0x2402 DUP3 PUSH2 0x2E53 JUMP JUMPDEST PUSH1 0x20 DUP3 ADD SWAP1 POP SWAP2 SWAP1 POP JUMP JUMPDEST PUSH1 0x0 PUSH2 0x241A PUSH1 0xE DUP4 PUSH2 0x2A0C JUMP JUMPDEST SWAP2 POP PUSH2 0x2425 DUP3 PUSH2 0x2E7C JUMP JUMPDEST PUSH1 0xE DUP3 ADD SWAP1 POP SWAP2 SWAP1 POP JUMP JUMPDEST PUSH1 0x0 PUSH2 0x243D PUSH1 0x3E DUP4 PUSH2 0x2A0C JUMP JUMPDEST SWAP2 POP PUSH2 0x2448 DUP3 PUSH2 0x2EA5 JUMP JUMPDEST PUSH1 0x3E DUP3 ADD SWAP1 POP SWAP2 SWAP1 POP JUMP JUMPDEST PUSH1 0x0 PUSH2 0x2460 PUSH1 0x24 DUP4 PUSH2 0x29FB JUMP JUMPDEST SWAP2 POP PUSH2 0x246B DUP3 PUSH2 0x2EF4 JUMP JUMPDEST PUSH1 0x40 DUP3 ADD SWAP1 POP SWAP2 SWAP1 POP JUMP JUMPDEST PUSH1 0x0 PUSH2 0x2483 PUSH1 0x19 DUP4 PUSH2 0x29FB JUMP JUMPDEST SWAP2 POP PUSH2 0x248E DUP3 PUSH2 0x2F43 JUMP JUMPDEST PUSH1 0x20 DUP3 ADD SWAP1 POP SWAP2 SWAP1 POP JUMP JUMPDEST PUSH1 0x0 PUSH2 0x24A6 PUSH1 0x29 DUP4 PUSH2 0x29FB JUMP JUMPDEST SWAP2 POP PUSH2 0x24B1 DUP3 PUSH2 0x2F6C JUMP JUMPDEST PUSH1 0x40 DUP3 ADD SWAP1 POP SWAP2 SWAP1 POP JUMP JUMPDEST PUSH1 0x0 PUSH2 0x24C9 PUSH1 0x62 DUP4 PUSH2 0x2A0C JUMP JUMPDEST SWAP2 POP PUSH2 0x24D4 DUP3 PUSH2 0x2FBB JUMP JUMPDEST PUSH1 0x62 DUP3 ADD SWAP1 POP SWAP2 SWAP1 POP JUMP JUMPDEST PUSH1 0x0 PUSH2 0x24EC PUSH1 0x32 DUP4 PUSH2 0x2A0C JUMP JUMPDEST SWAP2 POP PUSH2 0x24F7 DUP3 PUSH2 0x3056 JUMP JUMPDEST PUSH1 0x32 DUP3 ADD SWAP1 POP SWAP2 SWAP1 POP JUMP JUMPDEST PUSH1 0x0 PUSH2 0x250F PUSH1 0x4 DUP4 PUSH2 0x2A0C JUMP JUMPDEST SWAP2 POP PUSH2 0x251A DUP3 PUSH2 0x30A5 JUMP JUMPDEST PUSH1 0x4 DUP3 ADD SWAP1 POP SWAP2 SWAP1 POP JUMP JUMPDEST PUSH1 0x0 PUSH2 0x2532 PUSH1 0x3E DUP4 PUSH2 0x29FB JUMP JUMPDEST SWAP2 POP PUSH2 0x253D DUP3 PUSH2 0x30CE JUMP JUMPDEST PUSH1 0x40 DUP3 ADD SWAP1 POP SWAP2 SWAP1 POP JUMP JUMPDEST PUSH1 0x0 PUSH2 0x2555 PUSH1 0x20 DUP4 PUSH2 0x29FB JUMP JUMPDEST SWAP2 POP PUSH2 0x2560 DUP3 PUSH2 0x311D JUMP JUMPDEST PUSH1 0x20 DUP3 ADD SWAP1 POP SWAP2 SWAP1 POP JUMP JUMPDEST PUSH1 0x0 PUSH2 0x2578 PUSH1 0xA DUP4 PUSH2 0x2A0C JUMP JUMPDEST SWAP2 POP PUSH2 0x2583 DUP3 PUSH2 0x3146 JUMP JUMPDEST PUSH1 0xA DUP3 ADD SWAP1 POP SWAP2 SWAP1 POP JUMP JUMPDEST PUSH1 0x0 PUSH2 0x259B PUSH1 0x18 DUP4 PUSH2 0x29FB JUMP JUMPDEST SWAP2 POP PUSH2 0x25A6 DUP3 PUSH2 0x316F JUMP JUMPDEST PUSH1 0x20 DUP3 ADD SWAP1 POP SWAP2 SWAP1 POP JUMP JUMPDEST PUSH1 0x0 PUSH2 0x25BE PUSH1 0x21 DUP4 PUSH2 0x29FB JUMP JUMPDEST SWAP2 POP PUSH2 0x25C9 DUP3 PUSH2 0x3198 JUMP JUMPDEST PUSH1 0x40 DUP3 ADD SWAP1 POP SWAP2 SWAP1 POP JUMP JUMPDEST PUSH1 0x0 PUSH2 0x25E1 PUSH1 0x1D DUP4 PUSH2 0x2A0C JUMP JUMPDEST SWAP2 POP PUSH2 0x25EC DUP3 PUSH2 0x31E7 JUMP JUMPDEST PUSH1 0x1D DUP3 ADD SWAP1 POP SWAP2 SWAP1 POP JUMP JUMPDEST PUSH1 0x0 PUSH2 0x2604 PUSH1 0x2E DUP4 PUSH2 0x29FB JUMP JUMPDEST SWAP2 POP PUSH2 0x260F DUP3 PUSH2 0x3210 JUMP JUMPDEST PUSH1 0x40 DUP3 ADD SWAP1 POP SWAP2 SWAP1 POP JUMP JUMPDEST PUSH2 0x2623 DUP2 PUSH2 0x2B96 JUMP JUMPDEST DUP3 MSTORE POP POP JUMP JUMPDEST PUSH1 0x0 PUSH2 0x2634 DUP3 PUSH2 0x256B JUMP JUMPDEST SWAP2 POP PUSH2 0x2640 DUP3 DUP10 PUSH2 0x2350 JUMP JUMPDEST SWAP2 POP PUSH2 0x264B DUP3 PUSH2 0x2381 JUMP JUMPDEST SWAP2 POP PUSH2 0x2657 DUP3 DUP9 PUSH2 0x2350 JUMP JUMPDEST SWAP2 POP PUSH2 0x2662 DUP3 PUSH2 0x24BC JUMP JUMPDEST SWAP2 POP PUSH2 0x266E DUP3 DUP8 PUSH2 0x2350 JUMP JUMPDEST SWAP2 POP PUSH2 0x2679 DUP3 PUSH2 0x2430 JUMP JUMPDEST SWAP2 POP PUSH2 0x2685 DUP3 DUP7 PUSH2 0x2350 JUMP JUMPDEST SWAP2 POP PUSH2 0x2690 DUP3 PUSH2 0x240D JUMP JUMPDEST SWAP2 POP PUSH2 0x269C DUP3 DUP6 PUSH2 0x2350 JUMP JUMPDEST SWAP2 POP PUSH2 0x26A7 DUP3 PUSH2 0x24DF JUMP JUMPDEST SWAP2 POP PUSH2 0x26B3 DUP3 DUP5 PUSH2 0x2350 JUMP JUMPDEST SWAP2 POP PUSH2 0x26BE DUP3 PUSH2 0x2502 JUMP JUMPDEST SWAP2 POP DUP2 SWAP1 POP SWAP8 SWAP7 POP POP POP POP POP POP POP JUMP JUMPDEST PUSH1 0x0 PUSH2 0x26D9 DUP3 PUSH2 0x25D4 JUMP JUMPDEST SWAP2 POP PUSH2 0x26E5 DUP3 DUP5 PUSH2 0x2350 JUMP JUMPDEST SWAP2 POP DUP2 SWAP1 POP SWAP3 SWAP2 POP POP JUMP JUMPDEST PUSH1 0x0 PUSH1 0x20 DUP3 ADD SWAP1 POP PUSH2 0x2705 PUSH1 0x0 DUP4 ADD DUP5 PUSH2 0x22C0 JUMP JUMPDEST SWAP3 SWAP2 POP POP JUMP JUMPDEST PUSH1 0x0 PUSH1 0x80 DUP3 ADD SWAP1 POP PUSH2 0x2720 PUSH1 0x0 DUP4 ADD DUP8 PUSH2 0x22C0 JUMP JUMPDEST PUSH2 0x272D PUSH1 0x20 DUP4 ADD DUP7 PUSH2 0x22C0 JUMP JUMPDEST PUSH2 0x273A PUSH1 0x40 DUP4 ADD DUP6 PUSH2 0x261A JUMP JUMPDEST DUP2 DUP2 SUB PUSH1 0x60 DUP4 ADD MSTORE PUSH2 0x274C DUP2 DUP5 PUSH2 0x22DE JUMP JUMPDEST SWAP1 POP SWAP6 SWAP5 POP POP POP POP POP JUMP JUMPDEST PUSH1 0x0 PUSH1 0x20 DUP3 ADD SWAP1 POP PUSH2 0x276C PUSH1 0x0 DUP4 ADD DUP5 PUSH2 0x22CF JUMP JUMPDEST SWAP3 SWAP2 POP POP JUMP JUMPDEST PUSH1 0x0 PUSH1 0x20 DUP3 ADD SWAP1 POP DUP2 DUP2 SUB PUSH1 0x0 DUP4 ADD MSTORE PUSH2 0x278C DUP2 DUP5 PUSH2 0x2317 JUMP JUMPDEST SWAP1 POP SWAP3 SWAP2 POP POP JUMP JUMPDEST PUSH1 0x0 PUSH1 0x20 DUP3 ADD SWAP1 POP DUP2 DUP2 SUB PUSH1 0x0 DUP4 ADD MSTORE PUSH2 0x27AD DUP2 PUSH2 0x23A4 JUMP JUMPDEST SWAP1 POP SWAP2 SWAP1 POP JUMP JUMPDEST PUSH1 0x0 PUSH1 0x20 DUP3 ADD SWAP1 POP DUP2 DUP2 SUB PUSH1 0x0 DUP4 ADD MSTORE PUSH2 0x27CD DUP2 PUSH2 0x23C7 JUMP JUMPDEST SWAP1 POP SWAP2 SWAP1 POP JUMP JUMPDEST PUSH1 0x0 PUSH1 0x20 DUP3 ADD SWAP1 POP DUP2 DUP2 SUB PUSH1 0x0 DUP4 ADD MSTORE PUSH2 0x27ED DUP2 PUSH2 0x23EA JUMP JUMPDEST SWAP1 POP SWAP2 SWAP1 POP JUMP JUMPDEST PUSH1 0x0 PUSH1 0x20 DUP3 ADD SWAP1 POP DUP2 DUP2 SUB PUSH1 0x0 DUP4 ADD MSTORE PUSH2 0x280D DUP2 PUSH2 0x2453 JUMP JUMPDEST SWAP1 POP SWAP2 SWAP1 POP JUMP JUMPDEST PUSH1 0x0 PUSH1 0x20 DUP3 ADD SWAP1 POP DUP2 DUP2 SUB PUSH1 0x0 DUP4 ADD MSTORE PUSH2 0x282D DUP2 PUSH2 0x2476 JUMP JUMPDEST SWAP1 POP SWAP2 SWAP1 POP JUMP JUMPDEST PUSH1 0x0 PUSH1 0x20 DUP3 ADD SWAP1 POP DUP2 DUP2 SUB PUSH1 0x0 DUP4 ADD MSTORE PUSH2 0x284D DUP2 PUSH2 0x2499 JUMP JUMPDEST SWAP1 POP SWAP2 SWAP1 POP JUMP JUMPDEST PUSH1 0x0 PUSH1 0x20 DUP3 ADD SWAP1 POP DUP2 DUP2 SUB PUSH1 0x0 DUP4 ADD MSTORE PUSH2 0x286D DUP2 PUSH2 0x2525 JUMP JUMPDEST SWAP1 POP SWAP2 SWAP1 POP JUMP JUMPDEST PUSH1 0x0 PUSH1 0x20 DUP3 ADD SWAP1 POP DUP2 DUP2 SUB PUSH1 0x0 DUP4 ADD MSTORE PUSH2 0x288D DUP2 PUSH2 0x2548 JUMP JUMPDEST SWAP1 POP SWAP2 SWAP1 POP JUMP JUMPDEST PUSH1 0x0 PUSH1 0x20 DUP3 ADD SWAP1 POP DUP2 DUP2 SUB PUSH1 0x0 DUP4 ADD MSTORE PUSH2 0x28AD DUP2 PUSH2 0x258E JUMP JUMPDEST SWAP1 POP SWAP2 SWAP1 POP JUMP JUMPDEST PUSH1 0x0 PUSH1 0x20 DUP3 ADD SWAP1 POP DUP2 DUP2 SUB PUSH1 0x0 DUP4 ADD MSTORE PUSH2 0x28CD DUP2 PUSH2 0x25B1 JUMP JUMPDEST SWAP1 POP SWAP2 SWAP1 POP JUMP JUMPDEST PUSH1 0x0 PUSH1 0x20 DUP3 ADD SWAP1 POP DUP2 DUP2 SUB PUSH1 0x0 DUP4 ADD MSTORE PUSH2 0x28ED DUP2 PUSH2 0x25F7 JUMP JUMPDEST SWAP1 POP SWAP2 SWAP1 POP JUMP JUMPDEST PUSH1 0x0 PUSH1 0x20 DUP3 ADD SWAP1 POP PUSH2 0x2909 PUSH1 0x0 DUP4 ADD DUP5 PUSH2 0x261A JUMP JUMPDEST SWAP3 SWAP2 POP POP JUMP JUMPDEST PUSH1 0x0 PUSH1 0xC0 DUP3 ADD SWAP1 POP PUSH2 0x2924 PUSH1 0x0 DUP4 ADD DUP10 PUSH2 0x261A JUMP JUMPDEST DUP2 DUP2 SUB PUSH1 0x20 DUP4 ADD MSTORE PUSH2 0x2936 DUP2 DUP9 PUSH2 0x2317 JUMP JUMPDEST SWAP1 POP DUP2 DUP2 SUB PUSH1 0x40 DUP4 ADD MSTORE PUSH2 0x294A DUP2 DUP8 PUSH2 0x2317 JUMP JUMPDEST SWAP1 POP PUSH2 0x2959 PUSH1 0x60 DUP4 ADD DUP7 PUSH2 0x261A JUMP JUMPDEST PUSH2 0x2966 PUSH1 0x80 DUP4 ADD DUP6 PUSH2 0x261A JUMP JUMPDEST PUSH2 0x2973 PUSH1 0xA0 DUP4 ADD DUP5 PUSH2 0x261A JUMP JUMPDEST SWAP8 SWAP7 POP POP POP POP POP POP POP JUMP JUMPDEST PUSH1 0x0 PUSH2 0x2988 PUSH2 0x2999 JUMP JUMPDEST SWAP1 POP PUSH2 0x2994 DUP3 DUP3 PUSH2 0x2C14 JUMP JUMPDEST SWAP2 SWAP1 POP JUMP JUMPDEST PUSH1 0x0 PUSH1 0x40 MLOAD SWAP1 POP SWAP1 JUMP JUMPDEST PUSH1 0x0 PUSH8 0xFFFFFFFFFFFFFFFF DUP3 GT ISZERO PUSH2 0x29BE JUMPI PUSH2 0x29BD PUSH2 0x2D4C JUMP JUMPDEST JUMPDEST PUSH2 0x29C7 DUP3 PUSH2 0x2D7B JUMP JUMPDEST SWAP1 POP PUSH1 0x20 DUP2 ADD SWAP1 POP SWAP2 SWAP1 POP JUMP JUMPDEST PUSH1 0x0 DUP2 MLOAD SWAP1 POP SWAP2 SWAP1 POP JUMP JUMPDEST PUSH1 0x0 DUP2 MLOAD SWAP1 POP SWAP2 SWAP1 POP JUMP JUMPDEST PUSH1 0x0 DUP3 DUP3 MSTORE PUSH1 0x20 DUP3 ADD SWAP1 POP SWAP3 SWAP2 POP POP JUMP JUMPDEST PUSH1 0x0 DUP3 DUP3 MSTORE PUSH1 0x20 DUP3 ADD SWAP1 POP SWAP3 SWAP2 POP POP JUMP JUMPDEST PUSH1 0x0 DUP2 SWAP1 POP SWAP3 SWAP2 POP POP JUMP JUMPDEST PUSH1 0x0 PUSH2 0x2A22 DUP3 PUSH2 0x2B96 JUMP JUMPDEST SWAP2 POP PUSH2 0x2A2D DUP4 PUSH2 0x2B96 JUMP JUMPDEST SWAP3 POP DUP3 PUSH32 0xFFFFFFFFFFFFFFFFFFFFFFFFFFFFFFFFFFFFFFFFFFFFFFFFFFFFFFFFFFFFFFFF SUB DUP3 GT ISZERO PUSH2 0x2A62 JUMPI PUSH2 0x2A61 PUSH2 0x2CBF JUMP JUMPDEST JUMPDEST DUP3 DUP3 ADD SWAP1 POP SWAP3 SWAP2 POP POP JUMP JUMPDEST PUSH1 0x0 PUSH2 0x2A78 DUP3 PUSH2 0x2B96 JUMP JUMPDEST SWAP2 POP PUSH2 0x2A83 DUP4 PUSH2 0x2B96 JUMP JUMPDEST SWAP3 POP DUP3 PUSH2 0x2A93 JUMPI PUSH2 0x2A92 PUSH2 0x2CEE JUMP JUMPDEST JUMPDEST DUP3 DUP3 DIV SWAP1 POP SWAP3 SWAP2 POP POP JUMP JUMPDEST PUSH1 0x0 PUSH2 0x2AA9 DUP3 PUSH2 0x2B96 JUMP JUMPDEST SWAP2 POP PUSH2 0x2AB4 DUP4 PUSH2 0x2B96 JUMP JUMPDEST SWAP3 POP DUP2 PUSH32 0xFFFFFFFFFFFFFFFFFFFFFFFFFFFFFFFFFFFFFFFFFFFFFFFFFFFFFFFFFFFFFFFF DIV DUP4 GT DUP3 ISZERO ISZERO AND ISZERO PUSH2 0x2AED JUMPI PUSH2 0x2AEC PUSH2 0x2CBF JUMP JUMPDEST JUMPDEST DUP3 DUP3 MUL SWAP1 POP SWAP3 SWAP2 POP POP JUMP JUMPDEST PUSH1 0x0 PUSH2 0x2B03 DUP3 PUSH2 0x2B96 JUMP JUMPDEST SWAP2 POP PUSH2 0x2B0E DUP4 PUSH2 0x2B96 JUMP JUMPDEST SWAP3 POP DUP3 DUP3 LT ISZERO PUSH2 0x2B21 JUMPI PUSH2 0x2B20 PUSH2 0x2CBF JUMP JUMPDEST JUMPDEST DUP3 DUP3 SUB SWAP1 POP SWAP3 SWAP2 POP POP JUMP JUMPDEST PUSH1 0x0 PUSH2 0x2B37 DUP3 PUSH2 0x2B76 JUMP JUMPDEST SWAP1 POP SWAP2 SWAP1 POP JUMP JUMPDEST PUSH1 0x0 DUP2 ISZERO ISZERO SWAP1 POP SWAP2 SWAP1 POP JUMP JUMPDEST PUSH1 0x0 PUSH32 0xFFFFFFFF00000000000000000000000000000000000000000000000000000000 DUP3 AND SWAP1 POP SWAP2 SWAP1 POP JUMP JUMPDEST PUSH1 0x0 PUSH20 0xFFFFFFFFFFFFFFFFFFFFFFFFFFFFFFFFFFFFFFFF DUP3 AND SWAP1 POP SWAP2 SWAP1 POP JUMP JUMPDEST PUSH1 0x0 DUP2 SWAP1 POP SWAP2 SWAP1 POP JUMP JUMPDEST DUP3 DUP2 DUP4 CALLDATACOPY PUSH1 0x0 DUP4 DUP4 ADD MSTORE POP POP POP JUMP JUMPDEST PUSH1 0x0 JUMPDEST DUP4 DUP2 LT ISZERO PUSH2 0x2BCD JUMPI DUP1 DUP3 ADD MLOAD DUP2 DUP5 ADD MSTORE PUSH1 0x20 DUP2 ADD SWAP1 POP PUSH2 0x2BB2 JUMP JUMPDEST DUP4 DUP2 GT ISZERO PUSH2 0x2BDC JUMPI PUSH1 0x0 DUP5 DUP5 ADD MSTORE JUMPDEST POP POP POP POP JUMP JUMPDEST PUSH1 0x0 PUSH1 0x2 DUP3 DIV SWAP1 POP PUSH1 0x1 DUP3 AND DUP1 PUSH2 0x2BFA JUMPI PUSH1 0x7F DUP3 AND SWAP2 POP JUMPDEST PUSH1 0x20 DUP3 LT DUP2 EQ ISZERO PUSH2 0x2C0E JUMPI PUSH2 0x2C0D PUSH2 0x2D1D JUMP JUMPDEST JUMPDEST POP SWAP2 SWAP1 POP JUMP JUMPDEST PUSH2 0x2C1D DUP3 PUSH2 0x2D7B JUMP JUMPDEST DUP2 ADD DUP2 DUP2 LT PUSH8 0xFFFFFFFFFFFFFFFF DUP3 GT OR ISZERO PUSH2 0x2C3C JUMPI PUSH2 0x2C3B PUSH2 0x2D4C JUMP JUMPDEST JUMPDEST DUP1 PUSH1 0x40 MSTORE POP POP POP JUMP JUMPDEST PUSH1 0x0 PUSH2 0x2C50 DUP3 PUSH2 0x2B96 JUMP JUMPDEST SWAP2 POP PUSH32 0xFFFFFFFFFFFFFFFFFFFFFFFFFFFFFFFFFFFFFFFFFFFFFFFFFFFFFFFFFFFFFFFF DUP3 EQ ISZERO PUSH2 0x2C83 JUMPI PUSH2 0x2C82 PUSH2 0x2CBF JUMP JUMPDEST JUMPDEST PUSH1 0x1 DUP3 ADD SWAP1 POP SWAP2 SWAP1 POP JUMP JUMPDEST PUSH1 0x0 PUSH2 0x2C99 DUP3 PUSH2 0x2B96 JUMP JUMPDEST SWAP2 POP PUSH2 0x2CA4 DUP4 PUSH2 0x2B96 JUMP JUMPDEST SWAP3 POP DUP3 PUSH2 0x2CB4 JUMPI PUSH2 0x2CB3 PUSH2 0x2CEE JUMP JUMPDEST JUMPDEST DUP3 DUP3 MOD SWAP1 POP SWAP3 SWAP2 POP POP JUMP JUMPDEST PUSH32 0x4E487B7100000000000000000000000000000000000000000000000000000000 PUSH1 0x0 MSTORE PUSH1 0x11 PUSH1 0x4 MSTORE PUSH1 0x24 PUSH1 0x0 REVERT JUMPDEST PUSH32 0x4E487B7100000000000000000000000000000000000000000000000000000000 PUSH1 0x0 MSTORE PUSH1 0x12 PUSH1 0x4 MSTORE PUSH1 0x24 PUSH1 0x0 REVERT JUMPDEST PUSH32 0x4E487B7100000000000000000000000000000000000000000000000000000000 PUSH1 0x0 MSTORE PUSH1 0x22 PUSH1 0x4 MSTORE PUSH1 0x24 PUSH1 0x0 REVERT JUMPDEST PUSH32 0x4E487B7100000000000000000000000000000000000000000000000000000000 PUSH1 0x0 MSTORE PUSH1 0x41 PUSH1 0x4 MSTORE PUSH1 0x24 PUSH1 0x0 REVERT JUMPDEST PUSH1 0x0 PUSH1 0x1F NOT PUSH1 0x1F DUP4 ADD AND SWAP1 POP SWAP2 SWAP1 POP JUMP JUMPDEST PUSH32 0x202D2D204E465420233A20000000000000000000000000000000000000000000 PUSH1 0x0 DUP3 ADD MSTORE POP JUMP JUMPDEST PUSH32 0x4552433732313A207472616E7366657220746F206E6F6E204552433732315265 PUSH1 0x0 DUP3 ADD MSTORE PUSH32 0x63656976657220696D706C656D656E7465720000000000000000000000000000 PUSH1 0x20 DUP3 ADD MSTORE POP JUMP JUMPDEST PUSH32 0x4552433732313A207472616E736665722066726F6D20696E636F727265637420 PUSH1 0x0 DUP3 ADD MSTORE PUSH32 0x6F776E6572000000000000000000000000000000000000000000000000000000 PUSH1 0x20 DUP3 ADD MSTORE POP JUMP JUMPDEST PUSH32 0x4552433732313A20746F6B656E20616C7265616479206D696E74656400000000 PUSH1 0x0 DUP3 ADD MSTORE POP JUMP JUMPDEST PUSH32 0x2C20226D61785F76616C7565223A000000000000000000000000000000000000 PUSH1 0x0 DUP3 ADD MSTORE POP JUMP JUMPDEST PUSH32 0x222C202261747472696275746573223A205B207B202274726169745F74797065 PUSH1 0x0 DUP3 ADD MSTORE PUSH32 0x223A202244657374726F7920506F696E7473222C202276616C7565223A200000 PUSH1 0x20 DUP3 ADD MSTORE POP JUMP JUMPDEST PUSH32 0x4552433732313A207472616E7366657220746F20746865207A65726F20616464 PUSH1 0x0 DUP3 ADD MSTORE PUSH32 0x7265737300000000000000000000000000000000000000000000000000000000 PUSH1 0x20 DUP3 ADD MSTORE POP JUMP JUMPDEST PUSH32 0x4552433732313A20617070726F766520746F2063616C6C657200000000000000 PUSH1 0x0 DUP3 ADD MSTORE POP JUMP JUMPDEST PUSH32 0x4552433732313A2061646472657373207A65726F206973206E6F742061207661 PUSH1 0x0 DUP3 ADD MSTORE PUSH32 0x6C6964206F776E65720000000000000000000000000000000000000000000000 PUSH1 0x20 DUP3 ADD MSTORE POP JUMP JUMPDEST PUSH32 0x222C20226465736372697074696F6E223A20225468697320697320616E204E46 PUSH1 0x0 DUP3 ADD MSTORE PUSH32 0x542074686174206C6574732070656F706C6520706C617920696E207468652067 PUSH1 0x20 DUP3 ADD MSTORE PUSH32 0x616D65204D657461766572736520536C6179657221222C2022696D616765223A PUSH1 0x40 DUP3 ADD MSTORE PUSH32 0x2022000000000000000000000000000000000000000000000000000000000000 PUSH1 0x60 DUP3 ADD MSTORE POP JUMP JUMPDEST PUSH32 0x7D2C207B202274726169745F74797065223A202244657374726F792070657220 PUSH1 0x0 DUP3 ADD MSTORE PUSH32 0x7365636F6E64222C202276616C7565223A200000000000000000000000000000 PUSH1 0x20 DUP3 ADD MSTORE POP JUMP JUMPDEST PUSH32 0x7D205D7D00000000000000000000000000000000000000000000000000000000 PUSH1 0x0 DUP3 ADD MSTORE POP JUMP JUMPDEST PUSH32 0x4552433732313A20617070726F76652063616C6C6572206973206E6F7420746F PUSH1 0x0 DUP3 ADD MSTORE PUSH32 0x6B656E206F776E6572206E6F7220617070726F76656420666F7220616C6C0000 PUSH1 0x20 DUP3 ADD MSTORE POP JUMP JUMPDEST PUSH32 0x4552433732313A206D696E7420746F20746865207A65726F2061646472657373 PUSH1 0x0 DUP3 ADD MSTORE POP JUMP JUMPDEST PUSH32 0x7B226E616D65223A202200000000000000000000000000000000000000000000 PUSH1 0x0 DUP3 ADD MSTORE POP JUMP JUMPDEST PUSH32 0x4552433732313A20696E76616C696420746F6B656E2049440000000000000000 PUSH1 0x0 DUP3 ADD MSTORE POP JUMP JUMPDEST PUSH32 0x4552433732313A20617070726F76616C20746F2063757272656E74206F776E65 PUSH1 0x0 DUP3 ADD MSTORE PUSH32 0x7200000000000000000000000000000000000000000000000000000000000000 PUSH1 0x20 DUP3 ADD MSTORE POP JUMP JUMPDEST PUSH32 0x646174613A6170706C69636174696F6E2F6A736F6E3B6261736536342C000000 PUSH1 0x0 DUP3 ADD MSTORE POP JUMP JUMPDEST PUSH32 0x4552433732313A2063616C6C6572206973206E6F7420746F6B656E206F776E65 PUSH1 0x0 DUP3 ADD MSTORE PUSH32 0x72206E6F7220617070726F766564000000000000000000000000000000000000 PUSH1 0x20 DUP3 ADD MSTORE POP JUMP JUMPDEST PUSH2 0x3268 DUP2 PUSH2 0x2B2C JUMP JUMPDEST DUP2 EQ PUSH2 0x3273 JUMPI PUSH1 0x0 DUP1 REVERT JUMPDEST POP JUMP JUMPDEST PUSH2 0x327F DUP2 PUSH2 0x2B3E JUMP JUMPDEST DUP2 EQ PUSH2 0x328A JUMPI PUSH1 0x0 DUP1 REVERT JUMPDEST POP JUMP JUMPDEST PUSH2 0x3296 DUP2 PUSH2 0x2B4A JUMP JUMPDEST DUP2 EQ PUSH2 0x32A1 JUMPI PUSH1 0x0 DUP1 REVERT JUMPDEST POP JUMP JUMPDEST PUSH2 0x32AD DUP2 PUSH2 0x2B96 JUMP JUMPDEST DUP2 EQ PUSH2 0x32B8 JUMPI PUSH1 0x0 DUP1 REVERT JUMPDEST POP JUMP INVALID COINBASE TIMESTAMP NUMBER DIFFICULTY GASLIMIT CHAINID SELFBALANCE 0x48 0x49 0x4A 0x4B 0x4C 0x4D 0x4E 0x4F POP MLOAD MSTORE MSTORE8 SLOAD SSTORE JUMP JUMPI PC MSIZE GAS PUSH2 0x6263 PUSH5 0x6566676869 PUSH11 0x6B6C6D6E6F707172737475 PUSH23 0x7778797A303132333435363738392B2FA2646970667358 0x22 SLT KECCAK256 0xEE 0x4E STOP BALANCE SWAP12 0xFB 0xF8 0xF9 0xA8 0xB0 0x21 CREATE2 NOT 0x29 0xBD EXTCODESIZE LOG1 0x4B SWAP3 DUP16 0xD5 PUSH10 0xC095E8DC95C9DAA53FD PUSH5 0x736F6C6343 STOP ADDMOD DIV STOP CALLER "
        },
        "methodIdentifiers": {
          "approve(address,uint256)": "095ea7b3",
          "balanceOf(address)": "70a08231",
          "getApproved(uint256)": "081812fc",
          "isApprovedForAll(address,address)": "e985e9c5",
          "memeCarryByToken(uint256)": "5ecadef3",
          "mintMeme(uint256)": "eb3a9ef7",
          "name()": "06fdde03",
          "nftHolders(address)": "7df124a1",
          "ownerOf(uint256)": "6352211e",
          "safeTransferFrom(address,address,uint256)": "42842e0e",
          "safeTransferFrom(address,address,uint256,bytes)": "b88d4fde",
          "setApprovalForAll(address,bool)": "a22cb465",
          "supportsInterface(bytes4)": "01ffc9a7",
          "symbol()": "95d89b41",
          "tokenURI(uint256)": "c87b56dd",
          "transferFrom(address,address,uint256)": "23b872dd"
        }
      }
    }
  }
}