{
    "_format": "hh-sol-artifact-1",
    "contractName": "EpicGame",
    "sourceName": "contracts/Epic.sol",
    "abi": [
        {
            "inputs": [
                {
                    "internalType": "string[]",
                    "name": "memeNames",
                    "type": "string[]"
                },
                {
                    "internalType": "string[]",
                    "name": "memeImageURIs",
                    "type": "string[]"
                },
                {
                    "internalType": "uint256[]",
                    "name": "memeDp",
                    "type": "uint256[]"
                },
                {
                    "internalType": "uint256[]",
                    "name": "memeDps",
                    "type": "uint256[]"
                },
                {
                    "internalType": "string",
                    "name": "bossName",
                    "type": "string"
                },
                {
                    "internalType": "string",
                    "name": "bossImgURI",
                    "type": "string"
                },
                {
                    "internalType": "uint256",
                    "name": "bossDp",
                    "type": "uint256"
                },
                {
                    "internalType": "uint256",
                    "name": "bossDps",
                    "type": "uint256"
                }
            ],
            "stateMutability": "nonpayable",
            "type": "constructor"
        },
        {
            "anonymous": false,
            "inputs": [
                {
                    "indexed": true,
                    "internalType": "address",
                    "name": "owner",
                    "type": "address"
                },
                {
                    "indexed": true,
                    "internalType": "address",
                    "name": "approved",
                    "type": "address"
                },
                {
                    "indexed": true,
                    "internalType": "uint256",
                    "name": "tokenId",
                    "type": "uint256"
                }
            ],
            "name": "Approval",
            "type": "event"
        },
        {
            "anonymous": false,
            "inputs": [
                {
                    "indexed": true,
                    "internalType": "address",
                    "name": "owner",
                    "type": "address"
                },
                {
                    "indexed": true,
                    "internalType": "address",
                    "name": "operator",
                    "type": "address"
                },
                {
                    "indexed": false,
                    "internalType": "bool",
                    "name": "approved",
                    "type": "bool"
                }
            ],
            "name": "ApprovalForAll",
            "type": "event"
        },
        {
            "anonymous": false,
            "inputs": [
                {
                    "indexed": false,
                    "internalType": "address",
                    "name": "sender",
                    "type": "address"
                },
                {
                    "indexed": false,
                    "internalType": "uint256",
                    "name": "newBossHp",
                    "type": "uint256"
                },
                {
                    "indexed": false,
                    "internalType": "uint256",
                    "name": "newPlayerHp",
                    "type": "uint256"
                }
            ],
            "name": "AttackComplete",
            "type": "event"
        },
        {
            "anonymous": false,
            "inputs": [
                {
                    "indexed": true,
                    "internalType": "address",
                    "name": "from",
                    "type": "address"
                },
                {
                    "indexed": true,
                    "internalType": "address",
                    "name": "to",
                    "type": "address"
                },
                {
                    "indexed": true,
                    "internalType": "uint256",
                    "name": "tokenId",
                    "type": "uint256"
                }
            ],
            "name": "Transfer",
            "type": "event"
        },
        {
            "anonymous": false,
            "inputs": [
                {
                    "indexed": false,
                    "internalType": "address",
                    "name": "sender",
                    "type": "address"
                },
                {
                    "indexed": false,
                    "internalType": "uint256",
                    "name": "tokId",
                    "type": "uint256"
                },
                {
                    "indexed": false,
                    "internalType": "uint256",
                    "name": "charInd",
                    "type": "uint256"
                }
            ],
            "name": "memeMinted",
            "type": "event"
        },
        {
            "inputs": [
                {
                    "internalType": "address",
                    "name": "to",
                    "type": "address"
                },
                {
                    "internalType": "uint256",
                    "name": "tokenId",
                    "type": "uint256"
                }
            ],
            "name": "approve",
            "outputs": [],
            "stateMutability": "nonpayable",
            "type": "function"
        },
        {
            "inputs": [],
            "name": "attackBoss",
            "outputs": [],
            "stateMutability": "nonpayable",
            "type": "function"
        },
        {
            "inputs": [
                {
                    "internalType": "address",
                    "name": "owner",
                    "type": "address"
                }
            ],
            "name": "balanceOf",
            "outputs": [
                {
                    "internalType": "uint256",
                    "name": "",
                    "type": "uint256"
                }
            ],
            "stateMutability": "view",
            "type": "function"
        },
        {
            "inputs": [],
            "name": "boss",
            "outputs": [
                {
                    "internalType": "string",
                    "name": "name",
                    "type": "string"
                },
                {
                    "internalType": "string",
                    "name": "imageURI",
                    "type": "string"
                },
                {
                    "internalType": "uint256",
                    "name": "dp",
                    "type": "uint256"
                },
                {
                    "internalType": "uint256",
                    "name": "dps",
                    "type": "uint256"
                }
            ],
            "stateMutability": "view",
            "type": "function"
        },
        {
            "inputs": [],
            "name": "getAllMemeLords",
            "outputs": [
                {
                    "components": [
                        {
                            "internalType": "uint256",
                            "name": "uniqueId",
                            "type": "uint256"
                        },
                        {
                            "internalType": "string",
                            "name": "name",
                            "type": "string"
                        },
                        {
                            "internalType": "string",
                            "name": "imageURI",
                            "type": "string"
                        },
                        {
                            "internalType": "uint256",
                            "name": "dp",
                            "type": "uint256"
                        },
                        {
                            "internalType": "uint256",
                            "name": "maxDp",
                            "type": "uint256"
                        },
                        {
                            "internalType": "uint256",
                            "name": "dps",
                            "type": "uint256"
                        }
                    ],
                    "internalType": "struct EpicGame.memeAttributes[]",
                    "name": "",
                    "type": "tuple[]"
                }
            ],
            "stateMutability": "view",
            "type": "function"
        },
        {
            "inputs": [
                {
                    "internalType": "uint256",
                    "name": "tokenId",
                    "type": "uint256"
                }
            ],
            "name": "getApproved",
            "outputs": [
                {
                    "internalType": "address",
                    "name": "",
                    "type": "address"
                }
            ],
            "stateMutability": "view",
            "type": "function"
        },
        {
            "inputs": [],
            "name": "getBoss",
            "outputs": [
                {
                    "components": [
                        {
                            "internalType": "string",
                            "name": "name",
                            "type": "string"
                        },
                        {
                            "internalType": "string",
                            "name": "imageURI",
                            "type": "string"
                        },
                        {
                            "internalType": "uint256",
                            "name": "dp",
                            "type": "uint256"
                        },
                        {
                            "internalType": "uint256",
                            "name": "dps",
                            "type": "uint256"
                        }
                    ],
                    "internalType": "struct EpicGame.Boss",
                    "name": "",
                    "type": "tuple"
                }
            ],
            "stateMutability": "view",
            "type": "function"
        },
        {
            "inputs": [
                {
                    "internalType": "address",
                    "name": "owner",
                    "type": "address"
                },
                {
                    "internalType": "address",
                    "name": "operator",
                    "type": "address"
                }
            ],
            "name": "isApprovedForAll",
            "outputs": [
                {
                    "internalType": "bool",
                    "name": "",
                    "type": "bool"
                }
            ],
            "stateMutability": "view",
            "type": "function"
        },
        {
            "inputs": [],
            "name": "isUserMemer",
            "outputs": [
                {
                    "components": [
                        {
                            "internalType": "uint256",
                            "name": "uniqueId",
                            "type": "uint256"
                        },
                        {
                            "internalType": "string",
                            "name": "name",
                            "type": "string"
                        },
                        {
                            "internalType": "string",
                            "name": "imageURI",
                            "type": "string"
                        },
                        {
                            "internalType": "uint256",
                            "name": "dp",
                            "type": "uint256"
                        },
                        {
                            "internalType": "uint256",
                            "name": "maxDp",
                            "type": "uint256"
                        },
                        {
                            "internalType": "uint256",
                            "name": "dps",
                            "type": "uint256"
                        }
                    ],
                    "internalType": "struct EpicGame.memeAttributes",
                    "name": "",
                    "type": "tuple"
                }
            ],
            "stateMutability": "view",
            "type": "function"
        },
        {
            "inputs": [
                {
                    "internalType": "uint256",
                    "name": "",
                    "type": "uint256"
                }
            ],
            "name": "memeCarryByToken",
            "outputs": [
                {
                    "internalType": "uint256",
                    "name": "uniqueId",
                    "type": "uint256"
                },
                {
                    "internalType": "string",
                    "name": "name",
                    "type": "string"
                },
                {
                    "internalType": "string",
                    "name": "imageURI",
                    "type": "string"
                },
                {
                    "internalType": "uint256",
                    "name": "dp",
                    "type": "uint256"
                },
                {
                    "internalType": "uint256",
                    "name": "maxDp",
                    "type": "uint256"
                },
                {
                    "internalType": "uint256",
                    "name": "dps",
                    "type": "uint256"
                }
            ],
            "stateMutability": "view",
            "type": "function"
        },
        {
            "inputs": [
                {
                    "internalType": "uint256",
                    "name": "_uniqueId",
                    "type": "uint256"
                }
            ],
            "name": "mintMeme",
            "outputs": [],
            "stateMutability": "nonpayable",
            "type": "function"
        },
        {
            "inputs": [],
            "name": "name",
            "outputs": [
                {
                    "internalType": "string",
                    "name": "",
                    "type": "string"
                }
            ],
            "stateMutability": "view",
            "type": "function"
        },
        {
            "inputs": [
                {
                    "internalType": "address",
                    "name": "",
                    "type": "address"
                }
            ],
            "name": "nftHolders",
            "outputs": [
                {
                    "internalType": "uint256",
                    "name": "",
                    "type": "uint256"
                }
            ],
            "stateMutability": "view",
            "type": "function"
        },
        {
            "inputs": [
                {
                    "internalType": "uint256",
                    "name": "tokenId",
                    "type": "uint256"
                }
            ],
            "name": "ownerOf",
            "outputs": [
                {
                    "internalType": "address",
                    "name": "",
                    "type": "address"
                }
            ],
            "stateMutability": "view",
            "type": "function"
        },
        {
            "inputs": [
                {
                    "internalType": "address",
                    "name": "from",
                    "type": "address"
                },
                {
                    "internalType": "address",
                    "name": "to",
                    "type": "address"
                },
                {
                    "internalType": "uint256",
                    "name": "tokenId",
                    "type": "uint256"
                }
            ],
            "name": "safeTransferFrom",
            "outputs": [],
            "stateMutability": "nonpayable",
            "type": "function"
        },
        {
            "inputs": [
                {
                    "internalType": "address",
                    "name": "from",
                    "type": "address"
                },
                {
                    "internalType": "address",
                    "name": "to",
                    "type": "address"
                },
                {
                    "internalType": "uint256",
                    "name": "tokenId",
                    "type": "uint256"
                },
                {
                    "internalType": "bytes",
                    "name": "data",
                    "type": "bytes"
                }
            ],
            "name": "safeTransferFrom",
            "outputs": [],
            "stateMutability": "nonpayable",
            "type": "function"
        },
        {
            "inputs": [
                {
                    "internalType": "address",
                    "name": "operator",
                    "type": "address"
                },
                {
                    "internalType": "bool",
                    "name": "approved",
                    "type": "bool"
                }
            ],
            "name": "setApprovalForAll",
            "outputs": [],
            "stateMutability": "nonpayable",
            "type": "function"
        },
        {
            "inputs": [
                {
                    "internalType": "bytes4",
                    "name": "interfaceId",
                    "type": "bytes4"
                }
            ],
            "name": "supportsInterface",
            "outputs": [
                {
                    "internalType": "bool",
                    "name": "",
                    "type": "bool"
                }
            ],
            "stateMutability": "view",
            "type": "function"
        },
        {
            "inputs": [],
            "name": "symbol",
            "outputs": [
                {
                    "internalType": "string",
                    "name": "",
                    "type": "string"
                }
            ],
            "stateMutability": "view",
            "type": "function"
        },
        {
            "inputs": [
                {
                    "internalType": "uint256",
                    "name": "_tokenId",
                    "type": "uint256"
                }
            ],
            "name": "tokenURI",
            "outputs": [
                {
                    "internalType": "string",
                    "name": "",
                    "type": "string"
                }
            ],
            "stateMutability": "view",
            "type": "function"
        },
        {
            "inputs": [
                {
                    "internalType": "address",
                    "name": "from",
                    "type": "address"
                },
                {
                    "internalType": "address",
                    "name": "to",
                    "type": "address"
                },
                {
                    "internalType": "uint256",
                    "name": "tokenId",
                    "type": "uint256"
                }
            ],
            "name": "transferFrom",
            "outputs": [],
            "stateMutability": "nonpayable",
            "type": "function"
        }
    ],
    "bytecode": "0x60806040523480156200001157600080fd5b5060405162004ad938038062004ad983398181016040528101906200003791906200064c565b6040518060400160405280600681526020017f4d454d45525300000000000000000000000000000000000000000000000000008152506040518060400160405280600381526020017f4d454d00000000000000000000000000000000000000000000000000000000008152508160009080519060200190620000bb929190620003b4565b508060019080519060200190620000d4929190620003b4565b5050506040518060800160405280858152602001848152602001838152602001828152506007600082015181600001908051906020019062000118929190620003b4565b50602082015181600101908051906020019062000137929190620003b4565b50604082015181600201556060820151816003015590505060005b8851811015620003785760066040518060c001604052808381526020018b8481518110620001a9577f4e487b7100000000000000000000000000000000000000000000000000000000600052603260045260246000fd5b602002602001015181526020018a8481518110620001f0577f4e487b7100000000000000000000000000000000000000000000000000000000600052603260045260246000fd5b6020026020010151815260200189848151811062000237577f4e487b7100000000000000000000000000000000000000000000000000000000600052603260045260246000fd5b602002602001015181526020018984815181106200027e577f4e487b7100000000000000000000000000000000000000000000000000000000600052603260045260246000fd5b60200260200101518152602001888481518110620002c5577f4e487b7100000000000000000000000000000000000000000000000000000000600052603260045260246000fd5b6020026020010151815250908060018154018082558091505060019003906000526020600020906006020160009091909190915060008201518160000155602082015181600101908051906020019062000321929190620003b4565b50604082015181600201908051906020019062000340929190620003b4565b50606082015181600301556080820151816004015560a08201518160050155505060018162000370919062000862565b905062000152565b5062000390600b6200039e60201b620019871760201c565b505050505050505062000a23565b6001816000016000828254019250508190555050565b828054620003c290620008ff565b90600052602060002090601f016020900481019282620003e6576000855562000432565b82601f106200040157805160ff191683800117855562000432565b8280016001018555821562000432579182015b828111156200043157825182559160200191906001019062000414565b5b50905062000441919062000445565b5090565b5b808211156200046057600081600090555060010162000446565b5090565b60006200047b6200047584620007ce565b620007a5565b905080838252602082019050828560208602820111156200049b57600080fd5b60005b85811015620004ea57815167ffffffffffffffff811115620004bf57600080fd5b808601620004ce898262000608565b855260208501945060208401935050506001810190506200049e565b5050509392505050565b60006200050b6200050584620007fd565b620007a5565b905080838252602082019050828560208602820111156200052b57600080fd5b60005b858110156200055f578162000544888262000635565b8452602084019350602083019250506001810190506200052e565b5050509392505050565b6000620005806200057a846200082c565b620007a5565b9050828152602081018484840111156200059957600080fd5b620005a6848285620008c9565b509392505050565b600082601f830112620005c057600080fd5b8151620005d284826020860162000464565b91505092915050565b600082601f830112620005ed57600080fd5b8151620005ff848260208601620004f4565b91505092915050565b600082601f8301126200061a57600080fd5b81516200062c84826020860162000569565b91505092915050565b600081519050620006468162000a09565b92915050565b600080600080600080600080610100898b0312156200066a57600080fd5b600089015167ffffffffffffffff8111156200068557600080fd5b620006938b828c01620005ae565b985050602089015167ffffffffffffffff811115620006b157600080fd5b620006bf8b828c01620005ae565b975050604089015167ffffffffffffffff811115620006dd57600080fd5b620006eb8b828c01620005db565b965050606089015167ffffffffffffffff8111156200070957600080fd5b620007178b828c01620005db565b955050608089015167ffffffffffffffff8111156200073557600080fd5b620007438b828c0162000608565b94505060a089015167ffffffffffffffff8111156200076157600080fd5b6200076f8b828c0162000608565b93505060c0620007828b828c0162000635565b92505060e0620007958b828c0162000635565b9150509295985092959890939650565b6000620007b1620007c4565b9050620007bf828262000935565b919050565b6000604051905090565b600067ffffffffffffffff821115620007ec57620007eb620009c9565b5b602082029050602081019050919050565b600067ffffffffffffffff8211156200081b576200081a620009c9565b5b602082029050602081019050919050565b600067ffffffffffffffff8211156200084a5762000849620009c9565b5b6200085582620009f8565b9050602081019050919050565b60006200086f82620008bf565b91506200087c83620008bf565b9250827fffffffffffffffffffffffffffffffffffffffffffffffffffffffffffffffff03821115620008b457620008b36200096b565b5b828201905092915050565b6000819050919050565b60005b83811015620008e9578082015181840152602081019050620008cc565b83811115620008f9576000848401525b50505050565b600060028204905060018216806200091857607f821691505b602082108114156200092f576200092e6200099a565b5b50919050565b6200094082620009f8565b810181811067ffffffffffffffff82111715620009625762000961620009c9565b5b80604052505050565b7f4e487b7100000000000000000000000000000000000000000000000000000000600052601160045260246000fd5b7f4e487b7100000000000000000000000000000000000000000000000000000000600052602260045260246000fd5b7f4e487b7100000000000000000000000000000000000000000000000000000000600052604160045260246000fd5b6000601f19601f8301169050919050565b62000a1481620008bf565b811462000a2057600080fd5b50565b6140a68062000a336000396000f3fe608060405234801561001057600080fd5b50600436106101375760003560e01c80637df124a1116100b8578063c772af391161007c578063c772af3914610365578063c87b56dd14610386578063d4f24c5b146103b6578063e2ce1c1b146103c0578063e985e9c5146103de578063eb3a9ef71461040e57610137565b80637df124a1146102c157806395d89b41146102f1578063a22cb4651461030f578063b88d4fde1461032b578063c76d9e7d1461034757610137565b8063284eab59116100ff578063284eab59146101f257806342842e0e146102105780635ecadef31461022c5780636352211e1461026157806370a082311461029157610137565b806301ffc9a71461013c57806306fdde031461016c578063081812fc1461018a578063095ea7b3146101ba57806323b872dd146101d6575b600080fd5b61015660048036038101906101519190612b4d565b61042a565b6040516101639190613359565b60405180910390f35b61017461050c565b6040516101819190613374565b60405180910390f35b6101a4600480360381019061019f9190612b9f565b61059e565b6040516101b19190613299565b60405180910390f35b6101d460048036038101906101cf9190612b11565b6105e4565b005b6101f060048036038101906101eb9190612a0b565b6106fc565b005b6101fa61075c565b6040516102079190613337565b60405180910390f35b61022a60048036038101906102259190612a0b565b610907565b005b61024660048036038101906102419190612b9f565b610927565b604051610258969594939291906135e8565b60405180910390f35b61027b60048036038101906102769190612b9f565b610a73565b6040516102889190613299565b60405180910390f35b6102ab60048036038101906102a691906129a6565b610b25565b6040516102b891906135cd565b60405180910390f35b6102db60048036038101906102d691906129a6565b610bdd565b6040516102e891906135cd565b60405180910390f35b6102f9610bf5565b6040516103069190613374565b60405180910390f35b61032960048036038101906103249190612ad5565b610c87565b005b61034560048036038101906103409190612a5a565b610c9d565b005b61034f610cff565b60405161035c9190613589565b60405180910390f35b61036d610e51565b60405161037d9493929190613396565b60405180910390f35b6103a0600480360381019061039b9190612b9f565b610f7f565b6040516103ad9190613374565b60405180910390f35b6103be61119a565b005b6103c861134a565b6040516103d591906135ab565b60405180910390f35b6103f860048036038101906103f391906129cf565b611522565b6040516104059190613359565b60405180910390f35b61042860048036038101906104239190612b9f565b6115b6565b005b60007f80ac58cd000000000000000000000000000000000000000000000000000000007bffffffffffffffffffffffffffffffffffffffffffffffffffffffff1916827bffffffffffffffffffffffffffffffffffffffffffffffffffffffff191614806104f557507f5b5e139f000000000000000000000000000000000000000000000000000000007bffffffffffffffffffffffffffffffffffffffffffffffffffffffff1916827bffffffffffffffffffffffffffffffffffffffffffffffffffffffff1916145b8061050557506105048261199d565b5b9050919050565b60606000805461051b90613905565b80601f016020809104026020016040519081016040528092919081815260200182805461054790613905565b80156105945780601f1061056957610100808354040283529160200191610594565b820191906000526020600020905b81548152906001019060200180831161057757829003601f168201915b5050505050905090565b60006105a982611a07565b6004600083815260200190815260200160002060009054906101000a900473ffffffffffffffffffffffffffffffffffffffff169050919050565b60006105ef82610a73565b90508073ffffffffffffffffffffffffffffffffffffffff168373ffffffffffffffffffffffffffffffffffffffff161415610660576040517f08c379a000000000000000000000000000000000000000000000000000000000815260040161065790613549565b60405180910390fd5b8073ffffffffffffffffffffffffffffffffffffffff1661067f611a52565b73ffffffffffffffffffffffffffffffffffffffff1614806106ae57506106ad816106a8611a52565b611522565b5b6106ed576040517f08c379a00000000000000000000000000000000000000000000000000000000081526004016106e4906134e9565b60405180910390fd5b6106f78383611a5a565b505050565b61070d610707611a52565b82611b13565b61074c576040517f08c379a000000000000000000000000000000000000000000000000000000000815260040161074390613569565b60405180910390fd5b610757838383611ba8565b505050565b60606006805480602002602001604051908101604052809291908181526020016000905b828210156108fe57838290600052602060002090600602016040518060c0016040529081600082015481526020016001820180546107bd90613905565b80601f01602080910402602001604051908101604052809291908181526020018280546107e990613905565b80156108365780601f1061080b57610100808354040283529160200191610836565b820191906000526020600020905b81548152906001019060200180831161081957829003601f168201915b5050505050815260200160028201805461084f90613905565b80601f016020809104026020016040519081016040528092919081815260200182805461087b90613905565b80156108c85780601f1061089d576101008083540402835291602001916108c8565b820191906000526020600020905b8154815290600101906020018083116108ab57829003601f168201915b50505050508152602001600382015481526020016004820154815260200160058201548152505081526020019060010190610780565b50505050905090565b61092283838360405180602001604052806000815250610c9d565b505050565b600c60205280600052604060002060009150905080600001549080600101805461095090613905565b80601f016020809104026020016040519081016040528092919081815260200182805461097c90613905565b80156109c95780601f1061099e576101008083540402835291602001916109c9565b820191906000526020600020905b8154815290600101906020018083116109ac57829003601f168201915b5050505050908060020180546109de90613905565b80601f0160208091040260200160405190810160405280929190818152602001828054610a0a90613905565b8015610a575780601f10610a2c57610100808354040283529160200191610a57565b820191906000526020600020905b815481529060010190602001808311610a3a57829003601f168201915b5050505050908060030154908060040154908060050154905086565b6000806002600084815260200190815260200160002060009054906101000a900473ffffffffffffffffffffffffffffffffffffffff169050600073ffffffffffffffffffffffffffffffffffffffff168173ffffffffffffffffffffffffffffffffffffffff161415610b1c576040517f08c379a0000000000000000000000000000000000000000000000000000000008152600401610b1390613529565b60405180910390fd5b80915050919050565b60008073ffffffffffffffffffffffffffffffffffffffff168273ffffffffffffffffffffffffffffffffffffffff161415610b96576040517f08c379a0000000000000000000000000000000000000000000000000000000008152600401610b8d906134a9565b60405180910390fd5b600360008373ffffffffffffffffffffffffffffffffffffffff1673ffffffffffffffffffffffffffffffffffffffff168152602001908152602001600020549050919050565b600d6020528060005260406000206000915090505481565b606060018054610c0490613905565b80601f0160208091040260200160405190810160405280929190818152602001828054610c3090613905565b8015610c7d5780601f10610c5257610100808354040283529160200191610c7d565b820191906000526020600020905b815481529060010190602001808311610c6057829003601f168201915b5050505050905090565b610c99610c92611a52565b8383611e0f565b5050565b610cae610ca8611a52565b83611b13565b610ced576040517f08c379a0000000000000000000000000000000000000000000000000000000008152600401610ce490613569565b60405180910390fd5b610cf984848484611f7c565b50505050565b610d076127d4565b6007604051806080016040529081600082018054610d2490613905565b80601f0160208091040260200160405190810160405280929190818152602001828054610d5090613905565b8015610d9d5780601f10610d7257610100808354040283529160200191610d9d565b820191906000526020600020905b815481529060010190602001808311610d8057829003601f168201915b50505050508152602001600182018054610db690613905565b80601f0160208091040260200160405190810160405280929190818152602001828054610de290613905565b8015610e2f5780601f10610e0457610100808354040283529160200191610e2f565b820191906000526020600020905b815481529060010190602001808311610e1257829003601f168201915b5050505050815260200160028201548152602001600382015481525050905090565b6007806000018054610e6290613905565b80601f0160208091040260200160405190810160405280929190818152602001828054610e8e90613905565b8015610edb5780601f10610eb057610100808354040283529160200191610edb565b820191906000526020600020905b815481529060010190602001808311610ebe57829003601f168201915b505050505090806001018054610ef090613905565b80601f0160208091040260200160405190810160405280929190818152602001828054610f1c90613905565b8015610f695780601f10610f3e57610100808354040283529160200191610f69565b820191906000526020600020905b815481529060010190602001808311610f4c57829003601f168201915b5050505050908060020154908060030154905084565b60606000600c60008481526020019081526020016000206040518060c001604052908160008201548152602001600182018054610fbb90613905565b80601f0160208091040260200160405190810160405280929190818152602001828054610fe790613905565b80156110345780601f1061100957610100808354040283529160200191611034565b820191906000526020600020905b81548152906001019060200180831161101757829003601f168201915b5050505050815260200160028201805461104d90613905565b80601f016020809104026020016040519081016040528092919081815260200182805461107990613905565b80156110c65780601f1061109b576101008083540402835291602001916110c6565b820191906000526020600020905b8154815290600101906020018083116110a957829003601f168201915b505050505081526020016003820154815260200160048201548152602001600582015481525050905060006110fe8260600151611fd8565b9050600061110f8360a00151611fd8565b905060006111208460800151611fd8565b90506000611166856020015161113589611fd8565b8760400151878688604051602001611152969594939291906131d2565b604051602081830303815290604052612185565b905060008160405160200161117b9190613277565b6040516020818303038152906040529050809650505050505050919050565b6000600d60003373ffffffffffffffffffffffffffffffffffffffff1673ffffffffffffffffffffffffffffffffffffffff1681526020019081526020016000205490506000600c60008381526020019081526020016000209050600081600301541161123c576040517f08c379a000000000000000000000000000000000000000000000000000000000815260040161123390613489565b60405180910390fd5b600060076002015411611284576040517f08c379a000000000000000000000000000000000000000000000000000000000815260040161127b906134c9565b60405180910390fd5b806005015460076002015410156112a55760006007600201819055506112c4565b80600501546007600201546112ba919061381b565b6007600201819055505b600760030154816003015410156112e45760008160030181905550611302565b60076003015481600301546112f9919061381b565b81600301819055505b7f32bd565ee3f2cb5ddd742bbecd6048d3e9abe90b3827a40c2b72d232e71e3c9d33600760020154836003015460405161133e93929190613300565b60405180910390a15050565b6113526127fc565b6000600d60003373ffffffffffffffffffffffffffffffffffffffff1673ffffffffffffffffffffffffffffffffffffffff168152602001908152602001600020549050600081111561151157600c60008281526020019081526020016000206040518060c0016040529081600082015481526020016001820180546113d790613905565b80601f016020809104026020016040519081016040528092919081815260200182805461140390613905565b80156114505780601f1061142557610100808354040283529160200191611450565b820191906000526020600020905b81548152906001019060200180831161143357829003601f168201915b5050505050815260200160028201805461146990613905565b80601f016020809104026020016040519081016040528092919081815260200182805461149590613905565b80156114e25780601f106114b7576101008083540402835291602001916114e2565b820191906000526020600020905b8154815290600101906020018083116114c557829003601f168201915b50505050508152602001600382015481526020016004820154815260200160058201548152505091505061151f565b6115196127fc565b80925050505b90565b6000600560008473ffffffffffffffffffffffffffffffffffffffff1673ffffffffffffffffffffffffffffffffffffffff16815260200190815260200160002060008373ffffffffffffffffffffffffffffffffffffffff1673ffffffffffffffffffffffffffffffffffffffff16815260200190815260200160002060009054906101000a900460ff16905092915050565b60006115c2600b612343565b90506115ce3382612351565b6040518060c0016040528083815260200160068481548110611619577f4e487b7100000000000000000000000000000000000000000000000000000000600052603260045260246000fd5b9060005260206000209060060201600101805461163590613905565b80601f016020809104026020016040519081016040528092919081815260200182805461166190613905565b80156116ae5780601f10611683576101008083540402835291602001916116ae565b820191906000526020600020905b81548152906001019060200180831161169157829003601f168201915b50505050508152602001600684815481106116f2577f4e487b7100000000000000000000000000000000000000000000000000000000600052603260045260246000fd5b9060005260206000209060060201600201805461170e90613905565b80601f016020809104026020016040519081016040528092919081815260200182805461173a90613905565b80156117875780601f1061175c57610100808354040283529160200191611787565b820191906000526020600020905b81548152906001019060200180831161176a57829003601f168201915b50505050508152602001600684815481106117cb577f4e487b7100000000000000000000000000000000000000000000000000000000600052603260045260246000fd5b90600052602060002090600602016003015481526020016006848154811061181c577f4e487b7100000000000000000000000000000000000000000000000000000000600052603260045260246000fd5b90600052602060002090600602016004015481526020016006848154811061186d577f4e487b7100000000000000000000000000000000000000000000000000000000600052603260045260246000fd5b906000526020600020906006020160050154815250600c60008481526020019081526020016000206000820151816000015560208201518160010190805190602001906118bb929190612832565b5060408201518160020190805190602001906118d8929190612832565b50606082015181600301556080820151816004015560a0820151816005015590505080600d60003373ffffffffffffffffffffffffffffffffffffffff1673ffffffffffffffffffffffffffffffffffffffff16815260200190815260200160002081905550611948600b611987565b7ff9800d462c9b23089be8d715ba26944e8ad9b827bc7f94fffbae6018607ade5a33828460405161197b93929190613300565b60405180910390a15050565b6001816000016000828254019250508190555050565b60007f01ffc9a7000000000000000000000000000000000000000000000000000000007bffffffffffffffffffffffffffffffffffffffffffffffffffffffff1916827bffffffffffffffffffffffffffffffffffffffffffffffffffffffff1916149050919050565b611a108161236f565b611a4f576040517f08c379a0000000000000000000000000000000000000000000000000000000008152600401611a4690613529565b60405180910390fd5b50565b600033905090565b816004600083815260200190815260200160002060006101000a81548173ffffffffffffffffffffffffffffffffffffffff021916908373ffffffffffffffffffffffffffffffffffffffff160217905550808273ffffffffffffffffffffffffffffffffffffffff16611acd83610a73565b73ffffffffffffffffffffffffffffffffffffffff167f8c5be1e5ebec7d5bd14f71427d1e84f3dd0314c0f7b2291e5b200ac8c7c3b92560405160405180910390a45050565b600080611b1f83610a73565b90508073ffffffffffffffffffffffffffffffffffffffff168473ffffffffffffffffffffffffffffffffffffffff161480611b615750611b608185611522565b5b80611b9f57508373ffffffffffffffffffffffffffffffffffffffff16611b878461059e565b73ffffffffffffffffffffffffffffffffffffffff16145b91505092915050565b8273ffffffffffffffffffffffffffffffffffffffff16611bc882610a73565b73ffffffffffffffffffffffffffffffffffffffff1614611c1e576040517f08c379a0000000000000000000000000000000000000000000000000000000008152600401611c1590613409565b60405180910390fd5b600073ffffffffffffffffffffffffffffffffffffffff168273ffffffffffffffffffffffffffffffffffffffff161415611c8e576040517f08c379a0000000000000000000000000000000000000000000000000000000008152600401611c8590613449565b60405180910390fd5b611c998383836123db565b611ca4600082611a5a565b6001600360008573ffffffffffffffffffffffffffffffffffffffff1673ffffffffffffffffffffffffffffffffffffffff1681526020019081526020016000206000828254611cf4919061381b565b925050819055506001600360008473ffffffffffffffffffffffffffffffffffffffff1673ffffffffffffffffffffffffffffffffffffffff1681526020019081526020016000206000828254611d4b919061373a565b92505081905550816002600083815260200190815260200160002060006101000a81548173ffffffffffffffffffffffffffffffffffffffff021916908373ffffffffffffffffffffffffffffffffffffffff160217905550808273ffffffffffffffffffffffffffffffffffffffff168473ffffffffffffffffffffffffffffffffffffffff167fddf252ad1be2c89b69c2b068fc378daa952ba7f163c4a11628f55a4df523b3ef60405160405180910390a4611e0a8383836123e0565b505050565b8173ffffffffffffffffffffffffffffffffffffffff168373ffffffffffffffffffffffffffffffffffffffff161415611e7e576040517f08c379a0000000000000000000000000000000000000000000000000000000008152600401611e7590613469565b60405180910390fd5b80600560008573ffffffffffffffffffffffffffffffffffffffff1673ffffffffffffffffffffffffffffffffffffffff16815260200190815260200160002060008473ffffffffffffffffffffffffffffffffffffffff1673ffffffffffffffffffffffffffffffffffffffff16815260200190815260200160002060006101000a81548160ff0219169083151502179055508173ffffffffffffffffffffffffffffffffffffffff168373ffffffffffffffffffffffffffffffffffffffff167f17307eab39ab6107e8899845ad3d59bd9653f200f220920489ca2b5937696c3183604051611f6f9190613359565b60405180910390a3505050565b611f87848484611ba8565b611f93848484846123e5565b611fd2576040517f08c379a0000000000000000000000000000000000000000000000000000000008152600401611fc9906133e9565b60405180910390fd5b50505050565b60606000821415612020576040518060400160405280600181526020017f30000000000000000000000000000000000000000000000000000000000000008152509050612180565b600082905060005b6000821461205257808061203b90613968565b915050600a8261204b9190613790565b9150612028565b60008167ffffffffffffffff811115612094577f4e487b7100000000000000000000000000000000000000000000000000000000600052604160045260246000fd5b6040519080825280601f01601f1916602001820160405280156120c65781602001600182028036833780820191505090505b5090505b60008514612179576001826120df919061381b565b9150600a856120ee91906139b1565b60306120fa919061373a565b60f81b818381518110612136577f4e487b7100000000000000000000000000000000000000000000000000000000600052603260045260246000fd5b60200101907effffffffffffffffffffffffffffffffffffffffffffffffffffffffffffff1916908160001a905350600a856121729190613790565b94506120ca565b8093505050505b919050565b606060008251905060008114156121ae576040518060200160405280600081525091505061233e565b600060036002836121bf919061373a565b6121c99190613790565b60046121d591906137c1565b905060006020826121e6919061373a565b67ffffffffffffffff811115612225577f4e487b7100000000000000000000000000000000000000000000000000000000600052604160045260246000fd5b6040519080825280601f01601f1916602001820160405280156122575781602001600182028036833780820191505090505b5090506000604051806060016040528060408152602001614031604091399050600181016020830160005b868110156122fb5760038101905062ffffff818a015116603f8160121c168401518060081b905060ff603f83600c1c1686015116810190508060081b905060ff603f8360061c1686015116810190508060081b905060ff603f831686015116810190508060e01b90508084526004840193505050612282565b506003860660018114612315576002811461232557612330565b613d3d60f01b6002830352612330565b603d60f81b60018303525b508484525050819450505050505b919050565b600081600001549050919050565b61236b82826040518060200160405280600081525061257c565b5050565b60008073ffffffffffffffffffffffffffffffffffffffff166002600084815260200190815260200160002060009054906101000a900473ffffffffffffffffffffffffffffffffffffffff1673ffffffffffffffffffffffffffffffffffffffff1614159050919050565b505050565b505050565b60006124068473ffffffffffffffffffffffffffffffffffffffff166125d7565b1561256f578373ffffffffffffffffffffffffffffffffffffffff1663150b7a0261242f611a52565b8786866040518563ffffffff1660e01b815260040161245194939291906132b4565b602060405180830381600087803b15801561246b57600080fd5b505af192505050801561249c57506040513d601f19601f820116820180604052508101906124999190612b76565b60015b61251f573d80600081146124cc576040519150601f19603f3d011682016040523d82523d6000602084013e6124d1565b606091505b50600081511415612517576040517f08c379a000000000000000000000000000000000000000000000000000000000815260040161250e906133e9565b60405180910390fd5b805181602001fd5b63150b7a0260e01b7bffffffffffffffffffffffffffffffffffffffffffffffffffffffff1916817bffffffffffffffffffffffffffffffffffffffffffffffffffffffff191614915050612574565b600190505b949350505050565b61258683836125fa565b61259360008484846123e5565b6125d2576040517f08c379a00000000000000000000000000000000000000000000000000000000081526004016125c9906133e9565b60405180910390fd5b505050565b6000808273ffffffffffffffffffffffffffffffffffffffff163b119050919050565b600073ffffffffffffffffffffffffffffffffffffffff168273ffffffffffffffffffffffffffffffffffffffff16141561266a576040517f08c379a000000000000000000000000000000000000000000000000000000000815260040161266190613509565b60405180910390fd5b6126738161236f565b156126b3576040517f08c379a00000000000000000000000000000000000000000000000000000000081526004016126aa90613429565b60405180910390fd5b6126bf600083836123db565b6001600360008473ffffffffffffffffffffffffffffffffffffffff1673ffffffffffffffffffffffffffffffffffffffff168152602001908152602001600020600082825461270f919061373a565b92505081905550816002600083815260200190815260200160002060006101000a81548173ffffffffffffffffffffffffffffffffffffffff021916908373ffffffffffffffffffffffffffffffffffffffff160217905550808273ffffffffffffffffffffffffffffffffffffffff16600073ffffffffffffffffffffffffffffffffffffffff167fddf252ad1be2c89b69c2b068fc378daa952ba7f163c4a11628f55a4df523b3ef60405160405180910390a46127d0600083836123e0565b5050565b6040518060800160405280606081526020016060815260200160008152602001600081525090565b6040518060c001604052806000815260200160608152602001606081526020016000815260200160008152602001600081525090565b82805461283e90613905565b90600052602060002090601f01602090048101928261286057600085556128a7565b82601f1061287957805160ff19168380011785556128a7565b828001600101855582156128a7579182015b828111156128a657825182559160200191906001019061288b565b5b5090506128b491906128b8565b5090565b5b808211156128d15760008160009055506001016128b9565b5090565b60006128e86128e38461367c565b613657565b90508281526020810184848401111561290057600080fd5b61290b8482856138c3565b509392505050565b60008135905061292281613fd4565b92915050565b60008135905061293781613feb565b92915050565b60008135905061294c81614002565b92915050565b60008151905061296181614002565b92915050565b600082601f83011261297857600080fd5b81356129888482602086016128d5565b91505092915050565b6000813590506129a081614019565b92915050565b6000602082840312156129b857600080fd5b60006129c684828501612913565b91505092915050565b600080604083850312156129e257600080fd5b60006129f085828601612913565b9250506020612a0185828601612913565b9150509250929050565b600080600060608486031215612a2057600080fd5b6000612a2e86828701612913565b9350506020612a3f86828701612913565b9250506040612a5086828701612991565b9150509250925092565b60008060008060808587031215612a7057600080fd5b6000612a7e87828801612913565b9450506020612a8f87828801612913565b9350506040612aa087828801612991565b925050606085013567ffffffffffffffff811115612abd57600080fd5b612ac987828801612967565b91505092959194509250565b60008060408385031215612ae857600080fd5b6000612af685828601612913565b9250506020612b0785828601612928565b9150509250929050565b60008060408385031215612b2457600080fd5b6000612b3285828601612913565b9250506020612b4385828601612991565b9150509250929050565b600060208284031215612b5f57600080fd5b6000612b6d8482850161293d565b91505092915050565b600060208284031215612b8857600080fd5b6000612b9684828501612952565b91505092915050565b600060208284031215612bb157600080fd5b6000612bbf84828501612991565b91505092915050565b6000612bd48383613094565b905092915050565b612be58161384f565b82525050565b6000612bf6826136bd565b612c0081856136eb565b935083602082028501612c12856136ad565b8060005b85811015612c4e5784840389528151612c2f8582612bc8565b9450612c3a836136de565b925060208a01995050600181019050612c16565b50829750879550505050505092915050565b612c6981613861565b82525050565b6000612c7a826136c8565b612c8481856136fc565b9350612c948185602086016138d2565b612c9d81613a9e565b840191505092915050565b6000612cb3826136d3565b612cbd818561370d565b9350612ccd8185602086016138d2565b612cd681613a9e565b840191505092915050565b6000612cec826136d3565b612cf6818561371e565b9350612d068185602086016138d2565b612d0f81613a9e565b840191505092915050565b6000612d25826136d3565b612d2f818561372f565b9350612d3f8185602086016138d2565b80840191505092915050565b6000612d58600b8361372f565b9150612d6382613aaf565b600b82019050919050565b6000612d7b60328361371e565b9150612d8682613ad8565b604082019050919050565b6000612d9e60258361371e565b9150612da982613b27565b604082019050919050565b6000612dc1601c8361371e565b9150612dcc82613b76565b602082019050919050565b6000612de4600e8361372f565b9150612def82613b9f565b600e82019050919050565b6000612e07603e8361372f565b9150612e1282613bc8565b603e82019050919050565b6000612e2a60248361371e565b9150612e3582613c17565b604082019050919050565b6000612e4d60198361371e565b9150612e5882613c66565b602082019050919050565b6000612e7060108361371e565b9150612e7b82613c8f565b602082019050919050565b6000612e9360298361371e565b9150612e9e82613cb8565b604082019050919050565b6000612eb660628361372f565b9150612ec182613d07565b606282019050919050565b6000612ed960328361372f565b9150612ee482613da2565b603282019050919050565b6000612efc60118361371e565b9150612f0782613df1565b602082019050919050565b6000612f1f60048361372f565b9150612f2a82613e1a565b600482019050919050565b6000612f42603e8361371e565b9150612f4d82613e43565b604082019050919050565b6000612f6560208361371e565b9150612f7082613e92565b602082019050919050565b6000612f88600a8361372f565b9150612f9382613ebb565b600a82019050919050565b6000612fab60188361371e565b9150612fb682613ee4565b602082019050919050565b6000612fce60218361371e565b9150612fd982613f0d565b604082019050919050565b6000612ff1601d8361372f565b9150612ffc82613f5c565b601d82019050919050565b6000613014602e8361371e565b915061301f82613f85565b604082019050919050565b600060808301600083015184820360008601526130478282612ca8565b915050602083015184820360208601526130618282612ca8565b915050604083015161307660408601826131b4565b50606083015161308960608601826131b4565b508091505092915050565b600060c0830160008301516130ac60008601826131b4565b50602083015184820360208601526130c48282612ca8565b915050604083015184820360408601526130de8282612ca8565b91505060608301516130f360608601826131b4565b50608083015161310660808601826131b4565b5060a083015161311960a08601826131b4565b508091505092915050565b600060c08301600083015161313c60008601826131b4565b50602083015184820360208601526131548282612ca8565b9150506040830151848203604086015261316e8282612ca8565b915050606083015161318360608601826131b4565b50608083015161319660808601826131b4565b5060a08301516131a960a08601826131b4565b508091505092915050565b6131bd816138b9565b82525050565b6131cc816138b9565b82525050565b60006131dd82612f7b565b91506131e98289612d1a565b91506131f482612d4b565b91506132008288612d1a565b915061320b82612ea9565b91506132178287612d1a565b915061322282612dfa565b915061322e8286612d1a565b915061323982612dd7565b91506132458285612d1a565b915061325082612ecc565b915061325c8284612d1a565b915061326782612f12565b9150819050979650505050505050565b600061328282612fe4565b915061328e8284612d1a565b915081905092915050565b60006020820190506132ae6000830184612bdc565b92915050565b60006080820190506132c96000830187612bdc565b6132d66020830186612bdc565b6132e360408301856131c3565b81810360608301526132f58184612c6f565b905095945050505050565b60006060820190506133156000830186612bdc565b61332260208301856131c3565b61332f60408301846131c3565b949350505050565b600060208201905081810360008301526133518184612beb565b905092915050565b600060208201905061336e6000830184612c60565b92915050565b6000602082019050818103600083015261338e8184612ce1565b905092915050565b600060808201905081810360008301526133b08187612ce1565b905081810360208301526133c48186612ce1565b90506133d360408301856131c3565b6133e060608301846131c3565b95945050505050565b6000602082019050818103600083015261340281612d6e565b9050919050565b6000602082019050818103600083015261342281612d91565b9050919050565b6000602082019050818103600083015261344281612db4565b9050919050565b6000602082019050818103600083015261346281612e1d565b9050919050565b6000602082019050818103600083015261348281612e40565b9050919050565b600060208201905081810360008301526134a281612e63565b9050919050565b600060208201905081810360008301526134c281612e86565b9050919050565b600060208201905081810360008301526134e281612eef565b9050919050565b6000602082019050818103600083015261350281612f35565b9050919050565b6000602082019050818103600083015261352281612f58565b9050919050565b6000602082019050818103600083015261354281612f9e565b9050919050565b6000602082019050818103600083015261356281612fc1565b9050919050565b6000602082019050818103600083015261358281613007565b9050919050565b600060208201905081810360008301526135a3818461302a565b905092915050565b600060208201905081810360008301526135c58184613124565b905092915050565b60006020820190506135e260008301846131c3565b92915050565b600060c0820190506135fd60008301896131c3565b818103602083015261360f8188612ce1565b905081810360408301526136238187612ce1565b905061363260608301866131c3565b61363f60808301856131c3565b61364c60a08301846131c3565b979650505050505050565b6000613661613672565b905061366d8282613937565b919050565b6000604051905090565b600067ffffffffffffffff82111561369757613696613a6f565b5b6136a082613a9e565b9050602081019050919050565b6000819050602082019050919050565b600081519050919050565b600081519050919050565b600081519050919050565b6000602082019050919050565b600082825260208201905092915050565b600082825260208201905092915050565b600082825260208201905092915050565b600082825260208201905092915050565b600081905092915050565b6000613745826138b9565b9150613750836138b9565b9250827fffffffffffffffffffffffffffffffffffffffffffffffffffffffffffffffff03821115613785576137846139e2565b5b828201905092915050565b600061379b826138b9565b91506137a6836138b9565b9250826137b6576137b5613a11565b5b828204905092915050565b60006137cc826138b9565b91506137d7836138b9565b9250817fffffffffffffffffffffffffffffffffffffffffffffffffffffffffffffffff04831182151516156138105761380f6139e2565b5b828202905092915050565b6000613826826138b9565b9150613831836138b9565b925082821015613844576138436139e2565b5b828203905092915050565b600061385a82613899565b9050919050565b60008115159050919050565b60007fffffffff0000000000000000000000000000000000000000000000000000000082169050919050565b600073ffffffffffffffffffffffffffffffffffffffff82169050919050565b6000819050919050565b82818337600083830152505050565b60005b838110156138f05780820151818401526020810190506138d5565b838111156138ff576000848401525b50505050565b6000600282049050600182168061391d57607f821691505b6020821081141561393157613930613a40565b5b50919050565b61394082613a9e565b810181811067ffffffffffffffff8211171561395f5761395e613a6f565b5b80604052505050565b6000613973826138b9565b91507fffffffffffffffffffffffffffffffffffffffffffffffffffffffffffffffff8214156139a6576139a56139e2565b5b600182019050919050565b60006139bc826138b9565b91506139c7836138b9565b9250826139d7576139d6613a11565b5b828206905092915050565b7f4e487b7100000000000000000000000000000000000000000000000000000000600052601160045260246000fd5b7f4e487b7100000000000000000000000000000000000000000000000000000000600052601260045260246000fd5b7f4e487b7100000000000000000000000000000000000000000000000000000000600052602260045260246000fd5b7f4e487b7100000000000000000000000000000000000000000000000000000000600052604160045260246000fd5b6000601f19601f8301169050919050565b7f202d2d204e465420233a20000000000000000000000000000000000000000000600082015250565b7f4552433732313a207472616e7366657220746f206e6f6e20455243373231526560008201527f63656976657220696d706c656d656e7465720000000000000000000000000000602082015250565b7f4552433732313a207472616e736665722066726f6d20696e636f72726563742060008201527f6f776e6572000000000000000000000000000000000000000000000000000000602082015250565b7f4552433732313a20746f6b656e20616c7265616479206d696e74656400000000600082015250565b7f2c20226d61785f76616c7565223a000000000000000000000000000000000000600082015250565b7f222c202261747472696275746573223a205b207b202274726169745f7479706560008201527f223a202244657374726f7920506f696e7473222c202276616c7565223a200000602082015250565b7f4552433732313a207472616e7366657220746f20746865207a65726f2061646460008201527f7265737300000000000000000000000000000000000000000000000000000000602082015250565b7f4552433732313a20617070726f766520746f2063616c6c657200000000000000600082015250565b7f4d454d45522069532054524f4c4c454400000000000000000000000000000000600082015250565b7f4552433732313a2061646472657373207a65726f206973206e6f74206120766160008201527f6c6964206f776e65720000000000000000000000000000000000000000000000602082015250565b7f222c20226465736372697074696f6e223a20225468697320697320616e204e4660008201527f542074686174206c6574732070656f706c6520706c617920696e20746865206760208201527f616d65204d657461766572736520536c6179657221222c2022696d616765223a60408201527f2022000000000000000000000000000000000000000000000000000000000000606082015250565b7f7d2c207b202274726169745f74797065223a202244657374726f79207065722060008201527f7365636f6e64222c202276616c7565223a200000000000000000000000000000602082015250565b7f426f73732069532044457374726f794564000000000000000000000000000000600082015250565b7f7d205d7d00000000000000000000000000000000000000000000000000000000600082015250565b7f4552433732313a20617070726f76652063616c6c6572206973206e6f7420746f60008201527f6b656e206f776e6572206e6f7220617070726f76656420666f7220616c6c0000602082015250565b7f4552433732313a206d696e7420746f20746865207a65726f2061646472657373600082015250565b7f7b226e616d65223a202200000000000000000000000000000000000000000000600082015250565b7f4552433732313a20696e76616c696420746f6b656e2049440000000000000000600082015250565b7f4552433732313a20617070726f76616c20746f2063757272656e74206f776e6560008201527f7200000000000000000000000000000000000000000000000000000000000000602082015250565b7f646174613a6170706c69636174696f6e2f6a736f6e3b6261736536342c000000600082015250565b7f4552433732313a2063616c6c6572206973206e6f7420746f6b656e206f776e6560008201527f72206e6f7220617070726f766564000000000000000000000000000000000000602082015250565b613fdd8161384f565b8114613fe857600080fd5b50565b613ff481613861565b8114613fff57600080fd5b50565b61400b8161386d565b811461401657600080fd5b50565b614022816138b9565b811461402d57600080fd5b5056fe4142434445464748494a4b4c4d4e4f505152535455565758595a6162636465666768696a6b6c6d6e6f707172737475767778797a303132333435363738392b2fa2646970667358221220556793779003beb9774fd367556cf5d60b818c60583b40315dd327da112ee1a664736f6c63430008040033",
    "linkReferences": {},
    "deployedLinkReferences": {}
}